:020000040800F2
:1000000000000220010A0008FD090008A57100088F
:10001000FD090008FD090008FD09000800000000B6
:10002000000000000000000000000000FD090008C2
:10003000FD09000800000000FD0900082971000802
:10004000FD090008FD090008FD090008FD09000878
:10005000FD090008FD090008FD090008FD09000868
:10006000FD090008FD090008FD090008F14E00081F
:10007000FD4E0008553C0008094F0008154F0008C8
:10008000A96B000821440008FD090008FD090008CB
:10009000FD090008FD090008FD090008FD09000828
:1000A000FD090008FD090008FD090008FD09000818
:1000B0001957010825570108315701085544000810
:1000C000FD09000861440008FD0900088D5A000878
:1000D000995A0008DD690008096A00083D6A0008AD
:1000E000FD090008FD09000800000000FD090008E6
:1000F000FD090008FD090008FD090008FD090008C8
:10010000FD0900089D5200083D570108A55A000846
:10011000716A0008A56A0008FD090008FD090008C9
:10012000FD090008FD090008C95A0008FD5A000829
:10013000DD6B0008FD090008FD090008FD09000845
:1001400000000000000000000000000000000000AF
:10015000FD090008FD090008FD090008D96A00082A
:100160006D440008FD090008397100085D71000840
:10017000FD09000881710008FD090008FD0900085B
:10018000FD090008FD0900080D6B0008416B00081F
:10019000B15A0008BD5A0008FD090008FD09000811
:1001A000FD090008FD090008FD090008FD09000817
:1001B000114C0008FD090008FD090008FD090008B0
:1001C000FD090008FD090008FD090008FD090008F7
:1001D000FD090008FD090008FD090008FD090008E7
:1001E000FD090008FD090008FD090008FD090008D7
:1001F000FD090008FD090008FD090008FD090008C7
:10020000FD090008FD090008FD090008FD090008B6
:10021000FD090008FD090008FD090008FD090008A6
:10022000FD090008FD090008FD09000800000000A4
:10023000FD090008FD09000800000000FD09000894
:10024000FD090008FD090008FD090008FD09000876
:10025000FD090008FD090008FD090008FD09000866
:10026000FD090008FD090008FD090008FD09000856
:10027000FD090008FD090008756B0008000000007A
:10028000FD090008FD090008FD0900080000000044
:0802900000000000FD09000858
:1002A00010B5054C237833B9044B13B10448AFF3B0
:1002B00000800123237010BDE8030024000000002B
:1002C000BC82010808B5034B1BB103490348AFF3D7
:1002D000008008BD00000000EC030024BC8201087F
:1002E00001F0FF01102A2BDB10F0070F08D010F8E7
:1002F000013B013A8B422DD010F0070F42B3F6D1EB
:10030000F0B441EA012141EA014122F007047FF003
:1003100000070023F0E80256083C85EA010586EA5A
:10032000010685FA47F5A3FA87F586FA47F6A5FA96
:1003300087F68EB9EED1F0BC01F0FF0102F00702A2
:1003400032B110F8013B013A83EA010313B1F8D14D
:100350000020704701387047002D06BF354603382E
:10036000073815F0010F07D1013015F4807F02BF67
:10037000013015F4C03F0130F0BC0138704700BFB8
:1003800081F0004102E000BF83F0004330B54FEA46
:1003900041044FEA430594EA050F08BF90EA020FB3
:1003A0001FBF54EA000C55EA020C7FEA645C7FEA46
:1003B000655C00F0E2804FEA5454D4EB5555B8BF69
:1003C0006D420CDD2C4480EA020281EA030382EADA
:1003D000000083EA010180EA020281EA0303362D6C
:1003E00088BF30BD11F0004F4FEA01314FF4801C3F
:1003F0004CEA113102D0404261EB410113F0004F51
:100400004FEA03334CEA133302D0524263EB430307
:1004100094EA050F00F0A780A4F10104D5F1200EA5
:100420000DDB02FA0EFC22FA05F2801841F1000100
:1004300003FA0EF2801843FA05F359410EE0A5F1D4
:1004400020050EF1200E012A03FA0EFC28BF4CF005
:10045000020C43FA05F3C01851EBE37101F00045BB
:1004600007D54FF0000EDCF1000C7EEB00006EEBC8
:100470000101B1F5801F1BD3B1F5001F0CD3490852
:100480005FEA30004FEA3C0C04F101044FEA4452A9
:1004900012F5800F80F09A80BCF1004F08BF5FEA30
:1004A000500C50F1000041EB045141EA050130BD10
:1004B0005FEA4C0C404141EB0101013C28BFB1F522
:1004C000801FE9D291F0000F04BF01460020B1FA6D
:1004D00081F308BF2033A3F10B03B3F120020CDA40
:1004E0000C3208DD02F1140CC2F10C0201FA0CF01E
:1004F00021FA02F10CE002F11402D8BFC2F1200C83
:1005000001FA02F120FA0CFCDCBF41EA0C01904038
:10051000E41AA2BF01EB0451294330BD6FEA040481
:100520001F3C1CDA0C340EDC04F11404C4F120026C
:1005300020FA04F001FA02F340EA030021FA04F37E
:1005400045EA030130BDC4F10C04C4F1200220FAD5
:1005500002F001FA04F340EA0300294630BD21FA13
:1005600004F0294630BD94F0000F83F4801306BFD9
:1005700081F480110134013D4EE77FEA645C18BFCD
:100580007FEA655C29D094EA050F08BF90EA020F64
:1005900005D054EA000C04BF1946104630BD91EA5C
:1005A000030F1EBF0021002030BD5FEA545C05D15F
:1005B0004000494128BF41F0004130BD14F580049E
:1005C0003CBF01F5801130BD01F0004545F0FE4112
:1005D00041F470014FF0000030BD7FEA645C1ABF47
:1005E000194610467FEA655C1CBF0B46024650EA7E
:1005F000013406BF52EA033591EA030F41F40021AA
:1006000030BD00BF90F0000F04BF0021704730B52F
:100610004FF4806404F132044FF000054FF0000104
:1006200050E700BF90F0000F04BF0021704730B5C5
:100630004FF4806404F1320410F0004548BF40429A
:100640004FF000013EE700BF42004FEAE2014FEAEF
:1006500031014FEA02701FBF12F07F4393F07F4FCA
:1006600081F06051704732F07F4208BF704793F0CD
:100670007F4F04BF41F40021704730B54FF46074E0
:1006800001F0004521F000411CE700BF50EA0102E3
:1006900008BF704730B54FF000050AE050EA01028C
:1006A00008BF704730B511F0004502D5404261EBFC
:1006B00041014FF4806404F132045FEA915C3FF43D
:1006C000D8AE4FF003025FEADC0C18BF03325FEADA
:1006D000DC0C18BF033202EBDC02C2F1200300FA8B
:1006E00003FC20FA02F001FA03FE40EA0E0021FAB0
:1006F00002F11444BDE600BF53B94AB9002908BF4E
:1007000000281CBF4FF0FF314FF0FF3000F074B9EC
:10071000ADF1080C6DE904CE00F006F8DDF804E058
:10072000DDE9022304B070472DE9F047089D044637
:100730008E46002B4DD18A42944669D9B2FA82F294
:1007400052B101FA02F3C2F1200120FA01F10CFAD0
:1007500002FC41EA030E94404FEA1C48210CBEFB08
:10076000F8F61FFA8CF708FB16E341EA034306FB91
:1007700007F199420AD91CEB030306F1FF3080F020
:100780001F81994240F21C81023E63445B1AA4B26D
:10079000B3FBF8F008FB103344EA034400FB07F70F
:1007A000A7420AD91CEB040400F1FF3380F00A8150
:1007B000A74240F207816444023840EA0640E41B45
:1007C00000261DB1D4400023C5E900433146BDE8F1
:1007D000F0878B4209D9002D00F0EF800026C5E993
:1007E000000130463146BDE8F087B3FA83F6002EAB
:1007F0004AD18B4202D3824200F2F980841A61EB23
:10080000030301209E46002DE0D0C5E9004EDDE740
:1008100002B9FFDEB2FA82F2002A40F09280A1EB28
:100820000C014FEA1C471FFA8CFE0126200CB1FB7D
:10083000F7F307FB131140EA01410EFB03F0884276
:1008400008D91CEB010103F1FF3802D2884200F203
:10085000CB804346091AA4B2B1FBF7F007FB101195
:1008600044EA01440EFB00FEA64508D91CEB040433
:1008700000F1FF3102D2A64500F2BB800846A4EB8E
:100880000E0440EA03409CE7C6F12007B34022FA79
:1008900007FC4CEA030C20FA07F401FA06F31C43A8
:1008A000F9404FEA1C4900FA06F3B1FBF9F8200CB5
:1008B0001FFA8CFE09FB181140EA014108FB0EF0FB
:1008C000884202FA06F20BD91CEB010108F1FF3A4B
:1008D00080F08880884240F28580A8F10208614457
:1008E000091AA4B2B1FBF9F009FB101144EA014165
:1008F00000FB0EFE8E4508D91CEB010100F1FF3410
:100900006CD28E456AD90238614440EA0840A0FBA7
:100910000294A1EB0E01A142C846A64656D353D07D
:100920005DB1B3EB080261EB0E0101FA07F722FAA1
:1009300006F3F1401F43C5E9007100263146BDE8CA
:10094000F087C2F12003D8400CFA02FC21FA03F32D
:10095000914001434FEA1C471FFA8CFEB3FBF7F0AE
:1009600007FB10360B0C43EA064300FB0EF69E42D3
:1009700004FA02F408D91CEB030300F1FF382FD26C
:100980009E422DD9023863449B1B89B2B3FBF7F614
:1009900007FB163341EA034106FB0EF38B4208D9ED
:1009A0001CEB010106F1FF3816D28B4214D9023E2E
:1009B0006144C91A46EA004638E72E46284605E74C
:1009C0000646E3E61846F8E64B45A9D2B9EB02081D
:1009D00064EB0C0E0138A3E74646EAE7204694E7AD
:1009E0004046D1E7D0467BE7023B614432E73046E0
:1009F00009E76444023842E7704700BFFEE700BFE2
:100A00000B480C4A904203D0121A0B4915F07EFD98
:100A10000A480B4A904203D0121A002115F084FDB7
:100A200006F018FE15F046FD01F01EFCFEE700BFC3
:100A300000000024E8030024F0820108E8030024F9
:100A4000E8CF0024034B03EB800203445268187B79
:100A50005368184714060024074B1A5C52B903EB7D
:100A6000800219184FF0010C526803F800C0087B8F
:100A700013681847002070471406002430B4054C52
:100A800004EB800504446D68207BAC68A44630BC50
:100A9000604700BF1406002430B4054C04EB800509
:100AA00004446D68207BEC68A44630BC604700BFFE
:100AB0001406002410B404689CB1217884462246B0
:100AC0001F2913D93A2911D012F8013F1F2B0ED933
:100AD0003A2BF9D10134A1F13000A24201D1012811
:100AE0000CD94FF0FF305DF8044B70470B463A2BA2
:100AF000F0D0044B18785DF8044B70470132CCF805
:100B00000020F8E7040400242DE9F041456B00F1D2
:100B10003808044601232A4641464078FFF7BCFFC7
:100B2000C0B9A26A0746236AAA1AE0709A420ED296
:100B3000A678012E01D80AE0236A1D44013E012354
:100B400041462A466078FFF7A7FF012EF4D13846C8
:100B5000BDE8F08101273846BDE8F08138B5C3789B
:100B600004460D4663B901232A4604F13801607832
:100B7000FFF784FF10B101204FF0FF35656338BDEA
:100B8000FFF7C2FF0028EED038BD00BF70B54FF0B0
:100B9000FF3600230446B142C37046630CD00D46B5
:100BA0000A46012300F138014078FFF767FF10B1D2
:100BB0000420666370BD65634AF65523B4F8362297
:100BC0009A421AD194F83830E92B07D0A36B0D4A1A
:100BD00003F0FF13934201D0022070BDD4F86E30B1
:100BE000094A23F07F43934209D0D4F88A00074B87
:100BF000984214BF0220002070BD032070BD002069
:100C000070BD00BFEB009000464154004641543394
:100C10000023F0B50B6085B00E461446FFF74AFF7F
:100C2000051EC0F2BC808C4B53F82570002F00F0DD
:100C3000C380376004F0FE043B787BB17878FFF71F
:100C400001FFC6070AD4002C00F0A28010F00404B3
:100C500000F09E800A24204605B0F0BDE8B20023D3
:100C600078703B70FFF7F8FEC50700F194800CB177
:100C70004407EFD400213846FFF788FF02286DD0E3
:100C8000042800F09080012800F281800025B7F848
:100C90004330B3F5007F7AD1B7F84E2002B9FA6D30
:100CA00097F848303A62591EBB7001296FD897F8FF
:100CB000451088B27881002869D0481E084266D164
:100CC000B7F8496030073E8161D1B7F84B0000B9F1
:100CD000B86DB7F846E0BEF1000F58D002FB03F341
:100CE0000EEB16141C44A04251D3001B8842B0FBEB
:100CF000F1FC4CD34FF6F5718C455FD840F6F57199
:100D00000EEB05002C447D628C450CF102013C6326
:100D1000F961B86273D8002E39D0034401EB410069
:100D200001F00101FB6201EB5001012001F2FF1112
:100D3000B2EB512F2BD34FF0FF338022C7E904339E
:100D40003A71464A0021464C1388FC600C46013338
:100D50003870B9619BB21380FB8019E06C4607F5CF
:100D6000FB7307F2362520461A79114602B19968BD
:100D7000103340F8041B9D42F6D104F1100654F8DC
:100D8000045B03208DB9B442F9D104280BD00D24A3
:100D9000204605B0F0BD0324204605B0F0BD0B246D
:100DA000204605B0F0BD0124F2E729463846FFF79A
:100DB000EDFE0128E7D86AE70C24E9E70EEB050110
:100DC0000CF102032C447D62B962B7F862103C63F7
:100DD0003143FB61DBD19B00796E03F2FF13F962B3
:100DE000B2EB532FD3D3B7F868204FF0FF338021F5
:100DF000012A3971C7E9043308D00320A1E7002E86
:100E0000C5D0034449000220FB628FE7691C7B6B5D
:100E1000994204D03846FFF7A1FE0028EDD14AF6EA
:100E20005523B7F8362200219A423971E5D1BA6BC1
:100E30000C4B9A42E1D103F1FF53D7F81C2203F582
:100E4000005320339A42D8D1D7F820220320D7F874
:100E50002432C7E9043274E7080400241004002493
:100E6000140400245252614130B585B015460190FA
:100E700003A800910391FFF71DFE031E1BDB0F4C1F
:100E800054F8231009B100220A70019959B10022C7
:100E9000012D44F823100A700AD101A96846FFF712
:100EA000B7FE05B030BD084644F8231005B030BD8C
:100EB000104605B030BD0B2005B030BD080400243D
:100EC000144B9A7B012A01D90120704793F80EC078
:100ED00000225FFA8CFC03F80C2093F80EC003EBA1
:100EE0008C0CCCF8040093F80EC0987B9C448CF8D2
:100EF0000C2000F1010C30305FFA8CFC83F80EC03E
:100F00004FF03A0C2F23087081F801C010468B7007
:100F1000CA70704714060024704700BF704700BFB6
:100F2000704700BF49424FF480621430C9B215F0D7
:100F3000FBBA00BF704700BF402070478020704759
:100F400010B5044640F2144114F091FF204610BD44
:100F50002DE9F041B02482B000F1080600F110053F
:100F600000F11408002728468DF80740013439465F
:100F700003F002F9642301220DF107013046E4B2C7
:100F800004F0EAFF394628468DF8077003F0F4F8BC
:100F9000012264230DF10701304604F0DDFF102328
:100FA000394628468DF8073003F0E6F8642301221D
:100FB0000DF10701304604F0CFFF0121284603F070
:100FC000DBF88022414664233046904404F0C4FF9D
:100FD000B82CC7D102B0BDE8F08100BF2DE9F04FB9
:100FE00085B0A1F1200504AC9DF83870009104E9AA
:100FF0000C00EBB25E2B00F29580036880465D4AE0
:10100000DB689DF8084093429DF8096040F09480A9
:101010008020B8F804302344834200F38380D8F85A
:101020000030554A9B68934240F088804020B8F8D1
:10103000062093190192834274DC002E00F089800F
:1010400006FB05F56FF00040039B964628442E44AE
:10105000B8F804A003EB4000023B03EB460B30F86A
:10106000026FBCB30EF007034FF0010C4FEADE0233
:1010700051460CFA03FC0AF114034FFA8CFC03EB03
:10108000C21200236FEA0C0942440EE07F2907D800
:10109000BEF13F0F04D815789FB14CEA05051570D5
:1010A0000133013201319C4214D006FA03F52D04BC
:1010B000ECD47F29F4D8BEF13F0FF1D81578002F7A
:1010C000EBD0013309EA0505013201319C4202F8F7
:1010D000015CEAD158450EF1010EC0D1D8F80030BC
:1010E00054442449DA68A4B28A422DD18020844233
:1010F0001CD29B68204AA8F80440934221D140208A
:10110000019B834207D3D8F800301B4A9B68934267
:1011100029D13F230193DDE90003A8F8063005B08B
:10112000BDE8F08F002005B0BDE8F08FDA68114906
:101130008A4211D17F24DCE798476AE74046984706
:1011400075E740469847DBE740469047D8F80030BF
:10115000CDE7B8F804A0C1E7404690470138D8F879
:10116000003084B2C5E740469847013883B2019306
:10117000D1E700BF3D0F0008390F00087F291ED8B6
:101180003F2A1CD86BB1D3084FF0010C02F00702C4
:1011900001EBC3130CFA02F2C1180B7D1A430A7556
:1011A0007047D3084FF0010C02F0070201EBC313A4
:1011B0000CFA02FCC1180A7D22EA0C020A7570477B
:1011C0002DE9F04F83B05C1A0C9E002C9DF83490F2
:1011D000A6EB0208B8BF6442B8F1000FB8BFC8F16F
:1011E00000088B428CBF4FF0010A4FF0FF3A964245
:1011F000A4EB080C51D84FF0FF357F2B019512D886
:101200003F2E10D8F50806F0070E012703EBC51591
:101210000544B9F1000F47D007FA0EF795F814E02E
:1012200047EA0E072F75964201D18B4229D0C8F1AB
:1012300000077F2914D83F2A12D8D50802F0070BDF
:101240004FF0010E01EBC5150544B9F1000F1BD09D
:101250000EFA0BFE95F814B04EEA0B0E85F814E06A
:10126000B7EB4C0F4FEA4C0502DAACEB080C5144DB
:10127000AC4202DD019DA4442A449942D9D1964250
:10128000D7D103B0BDE8F08F0EFA0BFB95F814E050
:101290002EEA0B0E85F814E0E2E701257F2B01957D
:1012A000C5D83F2EAED9C2E707FA0EFE2F7D964273
:1012B00027EA0E072F75B8D0B9E700BF000000007D
:1012C0002DE9F04F2DED068B83B01F4680460D466D
:1012D0009DF8503016460193139B002BC0F22182DB
:1012E000129A134406EE103ADDED127AB8EEC66B90
:1012F0009FEDCD4BB8EEE77B9FEDCD5B27EE047BFA
:1013000026EE046B87EE050B86EE05ABF7EEC08B81
:10131000B0EE680A14F0B0FD07EE907AB7EECAABF3
:10132000F8EE679AB0EE408AB0EE680A14F0A8FFB3
:1013300060EE698AB0EE4A0A14F09EFDB0EE409A63
:10134000B0EE4A0A14F09CFF20EE690A29EE888A62
:1013500029EE899A70EE687AF0EE006A39EE487AE2
:1013600067EEA77AE7EE077AF4EEE67AF1EE10FA86
:1013700006D5139BB42B40F396804FF0010901E092
:101380004FF00009012478424FF0000C0095E31B58
:10139000214627462246A340B9F1000F6AD14242B6
:1013A00006EE90CACCF1000107EE102AB8EEE66A0C
:1013B00007EE901A06EE900AB8EEC77A139A66EE18
:1013C000084AF8EEE77AB42A27EE284AF8EEE66AE9
:1013D00067EE885A74EEC43A26EEA85A26EE096AD9
:1013E00066EE806A67EE897A27EE007AF5EEC03AFB
:1013F00040F3F280F1EE10FA00F17F8176EE473A89
:1014000074EEC54AF5EEC03AF1EE10FAF5EEC04AB8
:10141000CCBF01220022F1EE10FA00F1778136EE06
:10142000666A35EEC55AB5EEC06AF1EE10FAB5EE51
:10143000C05ACCBF01210021F1EE10FA00F16F81FA
:1014400077EEE66AF5EEC06AF1EE10FACCBF01273E
:10145000002775EEC45AF5EEC05AF1EE10FA00F10D
:10146000478177EEC77AF5EEC07AF1EE10FACCBF7D
:1014700001240024002A40F08A80002964D1BFB9E9
:10148000C4BB9C4558DB0CF1010C03EB4C0E1CEB70
:10149000000F0EF1010E00F0C08098424FDB734642
:1014A00000287FF779AF03B0BDEC068BBDE8F08F65
:1014B000009DA6EB0C0E00EB050ABAF17F0FDFD8FA
:1014C000BEF13F0FDCD84FEADE0B019D0AEBCB1AD1
:1014D000002D00F0B1800EF0070BC2444FF0010E5A
:1014E0000EFA0BFE9AF814B04EEA0B0E8AF814E0CE
:1014F000002CC6D0009DA6EB0C0EA5EB000ABAF19D
:101500007F0FBED8BEF13F0FBBD84FEADE0B019D67
:101510000AEBCB1A002D00F0AE800EF0070BC24490
:101520004FF0010E9C450EFA0BFE9AF814B04EEAED
:101530000B0E8AF814E0A6DA98429E46AFDA013024
:101540000EEB40030133ABE7009D0CEB060E00EB06
:10155000050ABAF17F0F92D8BEF13F0F8FD84FEA3C
:10156000DE0B019D0AEBCB1A002D73D00EF0070B9A
:10157000C2444FF0010E0EFA0BFE9AF814B04EEA78
:101580000B0E8AF814E0002F3FF47AAF90E7009D2D
:101590000CEB060EA5EB000ABAF17F0F3FF66DAF1C
:1015A000BEF13F0F3FF669AF4FEADE0B019D0AEB3C
:1015B000CB1A002D6DD00EF0070BC2444FF0010E78
:1015C0000EFA0BFE9AF814B04EEA0B0E8AF814E0ED
:1015D00000293FF454AFB7E7F1EE10FA7ED44A4643
:1015E00074EEC54AF5EEC04AF1EE10FA6CD4002153
:1015F00035EEC55AB5EEC05AF1EE10FA5AD40027AE
:1016000075EEC45AF5EEC05AF1EE10FA3FF529AF67
:101610000024002A3FF431AFB9E798428FDB002362
:101620003BE700BFAFF300807A008BFCFA21094052
:101630000000000000806640C2444FF0010B0EF035
:10164000070E0BFA0EFE9AF814B02BEA0E0E8AF86B
:1016500014E015E7C2444FF0010B0EF0070E0BFA31
:101660000EFE9AF814B02BEA0E0E8AF814E0002F42
:101670003FF406AF1CE7C2444FF0010B0EF0070E1B
:101680000BFA0EFE9AF814B02BEA0E0E8AF814E04C
:10169000F7E6C2444FF0010B0EF0070E0BFA0EFEF8
:1016A0009AF814B02BEA0E0E8AF814E000293FF4E1
:1016B000E6AE49E777EEE66AF5EEC06AF1EE10FABB
:1016C000CCBF012700279BE736EE666AB5EEC06AFD
:1016D000F1EE10FACCBF0121002189E776EE473AFE
:1016E000F5EEC03AF1EE10FACCBF0122002277E706
:1016F0000124002A3FF4C1AE49E774EEC54A012235
:10170000F5EEC04AF1EE10FA7FF589AE35EEC55A16
:101710000121B5EEC05AF1EE10FA7FF591AE012726
:1017200097E6DDE91223134406EE102A1293139B69
:101730005B421393D8E500BF2DE9F04F89B008ACA8
:101740009DF84870019104E90C000B78002B00F023
:10175000AB801A469DF818809DF81930064645461C
:1017600090460393079B0593A8F12004E3B25E2BF8
:1017700000F29E8033685E4ADB68934240F09B80B3
:101780008020B3882B44834200F392803368594A07
:101790009B68934240F092804020F188039A029126
:1017A0008B18834200F38480002A00F0918002FBB2
:1017B00004F46FF00049059BA1441444B6F804B04A
:1017C00003EB4909023BCDF8108003EB44030C46C0
:1017D0009A4639F802CFA5B304F007034FF0010E83
:1017E000E20859460EFA03FE0BF114034FFA8EFE7F
:1017F00003EBC21200236FEA0E0832440DE07F298A
:1018000006D83F2C04D8107897B14EEA000010702B
:10181000013301320131AB4213D00CFA03F0000462
:10182000EDD47F29F4D83F2CF2D81078002FECD0DB
:10183000013308EA000001320131AB4202F8010C29
:10184000EBD1D14504F10104C3D1DDF81080326839
:101850000BEB05042649D368A4B28B4234D1802017
:10186000844204D3D36822498B423AD17F249368BF
:10187000204AB480934224D14020029B834206D365
:1018800033681C4A9B68934225D13F230293029BF5
:10189000F380019B1878404507D113F8018F01931D
:1018A000B8F1000F7FF460AF002009B0BDE8F08F01
:1018B0004FF00008EDE73046984762E7304698471A
:1018C0006BE730469847D8E7304698473268C7E715
:1018D000B6F804B0BBE730469847013883B20293AC
:1018E000D5E7304698470138326884B2BFE700BF79
:1018F0003D0F0008390F00082DE9F04F964683B0E0
:1019000006461F461EF8014B91460D460C9B0D984E
:101910009DF83880002C00F010814FF0000C1EF86C
:10192000014B0CF1010C002CF9D11FFA8CFC3C7816
:101930007A7814FB0CFC11B20FFA8CFC2CEAEC7CCC
:10194000082800F2E580DFE800F04A5DBAD174842F
:101950009DA405009A88B3F800A09244B3F906202C
:10196000AAEB0C0A002A1FFA8AFA49DB5C88F1808C
:1019700004EB6204A6F804C0A6F800A0A4EB510191
:101980008CB274802B68DFF8D4B1DA685A454CD138
:101990008020504505D8DA685A4540F0D5804FF090
:1019A0007F0A9B68A5F804A0DFF8B4A1534540F076
:1019B000C1804020A04205D82B689B68534540F069
:1019C000BE803F24EC804946CDF80080284697E849
:1019D0000C00FFF7B1FE304603B0BDE8F08FB3F95D
:1019E0000420B3F800A0002AB8BF01320AEB620A53
:1019F000B3F90620AAEB6C0A002A1FFA8AFAB5DAB4
:101A00000132B3E7B3F900A0B3F902402B68DFF865
:101A10004CB1DA68A6F800A01FFA8AFA5A45748019
:101A2000A6F804C0A4B2F180B2D0284690472B6833
:101A3000AFE75C88D888B3F900A00444A6F804C0D6
:101A4000A6F800A01FFA8AFAA21AF18094B2748054
:101A500098E7B3F90400B3F800A00028B8BF01303C
:101A60000AEB600AAAEB6C0A5C881FFA8AFADB8828
:101A7000A6F804C01C44F180A6F800A0A21A94B2F3
:101A800074807FE7B3F800A098888244AAEB0C0A20
:101A9000EAE7B3F906205C88002AB3F900A0F180D8
:101AA000B8BF0132A6F800A0A6F804C01FFA8AFA4F
:101AB00004EB6204A4EB51018CB2748062E7B3F9C9
:101AC0000420B3F800A0002AB3F90240A6F804C02D
:101AD000B8BF01327480F180A4B20AEB620AAAEBAB
:101AE0006C0C1FFA8CFAA6F800A04BE7B3F800A024
:101AF0009A88B3F902409244A6F804C07480A4B254
:101B0000AAEB0C0CF1801FFA8CFAA6F800A039E7BA
:101B10002B680024DFF844B0DA6834805A457480BA
:101B2000B480F48017D19B68DFF834A0AC805345B3
:101B30003FF448AF284698473CE7A446F7E62846D6
:101B40009847013884B23DE72846904701382B6812
:101B50001FFA80FA25E7A24667E700BF3D0F00089D
:101B6000390F00082DE9F04F87B09DF84850109CC0
:101B70002E4601959DF844509EB399422ED8994621
:101B8000A24228D87F29164694BF0023012308E0EB
:101B90009CF814804EEA080E8CF814E00136B4422A
:101BA00019D33F2EFAD8002BF8D14FEAD60C06F005
:101BB000070E4FF0010801EBCC1C08FA0EFE84441E
:101BC000002DE5D19CF814B001362BEA0E0AB44280
:101BD0008CF814A0E5D201318945D1D207B0BDE817
:101BE000F08FA3EB0108B8F1000FB8BFC8F10008EF
:101BF0009942C0F04E817F2B4FF0FF3A94BF0026F0
:101C000001263F2A009694BF002701270297A6B914
:101C10009FB9D60802F0070C012703EBC61606444D
:101C2000002D00F0948107FA0CF796F814C047EAEB
:101C30000C073775002602960096994200F09781AE
:101C4000464694468E46BEF17F0F16D8BCF13F0F34
:101C500013D84FEADC070CF0070B4FF001090EEB2D
:101C6000C7170744002D00F0398109FA0BF997F8DE
:101C700014B049EA0B0987F81490770018BFD644CE
:101C8000B84502DD46440CF1FF3C7345DBD16245AB
:101C9000D9D100260496A4EB0209009FB9F1000FE8
:101CA000B8BFC9F100093F2C94BF00260126A2420B
:101CB000C9F100080396C0F02381002F40F0508145
:101CC000002E40F04D814FF0FF360096E60803EB02
:101CD000C6160644002D00F01E814FF0010C04F0E2
:101CE00007070CFA07F796F814C047EA0C07377590
:101CF00000260396A24200F03D81C44616461F46C8
:101D000005927F2F15D83F2E13D84FEAD60E06F036
:101D1000070B4FF0010A07EBCE1E8644002D00F0A2
:101D2000E6800AFA0BFA9EF814B04AEA0B0A8EF81B
:101D300014A0B8EB4C0F4FEA4C0E02DAACEB090CD6
:101D4000013FBEF1000F01D0009A1644BB42D8D12A
:101D5000B442D6D1059AA1EB030EBEF1000FB8BF75
:101D6000CEF1000E7F2994BF4FF0000A4FF0010A18
:101D700099428CBF4FF001094FF0FF39BAF1000FC3
:101D800013D1039E8EB9E60801EBC6160644002D5A
:101D900000F0D3804FF0010C04F007070CFA07F7AE
:101DA00096F814C047EA0C073775049E26BB7746A1
:101DB00026467F2B14D83F2E12D84FEAD60C06F0B9
:101DC000070B4FF0010803EBCC1C8444002D73D0AB
:101DD00008FA0BF89CF814B048EA0B088CF8148049
:101DE0005FEA470C18BF4B44E64501DD7744013EEE
:101DF0009942DED1B442DCD1A2EB040EBEF1000F59
:101E0000B8BFCEF1000EA2428CBF4FF001084FF0D8
:101E1000FF38CEF1000CBAF1000F0ED1029B63B96E
:101E2000D30802F00707012601EBC3130344002D7A
:101E30007CD0BE401F7D3E431E75019B002B7FF46E
:101E4000CDAE66460B467F2B12D83F2C10D8E70844
:101E500004F0070A4FF0010903EBC7170744A5B3C5
:101E600009FA0AF997F814A049EA0A0987F81490C0
:101E7000BCEB460F4FEA460702DAA6EB0E06013B23
:101E800007B144449942DED1A242DCD107B0BDE89B
:101E9000F08F3F2A4FF0010A94BF002601267F2BC6
:101EA000029694BF002701270097002E7FF4C8AE4A
:101EB000002F3FF4AEAEC3E608FA0BFB9CF814808B
:101EC00028EA0B088CF814808AE709FA0AFA97F8CE
:101ED000149029EA0A0987F81490C9E709FA0BFB5C
:101EE00097F8149029EA0B0987F81490C5E60AFAC6
:101EF0000BFB9EF814A02AEA0B0A8EF814A018E730
:101F000097BB8EBB01260096E60803EBC616064477
:101F1000002D7FF4E2AE012704F0070C039507FAC9
:101F20000CFC377D27EA0C073775E3E606FA07F75E
:101F30001E7D26EA07061E757FE7012704F0070CC1
:101F400007FA0CFC377D27EA0C0737752DE707FAEF
:101F50000CFC377D029527EA0C07009537756CE677
:101F60004FF0FF360096C5E601260096C5E601262D
:101F7000049690E601260196EDE600BF84B02DE9B7
:101F8000F04182B00125064604460DF12408857211
:101F9000274688E80E00BDF84C3026F8083F30464A
:101FA00002F000F8BDF84E30A57127F8043F38461E
:101FB00001F0F8FF4146204603F046FF0021384675
:101FC00002F0DAF80A2005F05FF92946384602F0F7
:101FD000D3F80A2005F058F9AE23304600218DF8D9
:101FE000073002F0C9F82A460DF1070164232046A4
:101FF00003F0B2FFD523304600218DF8073002F000
:10200000BBF82A460DF107016423204603F0A4FF24
:102010008023304600218DF8073002F0ADF82A46C3
:102020000DF107016423204603F096FFA8233046F4
:1020300000218DF8073002F09FF82A460DF10701C4
:102040006423204603F088FF3F23304600218DF8AB
:10205000073002F091F82A460DF10701642320466B
:1020600003F07AFFDA23304600218DF8073002F0C2
:1020700083F82A460DF107016423204603F06CFF24
:102080001223304600218DF8073002F075F82A46F9
:102090000DF107016423204603F05EFF0021D323E6
:1020A00030460F468DF8073002F066F82A46642362
:1020B0000DF10701204603F04FFF394630468DF8F9
:1020C000077002F059F82A460DF1070164232046F3
:1020D00003F042FF4023394630468DF8073002F0C6
:1020E0004BF82A460DF107016423204603F034FF24
:1020F000A623394630468DF8073002F03DF82A46CF
:102100000DF107016423204603F026FFA42339467E
:1021100030468DF8073002F02FF82A460DF10701FE
:102120006423204603F018FF8D23394630468DF88E
:10213000073002F021F82A460DF1070164232046FA
:1021400003F00AFF1423394630468DF8073002F0B9
:1021500013F82A460DF107016423204603F0FCFE24
:10216000A123394630468DF8073002F005F82A469B
:102170000DF107016423204603F0EEFEC823394623
:1021800030468DF8073001F0F7FF2A460DF10701C0
:102190006423204603F0E0FE8123394630468DF863
:1021A000073001F0E9FF2A460DF1070164232046BC
:1021B00003F0D2FE8F23394630468DF8073001F008
:1021C000DBFF2A460DF107016423204603F0C4FE1D
:1021D000D923394630468DF8073001F0CDFF2A4625
:1021E0000DF107016423204603F0B6FE252339468E
:1021F00030468DF8073001F0BFFF2A460DF1070188
:102200006423204603F0A8FEDB23394630468DF8D0
:10221000073001F0B1FF2A460DF107016423204683
:1022200003F09AFE3423394630468DF8073001F02A
:10223000A3FF2A460DF107016423204603F08CFE1C
:10224000AF23394630468DF8073001F095FF6423FF
:102250002A460DF10701204603F07EFE02B0BDE8DC
:10226000F04104B0704700BF2DE9F04F4FF0000976
:102270008C484FF0010A8C4E4946DFF86C822DEDF8
:10228000028BBFB000F032FB884B0DF14C0B1EAD42
:10229000C3F8009004F0F6FF40F60632844B044683
:1022A00009202F46CDE9132300F0B6FB0346162084
:1022B000ADF8743000F0B0FB0B23CDF85CA0ADF8A6
:1022C00076000DF1840EADF84E300823EC461893DD
:1022D0000223CDE91999CDE91B33CDE91599BBE866
:1022E0000F000FC5BBE80F000FC59BE8070085E88E
:1022F0000700BEE80F00ACE80F009EE80F008CE876
:102300000F0006F1080097E80E00FFF737FEF7EE22
:10231000000A9FED680AB8E80F000FC798E80F00A1
:1023200008F1100587E80F004A461EA9624801F02F
:10233000CFF80DF1780CF7EE000A9FED5E0A0FCD95
:10234000ACE80F0095E80F0087E80F004A461EA989
:102350005A4801F0BDF8A8F1780000F023FA0323F1
:1023600010A9574810938DF84890CDF844A002F07A
:10237000E3FE5146534804F0B1FE524652495348D9
:10238000FEF772FD524801F04BF8464A92F844308D
:1023900003B1536E45490A6813440B6004F072FFA1
:1023A000034645481D460B9301F0C2F84348B0EE82
:1023B000408A01F0BDF8F0EE408A9FED3E1A454894
:1023C000B0EE480AF0EE680A01F030F9354800F046
:1023D000EDF92B1B632BD5D9DFED3F7A00243F4964
:1023E0001EA868EEA78A009428EE278AFDEEE87AF8
:1023F00017EE903AFDEEC87A17EE902A14F052F9D3
:102400004FF480622146364814F08EF8354A9DF824
:102410007830517892F800B052680C910D92746047
:10242000002B00F09B801EAA5D460992203BDAB289
:102430005E2A00F29380B6F804A00AEB0509B9F110
:10244000800F00F38B80F2880C990A920A44402A8C
:1024500000F3848000296CD00C9A6FF0004E0A9C27
:1024600002FB03F39E4413440D9AA2F1020B02EB0C
:102470004E0E0BEB430B3EF8027F002D55D004F0BF
:1024800007034FF0010CE20851460CFA03FC0AF175
:1024900014034FFA8CFC03EBC21200236FEA0C0802
:1024A000324430E0BC0E0024280600242406002418
:1024B0000105060A000000009CA10024D4A100240C
:1024C0000CA200243C0A0024E86D0108400A002404
:1024D000FC0E0024940F002400007F43FC6D0108D3
:1024E0003C06002474030024240F00247F2905D80F
:1024F0003F2C03D8107808EA000010700133013235
:102500000131AB4211D007FA03F00004EED47F2969
:10251000F4D83F2CF2D810780133013201314CEA63
:102520000000AB4202F8010CEDD1DE4504F10104DC
:10253000A1D10A9B1FFA89F9099A3F2B28BF3F2393
:10254000B9F17F0FF38028BF4FF07F0912F8013FE8
:10255000A6F804900992002B7FF468AF604B1EA888
:1025600060491A6814F09EF85F494FF400129DF814
:102570007830487891F800B049680C900D917260FD
:10258000002B71D01EAA5D460992203BDAB25E2A6A
:102590006AD8B6F804A00AEB0509B9F1800F63DC2C
:1025A000F2880C990A920A44402A5DDC002947D03F
:1025B0000C9A6FF0004E0A9C02FB03F39E441344F6
:1025C0000D9AA2F1020B02EB4E0E0BEB430B3EF801
:1025D000027F8DB304F007034FF0010CE20851466F
:1025E0000CFA03FC0AF114034FFA8CFC03EBC21241
:1025F00000236FEA0C0832440CE07F2905D83F2CF9
:1026000003D8107808EA000010700133013201315C
:10261000AB4211D007FA03F00004EED47F29F4D8BE
:102620003F2CF2D810780133013201314CEA00001E
:10263000AB4202F8010CEDD1F34504F10104C6D11F
:102640000A9B1FFA89F9099A3F2B28BF3F23B9F14A
:102650007F0FF38028BF4FF07F0912F8013FA6F8E3
:1026600004900992002B90D1204FB0240025002126
:102670001F488DF83F4001F07FFD642301220DF1DA
:102680003F011C4803F068FC194829468DF83F506B
:1026900001F072FD012264230DF13F011548013460
:1026A00003F05AFC1023294611488DF83F3001F001
:1026B00063FD642301220DF13F010E4803F04CFC41
:1026C00001210B48E4B201F057FD80223946642312
:1026D0000848174403F040FCB82CC7D10B9C51E6C6
:1026E000240600240C6E0108740300243C06002418
:1026F000380600243006002470B51E4C00251E4EFE
:1027000004F5C070256065612562E56300F0C6FED2
:102710001A4A40F20F731A492046C4F8382204F5C9
:102720001472A4F83C3240F20113C4F89051C4F87A
:102730004852C4F84C52C4E99023324613F092FB3D
:10274000104B1148324611490360856013F08AFB33
:1027500032460F490F4813F085FB32460C490E48AC
:1027600013F080FB32460D490D48BDE8704013F070
:1027700079BB00BFBC0E0024000000240080707FE5
:10278000210F00081C6E010828060024350F0008E0
:10279000190F00089CA10024D4A100241D0F0008DB
:1027A0000CA20024183001F0E9B900BF10B50446AE
:1027B000D83000F06BFF04F59670BDE8104000F0D3
:1027C00065BF00BFF0B54FF481718FB000F1D8073D
:1027D00001254FF4C0624FF4E063ADF8081000F536
:1027E000967402993846ADF80C2008AEADF810305A
:1027F0000095DDE9032300F0F1FE40F201134FF4F0
:1028000080722046ADF814304FF48063059900952E
:102810000BADADF81820ADF81C30DDE9062300F053
:10282000DDFE3046072105F095F896E8070085E8BB
:1028300007002946384600F013FF96E8070085E8B0
:1028400007002946204600F00BFF384600F01EFF27
:1028500020460FB0BDE8F04000F018BF2DE9F04170
:1028600040F2024304460222002504F1180704F155
:10287000A8062DED028B8EB09FED1B8AADF80C30B3
:1028800005A8039900F058FF02220DF12600ADF8CB
:102890001020049900F050FF0423022205A93846B5
:1028A00000F05EFF04F1680204F18803C4E92A2302
:1028B0002946384656F8048B01F076F90146204641
:1028C000019100F0DBF80023F0EE480A0199404640
:1028D0001A4600F0F3FC25B10EB0BDEC028BBDE84A
:1028E000F0810125E4E700BF6F12033B2DE9F041C1
:1028F00004469AB00027019100F08CF80199204617
:1029000000F07CF940F6061304F1B0069FED400A92
:10291000ADF8143004F1C0053046059900F0C4FE4E
:102920004FF4007328469FED3A0AADF8183004F5CD
:10293000C878069900F0B8FE40F6033240F2016311
:102940009FED330AADF8082004F140000299ADF87C
:102950000C70C4F8D0600FAEC4F8D45007ADADF819
:102960001030DDE9032300F02BFD2046FFF72AFF9E
:102970002046FFF773FF284600F090FD01230DF17C
:102980002C0E04F5C07C1593189347F61223169766
:1029900019930223179395E80F008CE80F008EE837
:1029A0000F0086E80F00BDF840301490ADF84E30AF
:1029B000BDF84230D4E9625EADF84C30C4E9655EE2
:1029C000BEF1000F04D072463946284613F0ACFD24
:1029D00013A9404604F0B8F904F5D27000F072FD76
:1029E0003021204600F02EF8D4F8A850204600F000
:1029F00045F8284600F0B8FCD4F8AC50204600F06A
:102A00003DF828461AB0BDE8F04100F0ADBC00BF6B
:102A100000000000704700BF202882B009D8084B92
:102A200003EB400213F81030507843EA002002B064
:102A3000704701230C2043EA002002B0704700BF1A
:102A4000506E010838B500F1140504462DED028BD7
:102A5000284600F00FFC284600F01AFC2846B0EE8D
:102A6000408A00F003FCD0ED007AF8EE677A88EE39
:102A7000277ABDEC028B84ED0E7A38BD90ED0E0AFC
:102A8000704700BF10B540F203338EB000244FF6FC
:102A90000B7240F20341ADF8083009A80123ADF8EC
:102AA0001020ADF824202246ADF80C1000940299B5
:102AB00007940C94CDE90544CDE90A4401F076F978
:102AC00004A8012322460399009401F06FF909A894
:102AD00001F052FA10B901200EB010BD04A801F0A7
:102AE0004BFAA0420CBF022020460EB010BD00BF22
:102AF0002DE9F04103239AB0012700240646CDE9D1
:102B000014373B4BCDE9104340F20453CDE916474F
:102B1000ADF84830FFF7B6FFB842054625D0022889
:102B200045D040F60132334B0DF12C081894ADF826
:102B30002C200B981997CDF84A3000F0E3F810A933
:102B400006F13C0002F0ECF9302003224FF07E53F6
:102B500041460D930E93CDE90B02F26B06F1140082
:102B600000F04CFB1AB0BDE8F0811023214A06A901
:102B700006908DF828300DF12C081F4BCDF84A2017
:102B800007930294CDE91804CDE9080402A801F0E6
:102B900073FC0823029A03A94046ADF80C508DF847
:102BA0000E40049505930B9400F0ECF8C7E7002065
:102BB0000121104B0DF12C083A460094CDF84A3013
:102BC0004FF60B730C94ADF82C302346CDE9180169
:102BD00040F601314046ADF818100699CDE90D4494
:102BE00001F0E4F82146404601F0D2F9A7E700BF22
:102BF00004020404040604030704010B2DE9F04752
:102C000004462DED028B82B000294DD0012140F207
:102C1000011200230091ADF804208DF80630364AE9
:102C20000127364B04F10409354904F12908626093
:102C300040F20272A36040F60663E16004F1250AE7
:102C4000A4F82520A4F82930278284F8277084F876
:102C50002B7004F0B5FC054604F018FB69460646E7
:102C600050BB4DB304F130008DF8067004F030FC19
:102C7000072D3CD104F114052046FFF739FF284603
:102C800000F006FB2846B0EE408A00F0EFFAD0EDE7
:102C9000007AF8EE677A88EE277A84ED0E7A02B031
:102CA000BDEC028BBDE8F08740F2011300918DF876
:102CB0000610ADF80430B2E704F1300004F008FC6F
:102CC000072D11D04946204601F01EFE0EB9002DF9
:102CD000D0D1504601F066F9404601F063F904F1A5
:102CE000120000F079F9C5E7002EF2D1C2E749469B
:102CF000204601F009FEBDE70508050905070506A0
:102D0000050A060610B584B003460124ADF8040098
:102D100003A8ADF80C30ADF80E4001F043F92146A0
:102D200003A801F029FA204604F0AEFA002103A816
:102D300001F022FA204604F0A7FA214603A801F088
:102D40001BFA04B010BD00BF10B5C2F3002384B05D
:102D50000C46017C8DF80D2043EA4402FA2402233C
:102D60008DF80C2003AA009401F01CFC18B101247A
:102D7000204604B010BD04460A2004F085FA20461F
:102D800004B010BD034670B543F8042B044684B06C
:102D900007C983E80700A37983B91A210B461E22CD
:102DA000FA2523742046ADF80C20022303AA0095CF
:102DB00001F0F8FB28B1012004B070BD1B210B46C7
:102DC000EDE70A2004F060FA4FF4B85200950223B0
:102DD000ADF80C20204603AA217C01F0E3FB00287B
:102DE000E9D10A2004F050FA41F202720095022360
:102DF000ADF80C20204603AA217C01F0D3FB00286B
:102E0000D9D10A2004F040FA042200950223ADF83B
:102E10000C20204603AA217C01F0C4FB0028CAD163
:102E20000A2004F031FA062200950223ADF80C20A6
:102E3000204603AA217C01F0B5FB0028BBD10A2063
:102E400004F022FA41F2082200950223ADF80C208A
:102E5000204603AA217C01F0A5FB0028ABD10A2063
:102E6000064604F011FA0095022303AA217C2046AD
:102E7000ADF80C6001F096FB00289CD1304604F0C0
:102E800003FA009522790C232046002A8DF80C3095
:102E900003AA4FF0020314BF622142218DF80D10E6
:102EA000217C01F07FFB002885D1304604F0ECF94D
:102EB0002279D4E902310B43DBB20AB943F0400373
:102EC00062790AB143F020030E22FA258DF80D3005
:102ED0002046009502238DF80C2003AA217C01F0E6
:102EE00061FB00287FF467AF0A2004F0CDF91022BF
:102EF00000950223ADF80C20204603AA217C01F0A6
:102F000051FB00287FF457AF0A2004F0BDF91221CD
:102F100000950223ADF80C1003AA217C204601F095
:102F200041FB00287FF447AF0A2004F0ADF90122ED
:102F300009212046FFF708FF003818BF01203BE7B2
:102F4000F0B5102387B0234C01220025012600276D
:102F500002A920460195CDE902234FF48052CDE924
:102F600004670CF0C3F9642005F0B0F802A94FF42F
:102F700080522046CDE9046702261027CDE902677A
:102F80000CF0B4F90322102302A92046CDE9022354
:102F900000230422CDE904234FF480520CF0A6F95B
:102FA00040F23223042202A9019310232046CDE9E6
:102FB0000223019A012305924FF4805204930CF0EE
:102FC00095F940F6060120460CF0B0F9284607B006
:102FD000F0BD00BF18A200241C4B00221C494FF07A
:102FE000400C30B5054689B00220596007219A602F
:102FF0001A620124DA620A224FF4006EDC60069243
:103000002022CDE9000104200821CDE9020103209E
:103010001021CDE9040108206946C3E904024FF4F8
:10302000C072181DC3E906C24FF48052C3E909E219
:103030000CF032F938B92846FFF782FF003818BF84
:10304000012009B030BD204609B030BD14A20024D3
:1030500040410052614A0021D0B513688EB00A91F8
:10306000002B40F0B9805E4B01214FF683700C2499
:1030700011600221D3F8D4200026032742F48052A5
:10308000C3F8D420D3F8D42002F480520092009ADE
:10309000D3F8E02042F01002C3F8E020D3F8E0209B
:1030A00002F010020192019AD3F8E02042F04002AF
:1030B000C3F8E020D3F8E02002F040020292029A26
:1030C000D3F8E02042F00802C3F8E020D3F8E02073
:1030D00002F008020392039AD3F8E02042F48072CF
:1030E000C3F8E020D3F8E02002F480720492049A3E
:1030F000D3F8E02042F08002C3F8E020D3F8E020CB
:1031000002F080020592059AD3F8E02042F02002F6
:10311000C3F8E020D3F8E02002F020020692069ADD
:10312000D3F8E02042F00402C3F8E020D3F8E03006
:103130000C9403F0040307930323079A0B93CDE940
:10314000080108A9274806F047FE48F23712022373
:1031500008A925480C94CDE90823CDE90A6706F0B3
:103160003BFE4CF20372022308A920480C94CDE9DF
:103170000823CDE90A6706F02FFE40F2FF62022322
:1031800008A91B480C94CDE90823CDE90A6706F08D
:1031900023FE4FF60C72022308A916480C94CDE9C1
:1031A0000823CDE90A6706F017FE4FF63F02022317
:1031B00008A911480C94CDE90823CDE90A6706F067
:1031C0000BFE2022022308A90A480C94CDE90A67C5
:1031D000CDE9082306F000FE0EB0D0BD10A20024F9
:1031E000004402580010025800180258000C0258FF
:1031F00000200258001C02580014025830B5184C28
:10320000154685B0046004F1080EEC460FC98EE83F
:103210000F00D4ED047AF5EEC07A8CE80F00F1EEE1
:1032200010FA1ADDB7EE006A94ED057A27EE277AD8
:10323000C6EE276A84ED0D7AC4ED0C6A6DB12046A6
:1032400040F8185F01F064FF064903690020064A50
:103250002162A262E36005B030BD012005B030BD3F
:103260004CA200240020003000000030006808302C
:10327000704700BFB1F5807F03680A4628BF4FF44E
:103280008072B1F5807F9A6094BF00200120704762
:103290000068183001F03EBF10B4074B4FF07E516C
:1032A00030240022032019619C60D8605DF8044B33
:1032B0005961C3E9062270474CA20024F6EE007A59
:1032C0009FED166A20EE207A0160F7EE006A80ED2D
:1032D000036A80ED020A27EE277AC6EE877AF4EEBB
:1032E000E67AF1EE10FA11DDF0EE667A4FF07E51DB
:1032F0004FF0000C02760022C0ED017AC0F814C035
:10330000016143768276C0ED070A7047F4EEC67A13
:10331000F1EE10FAEAD5F0EE467AE7E70000000099
:103320000268037E128807EE902AFBEEC87A1BB172
:10333000B7EE007A77EE677AD0ED056A90ED047A01
:1033400077EEE67A437E67EE877A0BB1F1EE677A25
:1033500090ED030A90ED017A77EEC07AA7EE270A86
:1033600080ED030A704700BF837E80ED020AABB98F
:10337000D0ED077A27EE800AF6EE007AB7EE007AF3
:1033800020EE270AC7EE007AF4EEC77AF1EE10FAC3
:1033900007DDF0EE477AC0ED017A7047DFED067A7F
:1033A000E8E7F5EEC07AF1EE10FAF4D5DFED037A36
:1033B000C0ED017A704700BF6F12033B00000000B0
:1033C00030B585B004460025ADF80C10ADF80820E6
:1033D000ADF8043003F056FFBDF80C204FF48073B5
:1033E000206004F118002283BDF808206383E38382
:1033F000A283257100F0D6FD04F11C0000F0D2FD7F
:103400009FED060A019904F1080000F04DF94FF60E
:10341000FF736562238405B030BD00BF000000006B
:10342000F8B5044603F02EFF002623682671834278
:1034300005D104F10800BDE8F84000F04FB90127BC
:1034400094F82050206004F11800BD40277100F06E
:1034500085FE6DB2284394F82150BD4084F82000C9
:1034600004F11C0000F07AFE94F820306DB2666220
:1034700003F003032843022BC0B284F8210009D0D3
:1034800000F003000228D4D1002BD2D14FF0FF333B
:103490006362CEE78307CCD16762CAE7074A118827
:1034A00030B481800024064D91884FF4807285608D
:1034B0000460C180C26030BC704700BF8C6D0108E1
:1034C0000040003000220A2302700371704700BFE1
:1034D000DFED167A8C46B4EE670A10B504468646D0
:1034E000F1EE10FA2DED028B80ED080A48BFB0EE28
:1034F000670AC0ED090AB0EE608A80F83420BCE8A3
:103500000F00AEE80F009CE80F008EE80F0012F0ED
:1035100053FEF0EE407AB0EE480AC4ED0A7A12F09B
:103520004BFE84ED0B0ABDEC028B10BD95BFD6336C
:1035300090F8343010B50446032B4BD8DFE803F085
:103540003B2A1502FFF7ECFE60EE006AD4ED087A24
:1035500094ED097A26EE800A37EE677AE0EE077A74
:10356000C4ED0C7AB0EE670A10BDFFF7D9FE94EDFA
:103570000A7AD4ED0B7A77EEC77AA0EE277AB0EE0E
:10358000470A12F0A7FDF0EE407A84ED0C0AB0EE87
:10359000670A10BDFFF7C4FED4ED087A94ED097AEE
:1035A00020EE000A37EE677AE0EE077AB0EE670A9F
:1035B000C4ED0C7A10BDFFF7B3FED4ED087A94ED9C
:1035C000097A37EE677AE0EE077AB0EE670AC4ED63
:1035D0000C7A10BDD0ED0C7AC4E700BF30B585B0D1
:1035E00004469FED110A9DF82050ADF80C10039988
:1035F000ADF808202A46ADF804308DED000A11F030
:10360000EDFE9DED000A2A46029904F11C0011F01E
:10361000E5FE9DED000A2A46019904F1380005B047
:10362000BDE8304011F0DABE00007A4410B52DED4F
:10363000028BF0EE608A0446B0EE418A11F0F2FE91
:1036400004F11C00B0EE680A11F0ECFEB0EE480A7E
:1036500004F13800BDEC028BBDE8104011F0E2BE71
:1036600038B50C46054691ED000A11F0DBFE94EDED
:10367000010A05F11C0011F0D5FE94ED020A05F1D6
:103680003800BDE8384011F0CDBE00BF10B504468B
:1036900011F0DAFE04F11C0011F0D6FE04F138003E
:1036A000BDE8104011F0D0BE70B5044682B0C1F341
:1036B0000726CDB2ADF8041003F0E4FD4FF480729C
:1036C0004FF001232060A01DA571A280E671A360C8
:1036D00002B0BDE8704000F065BC00BF38B50446DC
:1036E00003F0D0FD002223682271834210D0012212
:1036F000A57AE37A954020602271A01D6DB243B98E
:1037000000F02CFD40B22843C0B27F28A0720AD03E
:1037100038BD00F023FDB0FA80F040092843C0B264
:103720007F28A072F4D103F0ADFD07EE900AF8EE09
:10373000677AC4ED037A38BD00B583B04FF0000E50
:103740004FF0030C4274ADF80410BDF8043080F85B
:1037500010E0A0F802C0038003B05DF804FB00BFD6
:103760002DE9F04FDFF81C8300258DB0C04C0370AD
:1037700008F140034260074601920E462022294686
:103780004046C4F86831C4F86481CDE90255CDE9FA
:103790000455CDE90655CDE90855CDE90A5512F095
:1037A000C3FE2022294604F5A170C4F83151C4F8A3
:1037B0003551C4F83951C4F83D5112F0B5FE019BA2
:1037C00084F8485284F830317A68002A6AD02B464F
:1037D00004F59871454606F1100A9E46F01856F811
:1037E00003B0E2180EF1010ED0F80CC0D0F804902E
:1037F000D0F8088044F803B0C2F80CC04FF0000CB9
:10380000C2F80490C2F80880008A25F802CB108222
:103810001AF8032001F8012F002A70D07A684FF0BF
:1038200001001233724584F84802D7D84FF4802241
:1038300090489DF8043008214FF000084FF000092F
:10384000C4F884310023C4E95B020122C4F8743156
:1038500084F88031C4E95E2194F84812C4E964898F
:10386000A9B3C4F89821002284F8813184F8883102
:103870003B78C4E96722002B38D0012200200121C7
:10388000013B84F8A421C4E96C01082B30D8DFE89F
:1038900013F0BD00C200C700CC00D100D600DB0091
:1038A000E100E8009DF804300121C4F87421C4F857
:1038B00084314FF4802384F880216E4AC4E95B236D
:1038C00008230022C4E95E130023C4E96423012312
:1038D000002284F88131002384F888310323C4F85E
:1038E00098313B78C4E96722002BC6D184F8A43113
:1038F000614805F023F8034638B1FFBEFEE77A6859
:10390000123372453FF66AAF90E702A95A48029314
:1039100005F072F98246002876D1042240F2FF7148
:103920000A90CDE9081294F83021002A00F0F380C3
:103930004FF006080AEBCA034FEACA0904EB430337
:103940005B7C072B07D8DFE803F0595C5653504DDA
:103950004A04072307930FFA8AF6D14406EBC606FA
:1039600004EB490904EB46077500384600F01AFBE2
:1039700099F81030042B00F3AA80022B00F3BD80CD
:1039800000F0B98004EB0A03002283F8202114F828
:103990001630002B78D0022B00F08A80012B40F0EB
:1039A000B2807B78012B00F0B080002B334B18BF26
:1039B000002305A93048CDE9053804F0EBFB0028C9
:1039C00040F0AC800AF1010A94F830315FFA8AFACB
:1039D000534540F2A0802A4B53F82A80AAE70623D9
:1039E0000793B8E705230793B5E704230793B2E7E6
:1039F00003230793AFE702230793ACE70023079362
:103A0000A9E701230793A6E7FFBEFEE703224023B1
:103A1000C4E96A236CE707226023C4E96A2367E7E5
:103A20000F228023C4E96A2362E71F22A023C4E98E
:103A30006A235DE73F22C023C4E96A2358E77F2257
:103A4000E023C4E96A2353E7FF224FF48073C4E9FB
:103A50006A234DE740F2FF124FF49073C4E96A23E2
:103A600046E740F2FF324FF4A073C4E96A233FE710
:103A700088A2002400200240F4A300240002B02504
:103A8000946E0108004100307B78062B37D0072B5D
:103A90003DD0022B4AD0032B4AD0002B4CD0012B17
:103AA00048D0042B4AD0052B254B18BF002380E7B4
:103AB0007B78042B25D0052B2BD08BB3012B31D059
:103AC000022B31D0032B1F4B18BF002371E70323B8
:103AD000043504EB0A0B4FF0000925448BF8203124
:103AE000284609F1010900F05DFA9BF82031043500
:103AF0004B45F5DC4BE70123EAE70223E8E7124BED
:103B000057E7124B55E7002353E7114B51E7114B91
:103B10004FE7114B4DE70DB0BDE8F08FFFBEFEE75C
:103B20000E4B46E70E4B44E70E4B42E70E4B40E789
:103B30000E4B3EE70E4B3CE70E4B3AE70E4B38E799
:103B40000000B84F002090360800900C1000C01004
:103B50002000F0148000501D000180210004002A84
:103B60000008302E001060320040C03A0080F03E65
:103B700000005247000021430000844B38B5094C37
:103B800040F2FF724FF0011104F5B675284604F0BB
:103B9000E1FF94F83021D4F864112846BDE838409C
:103BA00004F04CBD88A20024034B0F29D3F8640114
:103BB00098BF00EB4100704788A20024214B0268A7
:103BC0009A4200D07047204A00232048D2F8D810EB
:103BD00030B51F4C41F0200183B0C4F8D00109205A
:103BE00004F5E875C4E975034FF48060C2F8D81095
:103BF000D2F8D8204FF40061C4E9773094F8480235
:103C000002F02002C4F8E4114FF4005198420192EE
:103C10002846C4F8E811C4E97C33019B14BF002393
:103C20004FF48073C4F8EC3105F00CFA08B1FFBE14
:103C3000FEE704F5B673C4F8B851C4F8083203B00F
:103C400030BD00BF00200240004402584000024046
:103C500088A20024014805F06DBD00BF58A40024CF
:103C600002682DE9F84F4B4B9A4201D0BDE8F88F1E
:103C7000494D95F84832002BF8D095F83031002B9B
:103C800077D0002405F10C0905F5A17605F59877A4
:103C9000A04613E003F0010117F811BCA9F10800D8
:103CA00000F06AFABBF1010F25D895F830310134E4
:103CB00009F112090236A2B293422BD917F8012F4B
:103CC000002AF4D0D5F864310021327833F814009A
:103CD000D5F8683103EB041323F81200338801335D
:103CE0009BB233805FFA83FA3A789A42D2D88A46F6
:103CF000A6F80080D0E7CAF34001A9F1040000F063
:103D00003BFABBF1020FCAF38001CED0484600F067
:103D100033FACAE7002395F848022049092298425D
:103D2000C5F8D8314FF48060C5F8D011C5F8D4215A
:103D30004FF400614FF40052C5F8DC3108BF4FF476
:103D40008073C5F8E821C5E9780100221448C5E967
:103D50007B32C5F8F42105F075F908B1FFBEFEE726
:103D600095F83021D5F864110E48BDE8F84F04F0FD
:103D700065BC0A4909224FF48060C5F8D831C5E90D
:103D800074124FF400614FF40052C5E97730C5E971
:103D90007912DAE70020024088A2002440000240A5
:103DA00058A40024F4A30024704700BF10B592B0BB
:103DB000ADF804100180C9B2149C0B29C460C0E99D
:103DC00001233FD090F801C0BCF10F0F3AD8022A6E
:103DD0003FD0032A02D0012A00D000220E92012BEC
:103DE00002D0022B18BF0023022C0F932CD0032CDF
:103DF0002AD0012C28D000230A29109327D85C4A06
:103E000002EB812202610A2914D8DFE801F0A395B0
:103E100087796B5D4F4133250600564BD3F8E01090
:103E200041F48061C3F8E010D3F8E03003F480631C
:103E30000C930C9B01230DA9104603FA0CF30D9370
:103E400005F0CAFF12B010BD0A291094D7D900227C
:103E5000D8E711220E92C2E7464BD3F8E01041F4A6
:103E60000071C3F8E010D3F8E03003F400730B9353
:103E70000B9BDFE73F4BD3F8E01041F48071C3F8B0
:103E8000E010D3F8E03003F480730A930A9BD1E783
:103E9000384BD3F8E01041F08001C3F8E010D3F8BC
:103EA000E03003F080030993099BC3E7314BD3F85B
:103EB000E01041F04001C3F8E010D3F8E03003F027
:103EC00040030893089BB5E72A4BD3F8E01041F074
:103ED0002001C3F8E010D3F8E03003F0200307938B
:103EE000079BA7E7234BD3F8E01041F01001C3F87C
:103EF000E010D3F8E03003F010030693069B99E737
:103F00001C4BD3F8E01041F00801C3F8E010D3F8DF
:103F1000E03003F008030593059B8BE7154BD3F8BE
:103F2000E01041F00401C3F8E010D3F8E03003F0F2
:103F300004030493049B7DE70E4BD3F8E01041F09B
:103F40000201C3F8E010D3F8E03003F0020303935A
:103F5000039B6FE7074BD3F8E01041F00101C3F872
:103F6000E010D3F8E03003F001030293029B61E715
:103F7000000002580044025808B501214378006946
:103F8000994089B206F030F9003818BF012008BD09
:103F900001230A464178006903FA01F189B206F06B
:103FA00029B900BF8378022B30B504468FB037D0D3
:103FB000032B33D0012B31D000230A93E378012B5C
:103FC0002AD0022B28D000230B93002320460C93E9
:103FD00003F0D0FC0546204603F0D4FC237809907A
:103FE000082B13D8DFE803F01F3245586B7E91A4ED
:103FF0000500594BD3F8E02042F48072C3F8E0206A
:10400000D3F8E03003F480730893089B09A928468D
:1040100005F0E2FE0FB030BD0B93D6E70A93CDE773
:1040200011230A93CAE74C4B09A92846D3F8E0208C
:1040300042F00102C3F8E020D3F8E03003F00103BE
:104040000093009B05F0C8FE0FB030BD424B09A99C
:104050002846D3F8E02042F00202C3F8E020D3F86B
:10406000E03003F002030193019B05F0B5FE0FB0B1
:1040700030BD394B09A92846D3F8E02042F00402AC
:10408000C3F8E020D3F8E03003F004030293029B6E
:1040900005F0A2FE0FB030BD2F4B09A92846D3F87A
:1040A000E02042F00802C3F8E020D3F8E03003F04B
:1040B00008030393039B05F08FFE0FB030BD264B22
:1040C00009A92846D3F8E02042F01002C3F8E02006
:1040D000D3F8E03003F010030493049B05F07CFE5A
:1040E0000FB030BD1C4B09A92846D3F8E02042F0A0
:1040F0002002C3F8E020D3F8E03003F0200305935A
:10410000059B05F069FE0FB030BD134B09A9284689
:10411000D3F8E02042F04002C3F8E020D3F8E030CA
:1041200003F040030693069B05F056FE0FB030BD2A
:10413000094B09A92846D3F8E02042F08002C3F8D1
:10414000E020D3F8E03003F080030793079B05F0ED
:1041500043FE0FB030BD00BF0044025838B50546DD
:1041600003F008FC0446284603F00CFC01462046F8
:10417000BDE8384006F038B870B506460D4603F085
:10418000F9FB0446304603F0FDFB2A1E014620469B
:1041900018BF0122BDE8704006F02CB8002312229F
:1041A00070B586B0CDE9022304930368032B01D8D0
:1041B00004230593061D841D304603F0DBFB0546F2
:1041C000304603F0DFFB034601A92846019305F0C2
:1041D00003FE204603F0CEFB034620461C4603F0B8
:1041E000D1FB01A903462046019305F0F5FD06B079
:1041F00070BD00BF634A0368934210B58CB028D0ED
:10420000614A934258D0614A934200F09480604AD8
:10421000934201D00CB010BD5E4C5F48D4F8E03042
:1042200043F00203C4F8E030D4F8E03003F00203B6
:104230000A930A9BFFF7B2FFD4F8F43043F08003EF
:10424000C4F8F430D4F8F43003F080030B930B9BE4
:10425000E0E7504C5148D4F8E03043F00203C4F892
:10426000E030D4F8E03003F002030193019BFFF744
:1042700095FFD4F8E83000221F2043F400131146C4
:10428000C4F8E830D4F8E83003F400130293029B3A
:10429000D4F8D83043F00103C4F8D830D4F8D8307B
:1042A00003F001030393039B04F01AFD1F200CB0DD
:1042B000BDE8104004F052BD364C3948D4F8E03027
:1042C00043F08003C4F8E030D4F8E03003F080031A
:1042D0000493049BD4F8E03043F00203C4F8E030C8
:1042E000D4F8E03003F002030593059BFFF756FF77
:1042F000D4F8E8300022212043F480031146C4F8AA
:10430000E830D4F8E83003F480030693069BD4F831
:10431000D83043F00103C4F8D830D4F8D83003F0D3
:1043200001030793079B04F0DBFC21200CB0BDE8E0
:10433000104004F013BD1B48FFF730FF154B00225F
:104340004820D3F8E840114644F40004C3F8E8409C
:10435000D3F8E84004F400040894089CD3F8D8404B
:1043600044F00104C3F8D840D3F8D83003F0010377
:104370000993099B04F0B4FC48200CB0BDE8104040
:1043800004F0ECBC0054004000580040005C0040C9
:10439000001C00580044025860A70024D8A4002440
:1043A000B0A5002488A600242DE9F0431A4B87B05D
:1043B00000254FF010099E46EC46184BFF22E046C0
:1043C00067461A700EF118060EF13004CDE900555B
:1043D000CDE90255ADF80090BCE80F00CDE90455D9
:1043E000AEE80F009CE803000095ADF800908EE861
:1043F0000300B8E80F000FC69CE803000095ADF875
:10440000009086E803000FCF0FC49CE8030084E807
:10441000030007B0BDE8F08304000024D4A4002406
:1044200010B5EFF3108472B6084B1A78120602D555
:1044300004B962B610BD1B78D82205485BB202FBF6
:104440000300143005F076F9F2E700BFD4A400248D
:10445000D8A40024014806F0DBBD00BF64A50024F9
:10446000014806F0D5BD00BF3CA60024014806F077
:10447000CFBD00BF14A700242DE9F0430F68D82456
:104480003F4D85B007FB04F4032F05EB04030360E5
:1044900040DCCB680E46012B3CD84DD04FF0D808FD
:1044A000B646DFF8FC9008FB0758BEE80F00C4468C
:1044B000ACE80F00DEF800300DF1100ECCF8003043
:1044C000D8F808C099E80F000EE90F000EEB87033B
:1044D000BCF1010F53F8103CC8F88C3031D0BCF15E
:1044E000020F42D0BCF1000F35D0317C8C34D82380
:1044F000002201202C4403FB07534900C3E9260294
:10450000C3F894102046C3E92822C3E92A2206F002
:1045100071FB18B1012005B0BDE8F08301462046CB
:1045200006F082FD0028F5D10146204606F0A6FDE2
:10453000003818BF0120EEE70B7C103B672BADD98C
:10454000E8E703F03BF80F4B98420CBF0E4B0F4BC4
:10455000C8F89030C9E703F031F80A4B98420CBF15
:104560000B4B0C4BC8F89030BFE703F027F8054B16
:1045700098420CBF084B094BC8F89030B5E700BF14
:10458000D8A40024000E27072D0FB0303211D02000
:104590005F4390608A62E030200BA0101A098010FF
:1045A000946D01082DE9F041D0F8008082B00D46ED
:1045B00017461E4608F18C04204606F031FD2028DF
:1045C000FAD1D8F80C3073B96D002046089C3346F8
:1045D0003A46A9B2009406F063FB003818BF0120E8
:1045E00002B0BDE8F081089B32463946204606F00D
:1045F0002BFCF2E7044B10221A7483F8E82083F8AE
:10460000C02183F898227047D8A4002430B5002335
:1046100095B04FF48071062204460B9306921393D3
:10462000CDE90C13CDE90E33CDE9113302F0C8FF0B
:1046300007282BD004F1100541F2883206A928463C
:1046400007F02EFB28B10123184684F85C3015B022
:1046500030BD0222022306A92846CDE900231022FC
:104660000123CDE9022300224FF48003CDE9042386
:1046700005224FF0807306926A460F9341F2883309
:1046800007F07AFC0028DED115B030BD03230120ED
:1046900084F85C3015B030BD70B50023A4B04FF085
:1046A00080724FF480750446ADF806300D93CDE965
:1046B00010320122CDE90E53CDE91223CDE9143396
:1046C000002943D0F02300F1100508AEADF8063004
:1046D000C02341F2883231462846089307F0E0FAB9
:1046E00028B10123184684F85C3024B070BD41F233
:1046F00088320DF10601284607F03CFB03460028EE
:10470000EFD105224FF480711E93284616924FF088
:1047100080721B9321931F9202AA9FED1F7BCDE90C
:104720001C13CDE922338DED027B9FED1D7B41F201
:10473000883316A98DED047B9FED1B7B8DED067BE9
:1047400007F01AFC0028CCD124B070BD00F1100590
:1047500008AE612341F2883231462846089307F0BB
:104760009FFA0028BDD141F288320DF1060128469A
:1047700007F07EFB0028B4D1BDF80630204623F0B8
:10478000780343F04003ADF80630FFF73FFF002801
:104790009ED0A6E7AFF300800000000001000000FB
:1047A00010000000010000000000000000004000B8
:1047B0002DE9F04F00234FF4807501264FF08078EB
:1047C00004462DED028BABB08DF807301393219387
:1047D000299314950E96CDF85C80CDE91533CDE97B
:1047E0001863CDE91A33CDE92253CDE92433CDE95D
:1047F000273306231C9302F0E3FE072808D004F1B8
:10480000100741F288321CA9384607F049FA40B136
:104810000123184684F85C302BB0BDEC028BBDE858
:10482000F08F4FF0020A4FF0020B4FF0050941F2F2
:10483000883308AA1CA93846CDF89480CDF870902A
:104840009FED2D8BCDE908AB4FF0000A4FF4800BA4
:104850008DED0A8BCDE90CAB07F08EFB0028D7D18C
:1048600041F2883238460EA907F01AFA0028CFD153
:10487000402341F288320DF1070138468DF80730A8
:1048800007F078FA0028C3D141F288330EA902AAB2
:104890003846CDF83890CDF85C809FED197B8DEDD2
:1048A000048BCDE906AB8DED027B07F065FB03467B
:1048B0000028ADD1CDF870904FF00109CDF894806B
:1048C0004FF00008219308AA29931CA93846229585
:1048D000CDE92333CDE9273341F288338DED0A8BBF
:1048E000CDE90CABCDE9088907F046FB002893D051
:1048F000304684F85C608FE7100000000100000083
:1049000040000000400000002DE9F043624CA3B0DD
:104910000D46046002F054FE072800F0A9802868C4
:1049200023466968AA6807C31E46AB8926F8043B7C
:104930003046257B677B07F095F9E0B9574B012D91
:104940004FF00108E061236114BF4FF480134FF46E
:104950000003C4E9058893FAA3F3B3FA83F34FF491
:104960008079013BC4F82490C4E90B0030462362EF
:1049700007F00CF938B10122134684F85C20184680
:1049800023B0BDE8F08366230B90139041F2883288
:1049900006A90693CDE90C90CDE90E00CDE91100F2
:1049A000304607F07DF90028E5D1992341F288329D
:1049B00006A93046069307F073F90028DBD10523DA
:1049C0001C9019906A4614934FF08073219014A99B
:1049D0001D9341F288339FED2A7BCDE91A90CDE9F2
:1049E0001F008DED007B9FED287B30468DED027B17
:1049F0009FED277B8DED047B07F0BEFA0028BAD12E
:104A000029462046FFF748FE0028B4D12046FFF78C
:104A1000CFFE03460028AED1002FB0D11893304608
:104A20000027002606AA14A9CDF86890CDE91F3307
:104A3000EB2314934FF440631B934FF400531793ED
:104A40004FF440431C93A0231693062319934FF071
:104A5000805321934FF04073CDE906671D9307F013
:104A600003FB034600288AD0434684F85C8086E72F
:104A700001230322184684F85C2023B0BDE8F083AC
:104A80000000000001000000100000000100000014
:104A9000000000000000400038A800240050005230
:104AA0002DE9F04F8FB0414B0024026800AF9A42CD
:104AB0007C63C7E90944C7E90B4403D03C37BD46D2
:104AC000BDE8F08F3A4B40F609213A48EB46D3F85F
:104AD000D42007F11C0607F1220A4FF0020942F424
:104AE00080424FF00308C3F8D420D3F8D42002F456
:104AF0008042BA60BA68D3F8E02042F04002C3F8BE
:104B0000E020D3F8E02002F04002FA60FA68D3F81F
:104B1000E02042F02002C3F8E020D3F8E02002F0C9
:104B200020023A613A69D3F8E02042F01002C3F85B
:104B3000E020D3F8E02002F010027A617A69D3F81D
:104B4000E02042F00202C3F8E020D3F8E030F86140
:104B500003F002033984BB61174B7B60BB697B6840
:104B600053F8040F7B6002F005FF7B680546186868
:104B700002F008FF16F8013B786207F1240128468D
:104B8000C7F830807B63C7E90A9405F025F95645DC
:104B9000E5D100225C20114604F0A2F85C2004F06C
:104BA000DDF83C37DD46BD46BDE8F08F00500052D1
:104BB000004402580A0A090994A80024114B02680B
:104BC0009A4200D07047104A70B5D2F8D4300F4CDA
:104BD00023F4804304F11806C2F8D43054F8040FCB
:104BE00002F0C8FE0546206802F0CCFE01462846C9
:104BF00005F032FAB442F1D15C20BDE8704004F017
:104C0000BBB800BF005000520044025894A80024D2
:104C1000014807F0B5BA00BF48A80024084B1A1D88
:104C2000981D03F1080110B49C1C9A6603F10A0256
:104C3000C3E91834C3E91B015DF8044B5A67704798
:104C400038A8002438B5036871B9026A00F1280554
:104C500000F5AC74012A0CBF002140218BBB1D4B19
:104C60005722C0F858310DE0426A00F1C00500F546
:104C7000E874012A0CBF00214021EBB1164B5A22E7
:104C8000C0F8D03100232046C4E901214FF48052FE
:104C90004FF48061636262614FF48042C4E9033182
:104CA0004FF48073C4E906234FF40033236204F009
:104CB000C9F958B1FFBEFEE7084B5822C0F8D03101
:104CC000E0E7074B5922C0F85831DBE7C5E920443B
:104CD000A56338BD10000240700002402800024069
:104CE000580002402DE9F043821D05468BB0031D9C
:104CF00005F10A010830CDE9052305F10C02AB6985
:104D0000CDE907010992002B3DD0EB69B3FA83F896
:104D10004FEA58180123022205AE0AAF4FF00609E8
:104D20000393CDE9012356F8044B2B792278934263
:104D300016D02B68F3B1012B02D1F2B10A230493F0
:104D4000204602F01FFE03462046009302F012FEAA
:104D5000694605F041F8BE42E5D10BB0BDE8F083ED
:104D6000697963789942E4D1B8F1000FF3D02B68E8
:104D7000002BE0D1CDF81090E2E76378022B14BF4E
:104D80000A230823DBE74FF00108C3E7534A03680F
:104D9000934230B505468BB055D02032934252D065
:104DA0004F4A934204D02032934201D00BB030BD21
:104DB0004C4C4D48D4F8E03043F00103C4F8E030E7
:104DC000D4F8E03003F001030593059BD4F8E030FC
:104DD00043F00803C4F8E030D4F8E03003F00803EF
:104DE0000693069BD4F8E03043F04003C4F8E0306B
:104DF000D4F8E03003F040030793079BD4F8F03079
:104E000043F40003C4F8F030D4F8F03003F40003A6
:104E10000893089BFFF766FFD4F8D830296843F061
:104E200001032F4A3048C4F8D830891AD4F8D83052
:104E300018BF012103F001030993099B0BB0BDE8E2
:104E40003040FFF7FFBE274C2848D4F8E03043F04D
:104E50000103C4F8E030D4F8E03003F0010300931C
:104E6000009BD4F8E03043F01003C4F8E030D4F8ED
:104E7000E03003F010030193019BD4F8E03043F0DD
:104E80004003C4F8E030D4F8E03003F0400302936C
:104E9000029BD4F8F03043F48003C4F8F030D4F827
:104EA000F03003F480030393039BFFF71BFFD4F858
:104EB000D830296843F00103084A0C48C4F8D830B8
:104EC000891AD4F8D83018BF012103F001030493E4
:104ED000049B0BB0BDE83040FFF7B4BE045801405E
:104EE000045C0140004402580CAB0024B0A800242C
:104EF000014804F01FBC00BF08AA0024014804F0C8
:104F000019BC00BF80AA0024014804F013BC00BFF4
:104F100064AC0024014804F00DBC00BFDCAC0024EC
:104F20002DE9F04F0C684FF41776754F87B004FBEE
:104F300006F6012C07EB060AC0F800A000F3A080DB
:104F40000D468E464FF00008D44669A3D3E90023EE
:104F500069A1D1E90001CDE9022306ABCAF850826C
:104F600003EB8403CDE9040153F810BC53F8083C6B
:104F7000CAE992880193BEE80F00ACE80F00BEE8D2
:104F80000F00ACE80F00019B9EE80300CAF828B0B0
:104F9000CAF8C0308CE803002B69042B0CD8DFE87A
:104FA00003F0737D879103004FF41773554A03FB99
:104FB00004739A64C3F8E020AA692B6A002A43D0DC
:104FC000002B4FF4177308BF022203FB047318BFB2
:104FD0000322DA6201221A63EA696B6A002A40D16D
:104FE000191E4FF4177318BF012103FB0473C3E9A3
:104FF00031126B69022B05D8434A12F80380434AE9
:1050000052F823904FF4177306F1280042464946A0
:1050100003FB04740023384463646363E365C4F8EA
:10502000DC30C4F8CC30C4F8F430C4E90F33C4E940
:105030001533C4E93533C4E93B33022309F042F99F
:10504000002849D0FFBEFEE7191E4FF4177318BFA2
:10505000012103FB0473C3E90B12EA696B6A002A9E
:10506000BED0002B4FF4177308BF022203FB04735A
:1050700018BF0322C3F8C4200122C3F8C820B8E730
:10508000012007B0BDE8F08F4FF417734FF4FA52C8
:1050900003FB04739A64C3F8E0208DE74FF41773A1
:1050A0004FF47A5203FB04739A64C3F8E02083E759
:1050B0004FF417734FF4FA4203FB04739A64C3F876
:1050C000E02079E74FF417734BF6803203FB04734B
:1050D0009A64C3F8E0206FE706F1C000022342465D
:1050E0004946384409F0EEF80028CAD0FFBEFEE772
:1050F00004580140045C014024580140245C0140F4
:10510000B0A8002400770100D46E0108D86E010811
:105110000068704703681B69042B05D8044A02EB3A
:10512000830393ED000A70479FED020A704700BFAA
:10513000E46E010800803B47002091F808C01C4B3A
:105140001C4A844510B4C3E90020D1E90024186149
:1051500018BF4FF48050002C0CBF00214FF4804149
:10516000C3E90201042A06D8DFE802F0090F151B83
:10517000030001225A6100205DF8044B7047FA22B7
:1051800000205DF8044B5A617047082200205DF84A
:10519000044B5A617047042200205DF8044B5A61A9
:1051A0007047022200205DF8044B5A61704700BF2F
:1051B00068AD002400700052344A016870B5914215
:1051C00088B04FF00004CDE903440594CDE90644CE
:1051D00001D008B070BD2E4AD2F8D41041F480310D
:1051E000C2F8D410D2F8D41001F4803100910099A3
:1051F000D2F8E01041F00401C2F8E010D2F8E0105B
:1052000001F0040101910199D2F8E01041F0080188
:10521000C2F8E010D2F8E02002F0080202924269DF
:105220000299082A30D0FA2A03D0042A14BF032492
:105230000224C3684FF48852B3F5804F03921FD005
:105240000C26022513480DEB0601049506940796DB
:1052500004F0C2FD0423049500250DEB06010E4861
:10526000039306940595079604F0B6FD2A46294651
:10527000312003F035FD312003F070FD08B070BD22
:105280004FF4F8530393DBE70124D2E70070005298
:105290000044025800080258000C0258014809F066
:1052A000D7BE00BF68AD002470B5002304464FF49C
:1052B000806204214FF440353448C4F83821C4F8E2
:1052C000D410C4F83431C4F84C113149C4F8B000DA
:1052D000C4F82811C4E92F32C4E93133C4E93335A5
:1052E000C4E93733C4E94F33C4E95135C4E9553310
:1052F000A2680323C4F8D830C4F85031042A0AD86D
:10530000DFE802F01F262D34030055225623C4F88F
:10531000B420C4F82C310022402304F1B005C4F8B5
:10532000B8202846C4F8303103F08CFE08B1FFBE27
:10533000FEE704F59476304603F084FEE8B1FFBE44
:10534000FEE725222623C4F8B420C4F82C31E2E776
:1053500027222823C4F8B420C4F82C31DBE73D22EF
:105360003E23C4F8B420C4F82C31D4E7532254238C
:10537000C4F8B420C4F82C31CDE704F12803C4E903
:105380002865C4F8E830C4F8603170BD40040240BC
:10539000580402402DE9F04F814683B00E4617466F
:1053A0001D4600F1280420460AF0F6FE0128824638
:1053B000F9D14846FFF778FF8046002835D1EFF352
:1053C0001083019372B6DFF888B00C9B99F908201E
:1053D000DFF880A0DFF88090CBF800300D9B89F8D3
:1053E0000020CAF800300DB11846A847BAB23146BD
:1053F00020460AF047FA30B9019B03B962B640462D
:1054000003B0BDE8F08F0023CBF80030CAF80030BD
:10541000FF2389F800300C9B8BB101210D98884641
:105420009847019B002BEAD1E8E70C9B53B1D0468B
:105430000D9851469847404603B0BDE8F08F4FF0B5
:105440000108D9E7D046404603B0BDE8F08F00BF61
:1054500004B800240CB8002408B800242DE9F04F4B
:10546000814683B00E4617461D4600F128042046AB
:105470000AF092FE01288246F9D14846FFF714FF50
:105480008046002835D1EFF31083019372B6DFF820
:1054900088B00C9B99F90820DFF880A0DFF8809095
:1054A000CBF800300D9B89F80020CAF800300DB110
:1054B0001846A847BAB2314620460AF0A7FB30B9D1
:1054C000019B03B962B6404603B0BDE8F08F0023EC
:1054D000CBF80030CAF80030FF2389F800300C9B6D
:1054E0008BB101210D9888469847019B002BEAD18A
:1054F000E8E70C9B53B1D0460D985146984740467B
:1055000003B0BDE8F08F4FF00108D9E7D046404620
:1055100003B0BDE8F08F00BF04B800240CB800242D
:1055200008B800242DE9F04F814683B00F46164697
:10553000984600F1280420460AF02EFE0128FAD1F0
:1055400082464846FFF7B0FE0546002838D1EFF303
:105550001083019372B699F90830DFF88890DFF86C
:1055600088B089F800300D9BDFF880A0CBF80030C0
:105570000E9BCAF800300C9B0BB10E9898471FFA8F
:1055800088F33A46314620460AF034FA30B9019B96
:1055900003B962B6284603B0BDE8F08F0023CBF80C
:1055A0000030CAF80030FF2389F800300D9B8BB122
:1055B00001210E980D469847019B002BEAD1E8E7A0
:1055C0000D9B4BB155460E9851469847284603B05F
:1055D000BDE8F08F0125DAE75546284603B0BDE85F
:1055E000F08F00BF08B8002404B800240CB80024D1
:1055F0002DE9F043002387B0022204460569049395
:10560000CDE90223D0E902128E00FAB1022D7AD040
:105610002178B5FA85F54FF00108276A0B294FEA82
:10562000551521D1A2780B2A02D0B8F1000F38D13C
:1056300023790B2B01D0002D6CD1A37917B10B2B43
:1056400040F09980002007B0BDE8F08335F00203F8
:105650002178276A0CBF4FF001084FF00008023D87
:1056600018BF01250B29DDD07D4B94F801C053F8FC
:10567000262010780B2802D0884200F0AD80D37825
:10568000D01C994202D10B2B40F0BD809379901D24
:105690008B4202D10B2B40F0BC80012007B0BDE84B
:1056A000F083711C6E4BE07853F8213019780B2988
:1056B00002D08A4200F0B580D97803F1030C0B299F
:1056C00002D08A4200F0BB80997903F1060C0B29C5
:1056D000E3D08A42E1D1DB798342DED1634604F133
:1056E00002099B784846059302F044F980464846F3
:1056F00002F048F901A90190404604F06DFB2379BE
:105700000B2B98D199E70178076A0B2940F0868026
:1057100001258DE7B11C524A607952F82120117899
:105720000B2902D08B4200F08180D178D51C0B2947
:1057300002D08B4200F08D809179951D8B42ACD1C7
:105740000B29AAD0D3798342A7D12A46251D937865
:105750002846059302F00EF9034628461D4602F03E
:1057600011F901A90190284604F036FBA379002F16
:105770007FF465AF66E7F11C394AE07952F82120E1
:1057800011780B2901D08B425FD0D178D51C0B2921
:1057900001D08B424FD09179951D8B427FF47DAF24
:1057A0000B293FF47AAFD37983427FF476AF2A4650
:1057B000A51D93782846059302F0DCF80446284698
:1057C00002F0E0F8034601A92046019304F004FB2F
:1057D000002007B0BDE8F083537863457FF44FAFF6
:1057E00093782046059302F0C5F88146204602F0E2
:1057F000C9F801A90190484604F0EEFAA2780B2AF4
:105800007FF413AF14E7137963457FF43FAF02468B
:10581000E6E7D37963457FF440AFF8E79846012582
:1058200022E7597881427FF447AF58E751788142A7
:105830007FF47BAF8AE711798142ACD1B7E7197960
:1058400081427FF441AF634649E7517881429CD160
:10585000AEE7117981427FF46FAF2A4676E700BF49
:10586000206F0108654A0368934200F0B980A2F5F1
:105870007842934200F0B68002F58062934200F0D5
:10588000B38002F57842934200F0B08002F5E05216
:10589000934200F0AD805A4A934240F0AB8005231A
:1058A0004FF4D071574A01FB03F310B5D418D05C04
:1058B00086B002F06FF8A07802F06CF8207902F060
:1058C00069F8A07902F066F8A368052B11D8DFE823
:1058D00003F0192F455B71034B4BD3F8F42042F0D2
:1058E0002002C3F8F420D3F8F43003F0200305932A
:1058F000059B2046FFF77CFE012801D006B010BDB5
:10590000FFBEFEE7404B00222320D3F8F01041F405
:105910008051C3F8F0101146D3F8F03003F48053EF
:105920000093009B03F0DCF9232003F017FAE0E773
:10593000354B00222420D3F8E81041F48041C3F80D
:10594000E8101146D3F8E83003F480430193019B3B
:1059500003F0C6F9242003F001FACAE72A4B00221B
:105960003320D3F8E81041F40041C3F8E8101146A1
:10597000D3F8E83003F400430293029B03F0B0F93C
:10598000332003F0EBF9B4E71F4B00225420D3F887
:10599000F01041F40051C3F8F0101146D3F8F03084
:1059A00003F400530393039B03F09AF9542003F08C
:1059B000D5F99EE7144B00225520D3F8F01041F49E
:1059C0008011C3F8F0101146D3F8F03003F48013BF
:1059D0000493049B03F084F9552003F0BFF988E792
:1059E00000235DE701235BE7022359E7032357E721
:1059F000042355E700231B78FFDE00BF0030014081
:105A000000140058E4AD0024004402582DE9F0438E
:105A1000002289B01B4B01210DF1040C9E461A4B4C
:105A20000791E146E04667460EF11C060EF1380587
:105A30000EF15404CDE90122CDE90322CDE905227E
:105A4000FF221A70BCE80F00AEE80F009CE80700C8
:105A50008EE80700B9E80F000FC69CE8070086E84B
:105A60000700B8E80F000FC59CE8070085E80700AD
:105A70000FCF0FC49CE8070084E8070009B0BDE819
:105A8000F08300BF0C01002408B8002401480AF08C
:105A900057BA00BF0CAE002401480AF051BA00BF4B
:105AA000ACAF002401480AF04BBA00BF4CB100244F
:105AB00001480AF045BA00BFECB2002401480AF0E0
:105AC0003FBA00BF8CB4002410B5EFF3108472B657
:105AD000084B1A78120602D504B962B610BD1B78BD
