:020000040800F2
:1000000000000220E1050008DD050008217200085B
:10001000DD050008DD050008DD0500080000000022
:10002000000000000000000000000000DD050008E6
:10003000DD05000800000000DD050008A5710008CE
:10004000DD050008DD050008DD050008DD05000808
:10005000DD050008DD050008DD050008DD050008F8
:10006000DD050008DD050008DD050008315C00083D
:100070003D5C0008E14A0008495C0008555C000846
:10008000216C000861510008DD050008DD0500084D
:10009000DD050008DD050008DD050008DD050008B8
:1000A000DD050008DD050008DD050008DD050008A8
:1000B0008956010895560108A15601089551000876
:1000C000DD050008A1510008DD050008F94E010812
:1000D000054F0108556A0008816A0008B56A0008E2
:1000E000DD050008DD05000800000000DD05000852
:1000F000DD050008DD050008DD050008DD05000858
:10010000DD05000889610008AD560108114F01089E
:10011000E96A00081D6B0008DD050008DD05000820
:10012000DD050008DD050008354F0108694F0108AD
:10013000556C0008DD050008DD050008DD05000838
:1001400000000000000000000000000000000000AF
:10015000DD050008DD050008DD050008516B00081D
:10016000AD510008DD050008B5710008D97100081F
:10017000DD050008FD710008DD050008DD0500084B
:10018000DD050008DD050008856B0008B96B000877
:100190001D4F0108294F0108DD050008DD05000895
:1001A000DD050008DD050008DD050008DD050008A7
:1001B00051590008DD050008DD050008DD050008CF
:1001C000DD050008DD050008DD050008DD05000887
:1001D000DD050008DD050008DD050008DD05000877
:1001E000DD050008DD050008DD050008DD05000867
:1001F000DD050008DD050008DD050008DD05000857
:10020000DD050008DD050008DD050008DD05000846
:10021000DD050008DD050008DD050008DD05000836
:10022000DD050008DD050008DD0500080000000010
:10023000DD050008DD05000800000000DD05000800
:10024000DD050008DD050008DD050008DD05000806
:10025000DD050008DD050008DD050008DD050008F6
:10026000DD050008DD050008DD050008DD050008E6
:10027000DD050008DD050008ED6B0008000000004A
:10028000DD050008DD050008DD05000800000000B0
:0802900000000000DD0500087C
:1002980010B5054C237833B9044B13B10448AFF3B8
:1002A80000800123237010BD80030024000000009B
:1002B8001471010808B5034B1BB103490348AFF398
:1002C800008008BD000000008403002414710108A8
:1002D80053B94AB9002908BF00281CBF4FF0FF31A5
:1002E8004FF0FF3000F074B9ADF1080C6DE904CEA1
:1002F80000F006F8DDF804E0DDE9022304B07047F9
:100308002DE9F047089D04468E46002B4DD18A42C0
:10031800944669D9B2FA82F252B101FA02F3C2F1F3
:10032800200120FA01F10CFA02FC41EA030E944084
:100338004FEA1C48210CBEFBF8F61FFA8CF708FBA5
:1003480016E341EA034306FB07F199420AD91CEB7D
:10035800030306F1FF3080F01F81994240F21C81AF
:10036800023E63445B1AA4B2B3FBF8F008FB1033F7
:1003780044EA034400FB07F7A7420AD91CEB04042C
:1003880000F1FF3380F00A81A74240F207816444FC
:10039800023840EA0640E41B00261DB1D440002381
:1003A800C5E900433146BDE8F0878B4209D9002DE5
:1003B80000F0EF800026C5E9000130463146BDE86F
:1003C800F087B3FA83F6002E4AD18B4202D38242D9
:1003D80000F2F980841A61EB030301209E46002D88
:1003E800E0D0C5E9004EDDE702B9FFDEB2FA82F2DD
:1003F800002A40F09280A1EB0C014FEA1C471FFA3B
:100408008CFE0126200CB1FBF7F307FB131140EA21
:1004180001410EFB03F0884208D91CEB010103F1EE
:10042800FF3802D2884200F2CB804346091AA4B2B0
:10043800B1FBF7F007FB101144EA01440EFB00FE84
:10044800A64508D91CEB040400F1FF3102D2A645E9
:1004580000F2BB800846A4EB0E0440EA03409CE788
:10046800C6F12007B34022FA07FC4CEA030C20FA35
:1004780007F401FA06F31C43F9404FEA1C4900FA55
:1004880006F3B1FBF9F8200C1FFA8CFE09FB1811D2
:1004980040EA014108FB0EF0884202FA06F20BD945
:1004A8001CEB010108F1FF3A80F08880884240F295
:1004B8008580A8F102086144091AA4B2B1FBF9F0D9
:1004C80009FB101144EA014100FB0EFE8E4508D9D4
:1004D8001CEB010100F1FF346CD28E456AD9023859
:1004E800614440EA0840A0FB0294A1EB0E01A1423E
:1004F800C846A64656D353D05DB1B3EB080261EBAC
:100508000E0101FA07F722FA06F3F1401F43C5E985
:10051800007100263146BDE8F087C2F12003D840BB
:100528000CFA02FC21FA03F3914001434FEA1C47FD
:100538001FFA8CFEB3FBF7F007FB10360B0C43EAEF
:10054800064300FB0EF69E4204FA02F408D91CEB9F
:10055800030300F1FF382FD29E422DD9023863449D
:100568009B1B89B2B3FBF7F607FB163341EA03413D
:1005780006FB0EF38B4208D91CEB010106F1FF388C
:1005880016D28B4214D9023E6144C91A46EA004683
:1005980038E72E46284605E70646E3E61846F8E615
:1005A8004B45A9D2B9EB020864EB0C0E0138A3E75E
:1005B8004646EAE7204694E74046D1E7D0467BE73F
:1005C800023B614432E7304609E76444023842E7B7
:1005D800704700BFFEE700BF0B480C4A904203D0AB
:1005E800121A0B4916F0C2F90A480B4A904203D076
:1005F800121A002116F0C8F907F066F816F092F9F9
:1006080002F02AF9FEE700BF000000247C03002462
:10061800487101088003002488F60024034B03EB8B
:10062800800203445268187B53681847AC050024BD
:10063800074B1A5C52B903EB800219184FF0010CF2
:10064800526803F800C0087B1368184700207047F9
:10065800AC05002430B4054C04EB800504446D68F7
:10066800207BAC68A44630BC604700BFAC050024C2
:1006780030B4054C04EB800504446D68207BEC68BD
:10068800A44630BC604700BFAC050024044B03EB14
:10069800000C03EB80035B689CF80C001B6918478F
:1006A800AC05002410B404689CB121788446224625
:1006B8001F2913D93A2911D012F8013F1F2B0ED93F
:1006C8003A2BF9D10134A1F13000A24201D101281D
:1006D8000CD94FF0FF305DF8044B70470B463A2BAE
:1006E800F0D0044B18785DF8044B70470132CCF811
:1006F8000020F8E79C03002438B50D4640B1036894
:1007080004462BB11A781AB18088DA88904203D04F
:10071800092000232B6038BD5878FFF77FFF10F0C1
:100728000100F5D12368F5E72DE9F0410026D0F85E
:1007380000808E758369002B5AD0C36A07460D4620
:1007480001331ED0D8F80C301888002861D001F188
:100758001506012400E01C46002101F0C5FF631CBA
:10076800002856D0B4F5807F53D006F8010FD8F88A
:100778000C2032F814000028EDD12C440023A37576
:10078800AE7DD7F81CC000204FF02E080CF1FF31C9
:10079800024611F8013F0132202B18D0052B08BF63
:1007A800E523092A26D02C1863727EB9A3F14107E4
:1007B800192F0AD8082A9CF80CE08CBF10270827A4
:1007C8001EEA070F01D02033DBB2A37501300B2AD4
:1007D800DFD12C18B6B1002363729CF80B302B7252
:1007E800DCF81C302B60DCF816301A0CEB80AA8081
:1007F800BDE8F0812C180EB984F81680013084F811
:100808000980D0E7A6759CF80C30002B08BF2C4651
:10081800E1E7002400232C44A375AE7DB1E700BFB7
:100828002DE9F041456B00F13808044601232A46BA
:1008380041464078FFF71CFFC0B9A26A0746236A01
:10084800AA1AE0709A420ED2A678012E01D80AE0C0
:10085800236A1D44013E012341462A466078FFF77A
:1008680007FF012EF4D13846BDE8F081012738464C
:10087800BDE8F08170B5C37804465BB92378032BD3
:100888000FD0002260781146FFF700FF003818BF2C
:10089800012070BDFFF7C4FF0028FAD12378032B8D
:1008A800EFD12579012DECD104F138064FF400720F
:1008B8000021304616F068F855233146722684F830
:1008C80036322B466569612084F81C62522284F80E
:1008D8001D622E0A84F83A0084F81F0284F8205218
:1008E800206984F821622E0C2D0E84F8382084F8B3
:1008F8003920412284F82352050A84F83B2084F8E1
:100908001E2284F82402626A84F82552050C000E1F
:10091800013284F8226284F82702AA20626384F8EC
:10092800370284F826526078FFF7A2FE002323716D
:10093800A7E700BF38B5C37804460D4663B901235D
:100948002A4604F138016078FFF784FE10B10120CF
:100958004FF0FF35656338BDFFF762FF0028EED022
:1009680038BD00BF70B54FF0FF3600230446B142D2
:10097800C37046630CD00D460A46012300F13801C6
:100988004078FFF767FE10B10420666370BD6563A9
:100998004AF65523B4F836229A421AD194F83830D8
:1009A800E92B07D0A36B0D4A03F0FF13934201D044
:1009B800022070BDD4F86E30094A23F07F43934279
:1009C80009D0D4F88A00074B984214BF02200020AF
:1009D80070BD032070BD002070BD00BFEB0090000B
:1009E80046415400464154330023F0B50B6085B0AE
:1009F8000E461446FFF756FE051EC0F2BC808C4B0F
:100A080053F82570002F00F0C380376004F0FE040F
:100A18003B787BB17878FFF701FEC6070AD4002C33
:100A280000F0A28010F0040400F09E800A24204602
:100A380005B0F0BDE8B2002378703B70FFF7F8FD11
:100A4800C50700F194800CB14407EFD40021384663
:100A5800FFF788FF02286DD0042800F09080012855
:100A680000F281800025B7F84330B3F5007F7AD1D2
:100A7800B7F84E2002B9FA6D97F848303A62591E15
:100A8800BB7001296FD897F8451088B27881002883
:100A980069D0481E084266D1B7F8496030073E81E0
:100AA80061D1B7F84B0000B9B86DB7F846E0BEF1B0
:100AB800000F58D002FB03F30EEB16141C44A0429F
:100AC80051D3001B8842B0FBF1FC4CD34FF6F571B3
:100AD8008C455FD840F6F5710EEB05002C447D621D
:100AE8008C450CF102013C63F961B86273D8002EA1
:100AF80039D0034401EB410001F00101FB6201EB35
:100B08005001012001F2FF11B2EB512F2BD34FF00E
:100B1800FF338022C7E904333A71464A0021464C24
:100B28001388FC600C4601333870B9619BB213809E
:100B3800FB8019E06C4607F5FB7307F23625204663
:100B48001A79114602B19968103340F8041B9D4286
:100B5800F6D104F1100654F8045B03208DB9B442B1
:100B6800F9D104280BD00D24204605B0F0BD03248C
:100B7800204605B0F0BD0B24204605B0F0BD012489
:100B8800F2E729463846FFF7EDFE0128E7D86AE77D
:100B98000C24E9E70EEB05010CF102032C447D62FD
:100BA800B962B7F862103C633143FB61DBD19B004B
:100BB800796E03F2FF13F962B2EB532FD3D3B7F870
:100BC80068204FF0FF338021012A3971C7E90433C7
:100BD80008D00320A1E7002EC5D003444900022015
:100BE800FB628FE7691C7B6B994204D03846FFF79C
:100BF800A1FE0028EDD14AF65523B7F83622002188
:100C08009A423971E5D1BA6B0C4B9A42E1D103F1A2
:100C1800FF53D7F81C2203F5005320339A42D8D14A
:100C2800D7F820220320D7F82432C7E9043274E722
:100C3800A0030024A8030024AC03002452526141FD
:100C48002DE9F843037804460D461646022B06D0D4
:100C5800032B6AD0012B27D00220BDE8F883876ACE
:100C6800436B07EB11279F4200F09080C378002B5D
:100C780040F0B68004F1380801233A4660784146CE
:100C8800FFF7E8FC00284AD167636D00C6F3072226
:100C98000123002005F4FF7508EB050108F805603D
:100CA8004A70E370BDE8F88301EB5107826A436B31
:100CB80002EB5728984563D0C378002B40F08A8010
:100CC80004F138090123424660784946FFF7C2FC1F
:100CD80028BBC4F8348015F0010507F10108C7F3F3
:100CE80008075ED019F8073003F00F0343EA06132C
:100CF80009F807300123A76AE37007EB5827636BED
:100D08009F4278D02046FFF78BFD0028A5D101230C
:100D18003A4649466078FFF79DFC002839D04FF0E5
:100D2800FF3301206363BDE8F883826A436B02EBFB
:100D3800D118984527D0C378002B57D104F138072C
:100D48000123424660783946FFF784FC0028E6D143
:100D5800C4F83480AD0026F0704205F4FE757B5966
:100D6800791903F070431A43130C7A55100A8B70E3
:100D7800120E01234870CA700020E370BDE8F883A2
:100D880000F13809A7E700F13807E3E700F1380870
:100D98007BE7C8F30801676349447DB1C6F30712CE
:100DA80012E009F807600123A76AE37007EB5827E8
:100DB800636B9F42A6D1C8F3080149440B78C6F378
:100DC800032223F00F06324301230A700020E37048
:100DD800BDE8F883FFF724FD00283FF471AF3CE736
:100DE800FFF71EFD00283FF445AF36E7FFF718FD73
:100DF8000028A3D031E7C8F3080309EB0301CDE7C6
:100E080001294CD9C36999422DE9F0410C460546A0
:100E180002D30120BDE8F0810378022B5AD0032BBE
:100E28003FD0012BF5D101EB5106826A436B02EBEF
:100E380056279F420ED0C378002B79D101233A461A
:100E480005F138016878FFF705FC00285FD1AA6A28
:100E58003B466F63771CC6F3080602EB57282E44FF
:100E6800434596F838600DD0EB78002B65D1012307
:100E7800424605F138016878FFF7ECFB002846D1B7
:100E8800C5F83480C7F30807E3073D4495F83800F0
:100E980046EA00204CBF0009C0F30B00BAE7012066
:100EA8007047866A436B06EBD1169E4229D0C378F9
:100EB80093BB05F138070123324668783946FFF7B6
:100EC800C9FB20BB6E63A40004F4FE74385920F0FB
:100ED80070409FE7866A436B06EB11269E4213D04B
:100EE800C37803BB05F138070123324668783946D1
:100EF800FFF7B0FB58B96E63640004F4FF74385B05
:100F080088E700F13807DEE700F13807F4E74FF02B
:100F1800FF3318466B637DE7FFF782FC0028C8D0D3
:100F28004FF0FF3076E7FFF77BFC0028DAD0F7E7D1
:100F3800FFF776FC002881D0F2E72846FFF770FC1F
:100F4800002894D0ECE700BF012970B50C4634D9CD
:100F5800C3690546994230D21146EAB193422CD969
:100F6800012A2AD04FF0FF32FFF76AFEA0B170BD08
:100F7800EE69B34221D2FFF763FE0028F7D1EB698F
:100F88006A69991E501C8A4204D22A79686142F023
:100F980001022A719C4212D221462846FFF730FFEF
:100FA80001462346002228460C4641B1012C194629
:100FB80003D0661C05D0012BDAD8022070BD0020B2
:100FC80070BD012070BD00BFF8B505460F46002969
:100FD80042D10669C36996BB0126344606E001285A
:100FE8002CD0431C2AD0A64234D0EB6901342846C1
:100FF8009C4203D3012E4FF002042BD92146FFF760
:10100800FFFE0028EBD1012C22D9EB699C421FD2AC
:101018004FF0FF3221462846FFF712FE00B997B974
:1010280028BBEB696A69023B2C619A4201D8013AF4
:101038006A612B79204643F001032B71F8BD9E426B
:1010480028BF0126C9E7012F02D0EB699F4213D3BD
:101058000120F8BD0020F8BDFFF7D2FE0128F7D91E
:10106800421C06D0EB699842E8D33E46B5E7012812
:10107800EED14FF0FF30F8BD224639462846FFF73B
:10108800DFFDCDE72DE9F04F056983B08369203591
:10109800B5F5001F3BD2002B39D0C5F3080804462C
:1010A8000768B8F1000F08D007F138064644002059
:1010B8002561E66103B0BDE8F08F0E460133416952
:1010C800836141B3B7F80A9009F1FF3919EA552944
:1010D800EAD13846FFF794FE0128834623D9B0F1B8
:1010E800FF3F5DD0FA6982421FD9831E07F1380697
:1010F8000193023A0199C4F814B08A4204D9B7F8A6
:101108000A903B6B01FB0939C4F81890CEE704201C
:1011180003B0BDE8F08F3B89B3EB551FC4D800235B
:101128000420A361C6E70220C4E7002EF7D0616956
:101138002068FFF749FF8346002839D00128F2D0FC
:10114800B0F1FF3F2CD0FA78002A33D107F13806E6
:10115800ABF102034FF4007200213046019315F001
:1011680013FCF869019B821E934229D279893A6B54
:10117800019B03FB01227A6329B34FF0000A05E0C3
:101188007A6B7889013250457A630BD94FF00103A5
:1011980038460AF1010AFB70FFF742FB0028EFD03E
:1011A800012087E7F869A2EB0A027A630246A0E702
:1011B80007207FE73846FFF733FB0028C6D0EFE764
:1011C80079890022D7E78A46EDE700BF2DE9F04785
:1011D80004464FF0FF08042025684646D4F81890C6
:1011E80005F13807B9F1000F32D06B6B4B4513D0BE
:1011F800EB78002B64D101234A4639466878FFF71B
:1012080029FA38B14FF0FF3301206B630023A36143
:10121800BDE8F087C5F83490E1690A78002A58D00B
:10122800CB7AE52A03F03F03A37105D02E2A03D019
:1012380023F02000082810D1FF2600212046FFF7C0
:1012480021FF0028E2D1D4F81890B9F1000FCCD1D1
:101258000028DBD10020BDE8F0870F2B46D15006CF
:1012680034D5236902F0BF0691F80D80E3624B7B09
:101278004345E1D14B8B002BDED10B780122DFF8FF
:1012880094E04FF6FF7A23F04003D5F80C900EF166
:101298000C0C013B03EB430003EB8003104609E011
:1012A800FE2B1046C8D829F813200133E64512D082
:1012B8001EF8012F8A5A0028F2D15245F6D0BBE712
:1012C8002846FFF7ADFA002895D09FE7B242B3D180
:1012D800CDE704209AE70A78520604D5FE2BABD84E
:1012E800002229F81320013EF6B2A6E76EB901F1F3
:1012F8000B02F30143EA560611F8013B53FA86F64E
:101308009142F6B2F5D14645A4D04FF0FF33002004
:10131800E3627DE7D46A0108B1F5001F42D2CA062C
:10132800F8B50D4620D18168064607680561E9B120
:101338007B89B5EB432F4FEA432435D3384607E082
:10134800012811D9FB6983420ED9AC422DD83068E7
:10135800FFF756FD431CA5EB04050146F0D101201B
:10136800F8BD0023C6E905130220F8BD3B78022B1F
:1013780013D83B89B3EB551FF6D9FA6AB26171618C
:10138800002AF1D007F13803C5F3080102EB552212
:1013980000200B44C6E90623F8BDFB6A002BE8D001
:1013A8001946C5E702207047FB69023B881E984230
:1013B800D7D27B893A6B00FB0322B261DFE700BF1B
:1013C8002DE9F04F0021054607682DED028B85B009
:1013D800FFF7A2FFC8B94FF0FF094FF0FF3307F13D
:1013E8003808CA46EB62AC697B6B9C4213D0FB7829
:1013F800002B4FD10123224641467878FFF72AF97E
:1014080040B14FF0FF3301207B6305B0BDEC028B88
:10141800BDE8F08F7C63EC692678002E00F0AB8085
:10142800E27AE52E02F03F03AB7103D0100711D525
:101438000F2B39D04FF0FF334FF0FF0AEB6200213A
:101448002846FFF71FFE0028CDD005B0BDEC028B63
:10145800BDE8F08F0F2B27D0BAF1000F77D095F8A1
:101468002B0010F00100E5D195F8201005F12102BC
:1014780014F8013B05F12B065B1A002BDAD112F8A0
:10148800011B14F8013BB242A3EB0103F5D1002B79
:10149800D0D1BAE73846FFF7C3F90028AAD005B07B
:1014A800BDEC028BBDE8F08F95F82B305906C6D4F9
:1014B800720647D52B6906F0BF0694F80D90EB62CB
:1014C800637B4B4540D1638B002B3DD194F800A042
:1014D8000123F96808EE108A0AF03F0A029601957E
:1014E8000E460AF1FF3ADFF8C0B0184625460AEB67
:1014F8004A02039100970AEB820A13E0BAF1FE0F41
:10150800204618D801F010F9804636F81A00BA4675
:1015180001F00AF9804520460DD1224B9B452CD07D
:101528001BF8013F0AF10107EC5A0028E6D14FF6F3
:10153800FF739C42F1D0DDE9007518EE108A4FF078
:10154800FF0A7CE7B245BBD04FF0FF0A77E704F10A
:101558000B0022464FEACA1312F8011B43EA5A0A43
:10156800824251FA8AFA5FFA8AFAF3D1D1457FF4B6
:1015780076AF002049E7042047E72C46009F029EEB
:1015880018EE108A2378019D5B0600D520B906F174
:10159800FF3A5FFA8AFA52E7039B33F81A30002BB6
:1015A800F5D0D1E7E06A0108D46A01082DE9F04FC7
:1015B8000B7883B00E4607462F2BD0F800B037D0F3
:1015C8005C2B37D0DBF81830836033781F2B3AD97F
:1015D8005A461F2BD56898B240F22181A5F102091D
:1015E800B046012408E029F8020F631C18F8010F1F
:1015F8001F2840F21A811C462F2804F1FF3A2CD0EC
:101608005C282AD0B4F5807F0ED0012101F06CF857
:1016180050B17F28E7D82223B14A03E012F8013FEE
:10162800002BE0D09842F9D1062003B0BDE8F08F36
:1016380016F8013F2F2BFBD05C2BF9D00023BB60A1
:1016480033781F2BC4D880230021384687F82B30E5
:1016580003B0BDE8F04FFFF75FBE335D32195C2B76
:1016680002D02F2B40F05C81631C33441E4613F8D4
:10167800012B2F2AFAD05C2AF8D0BAF1010F4FF0CB
:10168800000800F0DA80BAF1020F40F0DC806B88C5
:101698002E2B00F01381934A05EB420205E0BAF1C4
:1016A800010A00F0BC8032F8023D202BF7D02E2B27
:1016B800F5D04FF02033002225F81A207B623B62D8
:1016C800C7F827302888202802D02E2840F0FC8030
:1016D8002A46002332F8020F1C4601332028F9D08D
:1016E8002E28F7D048F00308023405EB4A0333F8F4
:1016F800022D2E2A02D0BAF1010AF8D190B30023A4
:101708000822BC46314699461F462E465B4615467A
:10171800E3460A46202803D02E283AD1544538D02B
:1017280048F0030836F8140001340028F2D159466D
:101738009B463B4616460F4691F820102A46E52957
:1017480002D1052187F82010082A00F0958003F0BF
:101758000C020C2A04D003F00303032B40F09680FC
:1017680048F0020887F82B803846FFF729FE97F8DB
:101778002B3060B304287FF458AF9C0640F1E48016
:1017880059073AD58023002087F82B3003B0BDE8ED
:10179800F08F4D4534D9A4EB0A01B1FA81F149091A
:1017A80071BB7F2858D82B21DFF840C103E01CF813
:1017B800011F00297AD08142F9D148F003085F203F
:1017C8000BEB090109F1010981F82000AAE75A0782
:1017D8003FF52BAFBB79DB0640F1B4803B699BF842
:1017E8000010C3F308020BF13803032913445A8B82
:1017F80002D19B8A42EA0342BA603A683378E8E643
:101808000B2D00F08F80544502D048F003088ED885
:10181800BF0054460B254FF00809FFB282E70023AA
:1018280006202B8003B0BDE8F08FA2461E444FF07F
:101838000408BAF1010F7FF426AF2B882E2B45D070
:101848004FF0004228E7BAF1000FE8D06FF00042ED
:10185800524435F812301FE7CDE9003200F044FF5A
:10186800DDE90032F8B1204948F00208084410F8D0
:10187800800C0028A1D096E79B0003F00C020C2AEC
:101888003FF46EAF18F0020F08D06BE718F0020FA4
:101898007FF468AF012B08BF48F01008042A08BF7E
:1018A80048F008085EE748F0020886E7A0F1410121
:1018B80019292CD847F00207C0B281E72A882E2AB6
:1018C8007FF4E9AE042302E001240EE7022300229C
:1018D8002E242020EA5207F1200201230DE000BF48
:1018E800406A010801000080546A01084C6A010836
:1018F8000B2B107006D001330132591E8A45F7D9D7
:101908001470F8E748F0200887F82B802CE7A0F13E
:10191800610119299CBF203847F00107C0B24FE781
:101928001646AAE6594616469B4648F0030891F81B
:1019380020203B460F46E52A7FF409AF052281F8AF
:10194800202004E7052070E613F0040F08BF0520E7
:101958006BE600BF2DE9F04F2DED028B90F82B3090
:101968008BB013F0A002009340F02E81D0F800A0B5
:101978000646DAF80CE0BEF80030002B00F0C7810C
:101988009346724632F8023F0BF1010B002BF9D156
:1019980006F120030DF11C0893E8070088E807000A
:1019A800009A0293D1076BD56FF01F054022B1460C
:1019B8000127AD1B86F82B20AD4C7346029EB4461A
:1019C800052F98E80700ACE803002CF8022B4FEA33
:1019D80012428CF800206FD9198800296CD09C46D7
:1019E8003B46102001F00102490802EB4303DA03E9
:1019F80048BF63400138F5D13CF8021F0029F0D1F7
:101A08000DF11B0C072203F00F004FEA131E013AD9
:101A180000F13001392988BF00F137010F2B7346D7
:101A28000CF80119EFD80AAB7E21134403F8141CF3
:101A3800002A43D009F11F01002302E001339A4232
:101A480003D011F8010F2028F8D120334B440AA9FC
:101A5800072A01EB02004FF0200102D810F8141CED
:101A6800013203F8011BE9180729F0D94846FFF7A6
:101A7800A7FC28BB0137642F16D0DAF80C309EE794
:101A8800009B54469B0726D57A4B0BF10C07002187
:101A98003046A3FB0737FFF73FFC8146BF080137F5
:101AA80008B3042840F03A814FF0070948460BB0C4
:101AB800BDEC028BBDE8F08F3B46A1E71346C4E7B7
:101AC80004284E468146F1D1009B346886F82B30B5
:101AD800009B9B07D8D400213046FFF71DFC012747
:101AE80081460028DDD1054604F13808D6F818B03B
:101AF800636B9B4516D0E378002B5FD101235A46D0
:101B080041466078FEF7A6FD50B14FF001094FF04D
:101B1800FF33484663630BB0BDEC028BBDE8F08F22
:101B2800C4F834B0F3691B78E52B0BD0B3FA83F211
:101B380052093BB1154601213046FFF7A3FA0028A8
:101B4800D4D0AEE70135AF42F5D17B1E00933ED12C
:101B5800B469DAF834309C4211D09AF80330002B7B
:101B680040F0DE80012322460AF138019AF801008C
:101B7800FEF770FD002840F0C380CAF834402022E8
:101B88000021F06914F000FFF36906F12B01029AB5
:101B9800013B12F8010B914203F8010FF9D196F8B5
:101BA8002B300122F169484603F018030B738AF8B9
:101BB80003200BB0BDEC028BBDE8F08F2046FEF78A
:101BC8002FFE00289AD06CE74FF006096EE73169BE
:101BD8003046009BA1EB4311FFF79EFB01900028C4
:101BE80040F0A68006F12B01029AC30143EA500394
:101BF80012F8010B50FA83F38A42D8B2F5D10AF1F0
:101C08003803DFF874B0019008EE103ACDF80C9064
:101C1800B469DAF834309C420FD09AF80330002BBC
:101C280077D10123224618EE101A9AF80100FEF720
:101C380011FD002864D1CAF834409DF800900F27A0
:101C4800F169002509F1FF30DAF80CE0CF722B4674
:101C580000EB4002019F01244FF6FF7800EB820061
:101C68004FF0FF0C2A464F730D738D76CD761DE02D
:101C7800211001004FECC44ED46A01083EF8103020
:101C8800180A0B5568705BB901324FF6FF730D2ABD
:101C980023D01BF802000C1801F800C084F801C01A
:101CA800013238460D2A11D01BF80240434501EB9A
:101CB800040500F10107E1D1013201F804C007462B
:101CC8000C440D2A384684F801C0EDD14FF6FF7256
:101CD800934202D03EF817300BB949F0400901236E
:101CE80081F80090304600218AF80330FFF7CAF9DE
:101CF800A0B9009B013B00938AD1DDF80C9027E73F
:101D08004FF0FF334FF00109CAF83430CEE69B4656
:101D18003EE65046FEF784FD002882D08146C5E69F
:101D28005046FEF77DFD00283FF41CAF8146BDE616
:101D3800DDF80490BAE600BF30B585B015460190CD
:101D480003A800910391FEF7ADFC031E1BDB0F4CAB
:101D580054F8231009B100220A70019959B10022E0
:101D6800012D44F823100A700AD101A96846FEF72C
:101D78003BFE05B030BD084644F8231005B030BD21
:101D8800104605B030BD0B2005B030BDA0030024BF
:101D98002DE9F04790B00191002800F0838002F00F
:101DA8003F071646044603A901A83A46FEF71CFE5B
:101DB800054628B100232360284610B0BDE8F08707
:101DC800039B04A801990493FFF7F0FB80B99DF9E0
:101DD8003B30002B6BDB16F01C0F10D09DF8163033
:101DE80013F0110F65D1730740F1CA800825E1E7A8
:101DF80016F01C0F01D004285FD00546DAE79DF8DD
:101E08001630DA0657D4B10701D5DA0751D4DDF810
:101E18000C903B0748BF47F04007D9F8343023629D
:101E28000B9B636299F800205E8B032A02D19A8A81
:101E380046EA02460021A66004F12C0AD3F81C8069
:101E4800B9F806304FF4007227745046C4F8009071
:101E5800C4F80C80A162A3806174E161616114F02F
:101E680093FDBF06A8D5B8F1000FA5D0B9F80A3080
:101E7800C4F81480B8EB432F4FEA432706D884E010
:101E8800701C00F0B880474580F0B5803146206866
:101E9800FEF7B6FF0128A8EB07080646F0D802258A
:101EA800A06187E70925284610B0BDE8F087062518
:101EB80080E707257EE704257CE704A847F00807A4
:101EC800FFF748FD002898D105F064F90B9BC6B2CE
:101ED800C0F30742C0F30721000E9E734FF0200C99
:101EE800D9731A7458740B9BDDF80C909E75D975CC
:101EF8001A7658760B9B83F80BC099F800200B9B39
:101F0800032A5E8B02D19A8A46EA024600229A7612
:101F1800DA7699F80010032901D11A755A750B9BC6
:101F280000221A775A779A77DA77012389F80330EB
:101F3800002E3FF46EAF31460498D9F83480FFF78D
:101F480003F800287FF459AFDDF80C90D9F8343045
:101F580098453AD099F80330002B42D101234246E4
:101F680009F1380199F80100FEF774FB88B34FF0C6
:101F7800FF31039B01250E44C9F834101E6119E78F
:101F88003007A1D4DDF80C9047E7A661C8F3080331
:101F9800002B3FF411AF0398023EC369023B9E42F7
:101FA80004D24289036B06FB02320AB9022501E713
:101FB80002EB582251460123E2614078FEF74AFBC2
:101FC80000283FF4F9AE0125F4E6013EC9F8106097
:101FD8001FE7013EC9F83480DDF80C90C9F810609D
:101FE80017E74846FEF71CFC0028B7D0039B013EC4
:101FF80005461E61DEE6711CA6610CBF01230023A5
:10200800C4D11D46D6E600BF2DE9F04F1E4687B065
:102018000023884605A9044633601746FEF76CFB83
:102028000546002861D1657C002D5ED194F810A08A
:102038001AF0010A00F0A1806069E3681B1A9F4248
:1020480028BF1F46002F50D004F50B7304F12C0B4A
:10205800CDE90135C0F3080363BB0599430A4A89F2
:10206800013A12EA502244D0A069CB690238023BF7
:1020780098424BD2B1F80AC00B6B0CFB0030002819
:1020880044D0B7F5007F02EB000946D2E2694A4521
:102098000BD094F91030002B71DB487801234A46A5
:1020A8005946FEF7D7FA002860D16369C4F81C9036
:1020B800C3F30803C3F5007C5B4408F1FF32BC4559
:1020C80028BFBC4603EB0C0013F8011B834202F83F
:1020D800011FF9D16069B7EB0C073368E04460442D
:1020E800634460613360B5D1029D284607B0BDE8FE
:1020F800F08F38BBA068012808D9431C36D0059951
:10210800A0610238CB69023B9842B3D302231D4633
:102118006374284607B0BDE8F08F02EB57207D0AAC
:1021280060454878414688BFACEB02054A462B46D5
:10213800FEF790FAD0B994F91020002A33DB4FEA61
:10214800452CC7E7A06A38B3216804304989B3FB36
:10215800F1F3016829B9D9E75B1A50F8081F00297B
:10216800D4D08B42F8D240681844C4E755460123BE
:102178002846637407B0BDE8F08F0725B5E74878AF
:1021880001235946FEF774FA0028EFD1237C0599FC
:1021980003F07F03237480E7A16920680392FEF7A8
:1021A8002FFE039AA7E7E269A2EB0909A945C6D25F
:1021B80008EB492904F12C01019809F1FF3211F8C3
:1021C800013B814202F8013FF9D1B8E770B3F8B595
:1021D800036804462BB11A781AB18188DA889142CB
:1021E80001D00920F8BD5878FEF718FAC207F8D4CC
:1021F800237C13F04000F5D01B06266847D404F072
:10220800C9FF276A736B05469F4212D0F378002BEB
:102218004AD101233A4606F138017078FEF71AFAD6
:1022280030B14FF0FF3301207363F8BD09207047C8
:102238007763636ADA7A42F02002DA72A268216868
:10224800C2F307209A76D8760978032903D1120CAD
:102258001A75120A5A75E26830469D75110A1A777E
:102268005977110C120E9977DA772A0ADA752A0C3F
:102278002D0E1A7600225D769A74DA740123F370B3
:10228800FEF7F8FA237C23F040032374F8BD0123FA
:10229800E26904F12C017078FEF7EAF950B9237C61
:1022A80003F07F032374AAE73046FEF7B9FA002843
:1022B800AFD0F8BD0120F8BD10B582B00446FFF7D5
:1022C80085FF08B102B010BD01A92046FEF714FA37
:1022D8000028F7D1206002B010BD00BF2DE9F04FF3
:1022E80085B00D46044603A9FEF706FA064660B90E
:1022F800667C56B9A36A63B16F1C6DD0E2689542DB
:1023080028BF15466561002D4BD1304605B0BDE8A4
:10231800F08FE368AB4204D2227C12F0020F08BFB0
:102328001D46002263696261002DEED0039AB2F85F
:102338000A804FEA4828002B48D0013B6A1EB3FBAD
:10234800F8F1B2FBF8F28A4240D3C8F10002A7695B
:102358001340ED1A6361002F00F0B580454513D88E
:10236800E5E0FEF731FE0746002800F0AB807B1C55
:102378006ED0012F65D9039BDB69BB4261D9A845A3
:102388006369A76180F0D380227C43443946A5EB7A
:102398000805920720686361E3D4FEF731FD07461C
:1023A800E5E7681E2268191D5B68400A5289B0FB80
:1023B800F2F22BB950E0D21A51F8083F002B4BD05B
:1023C8009342F8D94B6813449A1E47E0A768002F38
:1023D8006CD00023A761BEE71F46D4F808804FF0F1
:1023E800020957F804ABB8F1000F17D1D145C3F86B
:1023F800009000F28A8000233B6086E709F1020919
:10240800CA4505D33B4643F808BBC7F804801F46B6
:10241800039BDB698B4240F2B180884641464FF00E
:10242800000B03E0481C13D08D42E7D120680D460D
:10243800FEF7E6FC01280BF1010B05F10105014649
:10244800F0D802231E466374304605B0BDE8F08F0D
:1024580001231E46637458E76FF00102039FA361CE
:10246800FB69023B9342ECD979893B6B02FB013350
:10247800002BE6D0C5F30805002D3FF446AF01391F
:10248800E2690840C518AA423FF43FAF94F91030FA
:1024980004F12C01002B60DB012378782A46FEF733
:1024A800D9F806460028D3D1E5612EE739462068D9
:1024B800FEF78AFD01280746C3D0411CC8D06369CE
:1024C800A06087E76369E2689A4259D2227CE36098
:1024D800C3F3080342F040022274002B3FF415AF07
:1024E800E269BA423FF411AF94F91030002B0EDBC9
:1024F80004F12C01039A012350783A46FEF7AAF812
:1025080006460028A4D1E761FFE61126FDE6039BF5
:1025180004F12C01587801230191FEF7A9F800284D
:1025280096D1237C019903F07F032374E2E72B44BF
:10253800C5F308026361FAB10399B81ECA69023A81
:102548009042BFF47EAF4A890F6B00FB0277002FE1
:102558003FF477AF07EB5527B5E77878012301916A
:10256800FEF786F800287FF473AF237C039F03F0FF
:102578007F03019923748FE71746A4E7A36A35E719
:10258800C3F30803A9E700BF10B584B00191002880
:1025980032D00446002203A901A8FEF725FA18B193
:1025A8000023236004B010BD039B204601992360DB
:1025B800FEF7FCFFE0B994F92B30002B1FDBA37961
:1025C800DB0617D5039BE16918784A8B032802D1EB
:1025D800898A42EA0142A260DB8800212046A38062
:1025E800FEF79AFE042805D00028D9D104B010BD02
:1025F8000428D5D10520D3E7092004B010BD039BDA
:10260800EAE700BF98B1036810B504462BB11A7801
:102618001AB18188DA88914201D0092010BD587812
:10262800FDF7FCFF10F00100F7D1206010BD092074
:10263800704700BF20B3036870B5044633B11A78F9
:1026480022B10D46DA888188914201D0092070BDF7
:102658005878FDF7E3FFC307F8D49DB12046FEF78D
:10266800B5FD10F0FB06F2D129462046FEF75CF8CE
:1026780031462046FEF706FD042808BF002070BD3D
:102688000920704729462046BDE87040FEF744BE41
:10269800144B9A7B012A01D90120704793F80EC088
:1026A80000225FFA8CFC03F80C2093F80EC003EBB1
:1026B8008C0CCCF8040093F80EC0987B9C448CF8E2
:1026C8000C2000F1010C30305FFA8CFC83F80EC04E
:1026D8004FF03A0C2F23087081F801C010468B7018
:1026E800CA707047AC0500247F2814D981B90D4AF7
:1026F800C72303E080290DD032F8023F98421FFA21
:1027080081FC01F10101F5D10CF1800080B2704724
:10271800FF2801D900207047024B803833F8100099
:10272800704700BFE46A0108B0F5805F244A41F6AB
:102738007D51244B34BF6121134610B5043303E0A7
:102748000433DAB133F8041C1C46B1B1884214D3FF
:1027580033F8022C5FFA82FC120A0CEB010E70456A
:10276800EEDA082A09D8DFE802F00512181B1E2144
:1027780024270E00411A33F8110010BD04EB4C0356
:1027880034F81C10DAE7A0F5E35080B210BD431A04
:1027980003F00103C01A80B210BD103880B210BD1A
:1027A800203880B210BD303880B210BD1A3880B2DF
:1027B80010BD083080B210BD503880B210BD00BFC7
:1027C800D86D0108E46B0108704700BF704700BF6F
:1027D800704700BF70B51E4D0C461646284600F0DF
:1027E800D3F895F8443053B16B6E002B22DD1948AD
:1027F800D0F86039D0F86419013B8B4224D8C6B1AF
:10280800013E00257608134801F0C6FD07EE900A40
:10281800B6EE007A2246FAEEE87AB54204F10804E8
:1028280005F1010567EE877A44ED017AC2ED007A79
:10283800E9D170BDE3D00748D0F864190029DED08B
:10284800013901F089FDDAE7013101F085FDD6E7AC
:102858003C0A00241C9D002410B5002184B01548B2
:10286800012400F035F90023032201A912488DF84C
:102878000C30CDE9012403F0D1FB21460F4804F0C8
:1028880065FC22460E490F48FFF756FA0E490F48D5
:1028980001F004FE0E4B0421064883F8704900F04D
:1028A8005DF80C49034800F057F8084801F09AFD14
:1028B800FBE700BF3C0A0024BCC80024BC05002478
:1028C800946E0108C0050024300A00241C9D0024D1
:1028D8001CBD0024DD27000838B5174C002504F579
:1028E800C070256065612562E56301F087FC1349C6
:1028F80040F20F73124A2046C4F8381204F51471D6
:10290800A4F83C3240F20113C4F89051C4F848527C
:10291800C4F84C52C4E990130A4913F0EFFF084A6F
:1029280009490A4813F0EAFF054A09490948BDE878
:10293800384013F0E3BF00BF3C0A00240080707FDA
:1029480000000024D9270008D1270008BCC80024AB
:10295800D52700081C9D002400F050B938B504465E
:1029680000F050F9D4F8A850204600F067F928463E
:1029780001F0AAFBD4F8AC50204600F05FF92846D5
:10298800BDE8384001F0A0BB10B50446403001F066
:10299800F7FB04F1B00001F0B1FC04F1C000BDE8A0
:1029A800104001F0ABBC00BFF0B54FF481718FB09F
:1029B80000F1D80701254FF4C0624FF4E063ADF889
:1029C800081000F5967402993846ADF80C2008AE48
:1029D800ADF810300095DDE9032301F029FC40F241
:1029E80001134FF480722046ADF814304FF4806321
:1029F800059900950BADADF81820ADF81C30DDE950
:102A0800062301F015FC3046072104F0DDFF96E8A7
:102A1800070085E807002946384601F031FC96E8AA
:102A2800070085E807002946204601F029FC3846BA
:102A380001F03CFC20460FB0BDE8F04001F036BC88
:102A48002DE9F04140F2024304460222002504F138
:102A5800180704F1A8062DED028B8EB09FED1B8A96
:102A6800ADF80C3005A8039901F0BEFD02220DF166
:102A78002600ADF81020049901F0B6FD04230222C7
:102A880005A9384601F0C4FD04F1680204F1880381
:102A9800C4E92A232946384656F8048B01F0C6FFB4
:102AA80001462046019100F0C9F80023F0EE480ADB
:102AB800019940461A4601F0D5FA25B10EB0BDEC91
:102AC800028BBDE8F0810125E4E700BF6F12033BEC
:102AD8002DE9F04104469AB00027019100F08CF8E6
:102AE8000199204600F06AF940F6061304F1B00691
:102AF8009FED400AADF8143004F1C0053046059941
:102B080001F0E2FB4FF4007328469FED3A0AADF856
:102B1800183004F5C878069901F0D6FB40F6033260
:102B280040F201639FED330AADF8082004F140003C
:102B38000299ADF80C70C4F8D0600FAEC4F8D45048
:102B480007ADADF81030DDE9032301F0E9FA2046BE
:102B5800FFF72AFF2046FFF773FF284601F04EFBD8
:102B680001230DF12C0E04F5C07C1593189347F63C
:102B78001223169719930223179395E80F008CE8F0
:102B88000F008EE80F0086E80F00BDF84030149063
:102B9800ADF84E30BDF84230D4E9625EADF84C3045
:102BA800C4E9655EBEF1000F04D072463946284676
:102BB80013F0EAFE13A9404604F0FEF804F5D270BB
:102BC80001F030FB3021204600F01CF8D4F8A85062
:102BD800204600F033F8284601F076FAD4F8AC50D5
:102BE800204600F02BF828461AB0BDE8F04101F065
:102BF8006BBA00BF00000000704700BF143001F03E
:102C080009BA00BF38B500F1140504462DED028B52
:102C1800284601F0EDF9284601F0F8F92846B0EE0B
:102C2800408A01F0E1F9D0ED007AF8EE677A88EE93
:102C3800277ABDEC028B84ED0E7A38BD90ED0E0A32
:102C4800704700BF10B540F203338EB000244FF632
:102C58000B7240F20341ADF8083009A80123ADF822
:102C68001020ADF824202246ADF80C1000940299EB
:102C780007940C94CDE90544CDE90A4401F032FFEC
:102C880004A8012322460399009401F02BFF09A808
:102C980002F00EF810B901200EB010BD04A802F021
:102CA80007F8A0420CBF022020460EB010BD00BF9E
:102CB8002DE9F04103239AB0012700240646CDE907
:102CC80014373B4BCDE9104340F20453CDE9164786
:102CD800ADF84830FFF7B6FFB842054625D00228C0
:102CE80045D040F60132334B0DF12C081894ADF85D
:102CF8002C200B981997CDF84A3000F0E3F810A96A
:102D080006F13C0003F01CF8302003224FF07E53FC
:102D180041460D930E93CDE90B02F26B06F11400B8
:102D280001F02AF91AB0BDE8F0811023214A06A95A
:102D380006908DF828300DF12C081F4BCDF84A204D
:102D480007930294CDE91804CDE9080402A802F01B
:102D58002FFA0823029A03A94046ADF80C508DF8C3
:102D68000E40049505930B9400F0ECF8C7E700209B
:102D78000121104B0DF12C083A460094CDF84A3049
:102D88004FF60B730C94ADF82C302346CDE918019F
:102D980040F601314046ADF818100699CDE90D44CA
:102DA80001F0A0FE2146404601F08EFFA7E700BFD4
:102DB80004020404040604030704010B2DE9F04788
:102DC80004462DED028B82B000294DD0012140F23E
:102DD800011200230091ADF804208DF80630364A20
:102DE8000127364B04F10409354904F129086260CA
:102DF80040F20272A36040F60663E16004F1250A1E
:102E0800A4F82520A4F82930278284F8277084F8AC
:102E18002B7004F00FFC054604F072FA694606466A
:102E280050BB4DB304F130008DF8067004F08AFBF6
:102E3800072D3CD104F114052046FFF739FF284639
:102E480001F0E4F82846B0EE408A01F0CDF8D0ED64
:102E5800007AF8EE677A88EE277A84ED0E7A02B067
:102E6800BDEC028BBDE8F08740F2011300918DF8AC
:102E78000610ADF80430B2E704F1300004F062FB4C
:102E8800072D11D04946204602F0DAFB0EB9002D75
:102E9800D0D1504601F022FF404601F01FFF04F157
:102EA800120000F079F9C5E7002EF2D1C2E74946D1
:102EB800204602F0C5FBBDE705080509050705061C
:102EC800050A060610B584B003460124ADF80400CF
:102ED80003A8ADF80C30ADF80E4001F0FFFE214616
:102EE80003A801F0E5FF204604F008FA002103A832
:102EF80001F0DEFF204604F001FA214603A801F0A4
:102F0800D7FF04B010BD00BF10B5C2F3002384B0D2
:102F18000C46017C8DF80D2043EA4402FA24022372
:102F28008DF80C2003AA009402F0D8F918B10124F6
:102F3800204604B010BD04460A2004F0DFF92046FC
:102F480004B010BD034670B543F8042B044684B0A2
:102F580007C983E80700A37983B91A210B461E2203
:102F6800FA2523742046ADF80C20022303AA009505
:102F780002F0B4F928B1012004B070BD1B210B4642
:102F8800EDE70A2004F0BAF94FF4B852009502238D
:102F9800ADF80C20204603AA217C02F09FF90028F6
:102FA800E9D10A2004F0AAF941F20272009502233D
:102FB800ADF80C20204603AA217C02F08FF90028E6
:102FC800D9D10A2004F09AF9042200950223ADF819
:102FD8000C20204603AA217C02F080F90028CAD1DF
:102FE8000A2004F08BF9062200950223ADF80C2084
:102FF800204603AA217C02F071F90028BBD10A20DF
:1030080004F07CF941F2082200950223ADF80C2067
:10301800204603AA217C02F061F90028ABD10A20DE
:10302800064604F06BF90095022303AA217C20468A
:10303800ADF80C6002F052F900289CD1304604F03B
:103048005DF9009522790C232046002A8DF80C3072
:1030580003AA4FF0020314BF622142218DF80D101C
:10306800217C02F03BF9002885D1304604F046F96E
:103078002279D4E902310B43DBB20AB943F04003A9
:1030880062790AB143F020030E22FA258DF80D303B
:103098002046009502238DF80C2003AA217C02F01B
:1030A8001DF900287FF467AF0A2004F027F91022E1
:1030B80000950223ADF80C20204603AA217C02F0DB
:1030C8000DF900287FF457AF0A2004F017F91221F0
:1030D80000950223ADF80C1003AA217C204602F0CB
:1030E800FDF800287FF447AF0A2004F007F9012211
:1030F80009212046FFF708FF003818BF01203BE7E9
:10310800F0B5102387B0234C0122002501260027A3
:1031180002A920460195CDE902234FF48052CDE95A
:1031280004670CF011F9642005F00AF802A94FF4BD
:1031380080522046CDE9046702261027CDE90267B0
:103148000CF002F90322102302A92046CDE902233C
:1031580000230422CDE904234FF480520CF0F4F844
:1031680040F23223042202A9019310232046CDE91C
:103178000223019A012305924FF4805204930CF024
:10318800E3F840F6060120460CF0FEF8284607B0A2
:10319800F0BD00BFC8C800241C4B00221C494FF0DA
:1031A800400C30B5054689B00220596007219A6065
:1031B8001A620124DA620A224FF4006EDC60069279
:1031C8002022CDE9000104200821CDE902010320D5
:1031D8001021CDE9040108206946C3E904024FF42F
:1031E800C072181DC3E906C24FF48052C3E909E250
:1031F8000CF080F838B92846FFF782FF003818BF6E
:10320800012009B030BD204609B030BDC4C8002433
:1032180040410052614A0021D0B513688EB00A912E
:10322800002B40F0B9805E4B01214FF683700C24CF
:1032380011600221D3F8D4200026032742F48052DB
:10324800C3F8D420D3F8D42002F480520092009A14
:10325800D3F8E02042F01002C3F8E020D3F8E020D1
:1032680002F010020192019AD3F8E02042F04002E5
:10327800C3F8E020D3F8E02002F040020292029A5C
:10328800D3F8E02042F00802C3F8E020D3F8E020A9
:1032980002F008020392039AD3F8E02042F4807205
:1032A800C3F8E020D3F8E02002F480720492049A74
:1032B800D3F8E02042F08002C3F8E020D3F8E02001
:1032C80002F080020592059AD3F8E02042F020022D
:1032D800C3F8E020D3F8E02002F020020692069A14
:1032E800D3F8E02042F00402C3F8E020D3F8E0303D
:1032F8000C9403F0040307930323079A0B93CDE977
:10330800080108A9274806F0EFFB48F23712022304
:1033180008A925480C94CDE90823CDE90A6706F0E9
:10332800E3FB4CF20372022308A920480C94CDE970
:103338000823CDE90A6706F0D7FB40F2FF620223B3
:1033480008A91B480C94CDE90823CDE90A6706F0C3
:10335800CBFB4FF60C72022308A916480C94CDE952
:103368000823CDE90A6706F0BFFB4FF63F020223A8
:1033780008A911480C94CDE90823CDE90A6706F09D
:10338800B3FB2022022308A90A480C94CDE90A6756
:10339800CDE9082306F0A8FB0EB0D0BDC0C80024B4
:1033A800004402580010025800180258000C025835
:1033B80000200258001C0258001402582DE9F04F52
:1033C800DFF8108406460D46144608F118002DED66
:1033D800028B89B000AF02F0ABFDD8F8183073B398
:1033E800D8F81C30D8F80490002B43690BBF4FF075
:1033F800080A4FF0100A4FF0020B4FF0040BB9F116
:10340800000F2AD0A200EA46012B02F1070222F09F
:103418000702ADEB020D6846ADEB020D694600F000
:103428003F81022B00F0D680002B6FD02246C84780
:10343800D5462437BD46BDEC028BBDE8F08FD8F8E1
:103448001C30002BF5D0D8F804904FF0080A4FF044
:10345800020B4369B9F1000FD4D1FB61D8F80030F1
:10346800BB61002BE5D0D54802F0D4FD6B46BBF11B
:10347800020F786108EE103AFB6900F083816A4612
:103488005146A2EBC40295466200EA46B2FBFBF243
:10349800AAEBC40085460AEB8200EE46F861ADEB64
:1034A800010DF8690EEB820CC7F810C0EC46ADEBC5
:1034B800010D00EB8201CCF80400CCF8081001EBF8
:1034C80082013869E946CCF80C1000EB8201CCF88F
:1034D80000A001EB8202C9E900E0C9E90212012B50
:1034E80000F06483022B00F06C82002B00F08081D6
:1034F800620849466046BB69984718EE103A243777
:103508009D46BD46BDEC028BBDE8F08F002C8DD0EA
:103518001A46D8ED0C6A9FEDB27A8446331D36F907
:1035280022E00CF1080C07EE90EA33F922E00232AF
:10353800F8EEE77A944267EE877A67EEA67A4CED62
:10354800027A07EE90EAF8EEE77A67EE877A67EE96
:10355800A67A4CED017AE2D8F9612246C847984E1E
:10356800D8ED0D6A0020F9692B1D9FED9E7A9FED1D
:103578009E6ADFED9E5A22E0F4EEC67AF1EE10FA6A
:10358800C0F2C88447F6FE72D1ED017A45F82020D2
:1035980066EEA77AF4EEC77AF1EE10FA40F2F08000
:1035A800F4EEC67AF1EE10FAC0F2D58447F6FE7250
:1035B80043F820200230083184427FF639AFD1ED3C
:1035C800007A66EEA77AF4EEC77AF1EE10FAD3D84D
:1035D8003246D9E7002C3FF429AFD8ED0C6A84466F
:1035E8009FED787A0022331D8E4656F822100CF192
:1035F800080C07EE901A53F822100232F8EEE77A18
:10360800944267EE877A67EEA67A4CED027A07EE67
:10361800901AF8EEE77A67EE877A67EEA67A4CEDAD
:10362800017AE2D871462246C7F81CE0C847664EC0
:10363800D8ED0D6A0020F9692B1D9FED6A7A9FED80
:103648006A6ADFF894C120E0F4EEC67AF1EE10FA67
:10365800C0F279843246D1ED017A45F8202066EE31
:10366800A77AF4EEC77AF1EE10FA40F28780F4EE0A
:10367800C67AF1EE10FAC0F25E84324643F8202092
:103688000230083184427FF6D3AED1ED007A66EE7F
:10369800A77AF4EEC77AF1EE10FAD5D86246DAE7DF
:1036A800002C3FF4C3AED8ED0C6A86469FED477AEE
:1036B8004FF0000C331D56F82C200EF1080E82F442
:1036C8000002A2F5000207EE902A53F82C200CF114
:1036D800020CF8EEE77A82F400026445A2F50002D3
:1036E80067EE877A67EEA67A4EED027A07EE902AA1
:1036F800F8EEE77A67EE877A67EEA67A4EED017AFA
:10370800D9D8F9612246C847314ED8ED0D6A002054
:10371800F9692B1D9FED337A9FED336ADFF8BCC042
:103728001FE0F4EEC67AF1EE10FAC0F2FC833246DE
:10373800D1ED017A45F8202066EEA77AF4EEC77A33
:10374800F1EE10FA18D9F4EEC67AF1EE10FAC0F2DA
:10375800DA83324643F820200230083184427FF66B
:1037680067AED1ED007A66EEA77AF4EEC77AF1EE8D
:1037780010FAD6D86246DBE76246EBE762467DE799
:10378800324615E7A100D6466208073121F0070145
:10379800ADEB010DEA46ADEB010D6946ADEB0E0D43
:1037A8000AEB8200EC46ADEB0E0D01EB8202F861EC
:1037B800E946CCE900A0C9E9001290E618C900243E
:1037C8000280FFFF000000300082FF7F000000340D
:1037D80082FF7F00FCC80024007E00807E0080FFFE
:1037E8000000003804FF7FBF04FF7F3F00FEFF4654
:1037F800002C00F0C982BBF1020FD8F8242000F099
:10380800FA827969C7F8049002EB810E5FED0C5AD1
:103818008A00DCF808100EF104007A611A46DCF818
:103828000C303B61331DD7F810903D61FD69C7E945
:1038380002CB8C46834636F92210D8ED0C7A06EE78
:10384800101A33F9221006EE901A3EF92210B8EE3B
:10385800C66A07EE101AF8EEE66A3BF92210B8EECF
:10386800C77A26EE256A66EEA56A27EE257A26EE41
:10387800276A66EEA76A27EE277A07EE901A51089C
:103888000232F8EEE77A0AEB8100944280ED006A92
:1038980005EB810067EEA57AC0ED006A0CEB8100AC
:1038A80009EB810180ED007A98ED0C7A67EE877A52
:1038B800C1ED007ABFD8D7F804903D69D7E902CBAB
:1038C80060466208BB6949469847D8F82C307A693F
:1038D800D8ED0D6A1A441FED3D7A1FED3D6A2B1D88
:1038E800904602F1040A5FED3F5A0022A84ED9E93A
:1038F80000EC51E0F4EEC67AF1EE10FAC0F2C7829D
:1039080047F6FE7045F822000CEB0100D0ED007A76
:1039180066EEA77AF4EEC77AF1EE10FA4BD9F4EE18
:10392800C67AF1EE10FAC0F2BA8247F6FE70BBF121
:10393800020F43F822002BD0D9F808000844D0ED34
:10394800007A66EEA77AF4EEC77AF1EE10FA36D965
:10395800F4EEC67AF1EE10FAC0F2CD8247F6FE70A8
:1039680048F82200D9F80C000144D1ED007A66EE3F
:10397800A77AF4EEC77AF1EE10FA1ED9F4EEC67AF9
:10398800F1EE10FAC0F2AF8247F6FE714AF8221043
:10399800023294427FF6B1AD51080EEB81008900E6
:1039A800D0ED007A66EEA77AF4EEC77AF1EE10FA57
:1039B800A0D83046A6E73046B9E73146E6E73046B4
:1039C800CEE7002C00F0E081BBF1020FD8F82430DC
:1039D80000F0E1817A69DCF8081003EB820EC7F881
:1039E80004909300DFED6B5A0EF1040000227B6116
:1039F800DCF80C303B61331DD7F810903D61FD6950
:103A0800C7E902CB8C46834656F82210D8ED0C7ACB
:103A180007EE101A53F82210B8EEC76A07EE101A0C
:103A28005EF82210F8EEC76A07EE101A26EE256A2D
:103A38005BF82210B8EEC77A66EEA56A26EE276A0A
:103A480027EE257A66EEA76A27EE277A07EE901A00
:103A580051080232F8EEE77A0AEB8100944280EDD1
:103A6800006A05EB810067EEA57AC0ED006A0CEBF1
:103A7800810009EB810180ED007A98ED0C7A67EE00
:103A8800877AC1ED007ABFD8D7F804903D69D7E9A5
:103A980002CB60466208BB6949469847D8F82C3083
:103AA8007A69D8ED0D6A1A449FED3E7A9FED3E6A19
:103AB800131D9246DFF8E4C00022FB612B1D364E31
:103AC800D9E9008E4EE0F4EEC67AF1EE10FAC0F2B3
:103AD800FC81304645F822000EEB0100D0ED007A5B
:103AE80066EEA77AF4EEC77AF1EE10FA49D9F4EE49
:103AF800C67AF1EE10FAC0F2EF813046BBF1020F40
:103B080043F822002AD0D9F808000844D0ED007AFA
:103B180066EEA77AF4EEC77AF1EE10FA35D9F4EE2C
:103B2800C67AF1EE10FAC0F2C98130464AF822008E
:103B3800D9F80C000144D1ED007A66EEA77AF4EECC
:103B4800C77AF1EE10FA1ED9F4EEC67AF1EE10FA41
:103B5800C0F2AD813146F86940F822100232944231
:103B68007FF6CBAC510808EB81008900D0ED007AD4
:103B780066EEA77AF4EEC77AF1EE10FAA3D860469B
:103B8800A8E76046BAE76146E5E76046CEE700BFCA
:103B98000280FFFF000000300082FF7F007E00806F
:103BA8000000003404FF7FBF04FF7F3F002C00F0BB
:103BB800EB807A690021D8F82430C7F8109003EB1D
:103BC800820ED7F81C909300FD610EF104021FEDE0
:103BD8000C6A7B61331D154656F821204808D8ED3C
:103BE8000C6ABBF1020F82F40002A2F5000207EE94
:103BF800902A53F8212082F40002B8EEE77AA2F561
:103C0800000227EE067A07EE902A0AEB8002F8EE09
:103C1800E77A27EE267A67EE867A82ED007A09EB54
:103C280080024FEA800067EEA67AC2ED007A27D0BC
:103C38005EF8212082F40002A2F5000207EE902A25
:103C480055F8212082F40002B8EEE77AA2F50002C6
:103C580027EE067A07EE902ADCF80820F8EEE77AD5
:103C6800024427EE267A67EE867A82ED007A98ED8E
:103C78000C7ADCF80C2067EE877A0244C2ED007AF1
:103C880002318C42A8D8D7F8109060466208BB6908
:103C98004946FD699847D8F82C307A69D8ED0D6AFD
:103CA8001A441FED407A1FED406A131D9246DFF853
:103CB800C4C20022FB612B1DAB4ED9E9008E4EE039
:103CC800F4EEC67AF1EE10FAC0F2C580304645F837
:103CD80022000EEB0100D0ED007A66EEA77AF4EE32
:103CE800C77AF1EE10FA49D9F4EEC67AF1EE10FA75
:103CF800C0F2BF803046BBF1020F43F822002AD041
:103D0800D9F808000844D0ED007A66EEA77AF4EEF8
:103D1800C77AF1EE10FA35D9F4EEC67AF1EE10FA58
:103D2800C0F2AE8030464AF82200D9F80C000144AF
:103D3800D1ED007A66EEA77AF4EEC77AF1EE10FAC2
:103D48001ED9F4EEC67AF1EE10FAC0F28B80314635
:103D5800F86940F82210023294427FF6CEAB51083F
:103D680008EB81008900D0ED007A66EEA77AF4EEC0
:103D7800C77AF1EE10FAA3D86046A8E76046BAE71A
:103D88006146E5E76046CEE7224649466046BB699C
:103D98009847FFF7B2BBC7F810B0002298ED0C6A3D
:103DA800331DDFED726AD7F81CB0786956F8221017
:103DB80007EE901A53F82210B8EEE77A07EE901A39
:103DC80051080232F8EEE77A27EE267A0AEB810EDE
:103DD80094420BEB810167EEA67A27EE067A67EE2E
:103DE800867A8EED007AC1ED007ADFD88300D7F8A5
:103DF80010B07B614DE61A46C7F810B098ED0C6A12
:103E0800331DDFED5B6AD7F81CB0786936F92210EC
:103E180007EE101A33F9221007EE901AB8EEC77A97
:103E280051080232F8EEE77A27EE267A0AEB810E7D
:103E380094420BEB810167EEA67A27EE067A67EECD
:103E4800867A8EED007AC1ED007ADFD88300D7F844
:103E580010B07B6134E5F0EE675AFEEEE45A15EED9
:103E6800900A34E7F0EE675AFEEEE45A15EE901A1F
:103E78006EE7F0EE675AFEEEE45A15EE900A3AE75E
:103E8800F0EE675AFEEEE45A15EE900A4BE767EE3D
:103E9800A57AFDEEE77A17EE900A00B232E567EEF2
:103EA800A57AFDEEE77A17EE900A00B23FE5F0EE4C
:103EB800675AFEEEE05A15EE901A4CE6F0EE675A95
:103EC800FEEEE05A15EE900A30E6F0EE675AFEEE86
:103ED800E05A15EE900AFDE5F0EE675AFEEEE05A5C
:103EE80015EE900A0AE667EEA57AFDEEE77A17EE78
:103EF800901A09B24AE567EEA57AFDEEE77A17EE61
:103F0800900A00B22CE5F0EE675AFEEEE45A15EE80
:103F1800902A1FE467EEA57AFDEEE77A17EE902A5D
:103F280012B2FFF731BBF0EE675AFEEEE45A15EE17
:103F3800902AFFF7FDBBF0EE675AFEEEE05A15EE49
:103F4800902AFFF79BBBF0EE675AFEEEE05A15EE9B
:103F5800902AFFF780BB67EEA57AFDEEE77A17EEA9
:103F6800902A12B2FFF724BB82FF7F0000000030C6
:103F7800000000387E0080FF30B5184C154685B02B
:103F8800046004F1080EEC460FC98EE80F00D4ED6A
:103F9800047AF5EEC07A8CE80F00F1EE10FA1ADD1B
:103FA800B7EE006A94ED057A27EE277AC6EE276AFF
:103FB80084ED0D7AC4ED0C6A6DB1204640F8185FA7
:103FC80001F0B6FF064903690020064A2162A26291
:103FD800E36005B030BD012005B030BDFCC8002449
:103FE800002000300000003000680830704700BF33
:103FF800B1F5807F03680A4628BF4FF48072B1F597
:10400800807F9A6094BF00200120704700681830B4
:1040180001F0EEBF30B5046883B008480D46A368C8
:10402800A26A216A9B00009004F1180001F082FF47
:104038000020C4E9000503B030BD00BFC533000847
:1040480010B4074B4FF07E51302400220320196131
:104058009C60D8605DF8044B5961C3E9062270473B
:10406800FCC80024F6EE007A9FED166A20EE207A4E
:104078000160F7EE006A80ED036A80ED020A27EE20
:10408800277AC6EE877AF4EEE67AF1EE10FA11DDB9
:10409800F0EE667A4FF07E514FF0000C0276002267
:1040A800C0ED017AC0F814C0016143768276C0ED94
:1040B800070A7047F4EEC67AF1EE10FAEAD5F0EE88
:1040C800467AE7E700000000837E80ED020AABB97C
:1040D800D0ED077A27EE800AF6EE007AB7EE007A7E
:1040E80020EE270AC7EE007AF4EEC77AF1EE10FA4E
:1040F80007DDF0EE477AC0ED017A7047DFED067A0A
:10410800E8E7F5EEC07AF1EE10FAF4D5DFED037AC0
:10411800C0ED017A704700BF6F12033B000000003A
:1041280030B585B004460025ADF80C10ADF8082070
:10413800ADF8043003F0E0F8BDF80C204FF48073BC
:10414800206004F118002283BDF808206383E3830C
:10415800A283257100F0C2FD04F11C0000F0BEFD31
:104168009FED060A019904F1080000F0ADF84FF63A
:10417800FF736562238405B030BD00BF00000000F6
:10418800F8B5044603F0B8F8002623682671834280
:1041980005D104F10800BDE8F84000F0AFB80127E8
:1041A80094F82050206004F11800BD40277100F0F9
:1041B80071FE6DB2284394F82150BD4084F8200068
:1041C80004F11C0000F066FE94F820306DB26662BF
:1041D80003F003032843022BC0B284F8210009D05E
:1041E80000F003000228D4D1002BD2D14FF0FF33C6
:1041F8006362CEE78307CCD16762CAE7074A1188B2
:1042080030B481800024064D91884FF48072856017
:104218000460C180C26030BC704700BFFC690108FF
:104228000040003000220A2302700371704700BF6B
:1042380030B585B004469FED110A9DF82050ADF8C1
:104248000C100399ADF808202A46ADF804308DED1E
:10425800000A10F0CFF99DED000A2A46029904F1F0
:104268001C0010F0C7F99DED000A2A46019904F1D7
:10427800380005B0BDE8304010F0BCB900007A4401
:1042880038B50C46054691ED000A10F0D7F994EDC3
:10429800010A05F11C0010F0D1F994ED020A05F1AC
:1042A8003800BDE8384010F0C9B900BF10B5044661
:1042B80010F0D6F904F11C0010F0D2F904F138001E
:1042C800BDE8104010F0CCB970B5044682B0C1F317
:1042D8000726CDB2ADF8041003F00EF84FF4807243
:1042E8004FF001232060A01DA571A280E671A36094
:1042F80002B0BDE8704000F0F1BC00BF38B504461C
:1043080002F0FAFF002223682271834210D00122B2
:10431800A57AE37A954020602271A01D6DB243B959
:1043280000F0B8FD40B22843C0B27F28A0720AD07E
:1043380038BD00F0AFFDB0FA80F040092843C0B2A4
:104348007F28A072F4D102F0D7FF07EE900AF8EEAA
:10435800677AC4ED037A38BDD0F8643970B58B42FA
:1043680042F6741604460D4606440AD03046FDF758
:10437800A3FFD4F86039AB4298BF03F1FF35C4F806
:1043880064594FF496710122304601FB05412C31E6
:10439800FDF7FEFC70BD00BF00F50052034692F821
:1043A800711979B1D2F86C09411C03EB4000C1F3D3
:1043B8000B01B0F96A09C2F86C1959B9022283F8DD
:1043C8006829704792F8700918B10123084682F8E5
:1043D80071397047B1F5006FFBD1012283F8682964
:1043E800704700BF90F86839B3B3022B40F66A12E1
:1043F80041F66A114FF0000318BF11464FF480527E
:1044080070B542F6741582B0044601440544019320
:1044180001AB08BF4FF40066284618BF0026FDF719
:10442800F3FD019BB3F5805F04F5005309D293F8BF
:10443800702992B983F87129002384F8683902B089
:1044480070BDD3F88819D3F880299142EFD00023A2
:1044580084F8683902B070BD7047D4F864294FF405
:104468009671284601FB0242116901222C3183F81A
:104478007129FDF733FF019A01AB28465108C2F5AF
:10448800805201F2B541314404EB4101FDF7BCFD16
:10449800002384F8683902B070BD00BF2DE9F047E9
:1044A8000023D4B000F500584FF48072C0F8643986
:1044B8000446C0F8603902A8A8F870290F46FEF72C
:1044C80063F8002853D1464EDFF818910EA902A8C8
:1044D800FEF7B0F803464FF4967A31460DF14E00D8
:1044E800002B47D19DF84E30002B43D09DF840302B
:1044F80013F0120FEAD1D4F86059062D3AD812F009
:1045080062FA034649460DF14E00A3B10AFB054085
:1045180039462C3012F04FFAD4F860090DF14E01EB
:104528000AFB00402C3012F037FAD4F86039013316
:10453800C4F86039CAE712F046FA0028E6D1C5E7A0
:1045480027440123D4F8641984F8683900293BD139
:104558004FF496730122384603FB01412C31FDF7D5
:1045680017FC2046FFF73EFF0023C8F86C3954B00B
:10457800BDE8F08702A842F67417FEF743F8D4F8AE
:104588006039002BDCD004F12C050026274405E017
:10459800D4F8603905F59675B342D2D92946012277
:1045A80038460136FDF7F4FB0028F1D101ABA5F13F
:1045B8002C012C223846FDF727FD03463846002BF0
:1045C800D5D1FDF779FEE3E73846FDF775FED4F857
:1045D8006019B1FA81F149094942C4F86419B7E789
:1045E800986E0108A06E010800B583B04FF0000E68
:1045F8004FF0030C4274ADF80410BDF8043080F895
:1046080010E0A0F802C0038003B05DF804FB00BF0F
:104618002DE9F04FDFF81C8300258DB0C04C0370E6
:1046280008F140034260074601920E4620222946BF
:104638004046C4F86831C4F86481CDE90255CDE933
:104648000455CDE90655CDE90855CDE90A5512F0CE
:104658009BF92022294604F5A170C4F83151C4F809
:104668003551C4F83951C4F83D5112F08DF9019B08
:1046780084F8485284F830317A68002A6AD02B4688
:1046880004F59871454606F1100A9E46F01856F84A
:1046980003B0E2180EF1010ED0F80CC0D0F8049067
:1046A800D0F8088044F803B0C2F80CC04FF0000CF2
:1046B800C2F80490C2F80880008A25F802CB10825C
:1046C8001AF8032001F8012F002A70D07A684FF0F9
:1046D80001001233724584F84802D7D84FF480227B
:1046E80090489DF8043008214FF000084FF0000969
:1046F800C4F884310023C4E95B020122C4F8743190
:1047080084F88031C4E95E2194F84812C4E96489C8
:10471800A9B3C4F89821002284F8813184F888313B
:104728003B78C4E96722002B38D001220020012100
:10473800013B84F8A421C4E96C01082B30D8DFE8D8
:1047480013F0BD00C200C700CC00D100D600DB00CA
:10475800E100E8009DF804300121C4F87421C4F890
:1047680084314FF4802384F880216E4AC4E95B23A6
:1047780008230022C4E95E130023C4E9642301234B
:10478800002284F88131002384F888310323C4F897
:1047980098313B78C4E96722002BC6D184F8A4314C
:1047A800614803F0A5FF034638B1FFBEFEE77A680B
:1047B800123372453FF66AAF90E702A95A4802934E
:1047C80004F0A2F88246002876D1042240F2FF7154
:1047D8000A90CDE9081294F83021002A00F0F380FD
:1047E8004FF006080AEBCA034FEACA0904EB430371
:1047F8005B7C072B07D8DFE803F0595C5653504D14
:104808004A04072307930FFA8AF6D14406EBC60633
:1048180004EB490904EB46077500384600F05EFAD8
:1048280099F81030042B00F3AA80022B00F3BD8006
:1048380000F0B98004EB0A03002283F8202114F861
:104848001630002B78D0022B00F08A80012B40F024
:10485800B2807B78012B00F0B080002B334B18BF5F
:10486800002305A93048CDE9053803F081FC00286C
:1048780040F0AC800AF1010A94F830315FFA8AFA04
:10488800534540F2A0802A4B53F82A80AAE7062312
:104898000793B8E705230793B5E704230793B2E71F
:1048A80003230793AFE702230793ACE7002307939B
:1048B800A9E701230793A6E7FFBEFEE703224023EB
:1048C800C4E96A236CE707226023C4E96A2367E71F
:1048D8000F228023C4E96A2362E71F22A023C4E9C8
:1048E8006A235DE73F22C023C4E96A2358E77F2291
:1048F800E023C4E96A2353E7FF224FF48073C4E935
:104908006A234DE740F2FF124FF49073C4E96A231B
:1049180046E740F2FF324FF4A073C4E96A233FE749
:1049280038C9002400200240A4CA00240002B0258F
:10493800A86E0108004100307B78062B37D0072B82
:104948003DD0022B4AD0032B4AD0002B4CD0012B50
:1049580048D0042B4AD0052B254B18BF002380E7ED
:104968007B78042B25D0052B2BD08BB3012B31D092
:10497800022B31D0032B1F4B18BF002371E70323F1
:10498800043504EB0A0B4FF0000925448BF820315D
:10499800284609F1010900F0A1F99BF820310435F6
:1049A8004B45F5DC4BE70123EAE70223E8E7124B26
:1049B80057E7124B55E7002353E7114B51E7114BCB
:1049C8004FE7114B4DE70DB0BDE8F08FFFBEFEE796
:1049D8000E4B46E70E4B44E70E4B42E70E4B40E7C3
:1049E8000E4B3EE70E4B3CE70E4B3AE70E4B38E7D3
:1049F8000000B84F002090360800900C1000C0103E
:104A08002000F0148000501D000180210004002ABD
:104A18000008302E001060320040C03A0080F03E9E
:104A280000005247000021430000844B034B0F292C
:104A3800D3F8640198BF00EB4100704738C90024DF
:104A4800214B02689A4200D07047204A0023204830
:104A5800D2F8D81030B51F4C41F0200183B0C4F80B
:104A6800D001092004F5E875C4E975034FF48060A6
:104A7800C2F8D810D2F8D8204FF40061C4E97730D2
:104A880094F8480202F02002C4F8E4114FF40051EF
:104A9800984201922846C4F8E811C4E97C33019B86
:104AA80014BF00234FF48073C4F8EC3104F052F9BA
:104AB80008B1FFBEFEE704F5B673C4F8B851C4F8F0
:104AC800083203B030BD00BF002002400044025845
:104AD8004000024038C90024014804F0B3BC00BFBC
:104AE80008CB002410B592B0ADF804100180C9B20B
:104AF800149C0B29C460C0E901233FD090F801C081
:104B0800BCF10F0F3AD8022A3FD0032A02D0012A5B
:104B180000D000220E92012B02D0022B18BF0023D6
:104B2800022C0F932CD0032C2AD0012C28D0002340
:104B38000A29109327D85C4A02EB812202610A29CC
:104B480014D8DFE801F0A39587796B5D4F413325D1
:104B58000600564BD3F8E01041F48061C3F8E0102A
:104B6800D3F8E03003F480630C930C9B01230DA968
:104B7800104603FA0CF30D9304F0B6FF12B010BD03
:104B88000A291094D7D90022D8E711220E92C2E739
:104B9800464BD3F8E01041F40071C3F8E010D3F8A5
:104BA800E03003F400730B930B9BDFE73F4BD3F824
:104BB800E01041F48071C3F8E010D3F8E03003F45A
:104BC80080730A930A9BD1E7384BD3F8E01041F081
:104BD8008001C3F8E010D3F8E03003F080030993B4
:104BE800099BC3E7314BD3F8E01041F04001C3F80B
:104BF800E010D3F8E03003F040030893089BB5E7D2
:104C08002A4BD3F8E01041F02001C3F8E010D3F8A4
:104C1800E03003F020030793079BA7E7234BD3F863
:104C2800E01041F01001C3F8E010D3F8E03003F0D1
:104C380010030693069B99E71C4BD3F8E01041F04C
:104C48000801C3F8E010D3F8E03003F00803059337
:104C5800059B8BE7154BD3F8E01041F00401C3F82E
:104C6800E010D3F8E03003F004030493049B7DE7DD
:104C78000E4BD3F8E01041F00201C3F8E010D3F86E
:104C8800E03003F002030393039B6FE7074BD3F86D
:104C9800E01041F00101C3F8E010D3F8E03003F070
:104CA80001030293029B61E7000002580044025886
:104CB80008B5012143780069994089B205F01CF9CB
:104CC800003818BF012008BD01230A464178006951
:104CD80003FA01F189B205F015B900BF8378022BF8
:104CE80030B504468FB037D0032B33D0012B31D0E9
:104CF80000230A93E378012B2AD0022B28D0002323
:104D08000B93002320460C9302F06EFE05462046C6
:104D180002F072FE23780990082B13D8DFE803F01D
:104D28001F3245586B7E91A40500594BD3F8E020FB
:104D380042F48072C3F8E020D3F8E03003F48073C3
:104D48000893089B09A9284604F0CEFE0FB030BD91
:104D58000B93D6E70A93CDE711230A93CAE74C4B86
:104D680009A92846D3F8E02042F00102C3F8E02060
:104D7800D3F8E03003F001030093009B04F0B4FE85
:104D88000FB030BD424B09A92846D3F8E02042F0C5
:104D98000202C3F8E020D3F8E03003F002030193E5
:104DA800019B04F0A1FE0FB030BD394B09A928467C
:104DB800D3F8E02042F00402C3F8E020D3F8E03052
:104DC80003F004030293029B04F08EFE0FB030BD83
:104DD8002F4B09A92846D3F8E02042F00802C3F86F
:104DE800E020D3F8E03003F008030393039B04F0BA
:104DF8007BFE0FB030BD264B09A92846D3F8E0202A
:104E080042F01002C3F8E020D3F8E03003F01003BA
:104E18000493049B04F068FE0FB030BD1C4B09A935
:104E28002846D3F8E02042F02002C3F8E020D3F867
:104E3800E03003F020030593059B04F055FE0FB006
:104E480030BD134B09A92846D3F8E02042F04002B0
:104E5800C3F8E020D3F8E03003F040030693069B44
:104E680004F042FE0FB030BD094B09A92846D3F81B
:104E7800E02042F08002C3F8E020D3F8E03003F0ED
:104E880080030793079B04F02FFE0FB030BD00BFCF
:104E98000044025838B5054602F0A6FD04462846E7
:104EA80002F0AAFD01462046BDE8384005F024B8C6
:104EB80070B506460D4602F097FD0446304602F0EE
:104EC8009BFD2A1E0146204618BF0122BDE87040FE
:104ED80005F018B80023122270B586B0CDE9022378
:104EE80004930368032B01D804230593061D841D2E
:104EF800304602F079FD0546304602F07DFD034656
:104F080001A92846019304F0EFFD204602F06CFD4C
:104F1800034620461C4602F06FFD01A903462046C1
:104F2800019304F0E1FD06B070BD00BF634A036859
:104F3800934210B58CB028D0614A934258D0614A48
:104F4800934200F09480604A934201D00CB010BDA7
:104F58005E4C5F48D4F8E03043F00203C4F8E03018
:104F6800D4F8E03003F002030A930A9BFFF7B2FF7C
:104F7800D4F8F43043F08003C4F8F430D4F8F430B3
:104F880003F080030B930B9BE0E7504C5148D4F897
:104F9800E03043F00203C4F8E030D4F8E03003F026
:104FA80002030193019BFFF795FFD4F8E830002234
:104FB8001F2043F400131146C4F8E830D4F8E83051
:104FC80003F400130293029BD4F8D83043F0010392
:104FD800C4F8D830D4F8D83003F001030393039B06
:104FE80003F006FD1F200CB0BDE8104003F03EBDE5
:104FF800364C3948D4F8E03043F08003C4F8E03048
:10500800D4F8E03003F080030493049BD4F8E03034
:1050180043F00203C4F8E030D4F8E03003F00203B0
:105028000593059BFFF756FFD4F8E83000222120AE
:1050380043F480031146C4F8E830D4F8E83003F4A8
:1050480080030693069BD4F8D83043F00103C4F8D4
:10505800D830D4F8D83003F001030793079B03F046
:10506800C7FC21200CB0BDE8104003F0FFBC1B4872
:10507800FFF730FF154B00224820D3F8E8401146CF
:1050880044F40004C3F8E840D3F8E84004F400040A
:105098000894089CD3F8D84044F00104C3F8D840D9
:1050A800D3F8D83003F001030993099B03F0A0FC5F
:1050B80048200CB0BDE8104003F0D8BC00540040B4
:1050C80000580040005C0040001C00580044025892
:1050D80010CE002488CB002460CC002438CD0024D6
:1050E8002DE9F0431A4B87B000254FF010099E4672
:1050F800EC46184BFF22E04667461A700EF1180678
:105108000EF13004CDE90055CDE90255ADF8009017
:10511800BCE80F00CDE90455AEE80F009CE8030099
:105128000095ADF800908EE80300B8E80F000FC6B0
:105138009CE803000095ADF8009086E803000FCFC7
:105148000FC49CE8030084E8030007B0BDE8F083BF
:105158000400002484CB002410B5EFF3108472B649
:10516800084B1A78120602D504B962B610BD1B782E
:10517800D82205485BB202FB0300143004F062F940
:10518800F2E700BF84CB002488CB0024014805F057
:10519800C7BD00BF14CC0024014805F0C1BD00BF45
:1051A800ECCC0024014805F0BBBD00BFC4CD0024F1
:1051B8002DE9F0430F68D8243F4D85B007FB04F470
:1051C800032F05EB0403036040DCCB680E46012B7C
:1051D8003CD84DD04FF0D808B646DFF8FC9008FB15
:1051E8000758BEE80F00C446ACE80F00DEF80030F0
:1051F8000DF1100ECCF80030D8F808C099E80F006F
:105208000EE90F000EEB8703BCF1010F53F8103CB9
:10521800C8F88C3031D0BCF1020F42D0BCF1000F7D
:1052280035D0317C8C34D823002201202C4403FB58
:1052380007534900C3E92602C3F894102046C3E97E
:105248002822C3E92A2205F05DFB18B1012005B028
:10525800BDE8F0830146204605F06EFD0028F5D133
:105268000146204605F092FD003818BF0120EEE700
:105278000B7C103B672BADD9E8E702F0D9F90F4B4F
:1052880098420CBF0E4B0F4BC8F89030C9E702F09C
:10529800CFF90A4B98420CBF0B4B0C4BC8F8903017
:1052A800BFE702F0C5F9054B98420CBF084B094B04
:1052B800C8F89030B5E700BF88CB0024000E270758
:1052C8002D0FB0303211D0205F4390608A62E030F9
:1052D800200BA0101A098010046A01082DE9F0417A
:1052E800D0F8008082B00D4617461E4608F18C049F
:1052F800204605F01DFD2028FAD1D8F80C3073B9E6
:105308006D002046089C33463A46A9B2009405F041
:105318004FFB003818BF012002B0BDE8F081089BA0
:1053280032463946204605F017FCF2E7044B1022B6
:105338001A7483F8E82083F8C02183F8982270470C
:1053480088CB002430B5002395B04FF48071062235
:1053580004460B9306921393CDE90C13CDE90E3353
:10536800CDE9113302F066F907282BD004F11005B6
:1053780041F2883206A9284606F01AFB28B1012313
:10538800184684F85C3015B030BD0222022306A905
:105398002846CDE9002310220123CDE9022300226B
:1053A8004FF48003CDE9042305224FF08073069261
:1053B8006A460F9341F2883306F066FC0028DED176
:1053C80015B030BD0323012084F85C3015B030BD22
:1053D80070B50023A4B04FF080724FF48075044676
:1053E800ADF806300D93CDE910320122CDE90E5308
:1053F800CDE91223CDE91433002943D0F02300F17D
:10540800100508AEADF80630C02341F288323146A7
:105418002846089306F0CCFA28B10123184684F8E8
:105428005C3024B070BD41F288320DF10601284687
:1054380006F028FB03460028EFD105224FF48071BF
:105448001E93284616924FF080721B9321931F9249
:1054580002AA9FED1F7BCDE91C13CDE922338DED08
:10546800027B9FED1D7B41F2883316A98DED047BED
:105478009FED1B7B8DED067B06F006FC0028CCD14A
:1054880024B070BD00F1100508AE612341F28832E6
:1054980031462846089306F08BFA0028BDD141F220
:1054A80088320DF10601284606F06AFB0028B4D1BF
:1054B800BDF80630204623F0780343F04003ADF8EA
:1054C8000630FFF73FFF00289ED0A6E7AFF3008025
:1054D80000000000010000001000000001000000B2
:1054E80000000000000040002DE9F04F00234FF4B9
:1054F800807501264FF0807804462DED028BABB005
:105508008DF8073013932193299314950E96CDF8AF
:105518005C80CDE91533CDE91863CDE91A33CDE9BF
:105528002253CDE92433CDE9273306231C9302F017
:1055380081F8072808D004F1100741F288321CA925
:10554800384606F035FA40B10123184684F85C3035
:105558002BB0BDEC028BBDE8F08F4FF0020A4FF084
:10556800020B4FF0050941F2883308AA1CA93846F6
:10557800CDF89480CDF870909FED2D8BCDE908ABD8
:105588004FF0000A4FF4800B8DED0A8BCDE90CAB80
:1055980006F07AFB0028D7D141F2883238460EA9A6
:1055A80006F006FA0028CFD1402341F288320DF1E7
:1055B800070138468DF8073006F064FA0028C3D191
:1055C80041F288330EA902AA3846CDF83890CDF8B2
:1055D8005C809FED197B8DED048BCDE906AB8DEDDD
:1055E800027B06F051FB03460028ADD1CDF8709040
:1055F8004FF00109CDF894804FF00008219308AAD4
:1056080029931CA938462295CDE92333CDE92733C0
:1056180041F288338DED0A8BCDE90CABCDE90889D1
:1056280006F032FB002893D0304684F85C608FE7A0
:1056380010000000010000004000000040000000D1
:105648002DE9F043624CA3B00D46046001F0F2FF6F
:10565800072800F0A980286823466968AA6807C354
:105668001E46AB8926F8043B3046257B677B06F04F
:1056780081F9E0B9574B012D4FF00108E061236132
:1056880014BF4FF480134FF40003C4E9058893FA5C
:10569800A3F3B3FA83F34FF48079013BC4F8249061
:1056A800C4E90B003046236206F0F8F838B101224D
:1056B800134684F85C20184623B0BDE8F0836623BF
:1056C8000B90139041F2883206A90693CDE90C900D
:1056D800CDE90E00CDE91100304606F069F9002841
:1056E800E5D1992341F2883206A93046069306F09F
:1056F8005FF90028DBD105231C9019906A461493A2
:105708004FF08073219014A91D9341F288339FEDC7
:105718002A7BCDE91A90CDE91F008DED007B9FED26
:10572800287B30468DED027B9FED277B8DED047B3A
:1057380006F0AAFA0028BAD129462046FFF748FE03
:105748000028B4D12046FFF7CFFE03460028AED18B
:10575800002FB0D1189330460027002606AA14A9B6
:10576800CDF86890CDE91F33EB2314934FF44063D1
:105778001B934FF4005317934FF440431C93A023FB
:105788001693062319934FF0805321934FF04073DB
:10579800CDE906671D9306F0EFFA034600288AD084
:1057A800434684F85C8086E701230322184684F880
:1057B8005C2023B0BDE8F083000000000100000079
:1057C8001000000001000000000000000000400080
:1057D800E8CE0024005000522DE9F04F8FB0414B25
:1057E8000024026800AF9A427C63C7E90944C7E90C
:1057F8000B4403D03C37BD46BDE8F08F3A4B40F62A
:1058080009213A48EB46D3F8D42007F11C0607F1E2
:10581800220A4FF0020942F480424FF00308C3F80D
:10582800D420D3F8D42002F48042BA60BA68D3F8FE
:10583800E02042F04002C3F8E020D3F8E02002F074
:105848004002FA60FA68D3F8E02042F02002C3F878
:10585800E020D3F8E02002F020023A613A69D3F858
:10586800E02042F01002C3F8E020D3F8E02002F074
:1058780010027A617A69D3F8E02042F00202C3F894
:10588800E020D3F8E030F86103F002033984BB610B
:10589800174B7B60BB697B6853F8040F7B6002F091
:1058A800A3F87B680546186802F0A6F816F8013BCD
:1058B800786207F124012846C7F830807B63C7E97E
:1058C8000A9404F011F95645E5D100225C201146EE
:1058D80003F08EF85C2003F0C9F83C37DD46BD467E
:1058E800BDE8F08F00500052004402580A0A090926
:1058F80044CF0024114B02689A4200D07047104AE6
:1059080070B5D2F8D4300F4C23F4804304F1180654
:10591800C2F8D43054F8040F02F066F8054620683F
:1059280002F06AF80146284604F01EFAB442F1D1A2
:105938005C20BDE8704003F0A7B800BF00500052DB
:105948000044025844CF0024014806F0A1BA00BF21
:10595800F8CE0024084B1A1D981D03F1080110B455
:105968009C1C9A6603F10A02C3E91834C3E91B01B7
:105978005DF8044B5A677047E8CE002438B50368D1
:1059880071B9026A00F1280500F5AC74012A0CBF50
:10599800002140218BBB1D4B5722C0F858310DE028
:1059A800426A00F1C00500F5E874012A0CBF002125
:1059B8004021EBB1164B5A22C0F8D03100232046C3
:1059C800C4E901214FF480524FF48061636262613F
:1059D8004FF48042C4E903314FF48073C4E90623CD
:1059E8004FF40033236203F0B5F958B1FFBEFEE768
:1059F800084B5822C0F8D031E0E7074B5922C0F8CD
:105A08005831DBE7C5E92044A56338BD10000240E2
:105A18007000024028000240580002402DE9F0437F
:105A2800821D05468BB0031D05F10A010830CDE93A
:105A3800052305F10C02AB69CDE907010992002B9A
:105A48003DD0EB69B3FA83F84FEA581801230222D4
:105A580005AE0AAF4FF006090393CDE9012356F8C6
:105A6800044B2B792278934216D02B68F3B1012B83
:105A780002D1F2B10A230493204601F0BDFF034688
:105A88002046009301F0B0FF694604F02DF8BE42AD
:105A9800E5D10BB0BDE8F083697963789942E4D128
:105AA800B8F1000FF3D02B68002BE0D1CDF810909F
:105AB800E2E76378022B14BF0A230823DBE74FF0E1
:105AC8000108C3E7534A0368934230B505468BB0D3
