:020000040800F2
:1000000000000220110A00080D0A00084D870008B0
:100010000D0A00080D0A00080D0A00080000000083
:100020000000000000000000000000000D0A0008B1
:100030000D0A0008000000000D0A0008D186000823
:100040000D0A00080D0A00080D0A00080D0A000834
:100050000D0A00080D0A00080D0A00080D0A000824
:100060000D0A00080D0A00080D0A0008996400082E
:10007000A5640008FD510008B1640008BD640008D3
:1000800051810008C95900080D0A00080D0A00082E
:100090000D0A00080D0A00080D0A00080D0A0008E4
:1000A0000D0A00080D0A00080D0A00080D0A0008D4
:1000B000C16C0108CD6C0108D96C0108FD5900081C
:1000C0000D0A0008095A00080D0A000835700008DA
:1000D00041700008857F0008B17F0008E57F0008B7
:1000E0000D0A00080D0A0008000000000D0A0008B3
:1000F0000D0A00080D0A00080D0A00080D0A000884
:100100000D0A000845680008E56C01084D700008FC
:10011000198000084D8000080D0A00080D0A00082B
:100120000D0A00080D0A000871700008A57000088B
:10013000858100080D0A00080D0A00080D0A000854
:1001400000000000000000000000000000000000AF
:100150000D0A00080D0A00080D0A00088180000839
:10016000155A00080D0A0008E186000805870008F6
:100170000D0A0008298700080D0A00080D0A00086A
:100180000D0A00080D0A0008B5800008E980000883
:1001900059700008657000080D0A00080D0A000873
:1001A0000D0A00080D0A00080D0A00080D0A0008D3
:1001B000B96100080D0A00080D0A00080D0A0008C0
:1001C0000D0A00080D0A00080D0A00080D0A0008B3
:1001D0000D0A00080D0A00080D0A00080D0A0008A3
:1001E0000D0A00080D0A00080D0A00080D0A000893
:1001F0000D0A00080D0A00080D0A00080D0A000883
:100200000D0A00080D0A00080D0A00080D0A000872
:100210000D0A00080D0A00080D0A00080D0A000862
:100220000D0A00080D0A00080D0A00080000000071
:100230000D0A00080D0A0008000000000D0A000861
:100240000D0A00080D0A00080D0A00080D0A000832
:100250000D0A00080D0A00080D0A00080D0A000822
:100260000D0A00080D0A00080D0A00080D0A000812
:100270000D0A00080D0A00081D810008000000009A
:100280000D0A00080D0A00080D0A00080000000011
:08029000000000000D0A000847
:1002A00010B5054C237833B9044B13B10448AFF3B0
:1002B00000800123237010BDF00300240000000023
:1002C000549D010808B5034B1BB103490348AFF324
:1002D000008008BD00000000F4030024549D0108C4
:1002E000034613F8012B002AFBD1181A0138704776
:1002F00001F0FF01102A2BDB10F0070F08D010F8D7
:10030000013B013A8B422DD010F0070F42B3F6D1DA
:10031000F0B441EA012141EA014122F007047FF0F3
:1003200000070023F0E80256083C85EA010586EA4A
:10033000010685FA47F5A3FA87F586FA47F6A5FA86
:1003400087F68EB9EED1F0BC01F0FF0102F0070292
:1003500032B110F8013B013A83EA010313B1F8D13D
:100360000020704701387047002D06BF354603381E
:10037000073815F0010F07D1013015F4807F02BF57
:10038000013015F4C03F0130F0BC0138704700BFA8
:1003900081F0004102E000BF83F0004330B54FEA36
:1003A00041044FEA430594EA050F08BF90EA020FA3
:1003B0001FBF54EA000C55EA020C7FEA645C7FEA36
:1003C000655C00F0E2804FEA5454D4EB5555B8BF59
:1003D0006D420CDD2C4480EA020281EA030382EACA
:1003E000000083EA010180EA020281EA0303362D5C
:1003F00088BF30BD11F0004F4FEA01314FF4801C2F
:100400004CEA113102D0404261EB410113F0004F40
:100410004FEA03334CEA133302D0524263EB4303F7
:1004200094EA050F00F0A780A4F10104D5F1200E95
:100430000DDB02FA0EFC22FA05F2801841F10001F0
:1004400003FA0EF2801843FA05F359410EE0A5F1C4
:1004500020050EF1200E012A03FA0EFC28BF4CF0F5
:10046000020C43FA05F3C01851EBE37101F00045AB
:1004700007D54FF0000EDCF1000C7EEB00006EEBB8
:100480000101B1F5801F1BD3B1F5001F0CD3490842
:100490005FEA30004FEA3C0C04F101044FEA445299
:1004A00012F5800F80F09A80BCF1004F08BF5FEA20
:1004B000500C50F1000041EB045141EA050130BD00
:1004C0005FEA4C0C404141EB0101013C28BFB1F512
:1004D000801FE9D291F0000F04BF01460020B1FA5D
:1004E00081F308BF2033A3F10B03B3F120020CDA30
:1004F0000C3208DD02F1140CC2F10C0201FA0CF00E
:1005000021FA02F10CE002F11402D8BFC2F1200C72
:1005100001FA02F120FA0CFCDCBF41EA0C01904028
:10052000E41AA2BF01EB0451294330BD6FEA040471
:100530001F3C1CDA0C340EDC04F11404C4F120025C
:1005400020FA04F001FA02F340EA030021FA04F36E
:1005500045EA030130BDC4F10C04C4F1200220FAC5
:1005600002F001FA04F340EA0300294630BD21FA03
:1005700004F0294630BD94F0000F83F4801306BFC9
:1005800081F480110134013D4EE77FEA645C18BFBD
:100590007FEA655C29D094EA050F08BF90EA020F54
:1005A00005D054EA000C04BF1946104630BD91EA4C
:1005B000030F1EBF0021002030BD5FEA545C05D14F
:1005C0004000494128BF41F0004130BD14F580048E
:1005D0003CBF01F5801130BD01F0004545F0FE4102
:1005E00041F470014FF0000030BD7FEA645C1ABF37
:1005F000194610467FEA655C1CBF0B46024650EA6E
:10060000013406BF52EA033591EA030F41F4002199
:1006100030BD00BF90F0000F04BF0021704730B51F
:100620004FF4806404F132044FF000054FF00001F4
:1006300050E700BF90F0000F04BF0021704730B5B5
:100640004FF4806404F1320410F0004548BF40428A
:100650004FF000013EE700BF42004FEAE2014FEADF
:1006600031014FEA02701FBF12F07F4393F07F4FBA
:1006700081F06051704732F07F4208BF704793F0BD
:100680007F4F04BF41F40021704730B54FF46074D0
:1006900001F0004521F000411CE700BF50EA0102D3
:1006A00008BF704730B54FF000050AE050EA01027C
:1006B00008BF704730B511F0004502D5404261EBEC
:1006C00041014FF4806404F132045FEA915C3FF42D
:1006D000D8AE4FF003025FEADC0C18BF03325FEACA
:1006E000DC0C18BF033202EBDC02C2F1200300FA7B
:1006F00003FC20FA02F001FA03FE40EA0E0021FAA0
:1007000002F11444BDE600BF53B94AB9002908BF3D
:1007100000281CBF4FF0FF314FF0FF3000F074B9DC
:10072000ADF1080C6DE904CE00F006F8DDF804E048
:10073000DDE9022304B070472DE9F047089D044627
:100740008E46002B4DD18A42944669D9B2FA82F284
:1007500052B101FA02F3C2F1200120FA01F10CFAC0
:1007600002FC41EA030E94404FEA1C48210CBEFBF8
:10077000F8F61FFA8CF708FB16E341EA034306FB81
:1007800007F199420AD91CEB030306F1FF3080F010
:100790001F81994240F21C81023E63445B1AA4B25D
:1007A000B3FBF8F008FB103344EA034400FB07F7FF
:1007B000A7420AD91CEB040400F1FF3380F00A8140
:1007C000A74240F207816444023840EA0640E41B35
:1007D00000261DB1D4400023C5E900433146BDE8E1
:1007E000F0878B4209D9002D00F0EF800026C5E983
:1007F000000130463146BDE8F087B3FA83F6002E9B
:100800004AD18B4202D3824200F2F980841A61EB12
:10081000030301209E46002DE0D0C5E9004EDDE730
:1008200002B9FFDEB2FA82F2002A40F09280A1EB18
:100830000C014FEA1C471FFA8CFE0126200CB1FB6D
:10084000F7F307FB131140EA01410EFB03F0884266
:1008500008D91CEB010103F1FF3802D2884200F2F3
:10086000CB804346091AA4B2B1FBF7F007FB101185
:1008700044EA01440EFB00FEA64508D91CEB040423
:1008800000F1FF3102D2A64500F2BB800846A4EB7E
:100890000E0440EA03409CE7C6F12007B34022FA69
:1008A00007FC4CEA030C20FA07F401FA06F31C4398
:1008B000F9404FEA1C4900FA06F3B1FBF9F8200CA5
:1008C0001FFA8CFE09FB181140EA014108FB0EF0EB
:1008D000884202FA06F20BD91CEB010108F1FF3A3B
:1008E00080F08880884240F28580A8F10208614447
:1008F000091AA4B2B1FBF9F009FB101144EA014155
:1009000000FB0EFE8E4508D91CEB010100F1FF34FF
:100910006CD28E456AD90238614440EA0840A0FB97
:100920000294A1EB0E01A142C846A64656D353D06D
:100930005DB1B3EB080261EB0E0101FA07F722FA91
:1009400006F3F1401F43C5E9007100263146BDE8BA
:10095000F087C2F12003D8400CFA02FC21FA03F31D
:10096000914001434FEA1C471FFA8CFEB3FBF7F09E
:1009700007FB10360B0C43EA064300FB0EF69E42C3
:1009800004FA02F408D91CEB030300F1FF382FD25C
:100990009E422DD9023863449B1B89B2B3FBF7F604
:1009A00007FB163341EA034106FB0EF38B4208D9DD
:1009B0001CEB010106F1FF3816D28B4214D9023E1E
:1009C0006144C91A46EA004638E72E46284605E73C
:1009D0000646E3E61846F8E64B45A9D2B9EB02080D
:1009E00064EB0C0E0138A3E74646EAE7204694E79D
:1009F0004046D1E7D0467BE7023B614432E73046D0
:100A000009E76444023842E7704700BFFEE700BFD1
:100A10000B480C4A904203D0121A0B4917F04AF8BF
:100A20000A480B4A904203D0121A002117F050F8DE
:100A300008F0E4F817F012F802F0ECFFFEE700BF50
:100A400000000024F0030024889D0108F003002426
:100A500040DF0024034B03EB800203445268187B01
:100A6000536818471C060024074B1A5C52B903EB65
:100A7000800219184FF0010C526803F800C0087B7F
:100A800013681847002070471C06002430B4054C3A
:100A900004EB800504446D68207BAC68A44630BC40
:100AA000604700BF1C06002430B4054C04EB8005F1
:100AB00004446D68207BEC68A44630BC604700BFEE
:100AC0001C06002410B404689CB121788446224698
:100AD0001F2913D93A2911D012F8013F1F2B0ED923
:100AE0003A2BF9D10134A1F13000A24201D1012801
:100AF0000CD94FF0FF305DF8044B70470B463A2B92
:100B0000F0D0044B18785DF8044B70470132CCF8F4
:100B10000020F8E70C0400242DE9F0410026D0F86D
:100B200000808E758369002B5AD0C36A07460D4634
:100B300001331ED0D8F80C301888002861D001F19C
:100B40001506012400E01C46002101F037F9631C62
:100B5000002856D0B4F5807F53D006F8010FD8F89E
:100B60000C2032F814000028EDD12C440023A3758A
:100B7000AE7DD7F81CC000204FF02E080CF1FF31DD
:100B8000024611F8013F0132202B18D0052B08BF77
:100B9000E523092A26D02C1863727EB9A3F14107F8
:100BA000192F0AD8082A9CF80CE08CBF10270827B8
:100BB0001EEA070F01D02033DBB2A37501300B2AE8
:100BC000DFD12C18B6B1002363729CF80B302B7266
:100BD000DCF81C302B60DCF816301A0CEB80AA8095
:100BE000BDE8F0812C180EB984F81680013084F825
:100BF0000980D0E7A6759CF80C30002B08BF2C4666
:100C0000E1E7002400232C44A375AE7DB1E700BFCB
:100C10002DE9F041456B00F13808044601232A46CE
:100C200041464078FFF740FFC0B9A26A0746236AF1
:100C3000AA1AE0709A420ED2A678012E01D80AE0D4
:100C4000236A1D44013E012341462A466078FFF78E
:100C50002BFF012EF4D13846BDE8F081012738463C
:100C6000BDE8F08138B5C37804460D4663B9012369
:100C70002A4604F138016078FFF708FF10B101201F
:100C80004FF0FF35656338BDFFF7C2FF0028EED097
:100C900038BD00BF70B54FF0FF3600230446B142A7
:100CA000C37046630CD00D460A46012300F138019B
:100CB0004078FFF7EBFE10B10420666370BD6563FA
:100CC0004AF65523B4F836229A421AD194F83830AD
:100CD000E92B07D0A36B0D4A03F0FF13934201D019
:100CE000022070BDD4F86E30094A23F07F4393424E
:100CF00009D0D4F88A00074B984214BF0220002084
:100D000070BD032070BD002070BD00BFEB009000DF
:100D100046415400464154330023F0B50B6085B082
:100D20000E461446FFF7CEFE051EC0F2BC808C4B6B
:100D300053F82570002F00F0C380376004F0FE04E4
:100D40003B787BB17878FFF785FEC6070AD4002C84
:100D500000F0A28010F0040400F09E800A242046D7
:100D600005B0F0BDE8B2002378703B70FFF77CFE61
:100D7000C50700F194800CB14407EFD40021384638
:100D8000FFF788FF02286DD0042800F0908001282A
:100D900000F281800025B7F84330B3F5007F7AD1A7
:100DA000B7F84E2002B9FA6D97F848303A62591EEA
:100DB000BB7001296FD897F8451088B27881002858
:100DC00069D0481E084266D1B7F8496030073E81B5
:100DD00061D1B7F84B0000B9B86DB7F846E0BEF185
:100DE000000F58D002FB03F30EEB16141C44A04274
:100DF00051D3001B8842B0FBF1FC4CD34FF6F57188
:100E00008C455FD840F6F5710EEB05002C447D62F1
:100E10008C450CF102013C63F961B86273D8002E75
:100E200039D0034401EB410001F00101FB6201EB09
:100E30005001012001F2FF11B2EB512F2BD34FF0E3
:100E4000FF338022C7E904333A71464A0021464CF9
:100E50001388FC600C4601333870B9619BB2138073
:100E6000FB8019E06C4607F5FB7307F23625204638
:100E70001A79114602B19968103340F8041B9D425B
:100E8000F6D104F1100654F8045B03208DB9B44286
:100E9000F9D104280BD00D24204605B0F0BD032461
:100EA000204605B0F0BD0B24204605B0F0BD01245E
:100EB000F2E729463846FFF7EDFE0128E7D86AE752
:100EC0000C24E9E70EEB05010CF102032C447D62D2
:100ED000B962B7F862103C633143FB61DBD19B0020
:100EE000796E03F2FF13F962B2EB532FD3D3B7F845
:100EF00068204FF0FF338021012A3971C7E904339C
:100F000008D00320A1E7002EC5D0034449000220E9
:100F1000FB628FE7691C7B6B994204D03846FFF770
:100F2000A1FE0028EDD14AF65523B7F8362200215C
:100F30009A423971E5D1BA6B0C4B9A42E1D103F177
:100F4000FF53D7F81C2203F5005320339A42D8D11F
:100F5000D7F820220320D7F82432C7E9043274E7F7
:100F600010040024180400241C040024525261417F
:100F70002DE9F843037804460D461646022B06D0A9
:100F8000032B6AD0012B27D00220BDE8F883876AA3
:100F9000436B07EB11279F4200F09080C378002B32
:100FA00040F0B68004F1380801233A4660784146A3
:100FB000FFF76CFD00284AD167636D00C6F3072276
:100FC0000123002005F4FF7508EB050108F8056012
:100FD0004A70E370BDE8F88301EB5107826A436B06
:100FE00002EB5728984563D0C378002B40F08A80E5
:100FF00004F138090123424660784946FFF746FD6F
:1010000028BBC4F8348015F0010507F10108C7F3C7
:1010100008075ED019F8073003F00F0343EA061300
:1010200009F807300123A76AE37007EB5827636BC1
:101030009F4278D02046FFF7EBFD0028A5D1012381
:101040003A4649466078FFF721FD002839D04FF035
:10105000FF3301206363BDE8F883826A436B02EBD0
:10106000D118984527D0C378002B57D104F1380701
:101070000123424660783946FFF708FD0028E6D193
:10108000C4F83480AD0026F0704205F4FE757B593B
:10109000791903F070431A43130C7A55100A8B70B8
:1010A000120E01234870CA700020E370BDE8F88377
:1010B00000F13809A7E700F13807E3E700F1380845
:1010C0007BE7C8F30801676349447DB1C6F30712A3
:1010D00012E009F807600123A76AE37007EB5827BD
:1010E000636B9F42A6D1C8F3080149440B78C6F34D
:1010F000032223F00F06324301230A700020E3701D
:10110000BDE8F883FFF784FD00283FF471AF3CE7AA
:10111000FFF77EFD00283FF445AF36E7FFF778FD87
:101120000028A3D031E7C8F3080309EB0301CDE79A
:1011300001294CD9C36999422DE9F0410C46054675
:1011400002D30120BDE8F0810378022B5AD0032B93
:101150003FD0012BF5D101EB5106826A436B02EBC4
:1011600056279F420ED0C378002B79D101233A46EF
:1011700005F138016878FFF789FC00285FD1AA6A79
:101180003B466F63771CC6F3080602EB57282E44D4
:10119000434596F838600DD0EB78002B65D10123DC
:1011A000424605F138016878FFF770FC002846D107
:1011B000C5F83480C7F30807E3073D4495F83800C5
:1011C00046EA00204CBF0009C0F30B00BAE701203B
:1011D0007047866A436B06EBD1169E4229D0C378CE
:1011E00093BB05F138070123324668783946FFF78B
:1011F0004DFC20BB6E63A40004F4FE74385920F04B
:1012000070409FE7866A436B06EB11269E4213D01F
:10121000C37803BB05F138070123324668783946A5
:10122000FFF734FC58B96E63640004F4FF74385B54
:1012300088E700F13807DEE700F13807F4E74FF000
:10124000FF3318466B637DE7FFF7E2FC0028C8D048
:101250004FF0FF3076E7FFF7DBFC0028DAD0F7E746
:10126000FFF7D6FC002881D0F2E72846FFF7D0FC34
:10127000002894D0ECE700BFF8B505460F460029DA
:1012800042D10669C36996BB0126344606E00128AF
:101290002CD0431C2AD0A64234D0EB690134284616
:1012A0009C4203D3012E4FF002042BD92146FFF7B5
:1012B0003FFF0028EBD1012C22D9EB699C421FD2C1
:1012C0004FF0FF3221462846FFF752FE00B997B98A
:1012D00028BBEB696A69023B2C619A4201D8013A4A
:1012E0006A612B79204643F001032B71F8BD9E42C1
:1012F00028BF0126C9E7012F02D0EB699F4213D313
:101300000120F8BD0020F8BDFFF712FF0128F7D932
:10131000421C06D0EB699842E8D33E46B5E7012867
:10132000EED14FF0FF30F8BD224639462846FFF790
:101330001FFECDE72DE9F04F056983B083692035A5
:10134000B5F5001F3BD2002B39D0C5F30808044681
:101350000768B8F1000F08D007F1380646440020AE
:101360002561E66103B0BDE8F08F0E4601334169A7
:10137000836141B3B7F80A9009F1FF3919EA552999
:10138000EAD13846FFF7D4FE0128834623D9B0F1CD
:10139000FF3F5DD0FA6982421FD9831E07F13806EC
:1013A0000193023A0199C4F814B08A4204D9B7F8FB
:1013B0000A903B6B01FB0939C4F81890CEE7042072
:1013C00003B0BDE8F08F3B89B3EB551FC4D80023B1
:1013D0000420A361C6E70220C4E7002EF7D06169AC
:1013E0002068FFF749FF8346002839D00128F2D052
:1013F000B0F1FF3F2CD0FA78002A33D107F138063C
:10140000ABF102034FF4007200213046019316F055
:101410005FFBF869019B821E934229D279893A6B5E
:10142000019B03FB01227A6329B34FF0000A05E018
:101430007A6B7889013250457A630BD94FF00103FA
:1014400038460AF1010AFB70FFF7E2FB0028EFD0F3
:10145000012087E7F869A2EB0A027A630246A0E757
:1014600007207FE73846FFF7D3FB0028C6D0EFE719
:1014700079890022D7E78A46EDE700BF2DE9F047DA
:1014800004464FF0FF08042025684646D4F818901B
:1014900005F13807B9F1000F32D06B6B4B4513D013
:1014A000EB78002B64D101234A4639466878FFF770
:1014B000EDFA38B14FF0FF3301206B630023A361D5
:1014C000BDE8F087C5F83490E1690A78002A58D061
:1014D000CB7AE52A03F03F03A37105D02E2A03D06F
:1014E00023F02000082810D1FF2600212046FFF716
:1014F00021FF0028E2D1D4F81890B9F1000FCCD127
:101500000028DBD10020BDE8F0870F2B46D1500624
:1015100034D5236902F0BF0691F80D80E3624B7B5E
:101520004345E1D14B8B002BDED10B780122DFF854
:1015300094E04FF6FF7A23F04003D5F80C900EF1BB
:101540000C0C013B03EB430003EB8003104609E066
:10155000FE2B1046C8D829F813200133E64512D0D7
:101560001EF8012F8A5A0028F2D15245F6D0BBE767
:101570002846FFF74DFB002895D09FE7B242B3D134
:10158000CDE704209AE70A78520604D5FE2BABD8A3
:10159000002229F81320013EF6B2A6E76EB901F148
:1015A0000B02F30143EA560611F8013B53FA86F6A3
:1015B0009142F6B2F5D14645A4D04FF0FF3300205A
:1015C000E3627DE7AC840108B1F5001F42D2CA0690
:1015D000F8B50D4620D18168064607680561E9B176
:1015E0007B89B5EB432F4FEA432435D3384607E0D8
:1015F000012811D9FB6983420ED9AC422DD830683D
:10160000FFF796FD431CA5EB04050146F0D1012030
:10161000F8BD0023C6E905130220F8BD3B78022B74
:1016200013D83B89B3EB551FF6D9FA6AB2617161E1
:10163000002AF1D007F13803C5F3080102EB552267
:1016400000200B44C6E90623F8BDFB6A002BE8D056
:101650001946C5E702207047FB69023B881E984285
:10166000D7D27B893A6B00FB0322B261DFE700BF70
:101670002DE9F04F0021054607682DED028B85B05E
:10168000FFF7A2FFC8B94FF0FF094FF0FF3307F192
:101690003808CA46EB62AC697B6B9C4213D0FB787E
:1016A000002B4FD10123224641467878FFF7EEF90F
:1016B00040B14FF0FF3301207B6305B0BDEC028BDE
:1016C000BDE8F08F7C63EC692678002E00F0AB80DB
:1016D000E27AE52E02F03F03AB7103D0100711D57B
:1016E0000F2B39D04FF0FF334FF0FF0AEB62002190
:1016F0002846FFF71FFE0028CDD005B0BDEC028BB9
:10170000BDE8F08F0F2B27D0BAF1000F77D095F8F6
:101710002B0010F00100E5D195F8201005F1210211
:1017200014F8013B05F12B065B1A002BDAD112F8F5
:10173000011B14F8013BB242A3EB0103F5D1002BCE
:10174000D0D1BAE73846FFF763FA0028AAD005B02F
:10175000BDEC028BBDE8F08F95F82B305906C6D44E
:10176000720647D52B6906F0BF0694F80D90EB6220
:10177000637B4B4540D1638B002B3DD194F800A097
:101780000123F96808EE108A0AF03F0A02960195D3
:101790000E460AF1FF3ADFF8C0B0184625460AEBBC
:1017A0004A02039100970AEB820A13E0BAF1FE0F96
:1017B000204618D800F022FB804636F81A00BA46B8
:1017C00000F01CFB804520460DD1224B9B452CD0C0
:1017D0001BF8013F0AF10107EC5A0028E6D14FF649
:1017E000FF739C42F1D0DDE9007518EE108A4FF0CE
:1017F000FF0A7CE7B245BBD04FF0FF0A77E704F160
:101800000B0022464FEACA1312F8011B43EA5A0A98
:10181000824251FA8AFA5FFA8AFAF3D1D1457FF40B
:1018200076AF002049E7042047E72C46009F029E40
:1018300018EE108A2378019D5B0600D520B906F1C9
:10184000FF3A5FFA8AFA52E7039B33F81A30002B0B
:10185000F5D0D1E7B8840108AC8401082DE9F04F38
:101860000B7883B00E4607462F2BD0F800B037D048
:101870005C2B37D0DBF81830836033781F2B3AD9D4
:101880005A461F2BD56898B240F22181A5F1020972
:10189000B046012408E029F8020F631C18F8010F74
:1018A0001F2840F21A811C462F2804F1FF3A2CD041
:1018B0005C282AD0B4F5807F0ED0012100F07EFA9A
:1018C00050B17F28E7D82223B14A03E012F8013F44
:1018D000002BE0D09842F9D1062003B0BDE8F08F8C
:1018E00016F8013F2F2BFBD05C2BF9D00023BB60F7
:1018F00033781F2BC4D880230021384687F82B303B
:1019000003B0BDE8F04FFFF75FBE335D32195C2BCB
:1019100002D02F2B40F05C81631C33441E4613F829
:10192000012B2F2AFAD05C2AF8D0BAF1010F4FF020
:10193000000800F0DA80BAF1020F40F0DC806B881A
:101940002E2B00F01381934A05EB420205E0BAF119
:10195000010A00F0BC8032F8023D202BF7D02E2B7C
:10196000F5D04FF02033002225F81A207B623B622D
:10197000C7F827302888202802D02E2840F0FC8085
:101980002A46002332F8020F1C4601332028F9D0E2
:101990002E28F7D048F00308023405EB4A0333F849
:1019A000022D2E2A02D0BAF1010AF8D190B30023F9
:1019B0000822BC46314699461F462E465B461546D0
:1019C000E3460A46202803D02E283AD1544538D081
:1019D00048F0030836F8140001340028F2D15946C3
:1019E0009B463B4616460F4691F820102A46E529AD
:1019F00002D1052187F82010082A00F0958003F015
:101A00000C020C2A04D003F00303032B40F0968051
:101A100048F0020887F82B803846FFF729FE97F830
:101A20002B3060B304287FF458AF9C0640F1E4806B
:101A300059073AD58023002087F82B3003B0BDE842
:101A4000F08F4D4534D9A4EB0A01B1FA81F149096F
:101A500071BB7F2858D82B21DFF840C103E01CF868
:101A6000011F00297AD08142F9D148F003085F2094
:101A70000BEB090109F1010981F82000AAE75A07D7
:101A80003FF52BAFBB79DB0640F1B4803B699BF897
:101A90000010C3F308020BF13803032913445A8BD7
:101AA00002D19B8A42EA0342BA603A683378E8E698
:101AB0000B2D00F08F80544502D048F003088ED8DB
:101AC000BF0054460B254FF00809FFB282E7002300
:101AD00006202B8003B0BDE8F08FA2461E444FF0D5
:101AE0000408BAF1010F7FF426AF2B882E2B45D0C6
:101AF0004FF0004228E7BAF1000FE8D06FF0004243
:101B0000524435F812301FE7CDE9003200F056F9A3
:101B1000DDE90032F8B1204948F00208084410F825
:101B2000800C0028A1D096E79B0003F00C020C2A41
:101B30003FF46EAF18F0020F08D06BE718F0020FF9
:101B40007FF468AF012B08BF48F01008042A08BFD3
:101B500048F008085EE748F0020886E7A0F1410176
:101B600019292CD847F00207C0B281E72A882E2A0B
:101B70007FF4E9AE042302E001240EE702230022F1
:101B80002E242020EA5207F1200201230DE000BF9D
:101B900018840108010000802C84010824840108B5
:101BA0000B2B107006D001330132591E8A45F7D92C
:101BB0001470F8E748F0200887F82B802CE7A0F194
:101BC000610119299CBF203847F00107C0B24FE7D7
:101BD0001646AAE6594616469B4648F0030891F871
:101BE00020203B460F46E52A7FF409AF052281F805
:101BF000202004E7052070E613F0040F08BF05203D
:101C00006BE600BF30B585B01546019003A8009182
:101C10000391FEF757FF031E1BDB0F4C54F82310F4
:101C200009B100220A70019959B10022012D44F82E
:101C300023100A700AD101A96846FFF76DF805B0B4
:101C400030BD084644F8231005B030BD104605B03D
:101C500030BD0B2005B030BD1004002410B584B099
:101C60000191002832D00446002203A901A8FFF701
:101C700053F818B10023236004B010BD039B204625
:101C800001992360FFF7EAFDE0B994F92B30002BAE
:101C90001FDBA379DB0617D5039BE16918784A8B14
:101CA000032802D1898A42EA0142A260DB8800212E
:101CB0002046A380FFF788FC042805D00028D9D14E
:101CC00004B010BD0428D5D10520D3E7092004B005
:101CD00010BD039BEAE700BF98B1036810B5044646
:101CE0002BB11A781AB18188DA88914201D0092083
:101CF00010BD5878FEF7AEFE10F00100F7D120605D
:101D000010BD0920704700BF20B3036870B50446BA
:101D100033B11A7822B10D46DA888188914201D018
:101D2000092070BD5878FEF795FEC307F8D49DB121
:101D30002046FFF7A3FB10F0FB06F2D12946204610
:101D4000FEF7EAFE31462046FFF7F4FA042808BF02
:101D5000002070BD0920704729462046BDE870402C
:101D6000FFF732BC144B9A7B012A01D9012070473E
:101D700093F80EC000225FFA8CFC03F80C2093F855
:101D80000EC003EB8C0CCCF8040093F80EC0987BCB
:101D90009C448CF80C2000F1010C30305FFA8CFC74
:101DA00083F80EC04FF03A0C2F23087081F801C061
:101DB00010468B70CA7070471C0600247F2814D907
:101DC00081B90D4AC72303E080290DD032F8023FC4
:101DD00098421FFA81FC01F10101F5D10CF180005C
:101DE00080B27047FF2801D900207047024B80382D
:101DF00033F81000704700BFBC840108B0F5805F65
:101E0000244A41F67D51244B34BF6121134610B55D
:101E1000043303E00433DAB133F8041C1C46B1B1D7
:101E2000884214D333F8022C5FFA82FC120A0CEBBE
:101E3000010E7045EEDA082A09D8DFE802F0051233
:101E4000181B1E2124270E00411A33F8110010BD63
:101E500004EB4C0334F81C10DAE7A0F5E35080B231
:101E600010BD431A03F00103C01A80B210BD103830
:101E700080B210BD203880B210BD303880B210BDA5
:101E80001A3880B210BD083080B210BD503880B210
:101E900010BD00BFB0870108BC850108704700BFB6
:101EA000704700BF704700BF49424FF48062143052
:101EB000C9B215F00DBE00BF704700BF402070478B
:101EC0008020704710B5044640F2144115F0A3FA83
:101ED000204610BDF8B5204D2A68204C622A2048C3
:101EE00021461EDCFFF710FF1E4B1F2204F11601D6
:101EF000B8B9A07DA8B1247A14F00207ECD12E68FD
:101F0000C4F3001403EB4613184615F0FBFE164904
:101F1000721CC7778C55622A104C114821462A60E2
:101F2000E0DD0F48FFF7D8FE1048FEF7D9F9012889
:101F300000D8F8BD2C681F220A4B0D4903EB44134F
:101F4000184615F0DFFE0021074AC177012163180A
:101F500011552B60F8BD00BF64B100241018002497
:101F60004C070024900B002488B000244C06002469
:101F70006C8801082DE9F041B02482B000F1080618
:101F800000F1100500F11408002728468DF80740DD
:101F90000134394603F0C4FB642301220DF107012B
:101FA0003046E4B205F0ACFA394628468DF80770A1
:101FB00003F0B6FB012264230DF10701304605F062
:101FC0009FFA1023394628468DF8073003F0A8FB06
:101FD000642301220DF10701304605F091FA012139
:101FE000284603F09DFB80224146642330469044FE
:101FF00005F086FAB82CC7D102B0BDE8F08100BF69
:102000002DE9F04F85B0A1F1200504AC9DF83870A2
:10201000009104E90C00EBB25E2B00F2958003689E
:1020200080465D4ADB689DF8084093429DF8096050
:1020300040F094808020B8F804302344834200F3B9
:102040008380D8F80030554A9B68934240F08880DE
:102050004020B8F8062093190192834274DC002EC8
:1020600000F0898006FB05F56FF00040039B964663
:1020700028442E44B8F804A003EB4000023B03EBD5
:10208000460B30F8026FBCB30EF007034FF0010CA3
:102090004FEADE0251460CFA03FC0AF114034FFA30
:1020A0008CFC03EBC21200236FEA0C0942440EE0E1
:1020B0007F2907D8BEF13F0F04D815789FB14CEAAD
:1020C000050515700133013201319C4214D006FA26
:1020D00003F52D04ECD47F29F4D8BEF13F0FF1D8DD
:1020E0001578002FEBD0013309EA050501320131E3
:1020F0009C4202F8015CEAD158450EF1010EC0D1B4
:10210000D8F8003054442449DA68A4B28A422DD168
:10211000802084421CD29B68204AA8F80440934245
:1021200021D14020019B834207D3D8F800301B4ABD
:102130009B68934229D13F230193DDE90003A8F86E
:10214000063005B0BDE8F08F002005B0BDE8F08F87
:10215000DA6811498A4211D17F24DCE798476AE79F
:102160004046984775E740469847DBE7404690472A
:10217000D8F80030CDE7B8F804A0C1E74046904752
:102180000138D8F8003084B2C5E740469847013896
:1021900083B20193D1E700BFC11E0008BD1E000835
:1021A0007F291ED83F2A1CD86BB1D3084FF0010CF1
:1021B00002F0070201EBC3130CFA02F2C1180B7D07
:1021C0001A430A757047D3084FF0010C02F007025A
:1021D00001EBC3130CFA02FCC1180A7D22EA0C02BF
:1021E0000A7570472DE9F04F83B05C1A0C9E002CE5
:1021F0009DF83490A6EB0208B8BF6442B8F1000F16
:10220000B8BFC8F100088B428CBF4FF0010A4FF0F5
:10221000FF3A9642A4EB080C51D84FF0FF357F2BC4
:10222000019512D83F2E10D8F50806F0070E0127A9
:1022300003EBC5150544B9F1000F47D007FA0EF7B7
:1022400095F814E047EA0E072F75964201D18B42AC
:1022500029D0C8F100077F2914D83F2A12D8D50801
:1022600002F0070B4FF0010E01EBC5150544B9F163
:10227000000F1BD00EFA0BFE95F814B04EEA0B0EB1
:1022800085F814E0B7EB4C0F4FEA4C0502DAACEBE3
:10229000080C5144AC4202DD019DA4442A449942F9
:1022A000D9D19642D7D103B0BDE8F08F0EFA0BFB1F
:1022B00095F814E02EEA0B0E85F814E0E2E701250C
:1022C0007F2B0195C5D83F2EAED9C2E707FA0EFE87
:1022D0002F7D964227EA0E072F75B8D0B9E700BFC9
:1022E0002DE9F04F2DED068B83B01F4680460D463D
:1022F0009DF8503016460193139B002BC0F22182AB
:10230000129A134406EE103ADDED127AB8EEC66B5F
:102310009FEDCD4BB8EEE77B9FEDCD5B27EE047BC9
:1023200026EE046B87EE050B86EE05ABF7EEC08B51
:10233000B0EE680A15F074F807EE907AB7EECAAB03
:10234000F8EE679AB0EE408AB0EE680A15F06CFAC3
:1023500060EE698AB0EE4A0A15F062F8B0EE409A73
:10236000B0EE4A0A15F060FA20EE690A29EE888A72
:1023700029EE899A70EE687AF0EE006A39EE487AB2
:1023800067EEA77AE7EE077AF4EEE67AF1EE10FA56
:1023900006D5139BB42B40F396804FF0010901E062
:1023A0004FF00009012478424FF0000C0095E31B28
:1023B000214627462246A340B9F1000F6AD1424286
:1023C00006EE90CACCF1000107EE102AB8EEE66ADC
:1023D00007EE901A06EE900AB8EEC77A139A66EEE8
:1023E000084AF8EEE77AB42A27EE284AF8EEE66AB9
:1023F00067EE885A74EEC43A26EEA85A26EE096AA9
:1024000066EE806A67EE897A27EE007AF5EEC03ACA
:1024100040F3F280F1EE10FA00F17F8176EE473A58
:1024200074EEC54AF5EEC03AF1EE10FAF5EEC04A88
:10243000CCBF01220022F1EE10FA00F1778136EED6
:10244000666A35EEC55AB5EEC06AF1EE10FAB5EE21
:10245000C05ACCBF01210021F1EE10FA00F16F81CA
:1024600077EEE66AF5EEC06AF1EE10FACCBF01270E
:10247000002775EEC45AF5EEC05AF1EE10FA00F1DD
:10248000478177EEC77AF5EEC07AF1EE10FACCBF4D
:1024900001240024002A40F08A80002964D1BFB9B9
:1024A000C4BB9C4558DB0CF1010C03EB4C0E1CEB40
:1024B000000F0EF1010E00F0C08098424FDB734612
:1024C00000287FF779AF03B0BDEC068BBDE8F08F35
:1024D000009DA6EB0C0E00EB050ABAF17F0FDFD8CA
:1024E000BEF13F0FDCD84FEADE0B019D0AEBCB1AA1
:1024F000002D00F0B1800EF0070BC2444FF0010E2A
:102500000EFA0BFE9AF814B04EEA0B0E8AF814E09D
:10251000002CC6D0009DA6EB0C0EA5EB000ABAF16C
:102520007F0FBED8BEF13F0FBBD84FEADE0B019D37
:102530000AEBCB1A002D00F0AE800EF0070BC24460
:102540004FF0010E9C450EFA0BFE9AF814B04EEABD
:102550000B0E8AF814E0A6DA98429E46AFDA0130F4
:102560000EEB40030133ABE7009D0CEB060E00EBD6
:10257000050ABAF17F0F92D8BEF13F0F8FD84FEA0C
:10258000DE0B019D0AEBCB1A002D73D00EF0070B6A
:10259000C2444FF0010E0EFA0BFE9AF814B04EEA48
:1025A0000B0E8AF814E0002F3FF47AAF90E7009DFD
:1025B0000CEB060EA5EB000ABAF17F0F3FF66DAFEC
:1025C000BEF13F0F3FF669AF4FEADE0B019D0AEB0C
:1025D000CB1A002D6DD00EF0070BC2444FF0010E48
:1025E0000EFA0BFE9AF814B04EEA0B0E8AF814E0BD
:1025F00000293FF454AFB7E7F1EE10FA7ED44A4613
:1026000074EEC54AF5EEC04AF1EE10FA6CD4002122
:1026100035EEC55AB5EEC05AF1EE10FA5AD400277D
:1026200075EEC45AF5EEC05AF1EE10FA3FF529AF37
:102630000024002A3FF431AFB9E798428FDB002332
:102640003BE700BFAFF300807A008BFCFA21094022
:102650000000000000806640C2444FF0010B0EF005
:10266000070E0BFA0EFE9AF814B02BEA0E0E8AF83B
:1026700014E015E7C2444FF0010B0EF0070E0BFA01
:102680000EFE9AF814B02BEA0E0E8AF814E0002F12
:102690003FF406AF1CE7C2444FF0010B0EF0070EEB
:1026A0000BFA0EFE9AF814B02BEA0E0E8AF814E01C
:1026B000F7E6C2444FF0010B0EF0070E0BFA0EFEC8
:1026C0009AF814B02BEA0E0E8AF814E000293FF4B1
:1026D000E6AE49E777EEE66AF5EEC06AF1EE10FA8B
:1026E000CCBF012700279BE736EE666AB5EEC06ACD
:1026F000F1EE10FACCBF0121002189E776EE473ACE
:10270000F5EEC03AF1EE10FACCBF0122002277E7D5
:102710000124002A3FF4C1AE49E774EEC54A012204
:10272000F5EEC04AF1EE10FA7FF589AE35EEC55AE6
:102730000121B5EEC05AF1EE10FA7FF591AE0127F6
:1027400097E6DDE91223134406EE102A1293139B39
:102750005B421393D8E500BF2DE9F04F89B008AC78
:102760009DF84870019104E90C000B78002B00F0F3
:10277000AB801A469DF818809DF8193006464546EC
:1027800090460393079B0593A8F12004E3B25E2BC8
:1027900000F29E8033685E4ADB68934240F09B8083
:1027A0008020B3882B44834200F392803368594AD7
:1027B0009B68934240F092804020F188039A0291F6
:1027C0008B18834200F38480002A00F0918002FB82
:1027D00004F46FF00049059BA1441444B6F804B01A
:1027E00003EB4909023BCDF8108003EB44030C4690
:1027F0009A4639F802CFA5B304F007034FF0010E53
:10280000E20859460EFA03FE0BF114034FFA8EFE4E
:1028100003EBC21200236FEA0E0832440DE07F2959
:1028200006D83F2C04D8107897B14EEA00001070FB
:10283000013301320131AB4213D00CFA03F0000432
:10284000EDD47F29F4D83F2CF2D81078002FECD0AB
:10285000013308EA000001320131AB4202F8010CF9
:10286000EBD1D14504F10104C3D1DDF81080326809
:102870000BEB05042649D368A4B28B4234D18020E7
:10288000844204D3D36822498B423AD17F2493688F
:10289000204AB480934224D14020029B834206D335
:1028A00033681C4A9B68934225D13F230293029BC5
:1028B000F380019B1878404507D113F8018F0193ED
:1028C000B8F1000F7FF460AF002009B0BDE8F08FD1
:1028D0004FF00008EDE73046984762E730469847EA
:1028E0006BE730469847D8E7304698473268C7E7E5
:1028F000B6F804B0BBE730469847013883B202937C
:10290000D5E7304698470138326884B2BFE700BF48
:10291000C11E0008BD1E00082DE9F04F89B01D46FC
:10292000884606901046129C10F8013B13999DF8BA
:102930005060009233B1002210F8013B0132002BAD
:10294000FAD193B22A78687812FB03F302B21BB271
:1029500023EAE373082900F2A981DFE811F00201FC
:102960001401200134014201500167017101090085
:10297000A18827880F44B4F90610FF1A0029BFB2B6
:10298000C0F2FF80B4F802C006980CEB6104C2806C
:10299000A4EB52028380078094B24480A64AD8F800
:1029A000003011460192DA688A4240F08D81802021
:1029B000B84205D8DA6801998A4240F09A817F27A7
:1029C0009E4A9B68A8F804709342039240F0898164
:1029D0004020A04207D8D8F80030039A9B68934261
:1029E00040F082813F24009BA8F8064093F800B095
:1029F0006B782C7804936B680793BBF1000F00F0A1
:102A0000AC80ABF12005EBB25E2B00F22E81D8F842
:102A10000030019ADB68934240F02A818020B8F8A8
:102A2000043023449842C0F22081D8F80030039A41
:102A30009B68934240F01F814020B8F80610049A2A
:102A400002918B189842C0F21081002A00F01E817A
:102A500002FB05F56FF0004E079BAE441544CDF820
:102A600014B003EB4E0E023BB8F804A003EB450391
:102A70000D469B463EF8027FA4B305F007034FF0D6
:102A8000010CEA0851460CFA03FC0AF114034FFA50
:102A90008CFC03EBC21200236FEA0C0942440DE0E8
:102AA0007F2906D83F2D04D8107896B14CEA000053
:102AB00010700133013201319C4213D007FA03F048
:102AC0000004EDD47F29F4D83F2DF2D81078002EE1
:102AD000ECD0013309EA0000013201319C4202F8D6
:102AE000010CEBD1F34505F10105C3D1DDF814B0BC
:102AF000D8F800200AEB04050199D368ADB28B42E7
:102B000040F0BF808020854205D3D36801998B4275
:102B100040F0C5807F259368039AA8F8045093423B
:102B200040F0AC804020029B834208D3D8F80030AC
:102B3000039A9B68934240F0AC803F230293029B30
:102B4000A8F80630009A13785B4506D112F801BF49
:102B50000092BBF1000F7FF454AF069809B0BDE8B6
:102B6000F08FB4F9041027880029B8BF013107EBB2
:102B70006107B4F90610A7EB63070029BFB2BFF6DF
:102B800001AF0131FEE6B4F900700699B4F90240D4
:102B90000F80BFB24C80A4B28B80CA80FEE6B4F92D
:102BA000041027880029B4F90240B8BF013107EBAF
:102BB000610706998B80A7EB63034C80A4B29FB298
:102BC000CA800F80EAE6A1882788B4F902400F4442
:102BD00006998B80FB1A4C80A4B29FB2CA800F80EA
:102BE000DCE6E78861883944B4F90070081A069970
:102BF00084B20F808B80BFB2CA804C80CEE6B4F91D
:102C0000041027880029B8BF013107EB6107A7EB43
:102C10006307B4F802C0BFB2E488069964448B80AD
:102C2000201ACA800F8084B24C80B7E62788A1881A
:102C30000F44FF1AEDE700BFC11E0008BD1E0008CB
:102C4000B4F90610B4F802C00029B4F9007006986F
:102C5000B8BF0131C2800CEB610407808380BFB232
:102C6000A4EB520294B2448098E64FF0000B69E75F
:102C700040469847D3E640469847DEE640469847A8
:102C800051E740469847D8F800203CE7B8F804A040
:102C90002EE740469847013883B202934FE74046FB
:102CA00098470138D8F8002085B234E7D8F80030CA
:102CB0000024069A1249148054809480D480DA68E3
:102CC00001918A4205D0274640469047D8F8003007
:102CD0006EE69B680B4AA8F80440934203923FF4C7
:102CE00082AE4046984774E640469847013884B221
:102CF00079E6404690470138D8F8003087B25FE661
:102D0000C11E0008BD1E00082DE9F04F87B09DF8D8
:102D10004850109C2E4601959DF844509EB3994210
:102D20002ED89946A24228D87F29164694BF002360
:102D3000012308E09CF814804EEA080E8CF814E099
:102D40000136B44219D33F2EFAD8002BF8D14FEAFE
:102D5000D60C06F0070E4FF0010801EBCC1C08FA68
:102D60000EFE8444002DE5D19CF814B001362BEA08
:102D70000E0AB4428CF814A0E5D201318945D1D2B3
:102D800007B0BDE8F08FA3EB0108B8F1000FB8BFA2
:102D9000C8F100089942C0F04E817F2B4FF0FF3AF6
:102DA00094BF002601263F2A009694BF00270127E2
:102DB0000297A6B99FB9D60802F0070C012703EBCA
:102DC000C6160644002D00F0948107FA0CF796F819
:102DD00014C047EA0C073775002602960096994200
:102DE00000F09781464694468E46BEF17F0F16D876
:102DF000BCF13F0F13D84FEADC070CF0070B4FF084
:102E000001090EEBC7170744002D00F0398109FABC
:102E10000BF997F814B049EA0B0987F8149077007A
:102E200018BFD644B84502DD46440CF1FF3C73455B
:102E3000DBD16245D9D100260496A4EB0209009F9C
:102E4000B9F1000FB8BFC9F100093F2C94BF0026AB
:102E50000126A242C9F100080396C0F02381002F89
:102E600040F05081002E40F04D814FF0FF3600962B
:102E7000E60803EBC6160644002D00F01E814FF055
:102E8000010C04F007070CFA07F796F814C047EA9C
:102E90000C07377500260396A24200F03D81C44618
:102EA00016461F4605927F2F15D83F2E13D84FEA9E
:102EB000D60E06F0070B4FF0010A07EBCE1E864434
:102EC000002D00F0E6800AFA0BFA9EF814B04AEAE8
:102ED0000B0A8EF814A0B8EB4C0F4FEA4C0E02DA36
:102EE000ACEB090C013FBEF1000F01D0009A164473
:102EF000BB42D8D1B442D6D1059AA1EB030EBEF1A4
:102F0000000FB8BFCEF1000E7F2994BF4FF0000A2A
:102F10004FF0010A99428CBF4FF001094FF0FF3981
:102F2000BAF1000F13D1039E8EB9E60801EBC61665
:102F30000644002D00F0D3804FF0010C04F0070789
:102F40000CFA07F796F814C047EA0C073775049E89
:102F500026BB774626467F2B14D83F2E12D84FEA41
:102F6000D60C06F0070B4FF0010803EBCC1C844491
:102F7000002D73D008FA0BF89CF814B048EA0B083F
:102F80008CF814805FEA470C18BF4B44E64501DD1E
:102F90007744013E9942DED1B442DCD1A2EB040E6B
:102FA000BEF1000FB8BFCEF1000EA2428CBF4FF0B1
:102FB00001084FF0FF38CEF1000CBAF1000F0ED12E
:102FC000029B63B9D30802F00707012601EBC31384
:102FD0000344002D7CD0BE401F7D3E431E75019BE7
:102FE000002B7FF4CDAE66460B467F2B12D83F2CCC
:102FF00010D8E70804F0070A4FF0010903EBC717E0
:103000000744A5B309FA0AF997F814A049EA0A098E
:1030100087F81490BCEB460F4FEA460702DAA6EB9E
:103020000E06013B07B144449942DED1A242DCD1F5
:1030300007B0BDE8F08F3F2A4FF0010A94BF002689
:1030400001267F2B029694BF002701270097002EB0
:103050007FF4C8AE002F3FF4AEAEC3E608FA0BFB18
:103060009CF8148028EA0B088CF814808AE709FA87
:103070000AFA97F8149029EA0A0987F81490C9E720
:1030800009FA0BFB97F8149029EA0B0987F81490BA
:10309000C5E60AFA0BFB9EF814A02AEA0B0A8EF882
:1030A00014A018E797BB8EBB01260096E60803EB39
:1030B000C6160644002D7FF4E2AE012704F0070C8B
:1030C000039507FA0CFC377D27EA0C073775E3E612
:1030D00006FA07F71E7D26EA07061E757FE7012719
:1030E00004F0070C07FA0CFC377D27EA0C0737754C
:1030F0002DE707FA0CFC377D029527EA0C070095AF
:1031000037756CE64FF0FF360096C5E6012600964F
:10311000C5E60126049690E601260196EDE600BF7D
:1031200038B5144C23882F2B19D02378BBB12046F7
:10313000FDF7D6F8431ED0B1E21801E0013B16D3EB
:1031400012F801092F28F9D1591C0B4D1F222144D7
:10315000284614F0D7FD00230748EB7738BD074A0F
:10316000054B92E8030018601971034838BD01212E
:10317000EBE700BF4C0600242C06002474880108ED
:1031800070B50378C2B004462E2B15D143782E2B90
:1031900012D1837883B9244C2046FDF7A1F8431E51
:1031A000C8B1E21801E0013B15D312F801192F292B
:1031B000F9D14BBB63700EE01B4E33882F2B1DD013
:1031C0003046FDF78DF805462046FDF789F80544A1
:1031D0000235FF2D1BD900231448154C154A0360F6
:1031E0001149154823601360FEF738FD20B942B03D
:1031F000BDE87040FEF76EBE42B070BD22460F497A
:10320000304614F057FDE6E70022E254E3E7334688
:103210000B4A4FF4807102A8009414F017FD02A924
:10322000304614F067FDD6E74C06002468B1002450
:1032300060B1002464B100244C0700247C8801089C
:103240008088010808B50022054B064906481A6027
:10325000FEF704FD18B9BDE80840FEF73BBE08BD07
:1032600064B100244C0600244C0700242DE9F04FE3
:103270009A48002499B04FF480620021A0F1140B09
:1032800014F026FC0021CB0801F00700012204EB1A
:10329000C313114482405B440A29187D42EA0002AC
:1032A0001A75F0D10134802CECD10023CBF8043016
:1032B000FFF736FF8A4B90F800A081465A781D78B8
:1032C0005B6805920793BAF1000F75D0AAF120034D
:1032D000DAB25E2A00F2DE81BBF8048008EB050258
:1032E000802A039200F3D681BBF806200599049248
:1032F0000A44402A00F3CE81002947D0059A6FF096
:10330000004ECDF818A002FB03F3049C9E44134426
:10331000079A02EB4E0E023A02EB43039A463EF83E
:10332000026F6DB304F007030127E20841469F4096
:1033300008F114037FB203EBC21200236FEA070CFB
:103340005A440CE07F2905D83F2C03D810780CEAAA
:1033500000001070013301320131AB4210D006FA87
:1033600003F00004EED47F29F4D83F2CF2D8107873
:103370000133013201313843AB4202F8010CEED186
:10338000D64504F10104CAD1DDF818A0049ABDF8AD
:103390000C303F2A28BF3F227F2B28BF7F23ABF86A
:1033A0000620ABF8043099F80030534504D119F8E1
:1033B00001AFBAF1000F89D14A4B1A684A4BD11CB0
:1033C0001B68994202DADA1E46490A60934202DA21
:1033D000444A13601A46454909688B4202DB4B1E7A
:1033E00041480360002B02DA00233F4803600020BD
:1033F0000790079802448A4280F2C68001309A42C0
:10340000014607904FF0000001EB8101ABF804008A
:103410004FEA4101ABF8061000F03F81344B9B5C52
:10342000002B00F05581334B5101595C03EB4212E4
:103430002E2900F0468130490FA814F03BFC1522DC
:103440000FA909A814F05EFC254A0023517892F8D0
:1034500000A08DF8393052689DF82430059106920D
:10346000002B00F0828009AA55460392203BDAB275
:103470005E2A7AD8BBF8048008EB050EBEF1800FF7
:1034800073DCBBF80620059904920A44402A6CDCE0
:10349000002955D0059A6FF0004C049C02FB03F301
:1034A0009C441344069AA2F1020A02EB4C0C0AEB6C
:1034B000430A3CF8026F002D3ED004F007030127B9
:1034C000E20841469F4008F114037FB203EBC212A9
:1034D00000236FEA07095A441CE000BF900700244C
:1034E0007C03002468B1002460B1002464B100248E
:1034F00088B00024900B0024948801087F2904D808
:103500003F2C02D81078384310700133013201315A
:103510009D4211D006FA03F00004EFD47F29F4D8BD
:103520003F2CF2D8107801330132013109EA000052
:103530009D4202F8010CEDD1D44504F10104B8D14B
:10354000049B1FFA8EFE039A3F2B28BF3F23BEF138
:103550007F0FABF8063028BF4FF07F0E12F8013F07
:10356000ABF804E00392002B80D1079B042B00F002
:10357000A380624B07981A68614B02441968614B3B
:103580008A421B68FFF63AAF5F48013300910C2175
:103590005E4ACBF804000FA814F058FB5C4B5A7835
:1035A0001D785B68059206939DF83C30002B6ED029
:1035B0000FAA0392203BDAB25E2A68D8BBF80480D7
:1035C00008EB050EBEF1800F61DCBBF80620059903
:1035D00004920A44402A5ADC002943D0059A6FF02D
:1035E000004C049C02FB03F39C441344069AA2F192
:1035F000020A02EB4C0C0AEB430A3CF8026F6DB373
:1036000004F007030127E20841469F4008F1140334
:103610007FB203EBC21200236FEA07095A440BE0A2
:103620007F2904D83F2C02D810783843107001331A
:10363000013201319D4211D006FA03F00004EFD4AB
:103640007F29F4D83F2CF2D81078013301320131B0
:1036500009EA00009D4202F8010CEDD1E24504F1B7
:103660000104CAD1049A1FFA8EFE03993F2A11F869
:10367000013F28BF3F22BEF17F0F039128BF4FF0CB
:103680007F0EABF80620ABF804E0002B92D119B006
:10369000BDE8F08F4FF0000A85E61E4AD25C2AB3DF
:1036A0001D4A5901515C02EB43122E2918D01B49C7
:1036B0000FA814F0FFFAC2E6124B114A1B681168FA
:1036C00062E753782E2B7FF4B6AE93781BB1B2E647
:1036D000114B03EB421212490FA814F0EBFAAEE6BD
:1036E00053782E2BE3D193781BB1E0E70A4A02EB23
:1036F00043120C490FA814F0DDFAA0E668B10024CB
:1037000064B1002460B1002469003700A08801087A
:103710007403002488B00024900B002488880108DA
:103720009C8801089088010884B02DE9F04182B09E
:103730000125064604460DF124088572274688E8CF
:103740000E00BDF84C3026F8083F304601F0FEFE72
:10375000BDF84E30A57127F8043F384601F0F6FE5B
:103760004146204603F044FE0021384601F0D8FFD0
:103770000A2005F05DF82946384601F0D1FF0A20FD
:1037800005F056F8AE23304600218DF8073001F0E1
:10379000C7FF2A460DF107016423204603F0B0FE5F
:1037A000D523304600218DF8073001F0B9FF2A46B5
:1037B0000DF107016423204603F0A2FE802330466A
:1037C00000218DF8073001F0ABFF2A460DF107010B
:1037D0006423204603F094FEA823304600218DF890
:1037E000073001F09DFF2A460DF1070164232046B2
:1037F00003F086FE3F23304600218DF8073001F0AC
:103800008FFF2A460DF107016423204603F078FE5E
:10381000DA23304600218DF8073001F081FF2A4677
:103820000DF107016423204603F06AFE122330469F
:1038300000218DF8073001F073FF2A460DF10701D2
:103840006423204603F05CFE0021D32330460F465C
:103850008DF8073001F064FF2A4664230DF107015B
:10386000204603F04DFE394630468DF8077001F0D2
:1038700057FF2A460DF107016423204603F040FE5E
:103880004023394630468DF8073001F049FF2A467B
:103890000DF107016423204603F032FEA6233946CA
:1038A00030468DF8073001F03BFF2A460DF1070145
:1038B0006423204603F024FEA423394630468DF8C5
:1038C000073001F02DFF2A460DF107016423204641
:1038D00003F016FE8D23394630468DF8073001F08F
:1038E0001FFF2A460DF107016423204603F008FE5E
:1038F0001423394630468DF8073001F011FF2A466F
:103900000DF107016423204603F0FAFDA123394697
:1039100030468DF8073001F003FF2A460DF107010C
:103920006423204603F0ECFDC823394630468DF869
:10393000073001F0F5FE2A460DF107016423204609
:1039400003F0DEFD8123394630468DF8073001F063
:10395000E7FE2A460DF107016423204603F0D0FD5F
:103960008F23394630468DF8073001F0D9FE2A46BC
:103970000DF107016423204603F0C2FDD923394627
:1039800030468DF8073001F0CBFE2A460DF10701D5
:103990006423204603F0B4FD2523394630468DF8D4
:1039A000073001F0BDFE2A460DF1070164232046D1
:1039B00003F0A6FDDB23394630468DF8073001F0D1
:1039C000AFFE2A460DF107016423204603F098FD5F
:1039D0003423394630468DF8073001F0A1FE2A46DF
:1039E0000DF107016423204603F08AFDAF23394619
:1039F00030468DF8073001F093FE64232A460DF11E
:103A00000701204603F07CFD02B0BDE8F04104B0A0
:103A1000704700BF2DE9F04F00218D480026DFF8E8
:103A20007492DFF874A2DFF874B22DED028BA3B0AC
:103A300000F030FA04F0FAFE40F60632854B0446F8
:103A400009200CAF17ADCDE90C2300F0B9FA0346FD
:103A50001620ADF8583000F0B3FA0B23012212966D
:103A60000DF1680EADF8323008231092EC46119338
:103A700002231396ADF85A000E960F960895CDE9DD
:103A800014330FCF0FC50FCF0FC597E8070085E898
:103A90000700BEE80F00ACE80F009EE80F008CE8BE
:103AA0000F0017A96C4D6D480EC9FFF73DFE089F2A
:103AB000F7EE000A9FED6A0A0FCD0FC795E80F00D9
:103AC00087E80F00324617A96648A5F178080897DD
:103AD00000F0D2FF17AA09951035F7EE000A174635
:103AE0009FED5F0A0FCD0FC795E80F00089F87E88D
:103AF0000F00324617A95C4800F0BEFF099BA3F1F6
:103B0000780000F023F90323012217A957488DF804
:103B10006460CDE9173202F0E3FD0121544804F05E
:103B2000B1FD012253495448FEF76CF8534B2F2244
:103B30001A80FFF787FB524800F046FF98F84430A0
:103B400073B1D8F864305BB1D9F80020002A07DDE2
:103B5000DAF800100B449A426BDC0023CAF80030FC
:103B600098F84C306BB198F852307F2B09D1D9F8C6
:103B70000030002B05DDDAF800001BF80030002BC8
:103B80005DD104F053FE0646364800F0A5FFB0EEC6
:103B9000408A354800F0A0FF9FED311AF0EE400A50
:103BA0003848B0EE480A01F015F8294800F0D2F87C
:103BB000331B632BBFD9344DB024FFF757FB0027CD
:103BC000002132488DF82F4001F0AAFD6423012224
:103BD0000DF12F01214803F093FC2C4839468DF854
:103BE0002F7001F09DFD012264230DF12F011B4870
:103BF000013403F085FC1023394624488DF82F301A
:103C000001F08EFD642301220DF12F01134803F012
:103C100077FC01211D48E4B201F082FD8022294693
:103C200064230E48154403F06BFCB82CC7D134460E
:103C300081E7002B09DA013ACAF8002090E7144B1B
:103C400003EB4010FFF79CFA9BE7CAF8003087E7C8
:103C5000A81D00240105060A101E00248407002464
:103C600000000000ECB0002424B100245CB100246A
:103C700028190024708801082C1900244C060024FF
:103C8000E81D0024801E0024900700248C070024D7
:103C9000900B002464B1002460B1002488B000249B
:103CA00070B51E4C00251E4E04F5C0702560656180
:103CB0002562E56300F0C6FE1A4A40F20F731A4906
:103CC0002046C4F8382204F51472A4F83C3240F2BD
:103CD0000113C4F89051C4F84852C4F84C52C4E9D6
:103CE0009023324613F092FB104B11483246114993
:103CF0000360856013F08AFB32460F490F4813F0CA
:103D000085FB32460C490E4813F080FB32460D49C4
:103D10000D48BDE8704013F079BB00BFA81D00241A
:103D2000000000240080707FA51E0008B0880108F4
:103D30007C070024B91E00089D1E0008ECB000247A
:103D400024B10024A11E00085CB10024183001F049
:103D5000E9B900BF10B50446D83000F06BFF04F598
:103D60009670BDE8104000F065BF00BFF0B54FF49D
:103D700081718FB000F1D80701254FF4C0624FF474
:103D8000E063ADF8081000F5967402993846ADF876
:103D90000C2008AEADF810300095DDE9032300F0EB
:103DA000F1FE40F201134FF480722046ADF814305A
:103DB0004FF48063059900950BADADF81820ADF870
:103DC0001C30DDE9062300F0DDFE3046072105F05A
:103DD00095F896E8070085E807002946384600F080
:103DE00013FF96E8070085E807002946204600F003
:103DF0000BFF384600F01EFF20460FB0BDE8F04034
:103E000000F018BF2DE9F04140F2024304460222BF
:103E1000002504F1180704F1A8062DED028B8EB0E1
:103E20009FED1B8AADF80C3005A8039900F058FFF0
:103E300002220DF12600ADF81020049900F050FF89
:103E40000423022205A9384600F05EFF04F168024F
:103E500004F18803C4E92A232946384656F8048B1E
:103E600001F076F901462046019100F0DBF80023CD
:103E7000F0EE480A019940461A4600F0F3FC25B1DD
:103E80000EB0BDEC028BBDE8F0810125E4E700BF78
:103E90006F12033B2DE9F04104469AB000270191CF
:103EA00000F08CF80199204600F07CF940F60613EA
:103EB00004F1B0069FED400AADF8143004F1C005DE
:103EC0003046059900F0C4FE4FF4007328469FED7C
:103ED0003A0AADF8183004F5C878069900F0B8FE33
:103EE00040F6033240F201639FED330AADF808203B
:103EF00004F140000299ADF80C70C4F8D0600FAE28
:103F0000C4F8D45007ADADF81030DDE9032300F05C
:103F10002BFD2046FFF72AFF2046FFF773FF2846B8
:103F200000F090FD01230DF12C0E04F5C07C1593DB
:103F3000189347F61223169719930223179395E8BF
:103F40000F008CE80F008EE80F0086E80F00BDF828
:103F500040301490ADF84E30BDF84230D4E9625E86
:103F6000ADF84C30C4E9655EBEF1000F04D0724676
:103F70003946284613F0ACFD13A9404604F0B8F9C1
:103F800004F5D27000F072FD3021204600F02EF8CA
:103F9000D4F8A850204600F045F8284600F0B8FCB8
:103FA000D4F8AC50204600F03DF828461AB0BDE8E1
:103FB000F04100F0ADBC00BF00000000704700BF42
:103FC000202882B009D8084B03EB400213F81030C8
:103FD000507843EA002002B0704701230C2043EAE6
:103FE000002002B0704700BFE488010838B500F136
:103FF000140504462DED028B284600F00FFC2846E0
:1040000000F01AFC2846B0EE408A00F003FCD0ED28
:10401000007AF8EE677A88EE277ABDEC028B84EDA1
:104020000E7A38BD90ED0E0A704700BF10B540F211
:1040300003338EB000244FF60B7240F20341ADF80B
:10404000083009A80123ADF81020ADF8242022463D
:10405000ADF80C100094029907940C94CDE9054436
:10406000CDE90A4401F076F904A801232246039918
:10407000009401F06FF909A801F052FA10B901207B
:104080000EB010BD04A801F04BFAA0420CBF0220F4
:1040900020460EB010BD00BF2DE9F04103239AB0B9
:1040A000012700240646CDE914373B4BCDE91043E8
:1040B00040F20453CDE91647ADF84830FFF7B6FF9C
:1040C000B842054625D0022845D040F60132334B90
:1040D0000DF12C081894ADF82C200B981997CDF8F9
:1040E0004A3000F0E3F810A906F13C0002F0ECF9C8
:1040F000302003224FF07E5341460D930E93CDE9BD
:104100000B02F26B06F1140000F04CFB1AB0BDE894
:10411000F0811023214A06A906908DF828300DF170
:104120002C081F4BCDF84A2007930294CDE91804C0
:10413000CDE9080402A801F073FC0823029A03A940
:104140004046ADF80C508DF80E40049505930B9445
:1041500000F0ECF8C7E700200121104B0DF12C080E
:104160003A460094CDF84A304FF60B730C94ADF8F4
:104170002C302346CDE9180140F601314046ADF818
:1041800018100699CDE90D4401F0E4F821464046A7
:1041900001F0D2F9A7E700BF0402040404060403F7
:1041A0000704010B2DE9F04704462DED028B82B088
:1041B00000294DD0012140F2011200230091ADF8F9
:1041C00004208DF80630364A0127364B04F10409E5
:1041D000354904F12908626040F20272A36040F69A
:1041E0000663E16004F1250AA4F82520A4F829302B
:1041F000278284F8277084F82B7004F0B5FC0546FC
:1042000004F018FB6946064650BB4DB304F130007C
:104210008DF8067004F030FC072D3CD104F1140534
:104220002046FFF739FF284600F006FB2846B0EE8F
:10423000408A00F0EFFAD0ED007AF8EE677A88EE67
:10424000277A84ED0E7A02B0BDEC028BBDE8F087D0
:1042500040F2011300918DF80610ADF80430B2E77A
:1042600004F1300004F008FC072D11D04946204627
:1042700001F01EFE0EB9002DD0D1504601F066F9B6
:10428000404601F063F904F1120000F079F9C5E746
:10429000002EF2D1C2E74946204601F009FEBDE7F3
:1042A0000508050905070506050A060610B584B0C8
:1042B00003460124ADF8040003A8ADF80C30ADF8B6
:1042C0000E4001F043F9214603A801F029FA2046E7
:1042D00004F0AEFA002103A801F022FA204604F00F
:1042E000A7FA214603A801F01BFA04B010BD00BFD5
:1042F00010B5C2F3002384B00C46017C8DF80D206C
:1043000043EA4402FA2402238DF80C2003AA009405
:1043100001F01CFC18B10124204604B010BD044675
:104320000A2004F085FA204604B010BD034670B59B
:1043300043F8042B044684B007C983E80700A37937
:1043400083B91A210B461E22FA2523742046ADF8A4
:104350000C20022303AA009501F0F8FB28B10120EC
:1043600004B070BD1B210B46EDE70A2004F060FA93
:104370004FF4B85200950223ADF80C20204603AA52
:10438000217C01F0E3FB0028E9D10A2004F050FA77
:1043900041F2027200950223ADF80C20204603AAD8
:1043A000217C01F0D3FB0028D9D10A2004F040FA87
:1043B000042200950223ADF80C20204603AA217C9C
:1043C00001F0C4FB0028CAD10A2004F031FA062209
:1043D00000950223ADF80C20204603AA217C01F0B1
:1043E000B5FB0028BBD10A2004F022FA41F20822D2
:1043F00000950223ADF80C20204603AA217C01F091
:10440000A5FB0028ABD10A20064604F011FA00955E
:10441000022303AA217C2046ADF80C6001F096FB34
:1044200000289CD1304604F003FA009522790C2331
:104430002046002A8DF80C3003AA4FF0020314BF67
:10444000622142218DF80D10217C01F07FFB0028B4
:1044500085D1304604F0ECF92279D4E902310B43DE
:10446000DBB20AB943F0400362790AB143F020039A
:104470000E22FA258DF80D302046009502238DF886
:104480000C2003AA217C01F061FB00287FF467AFB8
:104490000A2004F0CDF9102200950223ADF80C207B
:1044A000204603AA217C01F051FB00287FF457AF7E
:1044B0000A2004F0BDF9122100950223ADF80C107A
:1044C00003AA217C204601F041FB00287FF447AF7E
:1044D0000A2004F0ADF9012209212046FFF708FF68
:1044E000003818BF01203BE7F0B5102387B0234CFC
:1044F000012200250126002702A920460195CDE9C9
:1045000002234FF48052CDE904670CF0C3F9642014
:1045100005F0B0F802A94FF480522046CDE90467B7
:1045200002261027CDE902670CF0B4F9032210230C
:1045300002A92046CDE9022300230422CDE9042369
:104540004FF480520CF0A6F940F23223042202A963
:10455000019310232046CDE90223019A01230592FD
:104560004FF4805204930CF095F940F60601204672
:104570000CF0B0F9284607B0F0BD00BF74B10024BC
:104580001C4B00221C494FF0400C30B5054689B049
:104590000220596007219A601A620124DA620A2215
:1045A0004FF4006EDC6006922022CDE90001042069
:1045B0000821CDE9020103201021CDE904010820E2
:1045C0006946C3E904024FF4C072181DC3E906C26C
:1045D0004FF48052C3E909E20CF032F938B92846A9
:1045E000FFF782FF003818BF012009B030BD204618
:1045F00009B030BD70B1002440410052614A002131
:10460000D0B513688EB00A91002B40F0B9805E4B94
:1046100001214FF683700C2411600221D3F8D420BD
:104620000026032742F48052C3F8D420D3F8D420C4
:1046300002F480520092009AD3F8E02042F0100277
:10464000C3F8E020D3F8E02002F010020192019AB2
:10465000D3F8E02042F04002C3F8E020D3F8E02095
:1046600002F040020292029AD3F8E02042F00802DF
:10467000C3F8E020D3F8E02002F008020392039A86
:10468000D3F8E02042F48072C3F8E020D3F8E020B1
:1046900002F480720492049AD3F8E02042F080027F
:1046A000C3F8E020D3F8E02002F080020592059ADA
:1046B000D3F8E02042F02002C3F8E020D3F8E02055
:1046C00002F020020692069AD3F8E02042F004029B
:1046D000C3F8E020D3F8E0300C9403F00403079310
:1046E0000323079A0B93CDE9080108A9274806F090
:1046F00047FE48F23712022308A925480C94CDE959
:104700000823CDE90A6706F03BFE4CF20372022350
:1047100008A920480C94CDE90823CDE90A6706F0E2
:104720002FFE40F2FF62022308A91B480C94CDE93A
:104730000823CDE90A6706F023FE4FF60C72022328
:1047400008A916480C94CDE90823CDE90A6706F0BC
:1047500017FE4FF63F02022308A911480C94CDE939
:104760000823CDE90A6706F00BFE2022022308A9E0
:104770000A480C94CDE90A67CDE9082306F000FE4B
:104780000EB0D0BD6CB10024004402580010025895
:1047900000180258000C025800200258001C025851
:1047A0000014025830B5184C154685B0046004F169
:1047B000080EEC460FC98EE80F00D4ED047AF5EE32
:1047C000C07A8CE80F00F1EE10FA1ADDB7EE006A3D
:1047D00094ED057A27EE277AC6EE276A84ED0D7AE6
:1047E000C4ED0C6A6DB1204640F8185F01F064FF1B
:1047F000064903690020064A2162A262E36005B00F
:1048000030BD012005B030BDA8B10024002000302B
:104810000000003000680830704700BFB1F5807FAD
:1048200003680A4628BF4FF48072B1F5807F9A6012
:1048300094BF0020012070470068183001F03EBF8F
:1048400010B4074B4FF07E51302400220320196131
:104850009C60D8605DF8044B5961C3E9062270473B
:10486000A8B10024F6EE007A9FED166A20EE207AB9
:104870000160F7EE006A80ED036A80ED020A27EE20
:10488000277AC6EE877AF4EEE67AF1EE10FA11DDB9
:10489000F0EE667A4FF07E514FF0000C0276002267
:1048A000C0ED017AC0F814C0016143768276C0ED94
:1048B000070A7047F4EEC67AF1EE10FAEAD5F0EE88
:1048C000467AE7E7000000000268037E128807EEE0
:1048D000902AFBEEC87A1BB1B7EE007A77EE677AC2
:1048E000D0ED056A90ED047A77EEE67A437E67EEC6
:1048F000877A0BB1F1EE677A90ED030A90ED017AB9
:1049000077EEC07AA7EE270A80ED030A704700BF52
:10491000837E80ED020AABB9D0ED077A27EE800ADC
:10492000F6EE007AB7EE007A20EE270AC7EE007A9C
:10493000F4EEC77AF1EE10FA07DDF0EE477AC0ED3B
:10494000017A7047DFED067AE8E7F5EEC07AF1EE1E
:1049500010FAF4D5DFED037AC0ED017A704700BF9D
:104960006F12033B0000000030B585B004460025FF
:10497000ADF80C10ADF80820ADF8043003F056FF88
:10498000BDF80C204FF48073206004F118002283DE
:10499000BDF808206383E383A283257100F0D6FD70
:1049A00004F11C0000F0D2FD9FED060A019904F10C
:1049B000080000F04DF94FF6FF736562238405B0DF
:1049C00030BD00BF00000000F8B5044603F02EFF24
:1049D000002623682671834205D104F10800BDE852
:1049E000F84000F04FB9012794F82050206004F1FE
:1049F0001800BD40277100F085FE6DB2284394F881
:104A00002150BD4084F8200004F11C0000F07AFE23
:104A100094F820306DB2666203F003032843022B42
:104A2000C0B284F8210009D000F003000228D4D1DC
:104A3000002BD2D14FF0FF336362CEE78307CCD196
:104A40006762CAE7074A118830B481800024064DA6
:104A500091884FF4807285600460C180C26030BC70
:104A6000704700BFD48301080040003000220A23B1
:104A700002700371704700BFDFED167A8C46B4EE0A
:104A8000670A10B504468646F1EE10FA2DED028B4A
:104A900080ED080A48BFB0EE670AC0ED090AB0EE23
:104AA000608A80F83420BCE80F00AEE80F009CE874
:104AB0000F008EE80F0012F053FEF0EE407AB0EED9
:104AC000480AC4ED0A7A12F04BFE84ED0B0ABDECE5
:104AD000028B10BD95BFD63390F8343010B5044624
:104AE000032B4BD8DFE803F03B2A1502FFF7ECFE5F
:104AF00060EE006AD4ED087A94ED097A26EE800A19
:104B000037EE677AE0EE077AC4ED0C7AB0EE670A0A
:104B100010BDFFF7D9FE94ED0A7AD4ED0B7A77EE4B
:104B2000C77AA0EE277AB0EE470A12F0A7FDF0EEA2
:104B3000407A84ED0C0AB0EE670A10BDFFF7C4FEA0
:104B4000D4ED087A94ED097A20EE000A37EE677A00
:104B5000E0EE077AB0EE670AC4ED0C7A10BDFFF7FD
:104B6000B3FED4ED087A94ED097A37EE677AE0EE79
:104B7000077AB0EE670AC4ED0C7A10BDD0ED0C7A5E
:104B8000C4E700BF30B585B004469FED110A9DF81B
:104B90002050ADF80C100399ADF808202A46ADF866
:104BA00004308DED000A11F0EDFE9DED000A2A465D
:104BB000029904F11C0011F0E5FE9DED000A2A4661
:104BC000019904F1380005B0BDE8304011F0DABEBB
:104BD00000007A4410B52DED028BF0EE608A044699
:104BE000B0EE418A11F0F2FE04F11C00B0EE680A4A
:104BF00011F0ECFEB0EE480A04F13800BDEC028B77
:104C0000BDE8104011F0E2BE38B50C46054691ED06
:104C1000000A11F0DBFE94ED010A05F11C0011F011
:104C2000D5FE94ED020A05F13800BDE8384011F0D8
:104C3000CDBE00BF10B5044611F0DAFE04F11C0031
:104C400011F0D6FE04F13800BDE8104011F0D0BEDE
:104C500070B5044682B0C1F30726CDB2ADF804109A
:104C600003F0E4FD4FF480724FF001232060A01D9B
:104C7000A571A280E671A36002B0BDE8704000F0AB
:104C800065BC00BF38B5044603F0D0FD00222368A0
:104C90002271834210D00122A57AE37A95402060E8
:104CA0002271A01D6DB243B900F02CFD40B2284323
:104CB000C0B27F28A0720AD038BD00F023FDB0FA40
:104CC00080F040092843C0B27F28A072F4D103F0DD
:104CD000ADFD07EE900AF8EE677AC4ED037A38BDB1
:104CE00000B583B04FF0000E4FF0030C4274ADF8E6
:104CF0000410BDF8043080F810E0A0F802C0038072
:104D000003B05DF804FB00BF2DE9F04FDFF81C8312
:104D100000258DB0C04C037008F140034260074687
:104D200001920E46202229464046C4F86831C4F854
:104D30006481CDE90255CDE90455CDE90655CDE9AB
:104D40000855CDE90A5512F0C3FE2022294604F584
:104D5000A170C4F83151C4F83551C4F83951C4F8C0
:104D60003D5112F0B5FE019B84F8485284F8303171
:104D70007A68002A6AD02B4604F59871454606F1F8
:104D8000100A9E46F01856F803B0E2180EF1010E14
:104D9000D0F80CC0D0F80490D0F8088044F803B0E4
:104DA000C2F80CC04FF0000CC2F80490C2F80880A2
:104DB000008A25F802CB10821AF8032001F8012F8F
:104DC000002A70D07A684FF001001233724584F8DF
:104DD0004802D7D84FF4802290489DF8043008212B
:104DE0004FF000084FF00009C4F884310023C4E9F3
:104DF0005B020122C4F8743184F88031C4E95E2179
:104E000094F84812C4E96489A9B3C4F8982100222F
:104E100084F8813184F888313B78C4E96722002B1B
:104E200038D0012200200121013B84F8A421C4E9EB
:104E30006C01082B30D8DFE813F0BD00C200C700BA
:104E4000CC00D100D600DB00E100E8009DF8043082
:104E50000121C4F87421C4F884314FF4802384F80C
:104E600080216E4AC4E95B2308230022C4E95E1353
:104E70000023C4E964230123002284F88131002344
:104E800084F888310323C4F898313B78C4E9672259
:104E9000002BC6D184F8A431614805F023F80346FD
:104EA00038B1FFBEFEE77A68123372453FF66AAF4B
:104EB00090E702A95A48029305F072F98246002849
:104EC00076D1042240F2FF710A90CDE9081294F8DD
:104ED0003021002A00F0F3804FF006080AEBCA03E5
:104EE0004FEACA0904EB43035B7C072B07D8DFE8D2
:104EF00003F0595C5653504D4A04072307930FFAA9
:104F00008AF6D14406EBC60604EB490904EB4607D2
:104F10007500384600F01AFB99F81030042B00F3A6
:104F2000AA80022B00F3BD8000F0B98004EB0A03D5
:104F3000002283F8202114F81630002B78D0022BA1
:104F400000F08A80012B40F0B2807B78012B00F0CA
:104F5000B080002B334B18BF002305A93048CDE9A2
:104F6000053804F0EBFB002840F0AC800AF1010AA0
:104F700094F830315FFA8AFA534540F2A0802A4B08
:104F800053F82A80AAE706230793B8E70523079377
:104F9000B5E704230793B2E703230793AFE70223A0
:104FA0000793ACE700230793A9E701230793A6E73C
:104FB000FFBEFEE703224023C4E96A236CE7072211
:104FC0006023C4E96A2367E70F228023C4E96A23C8
:104FD00062E71F22A023C4E96A235DE73F22C023C2
:104FE000C4E96A2358E77F22E023C4E96A2353E730
:104FF000FF224FF48073C4E96A234DE740F2FF12A9
:105000004FF49073C4E96A2346E740F2FF324FF44D
:10501000A073C4E96A233FE7E0B100240020024006
:105020004CB300240002B02528890108004100305B
:105030007B78062B37D0072B3DD0022B4AD0032B91
:105040004AD0002B4CD0012B48D0042B4AD0052B42
:10505000254B18BF002380E77B78042B25D0052B38
:105060002BD08BB3012B31D0022B31D0032B1F4B14
:1050700018BF002371E70323043504EB0A0B4FF03C
:10508000000925448BF82031284609F1010900F078
:105090005DFA9BF8203104354B45F5DC4BE70123E5
:1050A000EAE70223E8E7124B57E7124B55E70023E4
:1050B00053E7114B51E7114B4FE7114B4DE70DB043
:1050C000BDE8F08FFFBEFEE70E4B46E70E4B44E710
:1050D0000E4B42E70E4B40E70E4B3EE70E4B3CE7D4
:1050E0000E4B3AE70E4B38E70000B84F00209036E1
:1050F0000800900C1000C0102000F0148000501D1B
:10510000000180210004002A0008302E00106032C7
:105110000040C03A0080F03E0000524700002143AA
:105120000000844B38B5094C40F2FF724FF001117A
:1051300004F5B675284604F0E1FF94F83021D4F860
:1051400064112846BDE8384004F04CBDE0B10024AD
:10515000034B0F29D3F8640198BF00EB410070475F
:10516000E0B10024214B02689A4200D07047204AE7
:1051700000232048D2F8D81030B51F4C41F0200150
:1051800083B0C4F8D001092004F5E875C4E97503BB
:105190004FF48060C2F8D810D2F8D8204FF40061E4
:1051A000C4E9773094F8480202F02002C4F8E41110
:1051B0004FF40051984201922846C4F8E811C4E91E
:1051C0007C33019B14BF00234FF48073C4F8EC318F
:1051D00005F00CFA08B1FFBEFEE704F5B673C4F89B
:1051E000B851C4F8083203B030BD00BF00200240FF
:1051F0000044025840000240E0B10024014805F09C
:105200006DBD00BFB0B3002402682DE9F84F4B4BD1
:105210009A4201D0BDE8F88F494D95F84832002BED
:10522000F8D095F83031002B77D0002405F10C0927
:1052300005F5A17605F59877A04613E003F0010186
:1052400017F811BCA9F1080000F06AFABBF1010FD0
:1052500025D895F83031013409F112090236A2B28D
:1052600093422BD917F8012F002AF4D0D5F86431D6
:105270000021327833F81400D5F8683103EB0413B9
:1052800023F81200338801339BB233805FFA83FA2C
:105290003A789A42D2D88A46A6F80080D0E7CAF374
:1052A0004001A9F1040000F03BFABBF1020FCAF380
:1052B0008001CED0484600F033FACAE7002395F8C3
:1052C0004802204909229842C5F8D8314FF480603D
:1052D000C5F8D011C5F8D4214FF400614FF4005245
:1052E000C5F8DC3108BF4FF48073C5F8E821C5E983
:1052F000780100221448C5E97B32C5F8F42105F095
:1053000075F908B1FFBEFEE795F83021D5F86411B4
:105310000E48BDE8F84F04F065BC0A4909224FF475
:105320008060C5F8D831C5E974124FF400614FF4BC
:105330000052C5E97730C5E97912DAE7002002406A
:10534000E0B1002440000240B0B300244CB300247C
:10535000704700BF10B592B0ADF804100180C9B21B
:10536000149C0B29C460C0E901233FD090F801C010
:10537000BCF10F0F3AD8022A3FD0032A02D0012AEB
:1053800000D000220E92012B02D0022B18BF002366
:10539000022C0F932CD0032C2AD0012C28D00023D0
:1053A0000A29109327D85C4A02EB812202610A295C
:1053B00014D8DFE801F0A39587796B5D4F41332561
:1053C0000600564BD3F8E01041F48061C3F8E010BA
:1053D000D3F8E03003F480630C930C9B01230DA9F8
:1053E000104603FA0CF30D9305F0CAFF12B010BD7E
:1053F0000A291094D7D90022D8E711220E92C2E7C9
:10540000464BD3F8E01041F40071C3F8E010D3F834
:10541000E03003F400730B930B9BDFE73F4BD3F8B3
:10542000E01041F48071C3F8E010D3F8E03003F4E9
:1054300080730A930A9BD1E7384BD3F8E01041F010
:105440008001C3F8E010D3F8E03003F08003099343
:10545000099BC3E7314BD3F8E01041F04001C3F89A
:10546000E010D3F8E03003F040030893089BB5E761
:105470002A4BD3F8E01041F02001C3F8E010D3F834
:10548000E03003F020030793079BA7E7234BD3F8F3
:10549000E01041F01001C3F8E010D3F8E03003F061
:1054A00010030693069B99E71C4BD3F8E01041F0DC
:1054B0000801C3F8E010D3F8E03003F008030593C7
:1054C000059B8BE7154BD3F8E01041F00401C3F8BE
:1054D000E010D3F8E03003F004030493049B7DE76D
:1054E0000E4BD3F8E01041F00201C3F8E010D3F8FE
:1054F000E03003F002030393039B6FE7074BD3F8FD
:10550000E01041F00101C3F8E010D3F8E03003F0FF
:1055100001030293029B61E7000002580044025815
:1055200008B5012143780069994089B206F030F945
:10553000003818BF012008BD01230A4641780069E0
:1055400003FA01F189B206F029B900BF8378022B72
:1055500030B504468FB037D0032B33D0012B31D078
:1055600000230A93E378012B2AD0022B28D00023B2
:105570000B93002320460C9303F0D0FC05462046F5
:1055800003F0D4FC23780990082B13D8DFE803F04C
:105590001F3245586B7E91A40500594BD3F8E0208B
:1055A00042F48072C3F8E020D3F8E03003F4807353
:1055B0000893089B09A9284605F0E2FE0FB030BD0C
:1055C0000B93D6E70A93CDE711230A93CAE74C4B16
:1055D00009A92846D3F8E02042F00102C3F8E020F0
:1055E000D3F8E03003F001030093009B05F0C8FE00
:1055F0000FB030BD424B09A92846D3F8E02042F055
:105600000202C3F8E020D3F8E03003F00203019374
:10561000019B05F0B5FE0FB030BD394B09A92846F6
:10562000D3F8E02042F00402C3F8E020D3F8E030E1
:1056300003F004030293029B05F0A2FE0FB030BDFD
:105640002F4B09A92846D3F8E02042F00802C3F8FE
:10565000E020D3F8E03003F008030393039B05F048
:105660008FFE0FB030BD264B09A92846D3F8E020A5
:1056700042F01002C3F8E020D3F8E03003F010034A
:105680000493049B05F07CFE0FB030BD1C4B09A9B0
:105690002846D3F8E02042F02002C3F8E020D3F8F7
:1056A000E03003F020030593059B05F069FE0FB081
:1056B00030BD134B09A92846D3F8E02042F0400240
:1056C000C3F8E020D3F8E03003F040030693069BD4
:1056D00005F056FE0FB030BD094B09A92846D3F896
:1056E000E02042F08002C3F8E020D3F8E03003F07D
:1056F00080030793079B05F043FE0FB030BD00BF4A
:105700000044025838B5054603F008FC0446284614
:1057100003F00CFC01462046BDE8384006F038B8DE
:1057200070B506460D4603F0F9FB0446304603F01B
:10573000FDFB2A1E0146204618BF0122BDE870402D
:1057400006F02CB80023122270B586B0CDE90223F2
:1057500004930368032B01D804230593061D841DBD
:10576000304603F0DBFB0546304603F0DFFB034623
:1057700001A92846019305F003FE204603F0CEFB65
:10578000034620461C4603F0D1FB01A903462046F0
:10579000019305F0F5FD06B070BD00BF634A0368D4
:1057A000934210B58CB028D0614A934258D0614AD8
:1057B000934200F09480604A934201D00CB010BD37
:1057C0005E4C5F48D4F8E03043F00203C4F8E030A8
:1057D000D4F8E03003F002030A930A9BFFF7B2FF0C
:1057E000D4F8F43043F08003C4F8F430D4F8F43043
:1057F00003F080030B930B9BE0E7504C5148D4F827
:10580000E03043F00203C4F8E030D4F8E03003F0B5
:1058100002030193019BFFF795FFD4F8E8300022C3
:105820001F2043F400131146C4F8E830D4F8E830E0
:1058300003F400130293029BD4F8D83043F0010321
:10584000C4F8D830D4F8D83003F001030393039B95
:1058500004F01AFD1F200CB0BDE8104004F052BD4A
:10586000364C3948D4F8E03043F08003C4F8E030D7
:10587000D4F8E03003F080030493049BD4F8E030C4
:1058800043F00203C4F8E030D4F8E03003F0020340
:105890000593059BFFF756FFD4F8E830002221203E
:1058A00043F480031146C4F8E830D4F8E83003F438
:1058B00080030693069BD4F8D83043F00103C4F864
:1058C000D830D4F8D83003F001030793079B04F0D5
:1058D000DBFC21200CB0BDE8104004F013BD1B48D8
:1058E000FFF730FF154B00224820D3F8E84011465F
:1058F00044F40004C3F8E840D3F8E84004F400049A
:105900000894089CD3F8D84044F00104C3F8D84068
:10591000D3F8D83003F001030993099B04F0B4FCD9
:1059200048200CB0BDE8104004F0ECBC005400402E
:1059300000580040005C0040001C00580044025821
:10594000B8B6002430B4002408B50024E0B5002423
:105950002DE9F0431A4B87B000254FF010099E4601
:10596000EC46184BFF22E04667461A700EF1180607
:105970000EF13004CDE90055CDE90255ADF80090A7
:10598000BCE80F00CDE90455AEE80F009CE8030029
:105990000095ADF800908EE80300B8E80F000FC640
:1059A0009CE803000095ADF8009086E803000FCF57
:1059B0000FC49CE8030084E8030007B0BDE8F0834F
:1059C000040000242CB4002410B5EFF3108472B648
:1059D000084B1A78120602D504B962B610BD1B78BE
:1059E000D82205485BB202FB0300143005F076F9BB
:1059F000F2E700BF2CB4002430B40024014806F0C4
:105A0000DBBD00BFBCB40024014806F0D5BD00BF1B
:105A100094B50024014806F0CFBD00BF6CB6002449
:105A20002DE9F0430F68D8243F4D85B007FB04F4FF
:105A3000032F05EB0403036040DCCB680E46012B0B
:105A40003CD84DD04FF0D808B646DFF8FC9008FBA4
:105A50000758BEE80F00C446ACE80F00DEF800307F
:105A60000DF1100ECCF80030D8F808C099E80F00FE
:105A70000EE90F000EEB8703BCF1010F53F8103C49
:105A8000C8F88C3031D0BCF1020F42D0BCF1000F0D
:105A900035D0317C8C34D823002201202C4403FBE8
:105AA00007534900C3E92602C3F894102046C3E90E
:105AB0002822C3E92A2206F071FB18B1012005B0A3
:105AC000BDE8F0830146204606F082FD0028F5D1AE
:105AD0000146204606F0A6FD003818BF0120EEE77B
