:020000040800F2
:1000000000000220110A00080D0A0008C99B000820
:100010000D0A00080D0A00080D0A00080000000083
:100020000000000000000000000000000D0A0008B1
:100030000D0A0008000000000D0A00084D9B000892
:100040000D0A00080D0A00080D0A00080D0A000834
:100050000D0A00080D0A00080D0A00080D0A000824
:100060000D0A00080D0A00080D0A000811790008A1
:100070001D7900087566000829790008357900089F
:10008000C9950008416E00080D0A00080D0A000815
:100090000D0A00080D0A00080D0A00080D0A0008E4
:1000A0000D0A00080D0A00080D0A00080D0A0008D4
:1000B0003D8101084981010855810108756E0008DC
:1000C0000D0A0008816E00080D0A0008AD840008C2
:1000D000B9840008FD930008299400085D94000885
:1000E0000D0A00080D0A0008000000000D0A0008B3
:1000F0000D0A00080D0A00080D0A00080D0A000884
:100100000D0A0008BD7C000861810108C584000853
:1001100091940008C59400080D0A00080D0A000813
:100120000D0A00080D0A0008E98400081D85000872
:10013000FD9500080D0A00080D0A00080D0A0008C8
:1001400000000000000000000000000000000000AF
:100150000D0A00080D0A00080D0A0008F9940008AD
:100160008D6E00080D0A00085D9B0008819B000849
:100170000D0A0008A59B00080D0A00080D0A0008DA
:100180000D0A00080D0A00082D9500086195000869
:10019000D1840008DD8400080D0A00080D0A00085B
:1001A0000D0A00080D0A00080D0A00080D0A0008D3
:1001B000317600080D0A00080D0A00080D0A000833
:1001C0000D0A00080D0A00080D0A00080D0A0008B3
:1001D0000D0A00080D0A00080D0A00080D0A0008A3
:1001E0000D0A00080D0A00080D0A00080D0A000893
:1001F0000D0A00080D0A00080D0A00080D0A000883
:100200000D0A00080D0A00080D0A00080D0A000872
:100210000D0A00080D0A00080D0A00080D0A000862
:100220000D0A00080D0A00080D0A00080000000071
:100230000D0A00080D0A0008000000000D0A000861
:100240000D0A00080D0A00080D0A00080D0A000832
:100250000D0A00080D0A00080D0A00080D0A000822
:100260000D0A00080D0A00080D0A00080D0A000812
:100270000D0A00080D0A000895950008000000000E
:100280000D0A00080D0A00080D0A00080000000011
:08029000000000000D0A000847
:1002A00010B5054C237833B9044B13B10448AFF3B0
:1002B00000800123237010BDF00300240000000023
:1002C000CCB4010808B5034B1BB103490348AFF395
:1002D000008008BD00000000F4030024CCB4010835
:1002E000034613F8012B002AFBD1181A0138704776
:1002F00001F0FF01102A2BDB10F0070F08D010F8D7
:10030000013B013A8B422DD010F0070F42B3F6D1DA
:10031000F0B441EA012141EA014122F007047FF0F3
:1003200000070023F0E80256083C85EA010586EA4A
:10033000010685FA47F5A3FA87F586FA47F6A5FA86
:1003400087F68EB9EED1F0BC01F0FF0102F0070292
:1003500032B110F8013B013A83EA010313B1F8D13D
:100360000020704701387047002D06BF354603381E
:10037000073815F0010F07D1013015F4807F02BF57
:10038000013015F4C03F0130F0BC0138704700BFA8
:1003900081F0004102E000BF83F0004330B54FEA36
:1003A00041044FEA430594EA050F08BF90EA020FA3
:1003B0001FBF54EA000C55EA020C7FEA645C7FEA36
:1003C000655C00F0E2804FEA5454D4EB5555B8BF59
:1003D0006D420CDD2C4480EA020281EA030382EACA
:1003E000000083EA010180EA020281EA0303362D5C
:1003F00088BF30BD11F0004F4FEA01314FF4801C2F
:100400004CEA113102D0404261EB410113F0004F40
:100410004FEA03334CEA133302D0524263EB4303F7
:1004200094EA050F00F0A780A4F10104D5F1200E95
:100430000DDB02FA0EFC22FA05F2801841F10001F0
:1004400003FA0EF2801843FA05F359410EE0A5F1C4
:1004500020050EF1200E012A03FA0EFC28BF4CF0F5
:10046000020C43FA05F3C01851EBE37101F00045AB
:1004700007D54FF0000EDCF1000C7EEB00006EEBB8
:100480000101B1F5801F1BD3B1F5001F0CD3490842
:100490005FEA30004FEA3C0C04F101044FEA445299
:1004A00012F5800F80F09A80BCF1004F08BF5FEA20
:1004B000500C50F1000041EB045141EA050130BD00
:1004C0005FEA4C0C404141EB0101013C28BFB1F512
:1004D000801FE9D291F0000F04BF01460020B1FA5D
:1004E00081F308BF2033A3F10B03B3F120020CDA30
:1004F0000C3208DD02F1140CC2F10C0201FA0CF00E
:1005000021FA02F10CE002F11402D8BFC2F1200C72
:1005100001FA02F120FA0CFCDCBF41EA0C01904028
:10052000E41AA2BF01EB0451294330BD6FEA040471
:100530001F3C1CDA0C340EDC04F11404C4F120025C
:1005400020FA04F001FA02F340EA030021FA04F36E
:1005500045EA030130BDC4F10C04C4F1200220FAC5
:1005600002F001FA04F340EA0300294630BD21FA03
:1005700004F0294630BD94F0000F83F4801306BFC9
:1005800081F480110134013D4EE77FEA645C18BFBD
:100590007FEA655C29D094EA050F08BF90EA020F54
:1005A00005D054EA000C04BF1946104630BD91EA4C
:1005B000030F1EBF0021002030BD5FEA545C05D14F
:1005C0004000494128BF41F0004130BD14F580048E
:1005D0003CBF01F5801130BD01F0004545F0FE4102
:1005E00041F470014FF0000030BD7FEA645C1ABF37
:1005F000194610467FEA655C1CBF0B46024650EA6E
:10060000013406BF52EA033591EA030F41F4002199
:1006100030BD00BF90F0000F04BF0021704730B51F
:100620004FF4806404F132044FF000054FF00001F4
:1006300050E700BF90F0000F04BF0021704730B5B5
:100640004FF4806404F1320410F0004548BF40428A
:100650004FF000013EE700BF42004FEAE2014FEADF
:1006600031014FEA02701FBF12F07F4393F07F4FBA
:1006700081F06051704732F07F4208BF704793F0BD
:100680007F4F04BF41F40021704730B54FF46074D0
:1006900001F0004521F000411CE700BF50EA0102D3
:1006A00008BF704730B54FF000050AE050EA01027C
:1006B00008BF704730B511F0004502D5404261EBEC
:1006C00041014FF4806404F132045FEA915C3FF42D
:1006D000D8AE4FF003025FEADC0C18BF03325FEACA
:1006E000DC0C18BF033202EBDC02C2F1200300FA7B
:1006F00003FC20FA02F001FA03FE40EA0E0021FAA0
:1007000002F11444BDE600BF53B94AB9002908BF3D
:1007100000281CBF4FF0FF314FF0FF3000F074B9DC
:10072000ADF1080C6DE904CE00F006F8DDF804E048
:10073000DDE9022304B070472DE9F047089D044627
:100740008E46002B4DD18A42944669D9B2FA82F284
:1007500052B101FA02F3C2F1200120FA01F10CFAC0
:1007600002FC41EA030E94404FEA1C48210CBEFBF8
:10077000F8F61FFA8CF708FB16E341EA034306FB81
:1007800007F199420AD91CEB030306F1FF3080F010
:100790001F81994240F21C81023E63445B1AA4B25D
:1007A000B3FBF8F008FB103344EA034400FB07F7FF
:1007B000A7420AD91CEB040400F1FF3380F00A8140
:1007C000A74240F207816444023840EA0640E41B35
:1007D00000261DB1D4400023C5E900433146BDE8E1
:1007E000F0878B4209D9002D00F0EF800026C5E983
:1007F000000130463146BDE8F087B3FA83F6002E9B
:100800004AD18B4202D3824200F2F980841A61EB12
:10081000030301209E46002DE0D0C5E9004EDDE730
:1008200002B9FFDEB2FA82F2002A40F09280A1EB18
:100830000C014FEA1C471FFA8CFE0126200CB1FB6D
:10084000F7F307FB131140EA01410EFB03F0884266
:1008500008D91CEB010103F1FF3802D2884200F2F3
:10086000CB804346091AA4B2B1FBF7F007FB101185
:1008700044EA01440EFB00FEA64508D91CEB040423
:1008800000F1FF3102D2A64500F2BB800846A4EB7E
:100890000E0440EA03409CE7C6F12007B34022FA69
:1008A00007FC4CEA030C20FA07F401FA06F31C4398
:1008B000F9404FEA1C4900FA06F3B1FBF9F8200CA5
:1008C0001FFA8CFE09FB181140EA014108FB0EF0EB
:1008D000884202FA06F20BD91CEB010108F1FF3A3B
:1008E00080F08880884240F28580A8F10208614447
:1008F000091AA4B2B1FBF9F009FB101144EA014155
:1009000000FB0EFE8E4508D91CEB010100F1FF34FF
:100910006CD28E456AD90238614440EA0840A0FB97
:100920000294A1EB0E01A142C846A64656D353D06D
:100930005DB1B3EB080261EB0E0101FA07F722FA91
:1009400006F3F1401F43C5E9007100263146BDE8BA
:10095000F087C2F12003D8400CFA02FC21FA03F31D
:10096000914001434FEA1C471FFA8CFEB3FBF7F09E
:1009700007FB10360B0C43EA064300FB0EF69E42C3
:1009800004FA02F408D91CEB030300F1FF382FD25C
:100990009E422DD9023863449B1B89B2B3FBF7F604
:1009A00007FB163341EA034106FB0EF38B4208D9DD
:1009B0001CEB010106F1FF3816D28B4214D9023E1E
:1009C0006144C91A46EA004638E72E46284605E73C
:1009D0000646E3E61846F8E64B45A9D2B9EB02080D
:1009E00064EB0C0E0138A3E74646EAE7204694E79D
:1009F0004046D1E7D0467BE7023B614432E73046D0
:100A000009E76444023842E7704700BFFEE700BFD1
:100A10000B480C4A904203D0121A0B4918F0B2FA54
:100A20000A480B4A904203D0121A002118F0D2FA59
:100A300009F022FB18F072FA03F0A2FDFEE700BFF6
:100A400000000024F003002400B50108F003002496
:100A50004CDF0024034B03EB800203445268187BF5
:100A6000536818471C060024074B1A5C52B903EB65
:100A7000800219184FF0010C526803F800C0087B7F
:100A800013681847002070471C06002430B4054C3A
:100A900004EB800504446D68207BAC68A44630BC40
:100AA000604700BF1C06002430B4054C04EB8005F1
:100AB00004446D68207BEC68A44630BC604700BFEE
:100AC0001C060024044B03EB000C03EB80035B6863
:100AD0009CF80C001B6918471C06002410B404681D
:100AE0009CB12178844622461F2913D93A2911D076
:100AF00012F8013F1F2B0ED93A2BF9D10134A1F185
:100B00003000A24201D101280CD94FF0FF305DF82E
:100B1000044B70470B463A2BF0D0044B18785DF825
:100B2000044B70470132CCF80020F8E70C04002495
:100B300038B50D4640B1036804462BB11A781AB196
:100B40008088DA88904203D0092000232B6038BDCA
:100B50005878FFF77FFF10F00100F5D12368F5E723
:100B60002DE9F0410026D0F800808E758369002BB6
:100B70005AD0C36A07460D4601331ED0D8F80C3050
:100B80001888002861D001F11506012400E01C46F8
:100B9000002101F06FFE631C002856D0B4F5807F61
:100BA00053D006F8010FD8F80C2032F814000028B2
:100BB000EDD12C440023A375AE7DD7F81CC00020D6
:100BC0004FF02E080CF1FF31024611F8013F0132BF
:100BD000202B18D0052B08BFE523092A26D02C1876
:100BE00063727EB9A3F14107192F0AD8082A9CF82D
:100BF0000CE08CBF102708271EEA070F01D0203316
:100C0000DBB2A37501300B2ADFD12C18B6B100235B
:100C100063729CF80B302B72DCF81C302B60DCF814
:100C200016301A0CEB80AA80BDE8F0812C180EB9A2
:100C300084F81680013084F80980D0E7A6759CF806
:100C40000C30002B08BF2C46E1E7002400232C4485
:100C5000A375AE7DB1E700BF2DE9F041456B00F112
:100C60003808044601232A4641464078FFF71CFF16
:100C7000C0B9A26A0746236AAA1AE0709A420ED245
:100C8000A678012E01D80AE0236A1D44013E012303
:100C900041462A466078FFF707FF012EF4D1384617
:100CA000BDE8F08101273846BDE8F08170B5C37812
:100CB00004465BB92378032B0FD0002260781146DD
:100CC000FFF700FF003818BF012070BDFFF7C4FF19
:100CD0000028FAD12378032BEFD12579012DECD10F
:100CE00004F138064FF400720021304618F072F912
:100CF00055233146722684F836322B4665696120C9
:100D000084F81C62522284F81D622E0A84F83A008C
:100D100084F81F0284F82052206984F821622E0C86
:100D20002D0E84F8382084F83920412284F823528B
:100D3000050A84F83B2084F81E2284F82402626AA3
:100D400084F82552050C000E013284F8226284F8E2
:100D50002702AA20626384F8370284F8265260785A
:100D6000FFF7A2FE00232371A7E700BF38B5C378C1
:100D700004460D4663B901232A4604F13801607820
:100D8000FFF784FE10B101204FF0FF35656338BDD9
:100D9000FFF762FF0028EED038BD00BF70B54FF0FE
:100DA000FF3600230446B142C37046630CD00D46A3
:100DB0000A46012300F138014078FFF767FE10B1C1
:100DC0000420666370BD65634AF65523B4F8362285
:100DD0009A421AD194F83830E92B07D0A36B0D4A08
:100DE00003F0FF13934201D0022070BDD4F86E309F
:100DF000094A23F07F43934209D0D4F88A00074B75
:100E0000984214BF0220002070BD032070BD002056
:100E100070BD00BFEB009000464154004641543382
:100E20000023F0B50B6085B00E461446FFF756FE62
:100E3000051EC0F2BC808C4B53F82570002F00F0CB
:100E4000C380376004F0FE043B787BB17878FFF70D
:100E500001FEC6070AD4002C00F0A28010F00404A2
:100E600000F09E800A24204605B0F0BDE8B20023C1
:100E700078703B70FFF7F8FDC50700F194800CB166
:100E80004407EFD400213846FFF788FF02286DD0D1
:100E9000042800F09080012800F281800025B7F836
:100EA0004330B3F5007F7AD1B7F84E2002B9FA6D1E
:100EB00097F848303A62591EBB7001296FD897F8ED
:100EC000451088B27881002869D0481E084266D152
:100ED000B7F8496030073E8161D1B7F84B0000B9DF
:100EE000B86DB7F846E0BEF1000F58D002FB03F32F
:100EF0000EEB16141C44A04251D3001B8842B0FBD9
:100F0000F1FC4CD34FF6F5718C455FD840F6F57186
:100F10000EEB05002C447D628C450CF102013C6314
:100F2000F961B86273D8002E39D0034401EB410057
:100F300001F00101FB6201EB5001012001F2FF1100
:100F4000B2EB512F2BD34FF0FF338022C7E904338C
:100F50003A71464A0021464C1388FC600C46013326
:100F60003870B9619BB21380FB8019E06C4607F5BD
:100F7000FB7307F2362520461A79114602B19968AB
:100F8000103340F8041B9D42F6D104F1100654F8CA
:100F9000045B03208DB9B442F9D104280BD00D2491
:100FA000204605B0F0BD0324204605B0F0BD0B245B
:100FB000204605B0F0BD0124F2E729463846FFF788
:100FC000EDFE0128E7D86AE70C24E9E70EEB0501FE
:100FD0000CF102032C447D62B962B7F862103C63E5
:100FE0003143FB61DBD19B00796E03F2FF13F962A1
:100FF000B2EB532FD3D3B7F868204FF0FF338021E3
:10100000012A3971C7E9043308D00320A1E7002E73
:10101000C5D0034449000220FB628FE7691C7B6B4B
:10102000994204D03846FFF7A1FE0028EDD14AF6D8
:101030005523B7F8362200219A423971E5D1BA6BAF
:101040000C4B9A42E1D103F1FF53D7F81C2203F570
:10105000005320339A42D8D1D7F820220320D7F862
:101060002432C7E9043274E7100400241804002471
:101070001C040024525261412DE9F84303780446D0
:101080000D461646022B06D0032B6AD0012B27D023
:101090000220BDE8F883876A436B07EB11279F4264
:1010A00000F09080C378002B40F0B68004F138083F
:1010B00001233A4660784146FFF7E8FC00284AD110
:1010C00067636D00C6F307220123002005F4FF7556
:1010D00008EB050108F805604A70E370BDE8F88385
:1010E00001EB5107826A436B02EB5728984563D0A6
:1010F000C378002B40F08A8004F13809012342466E
:1011000060784946FFF7C2FC28BBC4F8348015F06C
:10111000010507F10108C7F308075ED019F8073089
:1011200003F00F0343EA061309F807300123A76A07
:10113000E37007EB5827636B9F4278D02046FFF798
:101140008BFD0028A5D101233A4649466078FFF778
:101150009DFC002839D04FF0FF3301206363BDE8C8
:10116000F883826A436B02EBD118984527D0C37885
:10117000002B57D104F138070123424660783946E5
:10118000FFF784FC0028E6D1C4F83480AD0026F0D7
:10119000704205F4FE757B59791903F070431A43C8
:1011A000130C7A55100A8B70120E01234870CA7006
:1011B0000020E370BDE8F88300F13809A7E700F1EB
:1011C0003807E3E700F138087BE7C8F308016763F5
:1011D00049447DB1C6F3071212E009F80760012304
:1011E000A76AE37007EB5827636B9F42A6D1C8F349
:1011F000080149440B78C6F3032223F00F0632435B
:1012000001230A700020E370BDE8F883FFF724FD96
:1012100000283FF471AF3CE7FFF71EFD00283FF4C4
:1012200045AF36E7FFF718FD0028A3D031E7C8F334
:10123000080309EB0301CDE701294CD9C3699942A1
:101240002DE9F0410C46054602D30120BDE8F081AE
:101250000378022B5AD0032B3FD0012BF5D101EBA1
:101260005106826A436B02EB56279F420ED0C37829
:10127000002B79D101233A4605F138016878FFF750
:1012800005FC00285FD1AA6A3B466F63771CC6F352
:10129000080602EB57282E44434596F838600DD0D7
:1012A000EB78002B65D10123424605F138016878BF
:1012B000FFF7ECFB002846D1C5F83480C7F30807D8
:1012C000E3073D4495F8380046EA00204CBF00098A
:1012D000C0F30B00BAE701207047866A436B06EB48
:1012E000D1169E4229D0C37893BB05F1380701235C
:1012F000324668783946FFF7C9FB20BB6E63A4000D
:1013000004F4FE74385920F070409FE7866A436BFE
:1013100006EB11269E4213D0C37803BB05F13807B4
:101320000123324668783946FFF7B0FB58B96E633F
:10133000640004F4FF74385B88E700F13807DEE7E7
:1013400000F13807F4E74FF0FF3318466B637DE791
:10135000FFF782FC0028C8D04FF0FF3076E7FFF798
:101360007BFC0028DAD0F7E7FFF776FC002881D075
:10137000F2E72846FFF770FC002894D0ECE700BFA6
:10138000012970B50C4634D9C3690546994230D25B
:101390001146EAB193422CD9012A2AD04FF0FF32EC
:1013A000FFF76AFEA0B170BDEE69B34221D2FFF72C
:1013B00063FE0028F7D1EB696A69991E501C8A42C6
:1013C00004D22A79686142F001022A719C4212D249
:1013D00021462846FFF730FF0146234600222846D3
:1013E0000C4641B1012C194603D0661C05D0012BD7
:1013F000DAD8022070BD002070BD012070BD00BF92
:10140000F8B505460F46002942D10669C36996BB67
:101410000126344606E001282CD0431C2AD0A642DF
:1014200034D0EB69013428469C4203D3012E4FF09F
:1014300002042BD92146FFF7FFFE0028EBD1012C37
:1014400022D9EB699C421FD24FF0FF322146284639
:10145000FFF712FE00B997B928BBEB696A69023B36
:101460002C619A4201D8013A6A612B79204643F0F7
:1014700001032B71F8BD9E4228BF0126C9E7012F49
:1014800002D0EB699F4213D30120F8BD0020F8BDC4
:10149000FFF7D2FE0128F7D9421C06D0EB6998422B
:1014A000E8D33E46B5E70128EED14FF0FF30F8BD56
:1014B000224639462846FFF7DFFDCDE72DE9F04FFC
:1014C000056983B083692035B5F5001F3BD2002B39
:1014D00039D0C5F3080804460768B8F1000F08D0F2
:1014E00007F13806464400202561E66103B0BDE8F7
:1014F000F08F0E4601334169836141B3B7F80A901A
:1015000009F1FF3919EA5529EAD13846FFF794FE67
:101510000128834623D9B0F1FF3F5DD0FA698242AA
:101520001FD9831E07F138060193023A0199C4F8C6
:1015300014B08A4204D9B7F80A903B6B01FB093911
:10154000C4F81890CEE7042003B0BDE8F08F3B89C3
:10155000B3EB551FC4D800230420A361C6E70220C3
:10156000C4E7002EF7D061692068FFF749FF834682
:10157000002839D00128F2D0B0F1FF3F2CD0FA7802
:10158000002A33D107F13806ABF102034FF40072A1
:1015900000213046019317F01DFDF869019B821E62
:1015A000934229D279893A6B019B03FB01227A632A
:1015B00029B34FF0000A05E07A6B78890132504573
:1015C0007A630BD94FF0010338460AF1010AFB7028
:1015D000FFF742FB0028EFD0012087E7F869A2EB74
:1015E0000A027A630246A0E707207FE73846FFF742
:1015F00033FB0028C6D0EFE779890022D7E78A4677
:10160000EDE700BF2DE9F04704464FF0FF08042046
:1016100025684646D4F8189005F13807B9F1000F4F
:1016200032D06B6B4B4513D0EB78002B64D1012388
:101630004A4639466878FFF729FA38B14FF0FF3348
:1016400001206B630023A361BDE8F087C5F83490E7
:10165000E1690A78002A58D0CB7AE52A03F03F03E3
:10166000A37105D02E2A03D023F02000082810D122
:10167000FF2600212046FFF721FF0028E2D1D4F801
:101680001890B9F1000FCCD10028DBD10020BDE8C3
:10169000F0870F2B46D1500634D5236902F0BF06E0
:1016A00091F80D80E3624B7B4345E1D14B8B002BDE
:1016B000DED10B780122DFF894E04FF6FF7A23F0B9
:1016C0004003D5F80C900EF10C0C013B03EB4300EA
:1016D00003EB8003104609E0FE2B1046C8D829F81A
:1016E00013200133E64512D01EF8012F8A5A002834
:1016F000F2D15245F6D0BBE72846FFF7ADFA0028F5
:1017000095D09FE7B242B3D1CDE704209AE70A789B
:10171000520604D5FE2BABD8002229F81320013E37
:10172000F6B2A6E76EB901F10B02F30143EA5606E1
:1017300011F8013B53FA86F69142F6B2F5D14645CF
:10174000A4D04FF0FF330020E3627DE77C9A0108CC
:10175000B1F5001F42D2CA06F8B50D4620D1816806
:10176000064607680561E9B17B89B5EB432F4FEA6F
:10177000432435D3384607E0012811D9FB69834259
:101780000ED9AC422DD83068FFF756FD431CA5EBAF
:1017900004050146F0D10120F8BD0023C6E9051378
:1017A0000220F8BD3B78022B13D83B89B3EB551FC1
:1017B000F6D9FA6AB2617161002AF1D007F13803F3
:1017C000C5F3080102EB552200200B44C6E90623AD
:1017D000F8BDFB6A002BE8D01946C5E70220704728
:1017E000FB69023B881E9842D7D27B893A6B00FB8B
:1017F0000322B261DFE700BF2DE9F04F002105466B
:1018000007682DED028B85B0FFF7A2FFC8B94FF036
:10181000FF094FF0FF3307F13808CA46EB62AC69A5
:101820007B6B9C4213D0FB78002B4FD101232246C7
:1018300041467878FFF72AF940B14FF0FF33012095
:101840007B6305B0BDEC028BBDE8F08F7C63EC6977
:101850002678002E00F0AB80E27AE52E02F03F03FE
:10186000AB7103D0100711D50F2B39D04FF0FF33D8
:101870004FF0FF0AEB6200212846FFF71FFE002809
:10188000CDD005B0BDEC028BBDE8F08F0F2B27D07B
:10189000BAF1000F77D095F82B0010F00100E5D1D8
:1018A00095F8201005F1210214F8013B05F12B06F3
:1018B0005B1A002BDAD112F8011B14F8013BB2427B
:1018C000A3EB0103F5D1002BD0D1BAE73846FFF7DF
:1018D000C3F90028AAD005B0BDEC028BBDE8F08F9B
:1018E00095F82B305906C6D4720647D52B6906F0F9
:1018F000BF0694F80D90EB62637B4B4540D1638B40
:10190000002B3DD194F800A00123F96808EE108A5D
:101910000AF03F0A029601950E460AF1FF3ADFF8F7
:10192000C0B0184625460AEB4A02039100970AEB1D
:10193000820A13E0BAF1FE0F204618D800F0BAFF71
:10194000804636F81A00BA4600F0B4FF80452046BB
:101950000DD1224B9B452CD01BF8013F0AF101070A
:10196000EC5A0028E6D14FF6FF739C42F1D0DDE936
:10197000007518EE108A4FF0FF0A7CE7B245BBD025
:101980004FF0FF0A77E704F10B0022464FEACA1333
:1019900012F8011B43EA5A0A824251FA8AFA5FFAA4
:1019A0008AFAF3D1D1457FF476AF002049E70420CD
:1019B00047E72C46009F029E18EE108A2378019D6F
:1019C0005B0600D520B906F1FF3A5FFA8AFA52E7C2
:1019D000039B33F81A30002BF5D0D1E7889A010821
:1019E0007C9A01082DE9F04F0B7883B00E4607462C
:1019F0002F2BD0F800B037D05C2B37D0DBF8183065
:101A0000836033781F2B3AD95A461F2BD56898B27A
:101A100040F22181A5F10209B046012408E029F82D
:101A2000020F631C18F8010F1F2840F21A811C4690
:101A30002F2804F1FF3A2CD05C282AD0B4F5807FFF
:101A40000ED0012100F016FF50B17F28E7D82223E5
:101A5000B14A03E012F8013F002BE0D09842F9D1DF
:101A6000062003B0BDE8F08F16F8013F2F2BFBD006
:101A70005C2BF9D00023BB6033781F2BC4D88023A4
:101A80000021384687F82B3003B0BDE8F04FFFF750
:101A90005FBE335D32195C2B02D02F2B40F05C818E
:101AA000631C33441E4613F8012B2F2AFAD05C2AFC
:101AB000F8D0BAF1010F4FF0000800F0DA80BAF167
:101AC000020F40F0DC806B882E2B00F01381934ACC
:101AD00005EB420205E0BAF1010A00F0BC8032F8E1
:101AE000023D202BF7D02E2BF5D04FF020330022D3
:101AF00025F81A207B623B62C7F827302888202807
:101B000002D02E2840F0FC802A46002332F8020F33
:101B10001C4601332028F9D02E28F7D048F00308BE
:101B2000023405EB4A0333F8022D2E2A02D0BAF113
:101B3000010AF8D190B300230822BC4631469946E9
:101B40001F462E465B461546E3460A46202803D02C
:101B50002E283AD1544538D048F0030836F81400FE
:101B600001340028F2D159469B463B4616460F46A3
:101B700091F820102A46E52902D1052187F8201086
:101B8000082A00F0958003F00C020C2A04D003F020
:101B90000303032B40F0968048F0020887F82B805F
:101BA0003846FFF729FE97F82B3060B304287FF4FE
:101BB00058AF9C0640F1E48059073AD580230020B5
:101BC00087F82B3003B0BDE8F08F4D4534D9A4EB36
:101BD0000A01B1FA81F1490971BB7F2858D82B213C
:101BE000DFF840C103E01CF8011F00297AD08142D0
:101BF000F9D148F003085F200BEB090109F1010955
:101C000081F82000AAE75A073FF52BAFBB79DB0626
:101C100040F1B4803B699BF80010C3F308020BF15C
:101C20003803032913445A8B02D19B8A42EA0342A8
:101C3000BA603A683378E8E60B2D00F08F8054459F
:101C400002D048F003088ED8BF0054460B254FF051
:101C50000809FFB282E7002306202B8003B0BDE80D
:101C6000F08FA2461E444FF00408BAF1010F7FF432
:101C700026AF2B882E2B45D04FF0004228E7BAF133
:101C8000000FE8D06FF00042524435F812301FE7E1
:101C9000CDE9003200F0EEFDDDE90032F8B1204977
:101CA00048F00208084410F8800C0028A1D096E7FC
:101CB0009B0003F00C020C2A3FF46EAF18F0020FE9
:101CC00008D06BE718F0020F7FF468AF012B08BF54
:101CD00048F01008042A08BF48F008085EE748F0FA
:101CE000020886E7A0F1410119292CD847F0020724
:101CF000C0B281E72A882E2A7FF4E9AE042302E0ED
:101D000001240EE7022300222E242020EA5207F1AC
:101D1000200201230DE000BFE899010801000080C6
:101D2000FC990108F49901080B2B107006D00133BF
:101D30000132591E8A45F7D91470F8E748F0200897
:101D400087F82B802CE7A0F1610119299CBF20386E
:101D500047F00107C0B24FE71646AAE659461646B5
:101D60009B4648F0030891F820203B460F46E52AA1
:101D70007FF409AF052281F8202004E7052070E6F2
:101D800013F0040F08BF05206BE600BF2DE9F04FEC
:101D90002DED028B90F82B308BB013F0A002009346
:101DA00040F02E81D0F800A00646DAF80CE0BEF82C
:101DB0000030002B00F0C7819346724632F8023F94
:101DC0000BF1010B002BF9D106F120030DF11C08DA
:101DD00093E8070088E80700009A0293D1076BD5C3
:101DE0006FF01F054022B1460127AD1B86F82B205E
:101DF000AD4C7346029EB446052F98E80700ACE848
:101E000003002CF8022B4FEA12428CF800206FD905
:101E1000198800296CD09C463B46102001F0010235
:101E2000490802EB4303DA0348BF63400138F5D1A8
:101E30003CF8021F0029F0D10DF11B0C072203F022
:101E40000F004FEA131E013A00F13001392988BF13
:101E500000F137010F2B73460CF80119EFD80AABCC
:101E60007E21134403F8141C002A43D009F11F01FA
:101E7000002302E001339A4203D011F8010F202819
:101E8000F8D120334B440AA9072A01EB02004FF096
:101E9000200102D810F8141C013203F8011BE918C4
:101EA0000729F0D94846FFF7A7FC28BB0137642F64
:101EB00016D0DAF80C309EE7009B54469B0726D5D7
:101EC0007A4B0BF10C0700213046A3FB0737FFF7D5
:101ED0003FFC8146BF08013708B3042840F03A812F
:101EE0004FF0070948460BB0BDEC028BBDE8F08F00
:101EF0003B46A1E71346C4E704284E468146F1D18C
:101F0000009B346886F82B30009B9B07D8D40021B7
:101F10003046FFF71DFC012781460028DDD105462C
:101F200004F13808D6F818B0636B9B4516D0E378F7
:101F3000002B5FD101235A4641466078FEF7A6FD8B
:101F400050B14FF001094FF0FF33484663630BB0C7
:101F5000BDEC028BBDE8F08FC4F834B0F3691B7898
:101F6000E52B0BD0B3FA83F252093BB115460121A0
:101F70003046FFF7A3FA0028D4D0AEE70135AF42D0
:101F8000F5D17B1E00933ED1B469DAF834309C421F
:101F900011D09AF80330002B40F0DE800123224656
:101FA0000AF138019AF80100FEF770FD002840F0B0
:101FB000C380CAF8344020220021F06917F00AF8E3
:101FC000F36906F12B01029A013B12F8010B9142D1
:101FD00003F8010FF9D196F82B300122F169484638
:101FE00003F018030B738AF803200BB0BDEC028BCF
:101FF000BDE8F08F2046FEF72FFE00289AD06CE750
:102000004FF006096EE731693046009BA1EB4311A2
:10201000FFF79EFB0190002840F0A68006F12B01FF
:10202000029AC30143EA500312F8010B50FA83F3FA
:102030008A42D8B2F5D10AF13803DFF874B00190C2
:1020400008EE103ACDF80C90B469DAF834309C42BE
:102050000FD09AF80330002B77D10123224618EED7
:10206000101A9AF80100FEF711FD002864D1CAF891
:1020700034409DF800900F27F169002509F1FF30E9
:10208000DAF80CE0CF722B4600EB4002019F0124EE
:102090004FF6FF7800EB82004FF0FF0C2A464F739B
:1020A0000D738D76CD761DE0211001004FECC44EEE
:1020B0007C9A01083EF81030180A0B5568705BB91D
:1020C00001324FF6FF730D2A23D01BF802000C18C3
:1020D00001F800C084F801C0013238460D2A11D041
:1020E0001BF80240434501EB040500F10107E1D173
:1020F000013201F804C007460C440D2A384684F822
:1021000001C0EDD14FF6FF72934202D03EF8173076
:102110000BB949F04009012381F8009030460021B5
:102120008AF80330FFF7CAF9A0B9009B013B00937E
:102130008AD1DDF80C9027E74FF0FF334FF001090B
:10214000CAF83430CEE69B463EE65046FEF784FDA4
:10215000002882D08146C5E65046FEF77DFD002866
:102160003FF41CAF8146BDE6DDF80490BAE600BF3F
:1021700030B585B01546019003A800910391FEF794
:10218000ADFC031E1BDB0F4C54F8231009B10022D9
:102190000A70019959B10022012D44F823100A70E8
:1021A0000AD101A96846FEF73BFE05B030BD0846DE
:1021B00044F8231005B030BD104605B030BD0B20EB
:1021C00005B030BD100400242DE9F04790B0019116
:1021D000002800F0838002F03F071646044603A95A
:1021E00001A83A46FEF71CFE054628B100232360ED
:1021F000284610B0BDE8F087039B04A8019904931A
:10220000FFF7F0FB80B99DF93B30002B6BDB16F03C
:102210001C0F10D09DF8163013F0110F65D1730705
:1022200040F1CA800825E1E716F01C0F01D0042810
:102230005FD00546DAE79DF81630DA0657D4B107C5
:1022400001D5DA0751D4DDF80C903B0748BF47F0C1
:102250004007D9F8343023620B9B636299F8002061
:102260005E8B032A02D19A8A46EA02460021A660C2
:1022700004F12C0AD3F81C80B9F806304FF4007230
:1022800027745046C4F80090C4F80C80A162A38063
:102290006174E161616116F09DFEBF06A8D5B8F1D9
:1022A000000FA5D0B9F80A30C4F81480B8EB432F5A
:1022B0004FEA432706D884E0701C00F0B8804745F9
:1022C00080F0B58031462068FEF7B6FF0128A8EB04
:1022D00007080646F0D80225A06187E709252846A9
:1022E00010B0BDE8F087062580E707257EE70425C6
:1022F0007CE704A847F00807FFF748FD002898D1BD
:1023000007F020FC0B9BC6B2C0F30742C0F30721C5
:10231000000E9E734FF0200CD9731A7458740B9BE7
:10232000DDF80C909E75D9751A7658760B9B83F85C
:102330000BC099F800200B9B032A5E8B02D19A8A6E
:1023400046EA024600229A76DA7699F800100329C6
:1023500001D11A755A750B9B00221A775A779A7712
:10236000DA77012389F80330002E3FF46EAF31464F
:102370000498D9F83480FFF703F800287FF459AFA8
:10238000DDF80C90D9F8343098453AD099F80330FC
:10239000002B42D10123424609F1380199F801008E
:1023A000FEF774FB88B34FF0FF31039B01250E4409
:1023B000C9F834101E6119E73007A1D4DDF80C907C
:1023C00047E7A661C8F30803002B3FF411AF039859
:1023D000023EC369023B9E4204D24289036B06FB64
:1023E00002320AB9022501E702EB582251460123C5
:1023F000E2614078FEF74AFB00283FF4F9AE012580
:10240000F4E6013EC9F810601FE7013EC9F83480C8
:10241000DDF80C90C9F8106017E74846FEF71CFC81
:102420000028B7D0039B013E05461E61DEE6711C05
:10243000A6610CBF01230023C4D11D46D6E600BF10
:102440002DE9F04F1E4687B00023884605A90446B3
:1024500033601746FEF76CFB0546002861D1657CAA
:10246000002D5ED194F810A01AF0010A00F0A180AE
:102470006069E3681B1A9F4228BF1F46002F50D097
:1024800004F50B7304F12C0BCDE90135C0F30803FF
:1024900063BB0599430A4A89013A12EA502244D0A3
:1024A000A069CB690238023B98424BD2B1F80AC00E
:1024B0000B6B0CFB0030002844D0B7F5007F02EB1B
:1024C000000946D2E2694A450BD094F91030002B3E
:1024D00071DB487801234A465946FEF7D7FA0028AF
:1024E00060D16369C4F81C90C3F30803C3F5007C92
:1024F0005B4408F1FF32BC4528BFBC4603EB0C002F
:1025000013F8011B834202F8011FF9D16069B7EB90
:102510000C073368E0446044634460613360B5D1C4
:10252000029D284607B0BDE8F08F38BBA06801289F
:1025300008D9431C36D00599A0610238CB69023B0B
:102540009842B3D302231D466374284607B0BDE802
:10255000F08F02EB57207D0A60454878414688BFDE
:10256000ACEB02054A462B46FEF790FAD0B994F937
:102570001020002A33DB4FEA452CC7E7A06A38B3A6
:10258000216804304989B3FBF1F3016829B9D9E71F
:102590005B1A50F8081F0029D4D08B42F8D240684B
:1025A0001844C4E7554601232846637407B0BDE8C4
:1025B000F08F0725B5E7487801235946FEF774FAEE
:1025C0000028EFD1237C059903F07F03237480E773
:1025D000A16920680392FEF72FFE039AA7E7E2693C
:1025E000A2EB0909A945C6D208EB492904F12C013F
:1025F000019809F1FF3211F8013B814202F8013FD5
:10260000F9D1B8E770B3F8B5036804462BB11A786E
:102610001AB18188DA88914201D00920F8BD587832
:10262000FEF718FAC207F8D4237C13F04000F5D067
:102630001B06266847D407F085FA276A736B0546A0
:102640009F4212D0F378002B4AD101233A4606F17B
:1026500038017078FEF71AFA30B14FF0FF330120DD
:102660007363F8BD092070477763636ADA7A42F0D2
:102670002002DA72A2682168C2F307209A76D8761F
:102680000978032903D1120C1A75120A5A75E268E7
:1026900030469D75110A1A775977110C120E9977E9
:1026A000DA772A0ADA752A0C2D0E1A7600225D7660
:1026B0009A74DA740123F370FEF7F8FA237C23F09E
:1026C00040032374F8BD0123E26904F12C01707802
:1026D000FEF7EAF950B9237C03F07F032374AAE7DD
:1026E0003046FEF7B9FA0028AFD0F8BD0120F8BD9A
:1026F00010B582B00446FFF785FF08B102B010BDE7
:1027000001A92046FEF714FA0028F7D1206002B094
:1027100010BD00BF10B584B00191002832D004462E
:10272000002203A901A8FEF77BFB18B10023236058
:1027300004B010BD039B204601992360FFF752F9B6
:10274000E0B994F92B30002B1FDBA379DB0617D5FA
:10275000039BE16918784A8B032802D1898A42EAEF
:102760000142A260DB8800212046A380FEF7F0FF33
:10277000042805D00028D9D104B010BD0428D5D133
:102780000520D3E7092004B010BD039BEAE700BF92
:1027900098B1036810B504462BB11A781AB1818834
:1027A000DA88914201D0092010BD5878FEF752F91D
:1027B00010F00100F7D1206010BD0920704700BF64
:1027C00020B3036870B5044633B11A7822B10D46C0
:1027D000DA888188914201D0092070BD5878FEF7CF
:1027E00039F9C307F8D49DB12046FEF70BFF10F06E
:1027F000FB06F2D129462046FEF7B2F931462046C3
:10280000FEF75CFE042808BF002070BD0920704759
:1028100029462046BDE87040FEF79ABF144B9A7BCC
:10282000012A01D90120704793F80EC000225FFAF7
:102830008CFC03F80C2093F80EC003EB8C0CCCF846
:10284000040093F80EC0987B9C448CF80C2000F197
:10285000010C30305FFA8CFC83F80EC04FF03A0C5C
:102860002F23087081F801C010468B70CA70704722
:102870001C0600247F2814D981B90D4AC72303E020
:1028800080290DD032F8023F98421FFA81FC01F1F5
:102890000101F5D10CF1800080B27047FF2801D909
:1028A00000207047024B803833F81000704700BF9B
:1028B0008C9A0108B0F5805F244A41F67D51244B83
:1028C00034BF6121134610B5043303E00433DAB199
:1028D00033F8041C1C46B1B1884214D333F8022CDF
:1028E0005FFA82FC120A0CEB010E7045EEDA082A40
:1028F00009D8DFE802F00512181B1E2124270E005C
:10290000411A33F8110010BD04EB4C0334F81C10CD
:10291000DAE7A0F5E35080B210BD431A03F00103DB
:10292000C01A80B210BD103880B210BD203880B2FD
:1029300010BD303880B210BD1A3880B210BD0830DA
:1029400080B210BD503880B210BD00BF809D01081C
:102950008C9B0108704700BF704700BF704700BFE5
:1029600049424FF480621430C9B216F033BB00BF45
:10297000704700BF402070478020704710B5044664
:1029800040F2144115F085FF204610BDF8B5204DEA
:102990002A68204C622A204821461EDCFFF710FFDF
:1029A0001E4B1F2204F11601B8B9A07DA8B1247AEC
:1029B00014F00207ECD12E68C4F3001403EB4613A5
:1029C000184616F079FC1649721CC7778C55622A96
:1029D000104C114821462A60E0DD0F48FFF7D8FE71
:1029E0001048FDF77DFC012800D8F8BD2C681F2297
:1029F0000A4B0D4903EB4413184616F05DFC002109
:102A0000074AC1770121631811552B60F8BD00BF3B
:102A100068B100241418002450070024940B0024EB
:102A20008CB0002450060024709F01082DE9F0416D
:102A3000B02482B000F1080600F1100500F114087E
:102A4000002728468DF807400134394604F0A4F8E1
:102A5000642301220DF107013046E4B205F08CFF3A
:102A6000394628468DF8077004F096F80122642351
:102A70000DF10701304605F07FFF10233946284647
:102A80008DF8073004F088F8642301220DF1070166
:102A9000304605F071FF0121284604F07DF88022C0
:102AA000414664233046904405F066FFB82CC7D1F8
:102AB00002B0BDE8F08100BF7F291ED83F2A1CD894
:102AC0006BB1D3084FF0010C02F0070201EBC31306
:102AD0000CFA02F2C1180B7D1A430A757047D3082D
:102AE0004FF0010C02F0070201EBC3130CFA02FCD9
:102AF000C1180A7D22EA0C020A7570472DE9F04FD1
:102B000083B05C1A0C9E002C9DF83490A6EB020852
:102B1000B8BF6442B8F1000FB8BFC8F100088B42DB
:102B20008CBF4FF0010A4FF0FF3A9642A4EB080C1D
:102B300051D84FF0FF357F2B019512D83F2E10D87A
:102B4000F50806F0070E012703EBC5150544B9F19A
:102B5000000F47D007FA0EF795F814E047EA0E0782
:102B60002F75964201D18B4229D0C8F100077F29E9
:102B700014D83F2A12D8D50802F0070B4FF0010EE7
:102B800001EBC5150544B9F1000F1BD00EFA0BFE81
:102B900095F814B04EEA0B0E85F814E0B7EB4C0F25
:102BA0004FEA4C0502DAACEB080C5144AC4202DDB2
:102BB000019DA4442A449942D9D19642D7D103B069
:102BC000BDE8F08F0EFA0BFB95F814E02EEA0B0E21
:102BD00085F814E0E2E701257F2B0195C5D83F2E4B
:102BE000AED9C2E707FA0EFE2F7D964227EA0E07FE
:102BF0002F75B8D0B9E700BF2DE9F04F2DED068B4A
:102C000083B01F4680460D469DF85030164601930E
:102C1000139B002BC0F22182129A134406EE103A45
:102C2000DDED127AB8EEC66B9FEDCD4BB8EEE77BCB
:102C30009FEDCD5B27EE047B26EE046B87EE050B44
:102C400086EE05ABF7EEC08BB0EE680A15F040FEDD
:102C500007EE907AB7EECAABF8EE679AB0EE408A0C
:102C6000B0EE680A16F038F860EE698AB0EE4A0AEB
:102C700015F02EFEB0EE409AB0EE4A0A16F02CF88F
:102C800020EE690A29EE888A29EE899A70EE687A20
:102C9000F0EE006A39EE487A67EEA77AE7EE077A37
:102CA000F4EEE67AF1EE10FA06D5139BB42B40F35E
:102CB00096804FF0010901E04FF0000901247842AD
:102CC0004FF0000C0095E31B214627462246A34007
:102CD000B9F1000F6AD1424206EE90CACCF1000170
:102CE00007EE102AB8EEE66A07EE901A06EE900A92
:102CF000B8EEC77A139A66EE084AF8EEE77AB42A75
:102D000027EE284AF8EEE66A67EE885A74EEC43A6F
:102D100026EEA85A26EE096A66EE806A67EE897A80
:102D200027EE007AF5EEC03A40F3F280F1EE10FAA9
:102D300000F17F8176EE473A74EEC54AF5EEC03A6F
:102D4000F1EE10FAF5EEC04ACCBF01220022F1EEFE
:102D500010FA00F1778136EE666A35EEC55AB5EEA7
:102D6000C06AF1EE10FAB5EEC05ACCBF01210021C5
:102D7000F1EE10FA00F16F8177EEE66AF5EEC06AC7
:102D8000F1EE10FACCBF0127002775EEC45AF5EE1C
:102D9000C05AF1EE10FA00F1478177EEC77AF5EEEE
:102DA000C07AF1EE10FACCBF01240024002A40F0D2
:102DB0008A80002964D1BFB9C4BB9C4558DB0CF1A3
:102DC000010C03EB4C0E1CEB000F0EF1010E00F09A
:102DD000C08098424FDB734600287FF779AF03B07D
:102DE000BDEC068BBDE8F08F009DA6EB0C0E00EB52
:102DF000050ABAF17F0FDFD8BEF13F0FDCD84FEAEA
:102E0000DE0B019D0AEBCB1A002D00F0B1800EF015
:102E1000070BC2444FF0010E0EFA0BFE9AF814B0E5
:102E20004EEA0B0E8AF814E0002CC6D0009DA6EBEB
:102E30000C0EA5EB000ABAF17F0FBED8BEF13F0F12
:102E4000BBD84FEADE0B019D0AEBCB1A002D00F038
:102E5000AE800EF0070BC2444FF0010E9C450EFAF7
:102E60000BFE9AF814B04EEA0B0E8AF814E0A6DABC
:102E700098429E46AFDA01300EEB40030133ABE7D8
:102E8000009D0CEB060E00EB050ABAF17F0F92D8FD
:102E9000BEF13F0F8FD84FEADE0B019D0AEBCB1A34
:102EA000002D73D00EF0070BC2444FF0010E0EFA46
:102EB0000BFE9AF814B04EEA0B0E8AF814E0002FBD
:102EC0003FF47AAF90E7009D0CEB060EA5EB000AED
:102ED000BAF17F0F3FF66DAFBEF13F0F3FF669AF1E
:102EE0004FEADE0B019D0AEBCB1A002D6DD00EF0E0
:102EF000070BC2444FF0010E0EFA0BFE9AF814B005
:102F00004EEA0B0E8AF814E000293FF454AFB7E7FD
:102F1000F1EE10FA7ED44A4674EEC54AF5EEC04A88
:102F2000F1EE10FA6CD4002135EEC55AB5EEC05A58
:102F3000F1EE10FA5AD4002775EEC45AF5EEC05AD5
:102F4000F1EE10FA3FF529AF0024002A3FF431AF2B
:102F5000B9E798428FDB00233BE700BFAFF3008067
:102F60007A008BFCFA2109400000000000806640D6
:102F7000C2444FF0010B0EF0070E0BFA0EFE9AF84A
:102F800014B02BEA0E0E8AF814E015E7C2444FF095
:102F9000010B0EF0070E0BFA0EFE9AF814B02BEA96
:102FA0000E0E8AF814E0002F3FF406AF1CE7C2446F
:102FB0004FF0010B0EF0070E0BFA0EFE9AF814B04C
:102FC0002BEA0E0E8AF814E0F7E6C2444FF0010B2C
:102FD0000EF0070E0BFA0EFE9AF814B02BEA0E0E46
:102FE0008AF814E000293FF4E6AE49E777EEE66A96
:102FF000F5EEC06AF1EE10FACCBF012700279BE77F
:1030000036EE666AB5EEC06AF1EE10FACCBF012169
:10301000002189E776EE473AF5EEC03AF1EE10FA74
:10302000CCBF0122002277E70124002A3FF4C1AE81
:1030300049E774EEC54A0122F5EEC04AF1EE10FAF6
:103040007FF589AE35EEC55A0121B5EEC05AF1EED5
:1030500010FA7FF591AE012797E6DDE912231344BC
:1030600006EE102A1293139B5B421393D8E500BF20
:103070002DE9F04F89B008AC9DF84870019104E942
:103080000C000B78002B00F0AB801A469DF81880DE
:103090009DF819300646454690460393079B0593D5
:1030A000A8F12004E3B25E2B00F29E8033685E4AF2
:1030B000DB68934240F09B808020B3882B4483429E
:1030C00000F392803368594A9B68934240F09280A3
:1030D0004020F188039A02918B18834200F3848088
:1030E000002A00F0918002FB04F46FF00049059B78
:1030F000A1441444B6F804B003EB4909023BCDF8EF
:10310000108003EB44030C469A4639F802CFA5B36E
:1031100004F007034FF0010EE20859460EFA03FED1
:103120000BF114034FFA8EFE03EBC21200236FEA79
:103130000E0832440DE07F2906D83F2C04D81078C1
:1031400097B14EEA00001070013301320131AB42F9
:1031500013D00CFA03F00004EDD47F29F4D83F2CEF
:10316000F2D81078002FECD0013308EA00000132C9
:103170000131AB4202F8010CEBD1D14504F101045D
:10318000C3D1DDF8108032680BEB05042649D36803
:10319000A4B28B4234D18020844204D3D368224924
:1031A0008B423AD17F249368204AB480934224D141
:1031B0004020029B834206D333681C4A9B6893429B
:1031C00025D13F230293029BF380019B1878404551
:1031D00007D113F8018F0193B8F1000F7FF460AFAE
:1031E000002009B0BDE8F08F4FF00008EDE7304651
:1031F000984762E7304698476BE730469847D8E7EC
:10320000304698473268C7E7B6F804B0BBE73046A7
:103210009847013883B20293D5E730469847013882
:10322000326884B2BFE700BF792900087529000819
:103230002DE9F04F964683B006461F461EF8014B17
:1032400091460D460C9B0D989DF83880002C00F09F
:1032500010814FF0000C1EF8014B0CF1010C002CFA
:10326000F9D11FFA8CFC3C787A7814FB0CFC11B273
:103270000FFA8CFC2CEAEC7C082800F2E580DFE8F1
:1032800000F04A5DBAD174849DA405009A88B3F811
:1032900000A09244B3F90620AAEB0C0A002A1FFAF8
:1032A0008AFA49DB5C88F18004EB6204A6F804C06A
:1032B000A6F800A0A4EB51018CB274802B68DFF853
:1032C000D4B1DA685A454CD18020504505D8DA6827
:1032D0005A4540F0D5804FF07F0A9B68A5F804A0BE
:1032E000DFF8B4A1534540F0C1804020A04205D88A
:1032F0002B689B68534540F0BE803F24EC804946D4
:10330000CDF80080284697E80C00FFF7B1FE304664
:1033100003B0BDE8F08FB3F90420B3F800A0002A91
:10332000B8BF01320AEB620AB3F90620AAEB6C0AB5
:10333000002A1FFA8AFAB5DA0132B3E7B3F900A01E
:10334000B3F902402B68DFF84CB1DA68A6F800A0A8
:103350001FFA8AFA5A457480A6F804C0A4B2F18014
:10336000B2D0284690472B68AFE75C88D888B3F97D
:1033700000A00444A6F804C0A6F800A01FFA8AFA28
:10338000A21AF18094B2748098E7B3F90400B3F8FC
:1033900000A00028B8BF01300AEB600AAAEB6C0A53
:1033A0005C881FFA8AFADB88A6F804C01C44F18006
:1033B000A6F800A0A21A94B274807FE7B3F800A028
:1033C00098888244AAEB0C0AEAE7B3F906205C88E5
:1033D000002AB3F900A0F180B8BF0132A6F800A01E
:1033E000A6F804C01FFA8AFA04EB6204A4EB5101A8
:1033F0008CB2748062E7B3F90420B3F800A0002A0D
:10340000B3F90240A6F804C0B8BF01327480F1805D
:10341000A4B20AEB620AAAEB6C0C1FFA8CFAA6F8AB
:1034200000A04BE7B3F800A09A88B3F90240924499
:10343000A6F804C07480A4B2AAEB0C0CF1801FFAA9
:103440008CFAA6F800A039E72B680024DFF844B016
:10345000DA6834805A457480B480F48017D19B6850
:10346000DFF834A0AC8053453FF448AF2846984776
:103470003CE7A446F7E628469847013884B23DE782
:103480002846904701382B681FFA80FA25E7A246A4
:1034900067E700BF79290008752900082DE9F04F7A
:1034A00087B09DF84850109C2E4601959DF84450D9
:1034B0009EB399422ED89946A24228D87F29164613
:1034C00094BF0023012308E09CF814804EEA080E04
:1034D0008CF814E00136B44219D33F2EFAD8002BF1
:1034E000F8D14FEAD60C06F0070E4FF0010801EBB9
:1034F000CC1C08FA0EFE8444002DE5D19CF814B0D3
:1035000001362BEA0E0AB4428CF814A0E5D2013140
:103510008945D1D207B0BDE8F08FA3EB0108B8F11F
:10352000000FB8BFC8F100089942C0F04E817F2B50
:103530004FF0FF3A94BF002601263F2A009694BF21
:10354000002701270297A6B99FB9D60802F0070CF9
:10355000012703EBC6160644002D00F0948107FAFC
:103560000CF796F814C047EA0C0737750026029648
:103570000096994200F09781464694468E46BEF1E9
:103580007F0F16D8BCF13F0F13D84FEADC070CF0C1
:10359000070B4FF001090EEBC7170744002D00F091
:1035A000398109FA0BF997F814B049EA0B0987F841
:1035B0001490770018BFD644B84502DD46440CF19C
:1035C000FF3C7345DBD16245D9D100260496A4EBBC
:1035D0000209009FB9F1000FB8BFC9F100093F2CE3
:1035E00094BF00260126A242C9F100080396C0F04C
:1035F0002381002F40F05081002E40F04D814FF08C
:10360000FF360096E60803EBC6160644002D00F0D0
:103610001E814FF0010C04F007070CFA07F796F82B
:1036200014C047EA0C07377500260396A24200F043
:103630003D81C44616461F4605927F2F15D83F2E62
:1036400013D84FEAD60E06F0070B4FF0010A07EB2E
:10365000CE1E8644002D00F0E6800AFA0BFA9EF892
:1036600014B04AEA0B0A8EF814A0B8EB4C0F4FEADC
:103670004C0E02DAACEB090C013FBEF1000F01D099
:10368000009A1644BB42D8D1B442D6D1059AA1EBD8
:10369000030EBEF1000FB8BFCEF1000E7F2994BF1C
:1036A0004FF0000A4FF0010A99428CBF4FF0010918
:1036B0004FF0FF39BAF1000F13D1039E8EB9E6081F
:1036C00001EBC6160644002D00F0D3804FF0010C2C
:1036D00004F007070CFA07F796F814C047EA0C073E
:1036E0003775049E26BB774626467F2B14D83F2E7F
:1036F00012D84FEAD60C06F0070B4FF0010803EB87
:10370000CC1C8444002D73D008FA0BF89CF814B03C
:1037100048EA0B088CF814805FEA470C18BF4B444A
:10372000E64501DD7744013E9942DED1B442DCD169
:10373000A2EB040EBEF1000FB8BFCEF1000EA24204
:103740008CBF4FF001084FF0FF38CEF1000CBAF1FA
:10375000000F0ED1029B63B9D30802F007070126C0
:1037600001EBC3130344002D7CD0BE401F7D3E43BC
:103770001E75019B002B7FF4CDAE66460B467F2B5A
:1037800012D83F2C10D8E70804F0070A4FF00109BF
:1037900003EBC7170744A5B309FA0AF997F814A071
:1037A00049EA0A0987F81490BCEB460F4FEA46072E
:1037B00002DAA6EB0E06013B07B144449942DED182
:1037C000A242DCD107B0BDE8F08F3F2A4FF0010ADA
:1037D00094BF002601267F2B029694BF0027012765
:1037E0000097002E7FF4C8AE002F3FF4AEAEC3E6C4
:1037F00008FA0BFB9CF8148028EA0B088CF814805C
:103800008AE709FA0AFA97F8149029EA0A0987F868
:103810001490C9E709FA0BFB97F8149029EA0B09F1
:1038200087F81490C5E60AFA0BFB9EF814A02AEA62
:103830000B0A8EF814A018E797BB8EBB01260096E2
:10384000E60803EBC6160644002D7FF4E2AE01271E
:1038500004F0070C039507FA0CFC377D27EA0C07E8
:103860003775E3E606FA07F71E7D26EA07061E759A
:103870007FE7012704F0070C07FA0CFC377D27EAE5
:103880000C0737752DE707FA0CFC377D029527EA00
:103890000C07009537756CE64FF0FF360096C5E6CD
:1038A00001260096C5E60126049690E601260196BB
:1038B000EDE600BF2DE9F04F85B0A1F1200504AC85
:1038C0009DF83870009104E90C00EBB25E2B00F219
:1038D0009580036880465D4ADB689DF80840934206
:1038E0009DF8096040F094808020B8F804302344AB
:1038F000834200F38380D8F80030554A9B68934296
:1039000040F088804020B8F8062093190192834245
:1039100074DC002E00F0898006FB05F56FF0004096
:10392000039B964628442E44B8F804A003EB4000BD
:10393000023B03EB460B30F8026FBCB30EF00703FB
:103940004FF0010C4FEADE0251460CFA03FC0AF17B
:1039500014034FFA8CFC03EBC21200236FEA0C092C
:1039600042440EE07F2907D8BEF13F0F04D81578F6
:103970009FB14CEA050515700133013201319C42BB
:1039800014D006FA03F52D04ECD47F29F4D8BEF147
:103990003F0FF1D81578002FEBD0013309EA050568
:1039A000013201319C4202F8015CEAD158450EF126
:1039B000010EC0D1D8F8003054442449DA68A4B2CA
:1039C0008A422DD1802084421CD29B68204AA8F8CC
:1039D0000440934221D14020019B834207D3D8F871
:1039E00000301B4A9B68934229D13F230193DDE9B4
:1039F0000003A8F8063005B0BDE8F08F002005B040
:103A0000BDE8F08FDA6811498A4211D17F24DCE7E2
:103A100098476AE74046984775E740469847DBE78E
:103A200040469047D8F80030CDE7B8F804A0C1E789
:103A3000404690470138D8F8003084B2C5E7404688
:103A40009847013883B20193D1E700BF7929000874
:103A50007529000838B5144C23882F2B19D02378EA
:103A6000BBB12046FCF73CFC431ED0B1E21801E09C
:103A7000013B16D312F801092F28F9D1591C0B4D1F
:103A80001F222144284615F017FC00230748EB7736
:103A900038BD074A054B92E80300186019710348C6
:103AA00038BD0121EBE700BF50060024300600249A
:103AB000409E010870B50378C2B004462E2B15D184
:103AC00043782E2B12D1837883B9244C2046FCF7FF
:103AD00007FC431EC8B1E21801E0013B15D312F800
:103AE00001192F29F9D14BBB63700EE01B4E3388AF
:103AF0002F2B1DD03046FCF7F3FB05462046FCF784
:103B0000EFFB05440235FF2D1BD900231448154C4B
:103B1000154A03601149154823601360FEF7FAFD4A
:103B200020B942B0BDE87040FEF730BF42B070BD72
:103B300022460F49304615F083FBE6E70022E254A7
:103B4000E3E733460B4A4FF4807102A8009415F066
:103B500043FB02A9304615F093FBD6E7500600243C
:103B60006CB1002464B1002468B100245007002423
:103B7000489E01084C9E01082DE9F04F9A48002408
:103B800099B04FF480620021A0F1140B15F022FAD5
:103B90000021CB0801F00700012204EBC3131144FC
:103BA00082405B440A29187D42EA00021A75F0D16E
:103BB0000134802CECD10023CBF80430FFF74AFF0E
:103BC0008A4B90F800A081465A781D785B68059270
:103BD0000793BAF1000F75D0AAF12003DAB25E2A7A
:103BE00000F2DE81BBF8048008EB0502802A039214
:103BF00000F3D681BBF80620059904920A44402AB6
:103C000000F3CE81002947D0059A6FF0004ECDF821
:103C100018A002FB03F3049C9E441344079A02EB92
:103C20004E0E023A02EB43039A463EF8026F6DB322
:103C300004F007030127E20841469F4008F11403FE
:103C40007FB203EBC21200236FEA070C5A440CE068
:103C50007F2905D83F2C03D810780CEA000010709B
:103C6000013301320131AB4210D006FA03F00004F7
:103C7000EED47F29F4D83F2CF2D8107801330132EA
:103C800001313843AB4202F8010CEED1D64504F1C4
:103C90000104CAD1DDF818A0049ABDF80C303F2AFF
:103CA00028BF3F227F2B28BF7F23ABF80620ABF82D
:103CB000043099F80030534504D119F801AFBAF136
:103CC000000F89D14A4B1A684A4BD11C1B68994294
:103CD00002DADA1E46490A60934202DA444A136065
:103CE0001A46454909688B4202DB4B1E4148036076
:103CF000002B02DA00233F4803600020079007985A
:103D000002448A4280F2C68001309A4201460790FE
:103D10004FF0000001EB8101ABF804004FEA4101D4
:103D2000ABF8061000F03F81344B9B5C002B00F099
:103D30005581334B5101595C03EB42122E2900F09F
:103D4000468130490FA815F07BFA15220FA909A862
:103D500015F0B2FA254A0023517892F800A08DF8A8
:103D6000393052689DF8243005910692002B00F0FE
:103D7000828009AA55460392203BDAB25E2A7AD89D
:103D8000BBF8048008EB050EBEF1800F73DCBBF8B6
:103D90000620059904920A44402A6CDC002955D07B
:103DA000059A6FF0004C049C02FB03F39C441344FF
:103DB000069AA2F1020A02EB4C0C0AEB430A3CF809
:103DC000026F002D3ED004F007030127E2084146B0
:103DD0009F4008F114037FB203EBC21200236FEA85
:103DE00007095A441CE000BF940700247C03002408
:103DF0006CB1002464B1002468B100248CB00024AC
:103E0000940B0024609E01087F2904D83F2C02D81F
:103E10001078384310700133013201319D4211D0C6
:103E200006FA03F00004EFD47F29F4D83F2CF2D82F
:103E3000107801330132013109EA00009D4202F895
:103E4000010CEDD1D44504F10104B8D1049B1FFA53
:103E50008EFE039A3F2B28BF3F23BEF17F0FABF8A6
:103E6000063028BF4FF07F0E12F8013FABF804E098
:103E70000392002B80D1079B042B00F0A380624BA0
:103E800007981A68614B02441968614B8A421B68A3
:103E9000FFF63AAF5F48013300910C215E4ACBF840
:103EA00004000FA815F098F95C4B5A781D785B68F0
:103EB000059206939DF83C30002B6ED00FAA03921A
:103EC000203BDAB25E2A68D8BBF8048008EB050E06
:103ED000BEF1800F61DCBBF80620059904920A440C
:103EE000402A5ADC002943D0059A6FF0004C049C0C
:103EF00002FB03F39C441344069AA2F1020A02EB6C
:103F00004C0C0AEB430A3CF8026F6DB304F0070354
:103F10000127E20841469F4008F114037FB203EBFA
:103F2000C21200236FEA07095A440BE07F2904D824
:103F30003F2C02D810783843107001330132013120
:103F40009D4211D006FA03F00004EFD47F29F4D883
:103F50003F2CF2D8107801330132013109EA000018
:103F60009D4202F8010CEDD1E24504F10104CAD1F1
:103F7000049A1FFA8EFE03993F2A11F8013F28BFC9
:103F80003F22BEF17F0F039128BF4FF07F0EABF8A9
:103F90000620ABF804E0002B92D119B0BDE8F08FF9
:103FA0004FF0000A85E61E4AD25C2AB31D4A590129
:103FB000515C02EB43122E2918D01B490FA815F0B3
:103FC0003FF9C2E6124B114A1B68116862E7537849
:103FD0002E2B7FF4B6AE93781BB1B2E6114B03EBF8
:103FE000421212490FA815F02BF9AEE653782E2B8A
:103FF000E3D193781BB1E0E70A4A02EB43120C4984
:104000000FA815F01DF9A0E66CB1002468B10024DA
:1040100064B1002469003700689E0108740300241D
:104020008CB00024940B0024549E01081C9F0108AE
:104030005C9E01082DE9F04FDFF8CCA10B46044649
:104040004FF48062002105460AF114002DED028B29
:1040500089B008EE103A14F0BDFF664B0022CAF892
:1040600004205A7894F800B01C785B68039205939A
:10407000BBF1000F76D0A946ABF12003DAB25E2A7D
:1040800000F2B480BAF804E00EEB0402802A029237
:1040900000F3AC80BAF80620039901920A44402A42
:1040A00000F3A480002947D0039A6FF0004CCDF8AC
:1040B00010B002FB03F3019D9C441344059A02EBEC
:1040C0004C0C023A02EB43039B463CF8026F6CB384
:1040D00005F007030127EA0871469F400EF114031B
:1040E0007FB203EBC21200236FEA070852440BE0D1
:1040F0007F2904D83F2D02D810783843107001333F
:1041000001320131A34211D006FA03F00004EFD4CA
:104110007F29F4D83F2DF2D81078013301320131D4
:1041200008EA0000A34202F8010CEDD1E34505F1D5
:104130000105CAD1DDF810B0019ABDF808303F2A58
:1041400028BF3F227F2B28BF7F23AAF80620AAF88A
:10415000043099F800305B4504D119F801BFBBF178
:10416000000F89D1244EB024002524488DF81F402B
:104170000134294602F010FD642301220DF11F01D4
:104180001F48E4B204F0F8FB29461C488DF81F5084
:1041900002F002FD012264230DF11F01184804F012
:1041A000EBFB1023294615488DF81F3002F0F4FC74
:1041B000642301220DF11F01114804F0DDFB0121F0
:1041C0000E4802F0E9FC8022314664230C48164474
:1041D00004F0D2FBB82CC7D118EE101A094809B068
:1041E000BDEC028BBDE8F04F00F0E6BF4FF0000BD6
:1041F000AFE700BF7C03002494070024900700244D
:1042000088070024AC1D0024800700242DE9F0411C
:10421000B02482B0054600F1080600F10C08002722
:1042200030468DF807400134394602F0B5FC64236E
:1042300001220DF107012846E4B204F09DFB394646
:1042400030468DF8077002F0A7FC012264230DF1BF
:104250000701284604F090FB1023394630468DF8BC
:10426000073002F099FC642301220DF10701284672
:1042700004F082FB0121304602F08EFC8022414690
:1042800064232846904404F077FBB82CC7D102B0D1
:10429000BDE8F08184B02DE9F04182B001250646E9
:1042A00004460DF124088572274688E80E00BDF803
:1042B0004C3026F8083F304602F084FBBDF84E3003
:1042C000A57127F8043F384602F07CFB41462046A2
:1042D00004F0CAFA0021384602F05EFC0A2005F01C
:1042E000E5FC2946384602F057FC0A2005F0DEFCC2
:1042F000AE23304600218DF8073002F04DFC2A46EF
:104300000DF107016423204604F036FBD523304627
:1043100000218DF8073002F03FFC2A460DF107011D
:104320006423204604F028FB8023304600218DF8CA
:10433000073002F031FC2A460DF1070164232046C4
:1043400004F01AFBA823304600218DF8073002F054
:1043500023FC2A460DF107016423204604F00CFBE0
:104360003F23304600218DF8073002F015FC2A4625
:104370000DF107016423204604F0FEFADA233046EB
:1043800000218DF8073002F007FC2A460DF10701E5
:104390006423204604F0F0FA1223304600218DF801
:1043A000073002F0F9FB2A460DF10701642320468D
:1043B00004F0E2FA0021D32330460F468DF807308F
:1043C00002F0EAFB2A4664230DF10701204604F0BF
:1043D000D3FA394630468DF8077002F0DDFB2A46E5
:1043E0000DF107016423204604F0C6FA4023394644
:1043F00030468DF8073002F0CFFB2A460DF1070159
:104400006423204604F0B8FAA623394630468DF8D6
:10441000073002F0C1FB2A460DF107016423204654
:1044200004F0AAFAA423394630468DF8073002F08A
:10443000B3FB2A460DF107016423204604F09CFAE1
:104440008D23394630468DF8073002F0A5FB2A4609
:104450000DF107016423204604F08EFA1423394637
:1044600030468DF8073002F097FB2A460DF1070120
:104470006423204604F080FAA123394630468DF8A3
:10448000073002F089FB2A460DF10701642320461C
:1044900004F072FAC823394630468DF8073002F02E
:1044A0007BFB2A460DF107016423204604F064FAE1
:1044B0008123394630468DF8073002F06DFB2A46DD
:1044C0000DF107016423204604F056FA8F23394684
:1044D00030468DF8073002F05FFB2A460DF10701E8
:1044E0006423204604F048FAD923394630468DF833
:1044F000073002F051FB2A460DF1070164232046E4
:1045000004F03AFA2523394630468DF8073002F098
:1045100043FB2A460DF107016423204604F02CFAE0
:10452000DB23394630468DF8073002F035FB2A464A
:104530000DF107016423204604F01EFA34233946A6
:1045400030468DF8073002F027FB2A460DF10701AF
:104550006423204604F010FAAF23394630468DF824
:10456000073002F019FB64232A460DF107012046AB
:1045700004F002FA02B0BDE8F04104B0704700BF99
:104580002DE9F04F0021AD484FF0000A4FF0010B2C
:10459000DFF804832DED028BA1B000F0B3FE05F02F
:1045A00083FB40F60632A64B044609200AAE15AD41
:1045B000CDE90A2300F03CFF03461620A946ADF8DA
:1045C000503000F035FF0B23CDF838B0CDF840A0C7
:1045D0002F46ADF82A300823CDF844A00DF1600E27
:1045E0000F930223ADF85200EC46CDF830A0CDF881
:1045F00034A0CDE912330FCE0FC50FCE0FC596E80C
:10460000070085E80700BEE80F00ACE80F009EE851
:104610000F008CE80F008B4B4E4603F1080099E821
:104620000E00FFF737FE082014F035F9A8F16802F4
:104630008449054600F026FD8349F7EE000A9FED08
:10464000830A0D60B8E80F000FC798E80F0008F163
:10465000100587E80F00524649467D4801F048FCA6
:10466000F7EE000A9FED790A0FCD0FC695E80F000F
:1046700087E80F0052464946764801F039FCA8F118
:10468000780000F09BFD4FF47A717348FFF7D2FC7D
:104690004FF47A717148FFF7CDFC03234946704807
:1046A00015938DF85CA0CDF858B003F055FA594633
:1046B0006C4805F023FA5A466B496C48FDF758FDE3
:1046C0004FF47A716A48FFF7B5FC41F6104014F0D8
:1046D000E2F85D490546634A0B68614900F078F9E4
:1046E000284600F033FA78B9564A624B1446CDF8A2
:1046F00000B06149506020460CCBFEF7B9FC04F1D4
:104700000800FFF783FDFEE7A8F17808DFF88C9139
:10471000DFF88CA14FF47A71DFF888B15748FFF7C2
:1047200089FC574801F08CFB98F8443073B1D8F8F5
:1047300064305BB1D9F80020002A07DDDAF80010F8
:104740000B449A426BDC0023CAF8003098F84C30D6
:104750006BB198F852307F2B09D1D9F80030002B7B
:1047600005DDDAF800001BF80030002B5DD105F004
:104770009BFA0646364801F0EBFBB0EE408A35481E
:1047800001F0E6FB9FED311AF0EE400A3D48B0EE35
:10479000480A01F05BFC294800F014FD331B632B31
:1047A000BFD9394DB024FFF7E7F90027002137487A
:1047B0008DF8274002F0F0F9642301220DF1270162
:1047C000334804F0D9F8314839468DF8277002F0A3
:1047D000E3F9012264230DF127012D48013404F08F
:1047E000CBF81023394629488DF8273002F0D4F948
:1047F000642301220DF12701254804F0BDF80121B1
:104800002248E4B202F0C8F98022294664232048F5
:10481000154404F0B1F8B82CC7D1344681E7002B19
:1048200009DA013ACAF8002090E71A4B03EB40106E
:10483000FFF740F99BE7CAF8003087E7AC1D00247A
:104840000105060A800700242C0600240000000051
:10485000F0B0002428B10024709E0108809E010859
:1048600060B100242C1900243C9E0108301900245A
:10487000949E01087C030024B49E0108C49E010894
:10488000EC1D0024841E00249407002490070024BB
:1048900088070024940B0024141E002468B100240F
:1048A00064B100248CB0002470B51E4C00251E4E4F
:1048B00004F5C070256065612562E56301F0FEFACC
:1048C0001A4A40F20F731A492046C4F8382204F5F8
:1048D0001472A4F83C3240F20113C4F89051C4F8A9
:1048E0004852C4F84C52C4E99023324613F0CCFF2E
:1048F000104B1148324611490360856013F0C4FF24
:1049000032460F490F4813F0BFFF32460C490E489C
:1049100013F0BAFF32460D490D48BDE8704013F060
:10492000B3BF00BFAC1D0024000000240080707FD6
:104930005D290008E09E0108800700247129000815
:1049400055290008F0B0002428B100245929000896
:1049500060B10024C0687047FBB12DE9F041002729
:104960008846BC469AB10CF1FF3E0CEB0206C644E9
:1049700008E041680CF1010CC56066450C5D0EF85D
:10498000014F04D0C4688168651C8C42F1DB01379B
:104990009F42E7D11846BDE8F0811846704700BF36
:1049A0000A2A0BD00B2A0BD0C16800290CDB8068C7
:1049B00088424FF0FF30C8BF00207047C160F4E765
:1049C000C3681944C160F0E74FF0FF30704700BF83
:1049D0002DE9F04F804683B08B469246054600F5A0
:1049E000E0590446124F0193276304F1400000266A
:1049F000703444E90F6644F8346C00F057F94C45C4
:104A0000F2D108F58053019AC3F8006CC3F804BCD6
:104A1000C3F808ACC3F80C2C703500234D4505F8DD
:104A2000083C05F8073CF7D1404603B0BDE8F08FDD
:104A300030A001082DE9F04300F58057ADF5197D50
:104A40000E4614463B4996220546D7F80C0C00F05A
:104A50001DFB012231460DA8FDF7B6FB08BB9622CF
:104A60003549D7F80C0C00F011FB01AB2C2202A940
:104A70000DA8FDF7E5FC804620B9DDF80490B9F1FA
:104A80002C0F19D00DA8FDF733FED7F80C0C44F607
:104A900020622A4900F0FAFA00200DF5197DBDE8E0
:104AA000F083D7F80C0CC822254900F0EFFA00205B
:104AB0000DF5197DBDE8F08396222249D7F80C0C3C
:104AC000C4EBC40400F0E2FA0DA8FDF711FED7F81C
:104AD0000C0C96221C4900F0D9FA314605EB04165D
:104AE0001F222401304614F0E7FB04F1300102AB31
:104AF0004034294486F81F8028197363C6F838901B
:104B0000C6F83C8000F0DAF80028C6D00123B16C6A
:104B10000222A6F86830102331627262F36296EDC9
:104B2000147BBDEEC77B86ED0A7A0DF5197DBDE8D5
:104B3000F08300BF209F0108409F0108749F010877
:104B4000309F0108549F0108649F010830B500F5AB
:104B50008054E3B04FF4FA7243490546D4F80C0C84
:104B600000F094FA4149D4F80C0C4FF4967200F01E
:104B70008DFA3F496846FDF7CDFD00286AD14FF414
:104B800096723C49D4F80C0C00F080FA1CA96846D7
:104B9000FDF716FE034638490DF18600002B3ED185
:104BA0009DF88630002B3AD09DF8783013F0120F24
:104BB000ECD114F094FB034630490DF1860013B399
:104BC0000DF186032E4A40210CA814F005FB0CA918
:104BD000D4F80C0CC82200F059FAD4F8002C0DF1CE
:104BE000860128463F2A1ADCFFF724FF9622254932
:104BF00070B1D4F8003CD4F80C0C0133C4F8003C7C
:104C000000F044FAC2E714F06AFB0028D8D1BDE7EF
:104C1000C8221D49D4F80C0C00F038FAB6E74FF45E
:104C200096721A49D4F80C0C00F030FA6846FDF779
:104C3000AFFDD4F8003C164A40210CA814F0CCFA81
:104C4000D4F80C0C4FF47A720CA900F01FFA012072
:104C500063B030BDD4F80C0C4FF47A720D4900F0FB
:104C600015FA002063B030BD849F01089C9F0108A5
:104C70003C9E0108C09F0108D49F0108DC9F0108E9
:104C8000149F0108E49F0108F49F010804A0010893
:104C900014A00108AC9F0108704700BF10B504467E
:104CA000282113F0F6FD204610BD00BF0249012265
:104CB000016080F82020704754A0010870B50C46B0
:104CC00088B0054603232068042205A946682046CB
:104CD000B047032809D122680123204656680422E0
:104CE0000DEB0201B04701282ED0002008B070BDA6
:104CF00026687668B04703460B222046012BF4D184
:104D000095F820307BB99DF808109DF80B308DF890
:104D10000B108DF808309DF809109DF80A308DF8B9
:104D20000A108DF80930236802999B689847064657
:104D300004220123013620460DEB0201D5D026685E
:104D40007668B0470128D0D10422AB490DEB0200B0
:104D500014F09EFA06460123042202A92046002EE2
:104D6000C6D12368042202A95E680123B047012846
:104D7000BBD1226803466946204656680222B047E6
:104D80000128B2D195F82030A3B9BDF800309DF8C4
:104D900008205BBAADF800309DF80B308DF80B2081
:104DA0008DF808309DF809209DF80A308DF80A200A
:104DB0008DF80930BDF800304FF6FE72934200F0D6
:104DC000B68023F00202012A93B28ED122682046D7
:104DD000566802220DEB0201B047012885D195F8F3
:104DE000203023B9BDF802305BBAADF80230BDF90E
:104DF0000230042203A92046EB6123685E68012388
:104E0000B04701287FF471AF95F820307BB99DF849
:104E10000C209DF80F308DF80F208DF80C309DF888
:104E20000D209DF80E308DF80E208DF80D30DDED43
:104E3000037A002223680621B8EEE77B20469B68B0
:104E4000EA600B2285ED047B984701303FF44DAFBB
:104E500023680DF10201022220465E680123B0475B
:104E600001287FF442AF95F8203023B9BDF8023015
:104E70005BBAADF80230BDF80020012A00F0A38033
:104E8000032A00F0AE80EB68002B3FF42EAF0299AE
:104E90000B222368204610399B68984701303FF465
:104EA00024AF23685E68012339E0042253490DEBE7
:104EB000020014F0EDF90123002800F0A18022681F
:104EC00002A9204656680422B04701287FF40DAF9E
:104ED00095F820307BB99DF808209DF80B308DF8AF
:104EE0000B208DF808309DF809209DF80A308DF8C8
:104EF0000A208DF8093002990B222046002901F082
:104F00000103B8BF5B421944236802919B6898472C
:104F100001304FF001033FF4E8AE226856680422E6
:104F200020460DEB0201B0470128BED0DDE6236824
:104F300020461B6898472368A8610B229B680E21B6
:104F40002046984701303FF4D0AE2368022204A9DE
:104F500020465E680123B04701287FF4C6AE95F86D
:104F6000203023B9BDF810305BBAADF81030BDF871
:104F70001030002B3FF4B9AE23680B2206212046E7
:104F80009B68984701303FF4B0AE2368694602221F
:104F900020465E680123B04701287FF4A6AE95F84D
:104FA000203023B9BDF800305BBAADF8003023687B
:104FB0000A22A96920469B68984701303FF495AEC4
:104FC000BDF80030FDE6BDF90230082B52D0102BA1
:104FD0004DD0182B50D0202B7FF455AF0823EB6019
:104FE00055E7BDF90230202B49D0402B7FF44BAF61
:104FF0002023EB604BE700BF3CA0010844A0010860
:1050000021680123042220464E6804A9B0470128E4
:105010007FF46BAE95F820307BB99DF810309DF889
:1050200013109DF811208DF813309DF812308DF873
:1050300010108DF812208DF81130BDF902102046A5
:10504000049BEA6993FBF1F3B3FBF2F32268DB0004
:105050001268AB609047002295F82030A8612A7151
:105060000BB901232B71012318466B713EE6022315
:10507000EB600CE7EA600AE70423EB6007E7102324
:10508000EB6004E7C0E90012704700BF2DE9F0476C
:10509000814600689246454A036884B00D461B6904
:1050A00093427DD14FF480621430002113F092FFBF
:1050B000D9F8004023682046DB68984700286DD166
:1050C00023682046DB689847013883B2A3802046D6
:1050D00023689B68984700285ED1236820469B6818
:1050E0009847013883B2D9F800002946E3800124AB
:1050F00002682F4B0094946A0CCBA047D9F80000AB
:105100002C4A03681B6B93424DD100F1080600F155
:10511000100500F11408B024002728468DF80F4030
:105120000134394601F038FD642301220DF10F01ED
:105130003046E4B203F020FC394628468DF80F7063
:1051400001F02AFD012264230DF10F01304603F026
:1051500013FC1023394628468DF80F3001F01CFD52
:10516000642301220DF10F01304603F005FC0121FB
:10517000284601F011FD80224146642330469044C8
:1051800003F0FAFBB82CC7D15146D9F8040004B09B
:10519000BDE8F04700F010B80023A4E7002395E72E
:1051A0000021984784E79847EEE700BF612900088F
:1051B0007C0300242D2A000800F050B9183001F0BB
:1051C000EDB900BF10B50446D83000F06FFF04F50C
:1051D0009670BDE8104000F069BF00BFF0B54FF415
:1051E00081718FB000F1D80701254FF4C0624FF4F0
:1051F000E063ADF8081000F5967402993846ADF8F2
:105200000C2008AEADF810300095DDE9032300F066
:10521000F5FE40F201134FF480722046ADF81430D1
:105220004FF48063059900950BADADF81820ADF8EB
:105230001C30DDE9062300F0E1FE3046072105F0D1
:105240009BF896E8070085E807002946384600F0F5
:1052500017FF96E8070085E807002946204600F07A
:105260000FFF384600F022FF20460FB0BDE8F040A7
:1052700000F01CBF2DE9F04140F202430446022237
:10528000002504F1180704F1A8062DED028B8EB05D
:105290009FED1B8AADF80C3005A8039900F05CFF68
:1052A00002220DF12600ADF81020049900F054FF01
:1052B0000423022205A9384600F062FF04F16802C7
:1052C00004F18803C4E92A232946384656F8048B9A
:1052D00001F07AF901462046019100F0DFF8002341
:1052E000F0EE480A019940461A4600F0F7FC25B155
:1052F0000EB0BDEC028BBDE8F0810125E4E700BFF4
:105300006F12033B2DE9F04104469AB0002701914A
:1053100000F08CF80199204600F080F940F6061361
:1053200004F1B0069FED400AADF8143004F1C00559
:105330003046059900F0C8FE4FF4007328469FEDF3
:105340003A0AADF8183004F5C878069900F0BCFEAA
:1053500040F6033240F201639FED330AADF80820B6
:1053600004F140000299ADF80C70C4F8D0600FAEA3
:10537000C4F8D45007ADADF81030DDE9032300F0D8
:105380002FFD2046FFF72AFF2046FFF773FF284630
:1053900000F094FD01230DF12C0E04F5C07C159353
:1053A000189347F61223169719930223179395E83B
:1053B0000F008CE80F008EE80F0086E80F00BDF8A4
:1053C00040301490ADF84E30BDF84230D4E9625E02
:1053D000ADF84C30C4E9655EBEF1000F04D07246F2
:1053E0003946284613F0F6FD13A9404604F0BCF9EF
:1053F00004F5D27000F076FD3021204600F032F83E
:10540000D4F8A850204600F049F8284600F0BCFC2B
:10541000D4F8AC50204600F041F828461AB0BDE858
:10542000F04100F0B1BC00BF00000000704700BFB9
:10543000202882B009D8084B03EB400213F8103043
:10544000507843EA002002B0704701230C2043EA61
:10545000002002B0704700BF5CA00108084604F0BD
:1054600025BC00BF38B500F1140504462DED028BB4
:10547000284600F00FFC284600F01AFC2846B0EE43
:10548000408A00F003FCD0ED007AF8EE677A88EEEF
:10549000277ABDEC028B84ED0E7A38BD90ED0E0AB2
:1054A000704700BF10B540F203338EB000244FF6B2
:1054B0000B7240F20341ADF8083009A80123ADF8A2
:1054C0001020ADF824202246ADF80C10009402996B
:1054D00007940C94CDE90544CDE90A4401F076F92E
:1054E00004A8012322460399009401F06FF909A84A
:1054F00001F052FA10B901200EB010BD04A801F05D
:105500004BFAA0420CBF022020460EB010BD00BFD7
:105510002DE9F04103239AB0012700240646CDE986
:1055200014373B4BCDE9104340F20453CDE9164705
:10553000ADF84830FFF7B6FFB842054625D002283F
:1055400045D040F60132334B0DF12C081894ADF8DC
:105550002C200B981997CDF84A3000F0E3F810A9E9
:1055600006F13C0002F0ECF9302003224FF07E53AC
:1055700041460D930E93CDE90B02F26B06F1140038
:1055800000F04CFB1AB0BDE8F0811023214A06A9B7
:1055900006908DF828300DF12C081F4BCDF84A20CD
:1055A00007930294CDE91804CDE9080402A801F09C
:1055B00073FC0823029A03A94046ADF80C508DF8FD
:1055C0000E40049505930B9400F0ECF8C7E700201B
:1055D0000121104B0DF12C083A460094CDF84A30C9
:1055E0004FF60B730C94ADF82C302346CDE918011F
:1055F00040F601314046ADF818100699CDE90D444A
:1056000001F0E4F82146404601F0D2F9A7E700BFD7
:1056100004020404040604030704010B2DE9F04707
:1056200004462DED028B82B000294DD0012140F2BD
:10563000011200230091ADF804208DF80630364A9F
:105640000127364B04F10409354904F12908626049
:1056500040F20272A36040F60663E16004F1250A9D
:10566000A4F82520A4F82930278284F8277084F82C
:105670002B7004F0B7FC054604F01AFB6946064699
:1056800050BB4DB304F130008DF8067004F032FCCD
:10569000072D3CD104F114052046FFF739FF2846B9
:1056A00000F006FB2846B0EE408A00F0EFFAD0ED9D
:1056B000007AF8EE677A88EE277A84ED0E7A02B0E7
:1056C000BDEC028BBDE8F08740F2011300918DF82C
:1056D0000610ADF80430B2E704F1300004F00AFC23
:1056E000072D11D04946204601F01EFE0EB9002DAF
:1056F000D0D1504601F066F9404601F063F904F15B
:10570000120000F079F9C5E7002EF2D1C2E7494650
:10571000204601F009FEBDE7050805090507050655
:10572000050A060610B584B003460124ADF804004E
:1057300003A8ADF80C30ADF80E4001F043F9214656
:1057400003A801F029FA204604F0B0FA002103A8CA
:1057500001F022FA204604F0A9FA214603A801F03C
:105760001BFA04B010BD00BF10B5C2F3002384B013
:105770000C46017C8DF80D2043EA4402FA240223F2
:105780008DF80C2003AA009401F01CFC18B1012430
:10579000204604B010BD04460A2004F087FA2046D3
:1057A00004B010BD034670B543F8042B044684B022
:1057B00007C983E80700A37983B91A210B461E2283
:1057C000FA2523742046ADF80C20022303AA009585
:1057D00001F0F8FB28B1012004B070BD1B210B467D
:1057E000EDE70A2004F062FA4FF4B8520095022364
:1057F000ADF80C20204603AA217C01F0E3FB002831
:10580000E9D10A2004F052FA41F202720095022313
:10581000ADF80C20204603AA217C01F0D3FB002820
:10582000D9D10A2004F042FA042200950223ADF8EF
:105830000C20204603AA217C01F0C4FB0028CAD119
:105840000A2004F033FA062200950223ADF80C205A
:10585000204603AA217C01F0B5FB0028BBD10A2019
:1058600004F024FA41F2082200950223ADF80C203E
:10587000204603AA217C01F0A5FB0028ABD10A2019
:10588000064604F013FA0095022303AA217C204661
:10589000ADF80C6001F096FB00289CD1304604F076
:1058A00005FA009522790C232046002A8DF80C3049
:1058B00003AA4FF0020314BF622142218DF80D109C
:1058C000217C01F07FFB002885D1304604F0EEF901
:1058D0002279D4E902310B43DBB20AB943F0400329
:1058E00062790AB143F020030E22FA258DF80D30BB
:1058F0002046009502238DF80C2003AA217C01F09C
:1059000061FB00287FF467AF0A2004F0CFF9102272
:1059100000950223ADF80C20204603AA217C01F05B
:1059200051FB00287FF457AF0A2004F0BFF9122181
:1059300000950223ADF80C1003AA217C204601F04B
:1059400041FB00287FF447AF0A2004F0AFF90122A1
:1059500009212046FFF708FF003818BF01203BE768
:10596000F0B5102387B0234C012200250126002723
:1059700002A920460195CDE902234FF48052CDE9DA
:1059800004670CF0C5F9642005F0B2F802A94FF4E1
:1059900080522046CDE9046702261027CDE9026730
:1059A0000CF0B6F90322102302A92046CDE9022308
:1059B00000230422CDE904234FF480520CF0A8F90F
:1059C00040F23223042202A9019310232046CDE99C
:1059D0000223019A012305924FF4805204930CF0A4
:1059E00097F940F6060120460CF0B2F9284607B0B8
:1059F000F0BD00BF78B100241C4B00221C494FF0C1
:105A0000400C30B5054689B00220596007219A60E4
:105A10001A620124DA620A224FF4006EDC600692F8
:105A20002022CDE9000104200821CDE90201032054
:105A30001021CDE9040108206946C3E904024FF4AE
:105A4000C072181DC3E906C24FF48052C3E909E2CF
:105A50000CF034F938B92846FFF782FF003818BF38
:105A6000012009B030BD204609B030BD74B100241A
:105A700040410052614A0021D0B513688EB00A91AE
:105A8000002B40F0B9805E4B01214FF683700C244F
:105A900011600221D3F8D4200026032742F480525B
:105AA000C3F8D420D3F8D42002F480520092009A94
:105AB000D3F8E02042F01002C3F8E020D3F8E02051
:105AC00002F010020192019AD3F8E02042F0400265
:105AD000C3F8E020D3F8E02002F040020292029ADC
