:020000040800F2
:1000000000000220010A0008FD0900082D6B00080D
:10001000FD090008FD090008FD09000800000000B6
:10002000000000000000000000000000FD090008C2
:10003000FD09000800000000FD090008B16A000881
:10004000FD090008FD090008FD090008FD09000878
:10005000FD090008FD090008FD090008FD09000868
:10006000FD090008FD090008FD090008314A0008E3
:100070003D4A0008AD370008494A0008554A0008C3
:10008000796500085D3F0008FD090008FD090008CA
:10009000FD090008FD090008FD090008FD09000828
:1000A000FD090008FD090008FD090008FD09000818
:1000B000FD1A0108091B0108151B0108913F0008E2
:1000C000FD0900089D3F0008FD0900085D54000877
:1000D00069540008AD630008D96300080D64000886
:1000E000FD090008FD09000800000000FD090008E6
:1000F000FD090008FD090008FD090008FD090008C8
:10010000FD090008FD090008211B010875540008BD
:100110004164000875640008FD090008FD09000835
:10012000FD090008FD09000899540008CD54000895
:10013000AD650008FD090008FD090008FD0900087B
:1001400000000000000000000000000000000000AF
:10015000FD090008FD090008FD090008A964000860
:10016000A93F0008FD090008C16A0008E56A000807
:10017000FD090008096B0008FD090008FD090008D9
:10018000FD090008FD090008DD640008116500088C
:10019000815400088D540008FD090008FD0900087D
:1001A000FD090008FD090008FD090008FD09000817
:1001B00051470008FD090008FD090008FD09000875
:1001C000FD090008FD090008FD090008FD090008F7
:1001D000FD090008FD090008FD090008FD090008E7
:1001E000FD090008FD090008FD090008FD090008D7
:1001F000FD090008FD090008FD090008FD090008C7
:10020000FD090008FD090008FD090008FD090008B6
:10021000FD090008FD090008FD090008FD090008A6
:10022000FD090008FD090008FD09000800000000A4
:10023000FD090008FD09000800000000FD09000894
:10024000FD090008FD090008FD090008FD09000876
:10025000FD090008FD090008FD090008FD09000866
:10026000FD090008FD090008FD090008FD09000856
:10027000FD090008FD0900084565000800000000B0
:10028000FD090008FD090008FD0900080000000044
:0802900000000000FD09000858
:1002A00010B5054C237833B9044B13B10448AFF3B0
:1002B00000800123237010BDE8030024000000002B
:1002C0009C45010808B5034B1BB103490348AFF334
:1002D000008008BD00000000EC0300249C450108DC
:1002E00001F0FF01102A2BDB10F0070F08D010F8E7
:1002F000013B013A8B422DD010F0070F42B3F6D1EB
:10030000F0B441EA012141EA014122F007047FF003
:1003100000070023F0E80256083C85EA010586EA5A
:10032000010685FA47F5A3FA87F586FA47F6A5FA96
:1003300087F68EB9EED1F0BC01F0FF0102F00702A2
:1003400032B110F8013B013A83EA010313B1F8D14D
:100350000020704701387047002D06BF354603382E
:10036000073815F0010F07D1013015F4807F02BF67
:10037000013015F4C03F0130F0BC0138704700BFB8
:1003800081F0004102E000BF83F0004330B54FEA46
:1003900041044FEA430594EA050F08BF90EA020FB3
:1003A0001FBF54EA000C55EA020C7FEA645C7FEA46
:1003B000655C00F0E2804FEA5454D4EB5555B8BF69
:1003C0006D420CDD2C4480EA020281EA030382EADA
:1003D000000083EA010180EA020281EA0303362D6C
:1003E00088BF30BD11F0004F4FEA01314FF4801C3F
:1003F0004CEA113102D0404261EB410113F0004F51
:100400004FEA03334CEA133302D0524263EB430307
:1004100094EA050F00F0A780A4F10104D5F1200EA5
:100420000DDB02FA0EFC22FA05F2801841F1000100
:1004300003FA0EF2801843FA05F359410EE0A5F1D4
:1004400020050EF1200E012A03FA0EFC28BF4CF005
:10045000020C43FA05F3C01851EBE37101F00045BB
:1004600007D54FF0000EDCF1000C7EEB00006EEBC8
:100470000101B1F5801F1BD3B1F5001F0CD3490852
:100480005FEA30004FEA3C0C04F101044FEA4452A9
:1004900012F5800F80F09A80BCF1004F08BF5FEA30
:1004A000500C50F1000041EB045141EA050130BD10
:1004B0005FEA4C0C404141EB0101013C28BFB1F522
:1004C000801FE9D291F0000F04BF01460020B1FA6D
:1004D00081F308BF2033A3F10B03B3F120020CDA40
:1004E0000C3208DD02F1140CC2F10C0201FA0CF01E
:1004F00021FA02F10CE002F11402D8BFC2F1200C83
:1005000001FA02F120FA0CFCDCBF41EA0C01904038
:10051000E41AA2BF01EB0451294330BD6FEA040481
:100520001F3C1CDA0C340EDC04F11404C4F120026C
:1005300020FA04F001FA02F340EA030021FA04F37E
:1005400045EA030130BDC4F10C04C4F1200220FAD5
:1005500002F001FA04F340EA0300294630BD21FA13
:1005600004F0294630BD94F0000F83F4801306BFD9
:1005700081F480110134013D4EE77FEA645C18BFCD
:100580007FEA655C29D094EA050F08BF90EA020F64
:1005900005D054EA000C04BF1946104630BD91EA5C
:1005A000030F1EBF0021002030BD5FEA545C05D15F
:1005B0004000494128BF41F0004130BD14F580049E
:1005C0003CBF01F5801130BD01F0004545F0FE4112
:1005D00041F470014FF0000030BD7FEA645C1ABF47
:1005E000194610467FEA655C1CBF0B46024650EA7E
:1005F000013406BF52EA033591EA030F41F40021AA
:1006000030BD00BF90F0000F04BF0021704730B52F
:100610004FF4806404F132044FF000054FF0000104
:1006200050E700BF90F0000F04BF0021704730B5C5
:100630004FF4806404F1320410F0004548BF40429A
:100640004FF000013EE700BF42004FEAE2014FEAEF
:1006500031014FEA02701FBF12F07F4393F07F4FCA
:1006600081F06051704732F07F4208BF704793F0CD
:100670007F4F04BF41F40021704730B54FF46074E0
:1006800001F0004521F000411CE700BF50EA0102E3
:1006900008BF704730B54FF000050AE050EA01028C
:1006A00008BF704730B511F0004502D5404261EBFC
:1006B00041014FF4806404F132045FEA915C3FF43D
:1006C000D8AE4FF003025FEADC0C18BF03325FEADA
:1006D000DC0C18BF033202EBDC02C2F1200300FA8B
:1006E00003FC20FA02F001FA03FE40EA0E0021FAB0
:1006F00002F11444BDE600BF53B94AB9002908BF4E
:1007000000281CBF4FF0FF314FF0FF3000F074B9EC
:10071000ADF1080C6DE904CE00F006F8DDF804E058
:10072000DDE9022304B070472DE9F047089D044637
:100730008E46002B4DD18A42944669D9B2FA82F294
:1007400052B101FA02F3C2F1200120FA01F10CFAD0
:1007500002FC41EA030E94404FEA1C48210CBEFB08
:10076000F8F61FFA8CF708FB16E341EA034306FB91
:1007700007F199420AD91CEB030306F1FF3080F020
:100780001F81994240F21C81023E63445B1AA4B26D
:10079000B3FBF8F008FB103344EA034400FB07F70F
:1007A000A7420AD91CEB040400F1FF3380F00A8150
:1007B000A74240F207816444023840EA0640E41B45
:1007C00000261DB1D4400023C5E900433146BDE8F1
:1007D000F0878B4209D9002D00F0EF800026C5E993
:1007E000000130463146BDE8F087B3FA83F6002EAB
:1007F0004AD18B4202D3824200F2F980841A61EB23
:10080000030301209E46002DE0D0C5E9004EDDE740
:1008100002B9FFDEB2FA82F2002A40F09280A1EB28
:100820000C014FEA1C471FFA8CFE0126200CB1FB7D
:10083000F7F307FB131140EA01410EFB03F0884276
:1008400008D91CEB010103F1FF3802D2884200F203
:10085000CB804346091AA4B2B1FBF7F007FB101195
:1008600044EA01440EFB00FEA64508D91CEB040433
:1008700000F1FF3102D2A64500F2BB800846A4EB8E
:100880000E0440EA03409CE7C6F12007B34022FA79
:1008900007FC4CEA030C20FA07F401FA06F31C43A8
:1008A000F9404FEA1C4900FA06F3B1FBF9F8200CB5
:1008B0001FFA8CFE09FB181140EA014108FB0EF0FB
:1008C000884202FA06F20BD91CEB010108F1FF3A4B
:1008D00080F08880884240F28580A8F10208614457
:1008E000091AA4B2B1FBF9F009FB101144EA014165
:1008F00000FB0EFE8E4508D91CEB010100F1FF3410
:100900006CD28E456AD90238614440EA0840A0FBA7
:100910000294A1EB0E01A142C846A64656D353D07D
:100920005DB1B3EB080261EB0E0101FA07F722FAA1
:1009300006F3F1401F43C5E9007100263146BDE8CA
:10094000F087C2F12003D8400CFA02FC21FA03F32D
:10095000914001434FEA1C471FFA8CFEB3FBF7F0AE
:1009600007FB10360B0C43EA064300FB0EF69E42D3
:1009700004FA02F408D91CEB030300F1FF382FD26C
:100980009E422DD9023863449B1B89B2B3FBF7F614
:1009900007FB163341EA034106FB0EF38B4208D9ED
:1009A0001CEB010106F1FF3816D28B4214D9023E2E
:1009B0006144C91A46EA004638E72E46284605E74C
:1009C0000646E3E61846F8E64B45A9D2B9EB02081D
:1009D00064EB0C0E0138A3E74646EAE7204694E7AD
:1009E0004046D1E7D0467BE7023B614432E73046E0
:1009F00009E76444023842E7704700BFFEE700BFE2
:100A00000B480C4A904203D0121A0B4911F016FF02
:100A10000A480B4A904203D0121A002111F01CFF21
:100A200006F0DCFA11F0DEFE01F074FAFEE700BF1A
:100A300000000024E8030024CC450108E80300245A
:100A4000A8C80024704700BF704700BF49424FF458
:100A500080621430C9B211F0FFBE00BF704700BF02
:100A6000402070478020704710B5044640F2144182
:100A700011F093FB204610BD2DE9F041B02482B067
:100A800000F1080600F1100500F1140800272846BF
:100A90008DF807400134394603F00CF96423012234
:100AA0000DF107013046E4B204F03EFF3946284616
:100AB0008DF8077003F0FEF8012264230DF10701A1
:100AC000304604F031FF1023394628468DF80730B0
:100AD00003F0F0F8642301220DF10701304604F021
:100AE00023FF0121284603F0E5F8802241466423D4
:100AF0003046904404F018FFB82CC7D102B0BDE8CE
:100B0000F08100BF2DE9F04F85B0A1F1200504ACC4
:100B10009DF83870009104E90C00EBB25E2B00F2F6
:100B20009580036880465D4ADB689DF808409342E3
:100B30009DF8096040F094808020B8F80430234488
:100B4000834200F38380D8F80030554A9B68934273
:100B500040F088804020B8F8062093190192834223
:100B600074DC002E00F0898006FB05F56FF0004074
:100B7000039B964628442E44B8F804A003EB40009B
:100B8000023B03EB460B30F8026FBCB30EF00703D9
:100B90004FF0010C4FEADE0251460CFA03FC0AF159
:100BA00014034FFA8CFC03EBC21200236FEA0C090A
:100BB00042440EE07F2907D8BEF13F0F04D81578D4
:100BC0009FB14CEA050515700133013201319C4299
:100BD00014D006FA03F52D04ECD47F29F4D8BEF125
:100BE0003F0FF1D81578002FEBD0013309EA050546
:100BF000013201319C4202F8015CEAD158450EF104
:100C0000010EC0D1D8F8003054442449DA68A4B2A7
:100C10008A422DD1802084421CD29B68204AA8F8A9
:100C20000440934221D14020019B834207D3D8F84E
:100C300000301B4A9B68934229D13F230193DDE991
:100C40000003A8F8063005B0BDE8F08F002005B01D
:100C5000BDE8F08FDA6811498A4211D17F24DCE7C0
:100C600098476AE74046984775E740469847DBE76C
:100C700040469047D8F80030CDE7B8F804A0C1E767
:100C8000404690470138D8F8003084B2C5E7404666
:100C90009847013883B20193D1E700BF650A000885
:100CA000610A00087F291ED83F2A1CD86BB1D308DF
:100CB0004FF0010C02F0070201EBC3130CFA02F231
:100CC000C1180B7D1A430A757047D3084FF0010C09
:100CD00002F0070201EBC3130CFA02FCC1180A7DF3
:100CE00022EA0C020A7570472DE9F04F89B008AC72
:100CF0009DF84870019104E90C000B78002B00F07E
:100D0000AB801A469DF818809DF819300646454676
:100D100090460393079B0593A8F12004E3B25E2B52
:100D200000F29E8033685E4ADB68934240F09B800D
:100D30008020B3882B44834200F392803368594A61
:100D40009B68934240F092804020F188039A029180
:100D50008B18834200F38480002A00F0918002FB0C
:100D600004F46FF00049059BA1441444B6F804B0A4
:100D700003EB4909023BCDF8108003EB44030C461A
:100D80009A4639F802CFA5B304F007034FF0010EDD
:100D9000E20859460EFA03FE0BF114034FFA8EFED9
:100DA00003EBC21200236FEA0E0832440DE07F29E4
:100DB00006D83F2C04D8107897B14EEA0000107086
:100DC000013301320131AB4213D00CFA03F00004BD
:100DD000EDD47F29F4D83F2CF2D81078002FECD036
:100DE000013308EA000001320131AB4202F8010C84
:100DF000EBD1D14504F10104C3D1DDF81080326894
:100E00000BEB05042649D368A4B28B4234D1802071
:100E1000844204D3D36822498B423AD17F24936819
:100E2000204AB480934224D14020029B834206D3BF
:100E300033681C4A9B68934225D13F230293029B4F
:100E4000F380019B1878404507D113F8018F019377
:100E5000B8F1000F7FF460AF002009B0BDE8F08F5B
:100E60004FF00008EDE73046984762E73046984774
:100E70006BE730469847D8E7304698473268C7E76F
:100E8000B6F804B0BBE730469847013883B2029306
:100E9000D5E7304698470138326884B2BFE700BFD3
:100EA000650A0008610A00082DE9F04F83B05C1A5A
:100EB0000C9E002C9DF83490A6EB0208B8BF64424B
:100EC000B8F1000FB8BFC8F100088B428CBF4FF0DB
:100ED000010A4FF0FF3A9642A4EB080C51D84FF0AC
:100EE000FF357F2B019512D83F2E10D8F50806F05C
:100EF000070E012703EBC5150544B9F1000F47D0D4
:100F000007FA0EF795F814E047EA0E072F75964298
:100F100001D18B4229D0C8F100077F2914D83F2A7C
:100F200012D8D50802F0070B4FF0010E01EBC515E2
:100F30000544B9F1000F1BD00EFA0BFE95F814B062
:100F40004EEA0B0E85F814E0B7EB4C0F4FEA4C0558
:100F500002DAACEB080C5144AC4202DD019DA44422
:100F60002A449942D9D19642D7D103B0BDE8F08F37
:100F70000EFA0BFB95F814E02EEA0B0E85F814E040
:100F8000E2E701257F2B0195C5D83F2EAED9C2E7F8
:100F900007FA0EFE2F7D964227EA0E072F75B8D06E
:100FA000B9E700BF000000002DE9F04F2DED068BE2
:100FB00083B01F4680460D469DF85030164601937B
:100FC000139B002BC0F22182129A134406EE103AB2
:100FD000DDED127AB8EEC66B9FEDCD4BB8EEE77B38
:100FE0009FEDCD5B27EE047B26EE046B87EE050BB1
:100FF00086EE05ABF7EEC08BB0EE680A11F0D4F8C0
:1010000007EE907AB7EECAABF8EE679AB0EE408A78
:10101000B0EE680A11F0CCFA60EE698AB0EE4A0AC6
:1010200011F0C2F8B0EE409AB0EE4A0A11F0C0FAE0
:1010300020EE690A29EE888A29EE899A70EE687A8C
:10104000F0EE006A39EE487A67EEA77AE7EE077AA3
:10105000F4EEE67AF1EE10FA06D5139BB42B40F3CA
:1010600096804FF0010901E04FF000090124784219
:101070004FF0000C0095E31B214627462246A34073
:10108000B9F1000F6AD1424206EE90CACCF10001DC
:1010900007EE102AB8EEE66A07EE901A06EE900AFE
:1010A000B8EEC77A139A66EE084AF8EEE77AB42AE1
:1010B00027EE284AF8EEE66A67EE885A74EEC43ADC
:1010C00026EEA85A26EE096A66EE806A67EE897AED
:1010D00027EE007AF5EEC03A40F3F280F1EE10FA16
:1010E00000F17F8176EE473A74EEC54AF5EEC03ADC
:1010F000F1EE10FAF5EEC04ACCBF01220022F1EE6B
:1011000010FA00F1778136EE666A35EEC55AB5EE13
:10111000C06AF1EE10FAB5EEC05ACCBF0121002131
:10112000F1EE10FA00F16F8177EEE66AF5EEC06A33
:10113000F1EE10FACCBF0127002775EEC45AF5EE88
:10114000C05AF1EE10FA00F1478177EEC77AF5EE5A
:10115000C07AF1EE10FACCBF01240024002A40F03E
:101160008A80002964D1BFB9C4BB9C4558DB0CF10F
:10117000010C03EB4C0E1CEB000F0EF1010E00F006
:10118000C08098424FDB734600287FF779AF03B0E9
:10119000BDEC068BBDE8F08F009DA6EB0C0E00EBBE
:1011A000050ABAF17F0FDFD8BEF13F0FDCD84FEA56
:1011B000DE0B019D0AEBCB1A002D00F0B1800EF082
:1011C000070BC2444FF0010E0EFA0BFE9AF814B052
:1011D0004EEA0B0E8AF814E0002CC6D0009DA6EB58
:1011E0000C0EA5EB000ABAF17F0FBED8BEF13F0F7F
:1011F000BBD84FEADE0B019D0AEBCB1A002D00F0A5
:10120000AE800EF0070BC2444FF0010E9C450EFA63
:101210000BFE9AF814B04EEA0B0E8AF814E0A6DA28
:1012200098429E46AFDA01300EEB40030133ABE744
:10123000009D0CEB060E00EB050ABAF17F0F92D869
:10124000BEF13F0F8FD84FEADE0B019D0AEBCB1AA0
:10125000002D73D00EF0070BC2444FF0010E0EFAB2
:101260000BFE9AF814B04EEA0B0E8AF814E0002F29
:101270003FF47AAF90E7009D0CEB060EA5EB000A59
:10128000BAF17F0F3FF66DAFBEF13F0F3FF669AF8A
:101290004FEADE0B019D0AEBCB1A002D6DD00EF04C
:1012A000070BC2444FF0010E0EFA0BFE9AF814B071
:1012B0004EEA0B0E8AF814E000293FF454AFB7E76A
:1012C000F1EE10FA7ED44A4674EEC54AF5EEC04AF5
:1012D000F1EE10FA6CD4002135EEC55AB5EEC05AC5
:1012E000F1EE10FA5AD4002775EEC45AF5EEC05A42
:1012F000F1EE10FA3FF529AF0024002A3FF431AF98
:10130000B9E798428FDB00233BE700BFAFF30080D3
:101310007A008BFCFA210940000000000080664042
:10132000C2444FF0010B0EF0070E0BFA0EFE9AF8B6
:1013300014B02BEA0E0E8AF814E015E7C2444FF001
:10134000010B0EF0070E0BFA0EFE9AF814B02BEA02
:101350000E0E8AF814E0002F3FF406AF1CE7C244DB
:101360004FF0010B0EF0070E0BFA0EFE9AF814B0B8
:101370002BEA0E0E8AF814E0F7E6C2444FF0010B98
:101380000EF0070E0BFA0EFE9AF814B02BEA0E0EB2
:101390008AF814E000293FF4E6AE49E777EEE66A02
:1013A000F5EEC06AF1EE10FACCBF012700279BE7EB
:1013B00036EE666AB5EEC06AF1EE10FACCBF0121D6
:1013C000002189E776EE473AF5EEC03AF1EE10FAE1
:1013D000CCBF0122002277E70124002A3FF4C1AEEE
:1013E00049E774EEC54A0122F5EEC04AF1EE10FA63
:1013F0007FF589AE35EEC55A0121B5EEC05AF1EE42
:1014000010FA7FF591AE012797E6DDE91223134428
:1014100006EE102A1293139B5B421393D8E500BF8C
:101420002DE9F04F89B01D46884606901046129C63
:1014300010F8013B13999DF85060009233B10022DF
:1014400010F8013B0132002BFAD193B22A78687868
:1014500012FB03F302B21BB223EAE373082900F282
:10146000A981DFE811F002011401200134014201D9
:101470005001670171010900A18827880F44B4F960
:101480000610FF1A0029BFB2C0F2FF80B4F802C0F4
:1014900006980CEB6104C280A4EB520283800780A3
:1014A00094B24480A64AD8F8003011460192DA6816
:1014B0008A4240F08D818020B84205D8DA680199CF
:1014C0008A4240F09A817F279E4A9B68A8F8047060
:1014D0009342039240F089814020A04207D8D8F877
:1014E0000030039A9B68934240F082813F24009B26
:1014F000A8F8064093F800B06B782C7804936B68DA
:101500000793BBF1000F00F0AC80ABF12005EBB20C
:101510005E2B00F22E81D8F80030019ADB689342EE
:1015200040F02A818020B8F8043023449842C0F269
:101530002081D8F80030039A9B68934240F01F81C5
:101540004020B8F80610049A02918B189842C0F215
:101550001081002A00F01E8102FB05F56FF0004E9D
:10156000079BAE441544CDF814B003EB4E0E023B7E
:10157000B8F804A003EB45030D469B463EF8027FF6
:10158000A4B305F007034FF0010CEA0851460CFA2A
:1015900003FC0AF114034FFA8CFC03EBC212002384
:1015A0006FEA0C0942440DE07F2906D83F2D04D88C
:1015B000107896B14CEA000010700133013201310D
:1015C0009C4213D007FA03F00004EDD47F29F4D82D
:1015D0003F2DF2D81078002EECD0013309EA00003C
:1015E000013201319C4202F8010CEBD1F34505F1C7
:1015F0000105C3D1DDF814B0D8F800200AEB0405CA
:101600000199D368ADB28B4240F0BF808020854203
:1016100005D3D36801998B4240F0C5807F2593683C
:10162000039AA8F80450934240F0AC804020029BFB
:10163000834208D3D8F80030039A9B68934240F065
:10164000AC803F230293029BA8F80630009A1378DF
:101650005B4506D112F801BF0092BBF1000F7FF489
:1016600054AF069809B0BDE8F08FB4F9041027888C
:101670000029B8BF013107EB6107B4F90610A7EBE9
:1016800063070029BFB2BFF601AF0131FEE6B4F92E
:1016900000700699B4F902400F80BFB24C80A4B22A
:1016A0008B80CA80FEE6B4F9041027880029B4F9BB
:1016B0000240B8BF013107EB610706998B80A7EBA9
:1016C00063034C80A4B29FB2CA800F80EAE6A1886F
:1016D0002788B4F902400F4406998B80FB1A4C808E
:1016E000A4B29FB2CA800F80DCE6E78861883944E3
:1016F000B4F90070081A069984B20F808B80BFB2CB
:10170000CA804C80CEE6B4F9041027880029B8BFFF
:10171000013107EB6107A7EB6307B4F802C0BFB262
:10172000E488069964448B80201ACA800F8084B2B2
:101730004C80B7E62788A1880F44FF1AEDE700BF69
:10174000650A0008610A0008B4F90610B4F802C07E
:101750000029B4F900700698B8BF0131C2800CEBC3
:10176000610407808380BFB2A4EB520294B244802C
:1017700098E64FF0000B69E740469847D3E64046AD
:101780009847DEE64046984751E740469847D8F8E4
:1017900000203CE7B8F804A02EE7404698470138FF
:1017A00083B202934FE7404698470138D8F80020AB
:1017B00085B234E7D8F800300024069A1249148024
:1017C00054809480D480DA6801918A4205D02746FB
:1017D00040469047D8F800306EE69B680B4AA8F860
:1017E0000440934203923FF482AE4046984774E629
:1017F00040469847013884B279E640469047013820
:10180000D8F8003087B25FE6650A0008610A000870
:101810002DE9F04F87B09DF84850109C2E46019559
:101820009DF844509EB399422ED89946A24228D89A
:101830007F29164694BF0023012308E09CF81480FA
:101840004EEA080E8CF814E00136B44219D33F2E4C
:10185000FAD8002BF8D14FEAD60C06F0070E4FF05D
:10186000010801EBCC1C08FA0EFE8444002DE5D1E2
:101870009CF814B001362BEA0E0AB4428CF814A07E
:10188000E5D201318945D1D207B0BDE8F08FA3EB95
:101890000108B8F1000FB8BFC8F100089942C0F0C4
:1018A0004E817F2B4FF0FF3A94BF002601263F2A3E
:1018B000009694BF002701270297A6B99FB9D608C2
:1018C00002F0070C012703EBC6160644002D00F0BA
:1018D000948107FA0CF796F814C047EA0C0737759D
:1018E000002602960096994200F09781464694465B
:1018F0008E46BEF17F0F16D8BCF13F0F13D84FEACA
:10190000DC070CF0070B4FF001090EEBC71707447B
:10191000002D00F0398109FA0BF997F814B049EA63
:101920000B0987F81490770018BFD644B84502DD3C
:1019300046440CF1FF3C7345DBD16245D9D100260A
:101940000496A4EB0209009FB9F1000FB8BFC9F1DA
:1019500000093F2C94BF00260126A242C9F10008CD
:101960000396C0F02381002F40F05081002E40F0FC
:101970004D814FF0FF360096E60803EBC61606448D
:10198000002D00F01E814FF0010C04F007070CFA47
:1019900007F796F814C047EA0C0737750026039638
:1019A000A24200F03D81C44616461F4605927F2F95
:1019B00015D83F2E13D84FEAD60E06F0070B4FF07E
:1019C000010A07EBCE1E8644002D00F0E6800AFADD
:1019D0000BFA9EF814B04AEA0B0A8EF814A0B8EB82
:1019E0004C0F4FEA4C0E02DAACEB090C013FBEF192
:1019F000000F01D0009A1644BB42D8D1B442D6D1D0
:101A0000059AA1EB030EBEF1000FB8BFCEF1000E98
:101A10007F2994BF4FF0000A4FF0010A99428CBF12
:101A20004FF001094FF0FF39BAF1000F13D1039EB7
:101A30008EB9E60801EBC6160644002D00F0D380EF
:101A40004FF0010C04F007070CFA07F796F814C0E2
:101A500047EA0C073775049E26BB774626467F2B40
:101A600014D83F2E12D84FEAD60C06F0070B4FF0D1
:101A7000010803EBCC1C8444002D73D008FA0BF84A
:101A80009CF814B048EA0B088CF814805FEA470C05
:101A900018BF4B44E64501DD7744013E9942DED153
:101AA000B442DCD1A2EB040EBEF1000FB8BFCEF100
:101AB000000EA2428CBF4FF001084FF0FF38CEF16C
:101AC000000CBAF1000F0ED1029B63B9D30802F0EB
:101AD0000707012601EBC3130344002D7CD0BE4051
:101AE0001F7D3E431E75019B002B7FF4CDAE6646E5
:101AF0000B467F2B12D83F2C10D8E70804F0070ABA
:101B00004FF0010903EBC7170744A5B309FA0AF917
:101B100097F814A049EA0A0987F81490BCEB460F1D
:101B20004FEA460702DAA6EB0E06013B07B1444432
:101B30009942DED1A242DCD107B0BDE8F08F3F2A46
:101B40004FF0010A94BF002601267F2B029694BF16
:101B5000002701270097002E7FF4C8AE002F3FF426
:101B6000AEAEC3E608FA0BFB9CF8148028EA0B081B
:101B70008CF814808AE709FA0AFA97F8149029EA8F
:101B80000A0987F81490C9E709FA0BFB97F8149033
:101B900029EA0B0987F81490C5E60AFA0BFB9EF8B0
:101BA00014A02AEA0B0A8EF814A018E797BB8EBB84
:101BB00001260096E60803EBC6160644002D7FF4C6
:101BC000E2AE012704F0070C039507FA0CFC377D01
:101BD00027EA0C073775E3E606FA07F71E7D26EAC3
:101BE00007061E757FE7012704F0070C07FA0CFCB7
:101BF000377D27EA0C0737752DE707FA0CFC377D90
:101C0000029527EA0C07009537756CE64FF0FF3612
:101C10000096C5E601260096C5E60126049690E6E4
:101C200001260196EDE600BF84B02DE9F04182B0B7
:101C30000125064604460DF124088572274688E8EA
:101C40000E00BDF84C3026F8083F304601F056FF34
:101C5000BDF84E30A57127F8043F384601F04EFF1D
:101C60004146204603F0D8FD0021384602F022F814
:101C70000A2004F0CDFF2946384602F01BF80A205E
:101C800004F0C6FFAE23304600218DF8073002F085
:101C900011F82A460DF107016423204603F044FEA3
:101CA000D523304600218DF8073002F003F82A468C
:101CB0000DF107016423204603F036FE80233046F1
:101CC00000218DF8073001F0F5FF2A460DF10701DC
:101CD0006423204603F028FEA823304600218DF817
:101CE000073001F0E7FF2A460DF107016423204683
:101CF00003F01AFE3F23304600218DF8073001F033
:101D0000D9FF2A460DF107016423204603F00CFE9B
:101D1000DA23304600218DF8073001F0CBFF2A4648
:101D20000DF107016423204603F0FEFD1223304627
:101D300000218DF8073001F0BDFF2A460DF10701A3
:101D40006423204603F0F0FD0021D32330460F46E4
:101D50008DF8073001F0AEFF2A4664230DF107012C
:101D6000204603F0E1FD394630468DF8077001F05A
:101D7000A1FF2A460DF107016423204603F0D4FD9C
:101D80004023394630468DF8073001F093FF2A464C
:101D90000DF107016423204603F0C6FDA623394652
:101DA00030468DF8073001F085FF2A460DF1070116
:101DB0006423204603F0B8FDA423394630468DF84D
:101DC000073001F077FF2A460DF107016423204612
:101DD00003F0AAFD8D23394630468DF8073001F017
:101DE00069FF2A460DF107016423204603F09CFD9C
:101DF0001423394630468DF8073001F05BFF2A4640
:101E00000DF107016423204603F08EFDA12339461E
:101E100030468DF8073001F04DFF2A460DF10701DD
:101E20006423204603F080FDC823394630468DF8F0
:101E3000073001F03FFF2A460DF1070164232046D9
:101E400003F072FD8123394630468DF8073001F0EA
:101E500031FF2A460DF107016423204603F064FD9B
:101E60008F23394630468DF8073001F023FF2A468C
:101E70000DF107016423204603F056FDD9233946AE
:101E800030468DF8073001F015FF2A460DF10701A5
:101E90006423204603F048FD2523394630468DF85B
:101EA000073001F007FF2A460DF1070164232046A1
:101EB00003F03AFDDB23394630468DF8073001F058
:101EC000F9FE2A460DF107016423204603F02CFD9C
:101ED0003423394630468DF8073001F0EBFE2A46B0
:101EE0000DF107016423204603F01EFDAF233946A0
:101EF00030468DF8073001F0DDFE64232A460DF1EF
:101F00000701204603F010FD02B0BDE8F04104B027
:101F1000704700BF2DE9F04F0021BD484FF0000889
:101F2000BC4EBD4F2DED028BBBB000F0F7FA04F0B4
:101F30006DFE40F606320146B84B09200FAD0A91FE
:101F40001AACCDE90F2300F07FFB03461620A14613
:101F5000ADF8643000F078FB0B220123CDF85480FB
:101F60000DF1740E13930223ADF83E200822CDF834
:101F70005880EC461492ADF86600CDF84480CDF858
:101F80004880CDE917330FCD0FC40FCD0FC495E8AE
:101F9000070084E80700BEE80F00ACE80F009EE8E9
:101FA0000F008CE80F0006F108001AAD99E80E004A
:101FB000FFF73AFEF7EE000A9FED990A0FCFA9E866
:101FC0000F0097E80F0007F1100489E80F00424660
:101FD0001AA9944801F056F8F7EE000A9FED900A0E
:101FE0000FCC0FC594E80F0089E80F008E484246D9
:101FF0001AA901F047F8A7F1780000F0EBF904F016
:1020000005FE034687481C460B9301F06BF8864893
:10201000B0EE408A01F066F8F0EE408A9FED801A3B
:102020008248B0EE480AF0EE680A01F0D9F8784824
:1020300000F0D4F90A9AA31A632BE0D9DFED7C7A79
:1020400000247C491AA868EEA78A009428EE278A03
:10205000FDEEE87A17EE903AFDEEC87A17EE902A78
:1020600010F0B8FC4FF480622146734810F0F4FB86
:10207000724A9DF86830517892F800B052680C911D
:102080000D927460002B71D01AAA5D460892203B15
:10209000DAB25E2A6AD8B6F804A00AEB0509B9F1EB
:1020A000800F63DCF2880C9909920A44402A5DDCB7
:1020B000002947D00C9A6FF0004E099C02FB03F3F5
:1020C0009E4413440D9AA2F1020B02EB4E0E0BEB51
:1020D000430B3EF8027F8DB304F007034FF0010C71
:1020E000E20851460CFA03FC0AF114034FFA8CFC87
:1020F00003EBC21200236FEA0C0832440CE07F2984
:1021000005D83F2C03D8107808EA0000107001337E
:1021100001320131AB4211D007FA03F00004EED4D2
:102120007F29F4D83F2CF2D81078013301320131E5
:102130004CEA0000AB4202F8010CEDD1DE4504F19F
:102140000104C6D1099A1FFA89F908993F2A11F8A2
:10215000013F28BF3F22B9F17F0F089128BF4FF000
:102160007F09F280A6F80490002B90D10A9A1AA851
:10217000334910F02FFC31494FF400129DF86830BC
:10218000487891F800B049680A900C917260002B71
:1021900000F090801AAA5D460892203BDAB25E2ACF
:1021A00000F28880B6F804A00AEB0509B9F1800FA7
:1021B00000F38080F2880A9909920A44402A79DC67
:1021C000002962D00A9A6FF0004E099C02FB03F3CB
:1021D0009E4413440C9AA2F1020B02EB4E0E0BEB41
:1021E000430B3EF8027F002D4BD004F007034FF065
:1021F000010CE20851460CFA03FC0AF114034FFAF1
:102200008CFC03EBC21200236FEA0C08324426E078
:102210001808002404040024800800240105060A8C
:1022200000000000F89A0024309B0024F0080024ED
:1022300000007F43003101081804002474030024C7
:10224000103101087F2905D83F2C03D8107808EAFF
:1022500000001070013301320131AB4211D007FA96
:1022600003F00004EED47F29F4D83F2CF2D8107884
:102270000133013201314CEA0000AB4202F8010C9B
:10228000EDD1F34504F10104ABD1099A1FFA89F9A4
:1022900008993F2A11F8013F28BF3F22B9F17F0F6B
:1022A000089128BF4FF07F09F280A6F80490002B18
:1022B0007FF473AF1E4FB02400251E488DF83B40BD
:1022C0000134294601F0F6FC642301220DF13B01A3
:1022D0001948E4B203F028FB294616488DF83B5014
:1022E00001F0E8FC012264230DF13B01124803F0E8
:1022F0001BFB102329460F488DF83B3001F0DAFC18
:10230000642301220DF13B010B4803F00DFB012179
:10231000084801F0CFFC8022394664230648174460
:1023200003F002FBB82CC7D10B9B0A9367E600BFF2
:1023300018040024140400240C04002470B51B4C61
:1023400000251B4E04F5C070256065612562E563BC
:1023500000F07EFE174A40F20F7317492046C4F87A
:10236000382204F51472A4F83C3240F20113C4F888
:102370009051C4F84852C4F84C52C4E990233246F4
:102380000FF006FF0D480E4B32460E498560036084
:102390000FF0FEFE32460C490C480FF0F9FE3246B3
:1023A00009490B48BDE870400FF0F2BE1808002440
:1023B000000000240080707F490A00080404002403
:1023C000203101085D0A0008450A0008F89A002437
:1023D000309B0024183001F07DB900BF10B50446D1
:1023E000D83000F02DFF04F59670BDE8104000F0E5
:1023F00027BF00BFF0B54FF481718FB000F1D8074F
:1024000001254FF4C0624FF4E063ADF8081000F509
:10241000967402993846ADF80C2008AEADF810302D
:102420000095DDE9032300F0B3FE40F201134FF401
:1024300080722046ADF814304FF480630599009502
:102440000BADADF81820ADF81C30DDE9062300F027
:102450009FFE3046072104F0FBFE96E8070085E862
:1024600007002946384600F0D5FE96E8070085E8C3
:1024700007002946204600F0CDFE384600F0E0FE79
:1024800020460FB0BDE8F04000F0DABE2DE9F04183
:1024900040F2024304460222002504F1180704F129
:1024A000A8062DED028B8EB09FED1B8AADF80C3087
:1024B00005A8039900F0ECFE02220DF12600ADF80C
:1024C0001020049900F0E4FE0423022205A93846F6
:1024D00000F0F2FE04F1680204F18803C4E92A2343
:1024E0002946384656F8048B01F00AF90146204681
:1024F000019100F0DBF80023F0EE480A0199404614
:102500001A4600F0F3FC25B10EB0BDEC028BBDE81D
:10251000F0810125E4E700BF6F12033B2DE9F04194
:1025200004469AB00027019100F08CF801992046EA
:1025300000F07CF940F6061304F1B0069FED400A66
:10254000ADF8143004F1C0053046059900F086FE60
:102550004FF4007328469FED3A0AADF8183004F5A1
:10256000C878069900F07AFE40F6033240F2016323
:102570009FED330AADF8082004F140000299ADF850
:102580000C70C4F8D0600FAEC4F8D45007ADADF8ED
:102590001030DDE9032300F02BFD2046FFF72AFF72
:1025A0002046FFF773FF284600F052FD01230DF18E
:1025B0002C0E04F5C07C1593189347F6122316973A
:1025C00019930223179395E80F008CE80F008EE80B
:1025D0000F0086E80F00BDF840301490ADF84E3083
:1025E000BDF84230D4E9625EADF84C30C4E9655EB6
:1025F000BEF1000F04D072463946284610F02CF97F
:1026000013A9404604F088F804F5D27000F034FDB8
:102610003021204600F02EF8D4F8A850204600F0D3
:1026200045F8284600F0B8FCD4F8AC50204600F03D
:102630003DF828461AB0BDE8F04100F0ADBC00BF3F
:1026400000000000704700BF202882B009D8084B66
:1026500003EB400213F81030507843EA002002B038
:10266000704701230C2043EA002002B0704700BFEE
:102670005431010838B500F1140504462DED028BE4
:10268000284600F00FFC284600F01AFC2846B0EE61
:10269000408A00F003FCD0ED007AF8EE677A88EE0D
:1026A000277ABDEC028B84ED0E7A38BD90ED0E0AD0
:1026B000704700BF10B540F203338EB000244FF6D0
:1026C0000B7240F20341ADF8083009A80123ADF8C0
:1026D0001020ADF824202246ADF80C100094029989
:1026E00007940C94CDE90544CDE90A4401F00AF9B8
:1026F00004A8012322460399009401F003F909A8D4
:1027000001F0E6F910B901200EB010BD04A801F0E7
:10271000DFF9A0420CBF022020460EB010BD00BF62
:102720002DE9F04103239AB0012700240646CDE9A4
:1027300014373B4BCDE9104340F20453CDE9164723
:10274000ADF84830FFF7B6FFB842054625D002285D
:1027500045D040F60132334B0DF12C081894ADF8FA
:102760002C200B981997CDF84A3000F0E3F810A907
:1027700006F13C0002F074F9302003224FF07E5342
:1027800041460D930E93CDE90B02F26B06F1140056
:1027900000F04CFB1AB0BDE8F0811023214A06A9D5
:1027A00006908DF828300DF12C081F4BCDF84A20EB
:1027B00007930294CDE91804CDE9080402A801F0BA
:1027C000F9FB0823029A03A94046ADF80C508DF896
:1027D0000E40049505930B9400F0ECF8C7E7002039
:1027E0000121104B0DF12C083A460094CDF84A30E7
:1027F0004FF60B730C94ADF82C302346CDE918013D
:1028000040F601314046ADF818100699CDE90D4467
:1028100001F078F82146404601F066F9A7E700BFCD
:1028200004020404040604030704010B2DE9F04725
:1028300004462DED028B82B000294DD0012140F2DB
:10284000011200230091ADF804208DF80630364ABD
:102850000127364B04F10409354904F12908626067
:1028600040F20272A36040F60663E16004F1250ABB
:10287000A4F82520A4F82930278284F8277084F84A
:102880002B7004F061FB054604F0C4F96946064666
:1028900050BB4DB304F130008DF8067004F0DCFA43
:1028A000072D3CD104F114052046FFF739FF2846D7
:1028B00000F006FB2846B0EE408A00F0EFFAD0EDBB
:1028C000007AF8EE677A88EE277A84ED0E7A02B005
:1028D000BDEC028BBDE8F08740F2011300918DF84A
:1028E0000610ADF80430B2E704F1300004F0B4FA99
:1028F000072D11D04946204601F0A6FD0EB9002D46
:10290000D0D1504601F0FAF8404601F0F7F804F152
:10291000120000F079F9C5E7002EF2D1C2E749466E
:10292000204601F091FDBDE70508050905070506EC
:10293000050A060610B584B003460124ADF804006C
:1029400003A8ADF80C30ADF80E4001F0D7F82146E1
:1029500003A801F0AFF9204604F05AF9002103A8BA
:1029600001F0A8F9204604F053F9214603A801F02C
:10297000A1F904B010BD00BF10B5C2F3002384B0AC
:102980000C46017C8DF80D2043EA4402FA24022310
:102990008DF80C2003AA009401F0A2FB18B10124C9
:1029A000204604B010BD04460A2004F031F9204648
:1029B00004B010BD034670B543F8042B044684B040
:1029C00007C983E80700A37983B91A210B461E22A1
:1029D000FA2523742046ADF80C20022303AA0095A3
:1029E00001F07EFB28B1012004B070BD1B210B4615
:1029F000EDE70A2004F00CF94FF4B85200950223D9
:102A0000ADF80C20204603AA217C01F069FB0028C8
:102A1000E9D10A2004F0FCF841F202720095022389
:102A2000ADF80C20204603AA217C01F059FB0028B8
:102A3000D9D10A2004F0ECF8042200950223ADF865
:102A40000C20204603AA217C01F04AFB0028CAD1B1
:102A50000A2004F0DDF8062200950223ADF80C20D0
:102A6000204603AA217C01F03BFB0028BBD10A20B1
:102A700004F0CEF841F2082200950223ADF80C20B4
:102A8000204603AA217C01F02BFB0028ABD10A20B1
:102A9000064604F0BDF80095022303AA217C2046D7
:102AA000ADF80C6001F01CFB00289CD1304604F00E
:102AB000AFF8009522790C232046002A8DF80C30BF
:102AC00003AA4FF0020314BF622142218DF80D10BA
:102AD000217C01F005FB002885D1304604F098F8F0
:102AE0002279D4E902310B43DBB20AB943F0400347
:102AF00062790AB143F020030E22FA258DF80D30D9
:102B00002046009502238DF80C2003AA217C01F0B9
:102B1000E7FA00287FF467AF0A2004F079F8102262
:102B200000950223ADF80C20204603AA217C01F079
:102B3000D7FA00287FF457AF0A2004F069F8122171
:102B400000950223ADF80C1003AA217C204601F069
:102B5000C7FA00287FF447AF0A2004F059F8012291
:102B600009212046FFF708FF003818BF01203BE786
:102B7000F0B5102387B0234C012200250126002741
:102B800002A920460195CDE902234FF48052CDE9F8
:102B900004670AF0FBFD642004F08CFC02A94FF4EA
:102BA00080522046CDE9046702261027CDE902674E
:102BB0000AF0ECFD0322102302A92046CDE90223EE
:102BC00000230422CDE904234FF480520AF0DEFDF5
:102BD00040F23223042202A9019310232046CDE9BA
:102BE0000223019A012305924FF4805204930AF0C4
:102BF000CDFD40F6060120460AF0E8FD284607B064
:102C0000F0BD00BF709B00241C4B00221C494FF0FC
:102C1000400C30B5054689B00220596007219A6002
:102C20001A620124DA620A224FF4006EDC60069216
:102C30002022CDE9000104200821CDE90201032072
:102C40001021CDE9040108206946C3E904024FF4CC
:102C5000C072181DC3E906C24FF48052C3E909E2ED
:102C60000AF06AFD38B92846FFF782FF003818BF1E
:102C7000012009B030BD204609B030BD6C9B002456
:102C800040410052614A0021D0B513688EB00A91CC
:102C9000002B40F0B9805E4B01214FF683700C246D
:102CA00011600221D3F8D4200026032742F4805279
:102CB000C3F8D420D3F8D42002F480520092009AB2
:102CC000D3F8E02042F01002C3F8E020D3F8E0206F
:102CD00002F010020192019AD3F8E02042F0400283
:102CE000C3F8E020D3F8E02002F040020292029AFA
:102CF000D3F8E02042F00802C3F8E020D3F8E02047
:102D000002F008020392039AD3F8E02042F48072A2
:102D1000C3F8E020D3F8E02002F480720492049A11
:102D2000D3F8E02042F08002C3F8E020D3F8E0209E
:102D300002F080020592059AD3F8E02042F02002CA
:102D4000C3F8E020D3F8E02002F020020692069AB1
:102D5000D3F8E02042F00402C3F8E020D3F8E030DA
:102D60000C9403F0040307930323079A0B93CDE914
:102D7000080108A9274806F023FA48F2371202236F
:102D800008A925480C94CDE90823CDE90A6706F087
:102D900017FA4CF20372022308A920480C94CDE9DB
:102DA0000823CDE90A6706F00BFA40F2FF6202231E
:102DB00008A91B480C94CDE90823CDE90A6706F061
:102DC000FFF94FF60C72022308A916480C94CDE9BE
:102DD0000823CDE90A6706F0F3F94FF63F02022314
:102DE00008A911480C94CDE90823CDE90A6706F03B
:102DF000E7F92022022308A90A480C94CDE90A67C2
:102E0000CDE9082306F0DCF90EB0D0BD689B0024A4
:102E1000004402580010025800180258000C0258D2
:102E200000200258001C02580014025830B5184CFB
:102E3000154685B0046004F1080EEC460FC98EE813
:102E40000F00D4ED047AF5EEC07A8CE80F00F1EEB5
:102E500010FA1ADDB7EE006A94ED057A27EE277AAC
:102E6000C6EE276A84ED0D7AC4ED0C6A6DB120467A
:102E700040F8185F01F0ECFE064903690020064A9D
:102E80002162A262E36005B030BD012005B030BD13
:102E9000A49B0024002000300000003000680830AF
:102EA000704700BFB1F5807F03680A4628BF4FF422
:102EB0008072B1F5807F9A6094BF00200120704736
:102EC0000068183001F0C6BE10B4074B4FF07E51B9
:102ED00030240022032019619C60D8605DF8044B07
:102EE0005961C3E906227047A49B0024F6EE007ADC
:102EF0009FED166A20EE207A0160F7EE006A80ED01
:102F0000036A80ED020A27EE277AC6EE877AF4EE8E
:102F1000E67AF1EE10FA11DDF0EE667A4FF07E51AE
:102F20004FF0000C02760022C0ED017AC0F814C008
:102F3000016143768276C0ED070A7047F4EEC67AE7
:102F4000F1EE10FAEAD5F0EE467AE7E7000000006D
:102F50000268037E128807EE902AFBEEC87A1BB146
:102F6000B7EE007A77EE677AD0ED056A90ED047AD5
:102F700077EEE67A437E67EE877A0BB1F1EE677AF9
:102F800090ED030A90ED017A77EEC07AA7EE270A5A
:102F900080ED030A704700BF837E80ED020AABB963
:102FA000D0ED077A27EE800AF6EE007AB7EE007AC7
:102FB00020EE270AC7EE007AF4EEC77AF1EE10FA97
:102FC00007DDF0EE477AC0ED017A7047DFED067A53
:102FD000E8E7F5EEC07AF1EE10FAF4D5DFED037A0A
:102FE000C0ED017A704700BF6F12033B0000000084
:102FF00030B585B004460025ADF80C10ADF80820BA
:10300000ADF8043003F002FEBDF80C204FF48073DD
:10301000206004F118002283BDF808206383E38355
:10302000A283257100F06AFD04F11C0000F066FD2A
:103030009FED060A019904F1080000F00FF94FF620
:10304000FF736562238405B030BD00BF000000003F
:10305000074A118830B481800024064D91884FF4CE
:10306000807285600460C180C26030BC704700BF60
:10307000BC3001080040003000220A2302700371B6
:10308000704700BFDFED167A8C46B4EE670A10B5C4
:1030900004468646F1EE10FA2DED028B80ED080A0B
:1030A00048BFB0EE670AC0ED090AB0EE608A80F84A
:1030B0003420BCE80F00AEE80F009CE80F008EE85B
:1030C0000F000FF011FAF0EE407AB0EE480AC4EDAE
:1030D0000A7A0FF009FA84ED0B0ABDEC028B10BDE1
:1030E00095BFD63390F8343010B50446032B4BD837
:1030F000DFE803F03B2A1502FFF72AFF60EE006AC3
:10310000D4ED087A94ED097A26EE800A37EE677AD4
:10311000E0EE077AC4ED0C7AB0EE670A10BDFFF757
:1031200017FF94ED0A7AD4ED0B7A77EEC77AA0EE0A
:10313000277AB0EE470A0FF065F9F0EE407A84ED99
:103140000C0AB0EE670A10BDFFF702FFD4ED087A53
:1031500094ED097A20EE000A37EE677AE0EE077AFE
:10316000B0EE670AC4ED0C7A10BDFFF7F1FED4EDA6
:10317000087A94ED097A37EE677AE0EE077AB0EED6
:10318000670AC4ED0C7A10BDD0ED0C7AC4E700BF1D
:1031900030B585B004469FED110A9DF82050ADF87A
:1031A0000C100399ADF808202A46ADF804308DEDD7
:1031B000000A0EF019FB9DED000A2A46029904F15F
:1031C0001C000EF011FB9DED000A2A46019904F146
:1031D000380005B0BDE830400EF006BB00007A4470
:1031E00010B52DED028BF0EE608A0446B0EE418AF8
:1031F0000EF01EFB04F11C00B0EE680A0EF018FB86
:10320000B0EE480A04F13800BDEC028BBDE8104076
:103210000EF00EBB38B50C46054691ED000A0EF0D7
:1032200007FB94ED010A05F11C000EF001FB94ED83
:10323000020A05F13800BDE838400EF0F9BA00BFC7
:1032400010B504460EF006FB04F11C000EF002FB64
:1032500004F13800BDE810400EF0FCBA70B5044629
:1032600082B0C1F30726CDB2ADF8041003F0CEFC56
:103270004FF480724FF001232060A01DA571A28041
:10328000E671A36002B0BDE8704000F037BC00BF3B
:1032900000B583B04FF0000E4FF0030C4274ADF850
:1032A0000410BDF8043080F810E0A0F802C00380DC
:1032B00003B05DF804FB00BF2DE9F04FDFF81C837D
:1032C00000258DB0C04C037008F1400342600746F2
:1032D00001920E46202229464046C4F86831C4F8BF
:1032E0006481CDE90255CDE90455CDE90655CDE916
:1032F0000855CDE90A550FF0AFFA2022294604F50A
:10330000A170C4F83151C4F83551C4F83951C4F82A
:103310003D510FF0A1FA019B84F8485284F83031F6
:103320007A68002A6AD02B4604F59871454606F162
:10333000100A9E46F01856F803B0E2180EF1010E7E
:10334000D0F80CC0D0F80490D0F8088044F803B04E
:10335000C2F80CC04FF0000CC2F80490C2F808800C
:10336000008A25F802CB10821AF8032001F8012FF9
:10337000002A70D07A684FF001001233724584F849
:103380004802D7D84FF4802290489DF80430082195
:103390004FF000084FF00009C4F884310023C4E95D
:1033A0005B020122C4F8743184F88031C4E95E21E3
:1033B00094F84812C4E96489A9B3C4F8982100229A
:1033C00084F8813184F888313B78C4E96722002B86
:1033D00038D0012200200121013B84F8A421C4E956
:1033E0006C01082B30D8DFE813F0BD00C200C70025
:1033F000CC00D100D600DB00E100E8009DF80430ED
:103400000121C4F87421C4F884314FF4802384F876
:1034100080216E4AC4E95B2308230022C4E95E13BD
:103420000023C4E964230123002284F881310023AE
:1034300084F888310323C4F898313B78C4E96722C3
:10344000002BC6D184F8A431614804F06BFC03461C
:1034500038B1FFBEFEE77A68123372453FF66AAFB5
:1034600090E702A95A48029304F0BAFD8246002868
:1034700076D1042240F2FF710A90CDE9081294F847
:103480003021002A00F0F3804FF006080AEBCA034F
:103490004FEACA0904EB43035B7C072B07D8DFE83C
:1034A00003F0595C5653504D4A04072307930FFA13
:1034B0008AF6D14406EBC60604EB490904EB46073D
:1034C0007500384600F01AFB99F81030042B00F311
:1034D000AA80022B00F3BD8000F0B98004EB0A0340
:1034E000002283F8202114F81630002B78D0022B0C
:1034F00000F08A80012B40F0B2807B78012B00F035
:10350000B080002B334B18BF002305A93048CDE90C
:10351000053804F033F8002840F0AC800AF1010AC5
:1035200094F830315FFA8AFA534540F2A0802A4B72
:1035300053F82A80AAE706230793B8E705230793E1
:10354000B5E704230793B2E703230793AFE702230A
:103550000793ACE700230793A9E701230793A6E7A6
:10356000FFBEFEE703224023C4E96A236CE707227B
:103570006023C4E96A2367E70F228023C4E96A2332
:1035800062E71F22A023C4E96A235DE73F22C0232C
:10359000C4E96A2358E77F22E023C4E96A2353E79A
:1035A000FF224FF48073C4E96A234DE740F2FF1213
:1035B0004FF49073C4E96A2346E740F2FF324FF4B8
:1035C000A073C4E96A233FE7E09B00240020024087
:1035D0004C9D00240002B0259831010800410030C4
:1035E0007B78062B37D0072B3DD0022B4AD0032BFC
:1035F0004AD0002B4CD0012B48D0042B4AD0052BAD
:10360000254B18BF002380E77B78042B25D0052BA2
:103610002BD08BB3012B31D0022B31D0032B1F4B7E
:1036200018BF002371E70323043504EB0A0B4FF0A6
:10363000000925448BF82031284609F1010900F0E2
:103640005DFA9BF8203104354B45F5DC4BE701234F
:10365000EAE70223E8E7124B57E7124B55E700234E
:1036600053E7114B51E7114B4FE7114B4DE70DB0AD
:10367000BDE8F08FFFBEFEE70E4B46E70E4B44E77A
:103680000E4B42E70E4B40E70E4B3EE70E4B3CE73E
:103690000E4B3AE70E4B38E70000B84F002090364B
:1036A0000800900C1000C0102000F0148000501D85
:1036B000000180210004002A0008302E0010603232
:1036C0000040C03A0080F03E000052470000214315
:1036D0000000844B38B5094C40F2FF724FF00111E5
:1036E00004F5B675284604F029FC94F83021D4F886
:1036F00064112846BDE8384004F094B9E09B0024EA
:10370000034B0F29D3F8640198BF00EB41007047C9
:10371000E09B0024214B02689A4200D07047204A67
:1037200000232048D2F8D81030B51F4C41F02001BA
:1037300083B0C4F8D001092004F5E875C4E9750325
:103740004FF48060C2F8D810D2F8D8204FF400614E
:10375000C4E9773094F8480202F02002C4F8E4117A
:103760004FF40051984201922846C4F8E811C4E988
:103770007C33019B14BF00234FF48073C4F8EC31F9
:1037800004F054FE08B1FFBEFEE704F5B673C4F8BA
:10379000B851C4F8083203B030BD00BF0020024069
:1037A0000044025840000240E09B0024014805F01C
:1037B000B5B900BFB09D002402682DE9F84F4B4B0E
:1037C0009A4201D0BDE8F88F494D95F84832002B58
:1037D000F8D095F83031002B77D0002405F10C0992
:1037E00005F5A17605F59877A04613E003F00101F1
:1037F00017F811BCA9F1080000F05CFABBF1010F49
:1038000025D895F83031013409F112090236A2B2F7
:1038100093422BD917F8012F002AF4D0D5F8643140
:103820000021327833F81400D5F8683103EB041323
:1038300023F81200338801339BB233805FFA83FA96
:103840003A789A42D2D88A46A6F80080D0E7CAF3DE
:103850004001A9F1040000F02DFABBF1020FCAF3F8
:103860008001CED0484600F025FACAE7002395F83B
:103870004802204909229842C5F8D8314FF48060A7
:10388000C5F8D011C5F8D4214FF400614FF40052AF
:10389000C5F8DC3108BF4FF48073C5F8E821C5E9ED
:1038A000780100221448C5E97B32C5F8F42104F000
:1038B000BDFD08B1FFBEFEE795F83021D5F86411D3
:1038C0000E48BDE8F84F04F0ADB80A4909224FF49C
:1038D0008060C5F8D831C5E974124FF400614FF427
:1038E0000052C5E97730C5E97912DAE700200240D5
:1038F000E09B002440000240B09D00244C9D002429
:10390000704700BF10B592B0ADF804100180C9B285
:10391000149C0B29C460C0E901233FD090F801C07A
:10392000BCF10F0F3AD8022A3FD0032A02D0012A55
:1039300000D000220E92012B02D0022B18BF0023D0
:10394000022C0F932CD0032C2AD0012C28D000233A
:103950000A29109327D85C4A02EB812202610A29C6
:1039600014D8DFE801F0A39587796B5D4F413325CB
:103970000600564BD3F8E01041F48061C3F8E01024
:10398000D3F8E03003F480630C930C9B01230DA962
:10399000104603FA0CF30D9305F012FC12B010BDA3
:1039A0000A291094D7D90022D8E711220E92C2E733
:1039B000464BD3F8E01041F40071C3F8E010D3F89F
:1039C000E03003F400730B930B9BDFE73F4BD3F81E
:1039D000E01041F48071C3F8E010D3F8E03003F454
:1039E00080730A930A9BD1E7384BD3F8E01041F07B
:1039F0008001C3F8E010D3F8E03003F080030993AE
:103A0000099BC3E7314BD3F8E01041F04001C3F804
:103A1000E010D3F8E03003F040030893089BB5E7CB
:103A20002A4BD3F8E01041F02001C3F8E010D3F89E
:103A3000E03003F020030793079BA7E7234BD3F85D
:103A4000E01041F01001C3F8E010D3F8E03003F0CB
:103A500010030693069B99E71C4BD3F8E01041F046
:103A60000801C3F8E010D3F8E03003F00803059331
:103A7000059B8BE7154BD3F8E01041F00401C3F828
:103A8000E010D3F8E03003F004030493049B7DE7D7
:103A90000E4BD3F8E01041F00201C3F8E010D3F868
:103AA000E03003F002030393039B6FE7074BD3F867
:103AB000E01041F00101C3F8E010D3F8E03003F06A
:103AC00001030293029B61E7000002580044025880
:103AD00008B5012143780069994089B205F078FD65
:103AE000003818BF012008BD01230A46417800694B
:103AF00003FA01F189B205F071BD00BF8378022B92
:103B000030B504468FB037D0032B33D0012B31D0E2
:103B100000230A93E378012B2AD0022B28D000231C
:103B20000B93002320460C9303F0A2FB054620468E
:103B300003F0A6FB23780990082B13D8DFE803F0E5
:103B40001F3245586B7E91A40500594BD3F8E020F5
:103B500042F48072C3F8E020D3F8E03003F48073BD
:103B60000893089B09A9284605F02AFB0FB030BD31
:103B70000B93D6E70A93CDE711230A93CAE74C4B80
:103B800009A92846D3F8E02042F00102C3F8E0205A
:103B9000D3F8E03003F001030093009B05F010FB25
:103BA0000FB030BD424B09A92846D3F8E02042F0BF
:103BB0000202C3F8E020D3F8E03003F002030193DF
:103BC000019B05F0FDFA0FB030BD394B09A928461D
:103BD000D3F8E02042F00402C3F8E020D3F8E0304C
:103BE00003F004030293029B05F0EAFA0FB030BD24
:103BF0002F4B09A92846D3F8E02042F00802C3F869
:103C0000E020D3F8E03003F008030393039B05F0B2
:103C1000D7FA0FB030BD264B09A92846D3F8E020CB
:103C200042F01002C3F8E020D3F8E03003F01003B4
:103C30000493049B05F0C4FA0FB030BD1C4B09A9D6
:103C40002846D3F8E02042F02002C3F8E020D3F861
:103C5000E03003F020030593059B05F0B1FA0FB0A7
:103C600030BD134B09A92846D3F8E02042F04002AA
:103C7000C3F8E020D3F8E03003F040030693069B3E
:103C800005F09EFA0FB030BD094B09A92846D3F8BC
:103C9000E02042F08002C3F8E020D3F8E03003F0E7
:103CA00080030793079B05F08BFA0FB030BD00BF70
:103CB0000044025870B506460D4603F0D9FA044692
:103CC000304603F0DDFA2A1E0146204618BF0122C5
:103CD000BDE8704005F082BC0023122270B586B0AA
:103CE000CDE9022304930368032B01D80423059331
:103CF000061D841D304603F0BBFA0546304603F02E
:103D0000BFFA034601A92846019305F059FA204657
:103D100003F0AEFA034620461C4603F0B1FA01A9AF
:103D200003462046019305F04BFA06B070BD00BF74
:103D3000634A0368934210B58CB028D0614A93421D
:103D400058D0614A934200F09480604A934201D077
:103D50000CB010BD5E4C5F48D4F8E03043F0020375
:103D6000C4F8E030D4F8E03003F002030A930A9B71
:103D7000FFF7B2FFD4F8F43043F08003C4F8F43016
:103D8000D4F8F43003F080030B930B9BE0E7504C26
:103D90005148D4F8E03043F00203C4F8E030D4F8DE
:103DA000E03003F002030193019BFFF795FFD4F885
:103DB000E83000221F2043F400131146C4F8E83015
:103DC000D4F8E83003F400130293029BD4F8D830FF
:103DD00043F00103C4F8D830D4F8D83003F001031D
:103DE0000393039B04F070F91F200CB0BDE8104052
:103DF00004F0A8B9364C3948D4F8E03043F08003D9
:103E0000C4F8E030D4F8E03003F080030493049B5E
:103E1000D4F8E03043F00203C4F8E030D4F8E030E6
:103E200003F002030593059BFFF756FFD4F8E83033
:103E30000022212043F480031146C4F8E830D4F86E
:103E4000E83003F480030693069BD4F8D83043F09F
:103E50000103C4F8D830D4F8D83003F00103079335
:103E6000079B04F031F921200CB0BDE8104004F0AC
:103E700069B91B48FFF730FF154B00224820D3F8E3
:103E8000E840114644F40004C3F8E840D3F8E840A1
:103E900004F400040894089CD3F8D84044F00104CA
:103EA000C3F8D840D3F8D83003F001030993099B35
:103EB00004F00AF948200CB0BDE8104004F042B903
:103EC0000054004000580040005C0040001C0058B6
:103ED00000440258B8A00024309E0024089F00240B
:103EE000E09F00242DE9F0431A4B87B000254FF0E6
:103EF00010099E46EC46184BFF22E04667461A70B2
:103F00000EF118060EF13004CDE90055CDE9025549
:103F1000ADF80090BCE80F00CDE90455AEE80F0005
:103F20009CE803000095ADF800908EE80300B8E827
:103F30000F000FC69CE803000095ADF8009086E8DE
:103F400003000FCF0FC49CE8030084E8030007B010
:103F5000BDE8F083040000242C9E002410B5EFF38C
:103F6000108472B6084B1A78120602D504B962B6EC
:103F700010BD1B78D82205485BB202FB0300143049
:103F800004F0CCFDF2E700BF2C9E0024309E0024FC
:103F9000014806F0BBB900BFBC9E0024014806F0F2
:103FA000B5B900BF949F0024014806F0AFB900BF27
:103FB0006CA000242DE9F0430F68D8243F4D85B054
:103FC00007FB04F4032F05EB0403036040DCCB681C
:103FD0000E46012B3CD84DD04FF0D808B646DFF83E
:103FE000FC9008FB0758BEE80F00C446ACE80F0081
:103FF000DEF800300DF1100ECCF80030D8F808C013
:1040000099E80F000EE90F000EEB8703BCF1010FDA
:1040100053F8103CC8F88C3031D0BCF1020F42D0BC
:10402000BCF1000F35D0317C8C34D8230022012024
:104030002C4403FB07534900C3E92602C3F894103C
:104040002046C3E92822C3E92A2205F051FF18B10E
:10405000012005B0BDE8F0830146204606F062F974
:104060000028F5D10146204606F086F9003818BF31
:104070000120EEE70B7C103B672BADD9E8E702F09F
:1040800061FF0F4B98420CBF0E4B0F4BC8F890309E
:10409000C9E702F057FF0A4B98420CBF0B4B0C4B81
:1040A000C8F89030BFE702F04DFF054B98420CBFB7
:1040B000084B094BC8F89030B5E700BF309E00248C
:1040C000000E27072D0FB0303211D0205F439060D3
:1040D0008A62E030200BA0101A098010C430010859
:1040E0002DE9F041D0F8008082B00D4617461E46FB
:1040F00008F18C04204606F011F92028FAD1D8F8EE
:104100000C3073B96D002046089C33463A46A9B27C
:10411000009405F043FF003818BF012002B0BDE84D
:10412000F081089B32463946204606F00BF8F2E74C
:10413000044B10221A7483F8E82083F8C02183F816
:1041400098227047309E002430B5002395B04FF47C
:104150008071062204460B9306921393CDE90C134B
:10416000CDE90E33CDE9113302F0EEFE07282BD056
:1041700004F1100541F2883206A9284606F00EFF28
:1041800028B10123184684F85C3015B030BD0222F6
:10419000022306A92846CDE9002310220123CDE9F8
:1041A000022300224FF48003CDE9042305224FF0BF
:1041B000807306926A460F9341F2883307F05AF8EB
:1041C0000028DED115B030BD0323012084F85C3017
:1041D00015B030BD0000000070B50023A4B04FF052
:1041E00080724FF480750446ADF806300D93CDE92A
:1041F00010320122CDE90E53CDE91223CDE914335B
:10420000002943D0F02300F1100508AEADF80630C8
:10421000C02341F2883231462846089306F0BEFE9C
:1042200028B10123184684F85C3024B070BD41F2F7
:1042300088320DF10601284606F01AFF03460028D1
:10424000EFD105224FF480711E93284616924FF04D
:1042500080721B9321931F9202AA9FED1F7BCDE9D1
:104260001C13CDE922338DED027B9FED1D7B41F2C6
:10427000883316A98DED047B9FED1B7B8DED067BAE
:1042800006F0F8FF0028CCD124B070BD00F1100575
:1042900008AE612341F2883231462846089306F081
:1042A0007DFE0028BDD141F288320DF1060128467D
:1042B00006F05CFF0028B4D1BDF80630204623F09C
:1042C000780343F04003ADF80630FFF73DFF0028C8
:1042D0009ED0A6E7AFF300800000000001000000C0
:1042E000100000000100000000000000000040007D
:1042F0002DE9F04F00234FF4807501264FF08078B0
:1043000004462DED028BABB08DF80730139321934B
:10431000299314950E96CDF85C80CDE91533CDE93F
:104320001863CDE91A33CDE92253CDE92433CDE921
:10433000273306231C9302F007FE072808D004F158
:10434000100741F288321CA9384606F027FE40B11A
:104350000123184684F85C302BB0BDEC028BBDE81D
:10436000F08F4FF0020A4FF0020B4FF0050941F2B7
:10437000883308AA1CA93846CDF89480CDF87090EF
:104380009FED2D8BCDE908AB4FF0000A4FF4800B69
:104390008DED0A8BCDE90CAB06F06CFF0028D7D170
:1043A00041F2883238460EA906F0F8FD0028CFD138
:1043B000402341F288320DF1070138468DF807306D
:1043C00006F056FE0028C3D141F288330EA902AA96
:1043D0003846CDF83890CDF85C809FED197B8DED97
:1043E000048BCDE906AB8DED027B06F043FF03465F
:1043F0000028ADD1CDF870904FF00109CDF8948030
:104400004FF00008219308AA29931CA93846229549
:10441000CDE92333CDE9273341F288338DED0A8B83
:10442000CDE90CABCDE9088906F024FF002893D034
:10443000304684F85C608FE7100000000100000047
:1044400040000000400000002DE9F043624CA3B0A2
:104450000D46046002F078FD072800F0A980286866
:1044600023466968AA6807C31E46AB8926F8043B41
:104470003046257B677B06F073FDE0B9574B012D75
:104480004FF00108E061236114BF4FF480134FF433
:104490000003C4E9058893FAA3F3B3FA83F34FF456
:1044A0008079013BC4F82490C4E90B0030462362B4
:1044B00006F0EAFC38B10122134684F85C20184665
:1044C00023B0BDE8F08366230B90139041F288324D
:1044D00006A90693CDE90C90CDE90E00CDE91100B7
:1044E000304606F05BFD0028E5D1992341F2883281
:1044F00006A93046069306F051FD0028DBD10523BE
:104500001C9019906A4614934FF08073219014A95F
:104510001D9341F288339FED2A7BCDE91A90CDE9B6
:104520001F008DED007B9FED287B30468DED027BDB
:104530009FED277B8DED047B06F09CFE0028BAD111
:1045400029462046FFF748FE0028B4D12046FFF751
:10455000CFFE03460028AED1002FB0D118933046CD
:104560000027002606AA14A9CDF86890CDE91F33CC
:10457000EB2314934FF440631B934FF400531793B2
:104580004FF440431C93A0231693062319934FF036
:10459000805321934FF04073CDE906671D9306F0D9
:1045A000E1FE034600288AD0434684F85C8086E713
:1045B00001230322184684F85C2023B0BDE8F08371
:1045C00000000000010000001000000001000000D9
:1045D000000000000000400090A1002400500052A4
:1045E0002DE9F04F8FB0414B0024026800AF9A4292
:1045F0007C63C7E90944C7E90B4403D03C37BD4697
:10460000BDE8F08F3A4B40F609213A48EB46D3F823
:10461000D42007F11C0607F1220A4FF0020942F4E8
:1046200080424FF00308C3F8D420D3F8D42002F41A
:104630008042BA60BA68D3F8E02042F04002C3F882
:10464000E020D3F8E02002F04002FA60FA68D3F8E4
:10465000E02042F02002C3F8E020D3F8E02002F08E
:1046600020023A613A69D3F8E02042F01002C3F820
:10467000E020D3F8E02002F010027A617A69D3F8E2
:10468000E02042F00202C3F8E020D3F8E030F86105
:1046900003F002033984BB61174B7B60BB697B6805
:1046A00053F8040F7B6002F0E3FD7B680546186851
:1046B00002F0E6FD16F8013B786207F12401284676
:1046C000C7F830807B63C7E90A9404F079FD56454A
:1046D000E5D100225C20114603F0F6FC5C2003F0DB
:1046E00031FD3C37DD46BD46BDE8F08F005000523D
:1046F000004402580A0A0909ECA10024114B02687F
:104700009A4200D07047104A70B5D2F8D4300F4C9E
:1047100023F4804304F11806C2F8D43054F8040F8F
:1047200002F0A6FD0546206802F0AAFD01462846D3
:1047300004F086FEB442F1D15C20BDE8704003F085
:104740000FBD00BF0050005200440258ECA10024ED
:10475000014806F093BE00BFA0A10024084B1A1D1B
:10476000981D03F1080110B49C1C9A6603F10A021B
:10477000C3E91834C3E91B015DF8044B5A6770475D
:1047800090A1002438B5036871B9026A00F12805C8
:1047900000F5AC74012A0CBF002140218BBB1D4BDE
:1047A0005722C0F858310DE0426A00F1C00500F50B
:1047B000E874012A0CBF00214021EBB1164B5A22AC
:1047C000C0F8D03100232046C4E901214FF48052C3
:1047D0004FF48061636262614FF48042C4E9033147
:1047E0004FF48073C4E906234FF40033236203F0CF
:1047F0001DFE58B1FFBEFEE7084B5822C0F8D0316D
:10480000E0E7074B5922C0F85831DBE7C5E92044FF
:10481000A56338BD1000024070000240280002402D
:10482000580002402DE9F043821D05468BB0031D60
:1048300005F10A010830CDE9052305F10C02AB6949
:10484000CDE907010992002B3DD0EB69B3FA83F85B
:104850004FEA58180123022205AE0AAF4FF00609AD
:104860000393CDE9012356F8044B2B792278934228
:1048700016D02B68F3B1012B02D1F2B10A230493B5
:10488000204602F0FDFC03462046009302F0F0FCB7
:10489000694604F095FCBE42E5D10BB0BDE8F0835B
:1048A000697963789942E4D1B8F1000FF3D02B68AD
:1048B000002BE0D1CDF81090E2E76378022B14BF13
:1048C0000A230823DBE74FF00108C3E7534A0368D4
:1048D000934230B505468BB055D02032934252D02A
:1048E0004F4A934204D02032934201D00BB030BDE6
:1048F0004C4C4D48D4F8E03043F00103C4F8E030AC
:10490000D4F8E03003F001030593059BD4F8E030C0
:1049100043F00803C4F8E030D4F8E03003F00803B3
:104920000693069BD4F8E03043F04003C4F8E0302F
:10493000D4F8E03003F040030793079BD4F8F0303D
:1049400043F40003C4F8F030D4F8F03003F400036B
:104950000893089BFFF766FFD4F8D830296843F026
:1049600001032F4A3048C4F8D830891AD4F8D83017
:1049700018BF012103F001030993099B0BB0BDE8A7
:104980003040FFF7FFBE274C2848D4F8E03043F012
:104990000103C4F8E030D4F8E03003F001030093E1
:1049A000009BD4F8E03043F01003C4F8E030D4F8B2
:1049B000E03003F010030193019BD4F8E03043F0A2
:1049C0004003C4F8E030D4F8E03003F04003029331
:1049D000029BD4F8F03043F48003C4F8F030D4F8EC
:1049E000F03003F480030393039BFFF71BFFD4F81D
:1049F000D830296843F00103084A0C48C4F8D8307D
:104A0000891AD4F8D83018BF012103F001030493A8
:104A1000049B0BB0BDE83040FFF7B4BE0458014022
:104A2000045C01400044025864A4002408A200244D
:104A3000014804F073B800BF60A30024014804F0EB
:104A40006DB800BFD8A30024014804F067B800BFC8
:104A5000BCA50024014804F061B800BF34A60024BE
:104A60002DE9F04F0C684FF41776754F87B004FBB3
:104A700006F6012C07EB060AC0F800A000F3A080A0
:104A80000D468E464FF00008D44669A3D3E90023B3
:104A900069A1D1E90001CDE9022306ABCAF8508231
:104AA00003EB8403CDE9040153F810BC53F8083C30
:104AB000CAE992880193BEE80F00ACE80F00BEE897
:104AC0000F00ACE80F00019B9EE80300CAF828B075
:104AD000CAF8C0308CE803002B69042B0CD8DFE83F
:104AE00003F0737D879103004FF41773554A03FB5E
:104AF00004739A64C3F8E020AA692B6A002A43D0A1
:104B0000002B4FF4177308BF022203FB047318BF76
:104B10000322DA6201221A63EA696B6A002A40D131
:104B2000191E4FF4177318BF012103FB0473C3E967
:104B300031126B69022B05D8434A12F80380434AAD
:104B400052F823904FF4177306F128004246494665
:104B500003FB04740023384463646363E365C4F8AF
:104B6000DC30C4F8CC30C4F8F430C4E90F33C4E905
:104B70001533C4E93533C4E93B33022308F020FD83
:104B8000002849D0FFBEFEE7191E4FF4177318BF67
:104B9000012103FB0473C3E90B12EA696B6A002A63
:104BA000BED0002B4FF4177308BF022203FB04731F
:104BB00018BF0322C3F8C4200122C3F8C820B8E7F5
:104BC000012007B0BDE8F08F4FF417734FF4FA528D
:104BD00003FB04739A64C3F8E0208DE74FF4177366
:104BE0004FF47A5203FB04739A64C3F8E02083E71E
:104BF0004FF417734FF4FA4203FB04739A64C3F83B
:104C0000E02079E74FF417734BF6803203FB04730F
:104C10009A64C3F8E0206FE706F1C0000223424621
:104C20004946384408F0CCFC0028CAD0FFBEFEE755
:104C300004580140045C014024580140245C0140B8
:104C400008A2002400770100D8310108DC310108F6
:104C50000068704703681B69042B05D8044A02EBFF
:104C6000830393ED000A70479FED020A704700BF6F
:104C7000E831010800803B4770B5002304464FF43B
:104C8000806204214FF440353448C4F83821C4F818
:104C9000D410C4F83431C4F84C113149C4F8B00010
:104CA000C4F82811C4E92F32C4E93133C4E93335DB
:104CB000C4E93733C4E94F33C4E95135C4E9553346
:104CC000A2680323C4F8D830C4F85031042A0AD8A3
:104CD000DFE802F01F262D34030055225623C4F8C6
:104CE000B420C4F82C310022402304F1B005C4F8EC
:104CF000B8202846C4F8303103F098FB08B1FFBE55
:104D0000FEE704F59476304603F090FBE8B1FFBE71
:104D1000FEE725222623C4F8B420C4F82C31E2E7AC
:104D200027222823C4F8B420C4F82C31DBE73D2225
:104D30003E23C4F8B420C4F82C31D4E753225423C2
:104D4000C4F8B420C4F82C31CDE704F12803C4E939
:104D50002865C4F8E830C4F8603170BD40040240F2
:104D6000580402402DE9F04F814683B00E461746A5
:104D70001D4600F12804204609F05EFC0128824609
:104D8000F9D14846FFF778FF8046002835D1EFF388
:104D90001083019372B6DFF888B00C9B99F9082054
:104DA000DFF880A0DFF88090CBF800300D9B89F809
:104DB0000020CAF800300DB11846A847BAB23146F3
:104DC000204608F0AFFF30B9019B03B962B64046F8
:104DD00003B0BDE8F08F0023CBF80030CAF80030F4
:104DE000FF2389F800300C9B8BB101210D98884678
:104DF0009847019B002BEAD1E8E70C9B53B1D046C2
:104E00000D9851469847404603B0BDE8F08F4FF0EB
:104E10000108D9E7D046404603B0BDE8F08F00BF97
:104E2000E0B00024E8B00024E4B000242DE9F04F05
:104E3000814683B00E4617461D4600F128042046E1
:104E400009F0FAFB01288246F9D14846FFF714FF22
:104E50008046002835D1EFF31083019372B6DFF856
:104E600088B00C9B99F90820DFF880A0DFF88090CB
:104E7000CBF800300D9B89F80020CAF800300DB146
:104E80001846A847BAB23146204609F00FF930B9A2
:104E9000019B03B962B6404603B0BDE8F08F002322
:104EA000CBF80030CAF80030FF2389F800300C9BA3
:104EB0008BB101210D9888469847019B002BEAD1C0
:104EC000E8E70C9B53B1D0460D98514698474046B1
:104ED00003B0BDE8F08F4FF00108D9E7D046404657
:104EE00003B0BDE8F08F00BFE0B00024E8B00024BC
:104EF000E4B000242DE9F04F814683B00F461646FA
:104F0000984600F12804204609F096FB0128FAD1C2
:104F100082464846FFF7B0FE0546002838D1EFF339
:104F20001083019372B699F90830DFF88890DFF8A2
:104F300088B089F800300D9BDFF880A0CBF80030F6
:104F40000E9BCAF800300C9B0BB10E9898471FFAC5
:104F500088F33A463146204608F09CFF30B9019B61
:104F600003B962B6284603B0BDE8F08F0023CBF842
:104F70000030CAF80030FF2389F800300D9B8BB158
:104F800001210E980D469847019B002BEAD1E8E7D6
:104F90000D9B4BB155460E9851469847284603B095
:104FA000BDE8F08F0125DAE75546284603B0BDE895
:104FB000F08F00BFE4B00024E0B00024E8B000248B
:104FC0002DE9F043002387B00222044605690493CB
:104FD000CDE90223D0E902128E00FAB1022D7AD077
:104FE0002178B5FA85F54FF00108276A0B294FEAB9
:104FF000551521D1A2780B2A02D0B8F1000F38D173
:1050000023790B2B01D0002D6CD1A37917B10B2B79
:1050100040F09980002007B0BDE8F08335F002032E
:105020002178276A0CBF4FF001084FF00008023DBD
:1050300018BF01250B29DDD07D4B94F801C053F832
:10504000262010780B2802D0884200F0AD80D3785B
:10505000D01C994202D10B2B40F0BD809379901D5A
:105060008B4202D10B2B40F0BC80012007B0BDE881
:10507000F083711C6E4BE07853F8213019780B29BE
:1050800002D08A4200F0B580D97803F1030C0B29D5
:1050900002D08A4200F0BB80997903F1060C0B29FB
:1050A000E3D08A42E1D1DB798342DED1634604F169
:1050B00002099B784846059302F0DAF88046484694
:1050C00002F0DEF801A90190404604F079F8237956
:1050D0000B2B98D199E70178076A0B2940F086805D
:1050E00001258DE7B11C524A607952F821201178D0
:1050F0000B2902D08B4200F08180D178D51C0B297E
:1051000002D08B4200F08D809179951D8B42ACD1FD
:105110000B29AAD0D3798342A7D12A46251D93789B
:105120002846059302F0A4F8034628461D4602F0DF
:10513000A7F801A90190284604F042F8A379002FAE
:105140007FF465AF66E7F11C394AE07952F8212017
:1051500011780B2901D08B425FD0D178D51C0B2957
:1051600001D08B424FD09179951D8B427FF47DAF5A
:105170000B293FF47AAFD37983427FF476AF2A4686
:10518000A51D93782846059302F072F80446284638
:1051900002F076F8034601A92046019304F010F8C6
:1051A000002007B0BDE8F083537863457FF44FAF2C
:1051B00093782046059302F05BF88146204602F082
:1051C0005FF801A90190484603F0FAFFA2780B2A84
:1051D0007FF413AF14E7137963457FF43FAF0246C2
:1051E000E6E7D37963457FF440AFF8E798460125B9
:1051F00022E7597881427FF447AF58E751788142DE
:105200007FF47BAF8AE711798142ACD1B7E7197996
:1052100081427FF441AF634649E7517881429CD196
:10522000AEE7117981427FF46FAF2A4676E700BF7F
:1052300024320108654A0368934200F0B980A2F560
:105240007842934200F0B68002F58062934200F00B
:10525000B38002F57842934200F0B08002F5E0524C
:10526000934200F0AD805A4A934240F0AB80052350
:105270004FF4D071574A01FB03F310B5D418D05C3A
:1052800086B002F005F8A07802F002F8207901F06B
:10529000FFFFA07901F0FCFFA368052B11D8DFE820
:1052A00003F0192F455B71034B4BD3F8F42042F008
:1052B0002002C3F8F420D3F8F43003F02003059360
:1052C000059B2046FFF77CFE012801D006B010BDEB
:1052D000FFBEFEE7404B00222320D3F8F01041F43C
:1052E0008051C3F8F0101146D3F8F03003F4805326
:1052F0000093009B02F0E8FE232002F023FFE0E78A
:10530000354B00222420D3F8E81041F48041C3F843
:10531000E8101146D3F8E83003F480430193019B71
:1053200002F0D2FE242002F00DFFCAE72A4B002231
:105330003320D3F8E81041F40041C3F8E8101146D7
:10534000D3F8E83003F400430293029B02F0BCFE62
:10535000332002F0F7FEB4E71F4B00225420D3F8AD
:10536000F01041F40051C3F8F0101146D3F8F030BA
:1053700003F400530393039B02F0A6FE542002F0B3
:10538000E1FE9EE7144B00225520D3F8F01041F4C3
:105390008011C3F8F0101146D3F8F03003F48013F5
:1053A0000493049B02F090FE552002F0CBFE88E7A8
:1053B00000235DE701235BE7022359E7032357E757
:1053C000042355E700231B78FFDE00BF00300140B7
:1053D00000140058C0A60024004402582DE9F043F0
:1053E000002289B01B4B01210DF1040C9E461A4B83
:1053F0000791E146E04667460EF11C060EF13805BE
:105400000EF15404CDE90122CDE90322CDE90522B4
:10541000FF221A70BCE80F00AEE80F009CE80700FE
:105420008EE80700B9E80F000FC69CE8070086E881
:105430000700B8E80F000FC59CE8070085E80700E3
:105440000FCF0FC49CE8070084E8070009B0BDE84F
:10545000F08300BF0C010024E4B00024014808F0F0
:10546000BFBF00BFE8A60024014808F0B9BF00BFD5
:1054700088A80024014808F0B3BF00BF28AA002470
:10548000014808F0ADBF00BFC8AB0024014808F0D8
:10549000A7BF00BF68AD002410B5EFF3108472B64B
:1054A000084B1A78120602D504B962B610BD1B78F3
:1054B0004FF4D07204485BB202FB0300B03003F03B
:1054C0002DFBF1E7E4B00024C0A6002410B5EFF3F3
:1054D000108472B6094B1A78120602D504B962B666
:1054E00010BD1B784FF4D07205485BB202FB03007D
:1054F00000F5947003F012FBF0E700BFE4B0002465
:10550000C0A600242DE9F04184B0EFF3108772B6F5
:10551000284AFF21284C1368217023B10021116013
:10552000264A1068984723781B061CD5DFF894801C
:105530000025234E4446216879B162686AB1A369A7
:10554000012B22D0A3B963693046019323690093EC
:10555000E3682289FFF76AFC18B301351C3406F5AD
:10556000D076042DE7D107B962B604B0BDE8F0816A
:10557000D4E90430CDE90130E06823890090304659
:10558000FFF7B8FC0028E8D10BE0D4E9043011465D
:10559000CDE900303046E3682289FFF7E3FB0028BD
:1055A000DBD1C5EBC50508EB850348F8250058603D
:1055B000D9E700BFE0B00024E4B00024E8B0002444
:1055C000C0A600240C0100242DE9F04184B0EFF3C3
:1055D000108772B6284AFF21284C1368217023B126
:1055E00000211160264A1068984723781B061CD5B5
:1055F000DFF894800025234E4446216879B1626823
:105600006AB1A369012B22D0A3B963693046019323
:1056100023690093E3682289FFF708FC18B301357A
:105620001C3406F5D076042DE7D107B962B604B074
:10563000BDE8F081D4E90430CDE90130E068238988
:1056400000903046FFF756FC0028E8D10BE0D4E983
:1056500004301146CDE900303046E3682289FFF777
:1056600081FB0028DBD1C5EBC50508EB850348F8B5
:1056700025005860D9E700BFE0B00024E4B0002462
:10568000E8B00024C0A600240C0100242DE9F0415C
:1056900084B0EFF3108772B6284AFF21284C1368B4
:1056A000217023B100211160264A106898472378A1
:1056B0001B061CD5DFF894800025234E4446216844
:1056C00079B162686AB1A369012B22D0A3B9636979
:1056D0003046019323690093E3682289FFF7A6FB14
:1056E00018B301351C3406F5D076042DE7D107B97F
:1056F00062B604B0BDE8F081D4E90430CDE90130F0
:10570000E068238900903046FFF7F4FB0028E8D1D9
:105710000BE0D4E904301146CDE900303046E368AF
:105720002289FFF71FFB0028DBD1C5EBC50508EB7D
:10573000850348F825005860D9E700BFE0B0002491
:10574000E4B00024E8B00024C0A600240C0100242A
:105750002DE9F04184B0EFF3108772B608F0AAF893
:10576000284A294CFF21136821702BB100211160B8
:105770000121264A1068984723781B061CD5DFF8BC
:1057800094800025224E4446216879B162686AB14E
:10579000A369012B22D0A3B9636930460193236921
:1057A0000093E3682289FFF741FB18B301351C34ED
:1057B00006F5D076042DE7D107B962B604B0BDE88E
:1057C000F081D4E90430CDE90130E068238900900C
:1057D0003046FFF78FFB0028E8D10BE0D4E9043016
:1057E0001146CDE900303046E3682289FFF7BAFA66
:1057F0000028DBD1C5EBC50508EB850348F825007B
:105800005860D9E7E0B00024E4B00024E8B00024F8
:10581000C0A600240C0100242DE9F0418F684FF44C
:10582000D0743E4E8C4607FB04F4052F06EB0405AE
:105830000560AE46BCE80F00AEE80F00BCE80F0004
:10584000AEE80F009CE803008EE8030004D8EB6884
:10585000002B60D0012B02D00120BDE8F081002197
:105860004FF4D07303FB07631A69032AF4D8D3F803
:1058700014C0ACF104001C28EED89B691BB1012BAD
:10588000EAD14FF000734FF4D07000FB0760C0699D
:1058900018B10128E0D14FF080704FF4D07505FBAE
:1058A0000765D5F820E0BEF1020FD5D8D5F82480E1
:1058B000B8F1070FD0D85204E962C5E90E300CF1F7
:1058C000FF332A6304F128006B634FEA0873304406
:1058D0006B640023C5E91233C5E91433C5E91833F5
:1058E000C5E91A33C5E91C33AB67C5F880300C4BEA
:1058F00053F82E200B4B2A644FF0804253F8273088
:10590000EA65AB624FF00043EB6707F0D3FF002876
:10591000A3D0FFBEFEE74FF48001A1E7C0A600249C
:1059200014320108FC310108006892B208B5283031
:1059300008F06EF8003818BF012008BD30B4544B91
:10594000002108220220534CD9615862C3F8BC11CF
:10595000C3F8C401C3F85C13C3F86403C3F8F424A8
:10596000C3F8F814C3F8FC14C3F80405C3F894266C
:10597000C3F89816C3F89C16C3F8A406C3F83428D5
:10598000C3F83818C3F83C18C3F84408424D4348DC
:10599000C3E90521C3E96D21C3E9D5212288A37894
:1059A0003F49EA80CA800B723E492B72CA800B7253
:1059B0002168A0F803204371C28003723A4C3B482F
:1059C000E2802372A0F80320394C4371C280037235
:1059D0003848E2802372A0F80320374C4371C2801C
:1059E0000372080C2180A070A4F803206371E28088
:1059F0002372324C324D2180A070A4F803206371D1
:105A0000E28023722F4CEA8021802B72A070A4F8D0
:105A100003206371E28023722B4C2180A070A4F8D4
:105A200003206371E2802372284C2180A070A4F8C7
:105A300003206371E2802372254C2180A070A4F8BA
:105A400003206371E2802372224C2180A070A4F8AD
:105A500003206371E28023721F4C21801F49A070D4
:105A6000A4F803201E486371E2802372A1F803208A
:105A70001C4C4B71CA800B721B49E2802372C2809E
:105A80000372A1F803204B71CA800B7230BC7047BF
:105A9000C0A600242032010894000024B80000248D
:105AA000880000244C000024A0000024DC00002416
:105AB000C400002464000024B0B0002498B0002486
:105AC000D0000024A4B0002480B00024D4B000246E
:105AD000BCB00024C8B000248CB000240001002415
